:020000040000FA
:06000000ADEF3BF0120021
:080008009EA402D056EF30F077
:0A0010009EAC02D04AEF34F012005B
:06003A000300A77700009F
:100040008B05000006000000A3770000910500006A
:10005000040000009277000070050000110000000D
:10006000D9CFE6FFDACFE6FFE1CFD9FFE2CFDAFF63
:10007000E652E652E652360EE66EE66AD3EC37F00A
:10008000E552E552F3CFDEFFF4CFDDFFD9CFE9FF34
:10009000DACFEAFFEE50ED102FE0F80EDBCFE6FFEF
:1000A000F90EDBCFE6FFD3EC37F0E552E552F3CFA4
:1000B00010F0F4CF11F0DECFE9FFDDCFEAFF170E2D
:1000C000E926000EEA22F3CFEEFF11C0EDFFDECFEE
:1000D000E9FFDDCFEAFF170EE926000EEA22EE5017
:1000E000ED100AE1DECFE6FFDDCFE6FF35EC38F0BC
:1000F000E552E552DE6ADD6AD9CFE9FFDACFEAFFE1
:10010000EE50ED1048E0000EE66EE66ADECFE6FF48
:10011000DDCFE6FFF30EDBCFE6FFF40EDBCFE6FF2D
:10012000F50EDBCFE6FFF60EDBCFE6FFF70EDBCFFB
:10013000E6FFF80EDBCF10F0F90EDBCF11F0126AFC
:10014000136A10C0E6FF11C0E6FF12C0E6FF13C03D
:10015000E6FFFA0EDBCFE6FFFB0EDBCFE6FFFC0E81
:10016000DBCFE6FFFD0EDBCFE6FF21D8146E110ECC
:10017000E15C02E2E16AE552E16E1450DECFE6FF97
:10018000DDCFE6FFE2D9E552E552010EF36E020E35
:10019000F3CFDBFF02D0020EDB68DB50E552E55205
:1001A000E552E552E5CFDAFFE7CFD9FF1200D9CF0C
:1001B000E6FFDACFE6FFE1CFD9FFE2CFDAFFE65282
:1001C000E652E652EF0EDBCFE9FFF00EDBCFEAFF9F
:1001D000170EE926000EEA22EECFDEFFEDCFDDFF9F
:1001E000F60EDBCF12F0F70EDBCF13F0F80EDBCFFD
:1001F00014F0F90EDBCF15F01206000E135A145A44
:10020000155AEF0EDBCFE9FFF00EDBCFEAFF170E3A
:10021000E926000EEA221250EE24106E1350EE2052
:10022000116EEF0EDBCFE9FFF00EDBCFEAFF230EFE
:10023000E926000EEA2210C0EEFF11C0EDFFD950F2
:10024000FA0FE96EFF0EDA20EA6EEE50ED1050E084
:10025000020EDB6A0A0EF36E020EDBCFF4FFF350E0
:10026000F45C3AE2020EDB50E76EFA0EDBCFE9FFF8
:10027000FB0EDBCFEAFFE750E926000EEA22EF5043
:10028000E66EEF0EDBCFE9FFF00EDBCFEAFF190ED3
:10029000E926000EEA22E9CF10F0EACF11F0020EB3
:1002A000DB500F01E924E96E000EEA20EA6EE55208
:1002B000E750EF6E020EDB50E76EFA0EDBCFE9FF80
:1002C000FB0EDBCFEAFFE750E926000EEA22EF50F3
:1002D00003E0020EDB2ABED7EF0EDBCFE9FFF00E04
:1002E000DBCFEAFF190EE926000EEA22090E07D03D
:1002F000EF0EDBCFE9FFF00EDBCFEAFF190EE926A8
:10030000000EEA22EF6A030EF36EF30EDBCFF4FF6A
:10031000F350F45C05E3020EF36EF30EF3CFDBFF54
:10032000EF0EDBCFE9FFF00EDBCFEAFF160EE9267A
:10033000000EEA22F30EDBCFEFFFEF0EDBCFE9FF7B
:10034000F00EDBCFEAFF250EE926000EEA22F30EBF
:10035000DBCFEFFFEF0EDBCFE9FFF00EDBCFEAFFE5
:10036000260EE926000EEA22EF6AEF0EDBCFE9FF48
:10037000F00EDBCFEAFF020EE926000EEA22E9CFFB
:1003800010F0EACF11F0E9CFE6FFEACFE6FF1FEC6D
:1003900035F0E552E552EF0EDBCFE9FFF00EDBCF93
:1003A000EAFF0C0EE926000EEA22E9CF10F0EACFB0
:1003B00011F0E9CFE6FFEACFE6FF1FEC35F0E5529A
:1003C000E552EF0EDBCFE9FFF00EDBCFEAFF020EC6
:1003D000E926000EEA22060EE926000EEA22EF0EBA
:1003E000DBCFEEFFF00EDBCFEDFFF30EDB50106E38
:1003F000116A030ED8801056000E1156EF0EDBCF97
:10040000E9FFF00EDBCFEAFF0C0EE926000EEA2230
:1004100010C0EEFF11C0EDFFEF0EDBCFE9FFF00ED5
:10042000DBCFEAFF0C0EE926000EEA22060EE926D3
:10043000000EEA22EF0EDBCFEEFFF00EDBCFEDFF7A
:10044000020EDB6A050EF36E020EDBCFF4FFF350F3
:10045000F45C1CE2EF0EDBCFE9FFF00EDBCFEAFF2E
:10046000270EE926000EEA22E9CF10F0EACF11F0BC
:10047000020EDB50020DE950F324E96EEA50F4203D
:10048000EA6EEE6AED6A020EDB2ADCD7EF0EDBCFF6
:10049000E9FFF00EDBCFEAFF310EE926000EEA227B
:1004A000EE6AEE6AEE6AEE6AEF0EDBCFE9FFF00E5F
:1004B000DBCFEAFF350EE926000EEA22EF6AF40EE2
:1004C000DBCFE6FFF50EDBCFE6FFFC0EDBCFE6FF72
:1004D000FD0EDBCFE6FFDECFE6FFDDCFE6FFD4EC9F
:1004E0002CF0126E060EE15C02E2E16AE552E16E6A
:1004F0001250F3CF10F0F4CF11F0EF0EDBCFE9FF85
:10050000F00EDBCFEAFFF3CFEEFF11C0EDFFD950C5
:10051000F10FE96EFF0EDA20EA6EEE50ED100CE0FE
:10052000F10EDBCFE9FFF20EDBCFEAFFEF0EDBCF00
:10053000EEFFF00EDBCFEDFFE552E552E552E5525E
:10054000E5CFDAFFE7CFD9FF1200D9CFE6FFDACF48
:10055000E6FFE1CFD9FFE2CFDAFFF250E66EF29E7E
:100560000501732B0501705171110DE1FC0EDBCFFC
:1005700070F5FD0EDBCF71F50501730503E1F4ECB9
:1005800010F000D020D0050177511DE170C5E9FFC2
:1005900071C5EAFF160EEB50106EFC0EDBCFE9FFC3
:1005A000FD0EDBCFEAFF160EE926000EEA22EF5021
:1005B000D880105407E3FC0EDBCF70F5FD0EDBCFC7
:1005C00071F500D000D005017B2BFC0EDBCFE9FFDD
:1005D000FD0EDBCFEAFF160EE926000EEA22EFCF72
:1005E00010F005017651D88010540CE2FC0EDBCFE0
:1005F000E9FFFD0EDBCFEAFF160EE926000EEA2228
:10060000EFCF76F5FC0EDBCFE9FFFD0EDBCFEAFF87
:10061000020EE926000EEA22E9CF10F0EACF11F02F
:1006200010C0E6FF11C0E6FFFC0EDBCFE9FFFD0EB8
:10063000DBCFEAFF160EE926000EEA22EF50090D85
:10064000F3CF12F0F4CF13F0E00E1226040E1322B3
:1006500012C0E6FF13C0E6FF37EC35F0E552E55275
:10066000E552E552E552E7BEF28E0501775116E0FC
:1006700070C5E9FF71C5EAFF160EEB50106EFC0E57
:10068000DBCFE9FFFD0EDBCFEAFF160EE926000EF9
:10069000EA22EF50105C01E200D000D0E552E5CF35
:1006A000DAFFE7CFD9FF1200D9CFE6FFDACFE6FFB6
:1006B000E1CFD9FFE2CFDAFFE652E652F250E66E22
:1006C000F29ED950FC0FE96EFF0EDA20EA6EEE5072
:1006D000ED1005E170C510F071C511F006D0FC0EEB
:1006E000DBCF10F0FD0EDBCF11F010C0DEFF11C02C
:1006F000DDFFDECFE9FFDDCFEAFF020EE926000EC7
:10070000EA22E9CF10F0EACF11F010C0E6FF11C0E5
:10071000E6FF95EC36F0E552E552000901E100D024
:10072000DECFE9FFDDCFEAFF0C0EE926000EEA225C
:10073000080EE926000EEA22EE50ED1015E0DECF9D
:10074000E9FFDDCFEAFF0C0EE926000EEA22E9CF31
:1007500010F0EACF11F010C0E6FF11C0E6FF95ECF3
:1007600036F0E552E55200D005017B2BDECF10F0CC
:10077000DDCF11F005017051101802E1715111180F
:100780001DE1DECFE9FFDDCFEAFF020EE926000E14
:10079000EA22E9CF10F0EACF11F010C0E6FF11C055
:1007A000E6FF1A0EE66E050EE66E37EC35F0E55202
:1007B000E552E552E5520501722B0CD00501730795
:1007C000DECFE6FFDDCFE6FF95EC11F0E552E55216
:1007D000BFEC11F0E552E7BEF28E050177510EE055
:1007E000DECF10F0DDCF11F005017051101802E1DD
:1007F0007151111803E17CEC2FF000D0E552E55265
:10080000E552E5CFDAFFE7CFD9FF1200D9CFE6FFF7
:10081000DACFE6FFE1CFD9FFE2CFDAFF060EE1241F
:1008200002E3E168E652E16E030EDB6ADCEC09F0FC
:10083000040E74C5DBFF050E75C5DBFFFA0EDBCFBA
:1008400012F0FB0EDBCF13F0FC0EDBCFE9FFFD0E49
:10085000DBCFEAFF1250EE24106E1350EE2010C0D2
:10086000DEFFDD6E040EDBCF10F0050EDBCF11F0E6
:10087000FC0EDBCFE9FFFD0EDBCFEAFFEECF12F07F
:10088000EFCF13F01250105C1350115823E2DECF5B
:1008900010F0DDCF11F0FC0EDBCFE9FFFD0EDBCF5A
:1008A000EAFFEECF12F0EFCF13F01250105C1350AE
:1008B000115837E2DECF14F0DDCF15F0040EDBCF98
:1008C00016F0050EDBCF17F01450165C15501758B4
:1008D00028E222D0DECF10F0DDCF11F0FC0EDBCF0E
:1008E000E9FFFD0EDBCFEAFFEECF12F0EFCF13F002
:1008F0001250105C135011580FE3DECF14F0DDCF0F
:1009000015F0040EDBCF16F0050EDBCF17F01450F8
:10091000165C1550175805E2010EF36E030EF3CF67
:10092000DBFFFC0EDBCFE9FFFD0EDBCFEAFFDECF06
:10093000EEFFDDCFEDFF030EDB5015E0E66ADECF04
:1009400012F0DDCF13F0040EDB50125C106E050EBA
:10095000DB501358116E10C0E6FFE66E11EC1BF071
:10096000E552E552E552DFEC09F0E76E020EE7CF03
:10097000DBFFDB5002E17CEC2FF0060EE15C02E2D3
:10098000E16AE552E16EE552E5CFDAFFE7CFD9FF44
:100990001200D9CFE6FFDACFE6FFE1CFD9FFE2CFF1
:1009A000DAFFE652DF6AD950FC0FE96EFF0EDA205B
:1009B000EA6E000ED880EE54000EED5411E2DCEC2D
:1009C00009F0E66AFC0EDBCFE6FFFD0EDBCFE6FFAB
:1009D00011EC1BF0E552E552E552DFEC09F0DF6E59
:1009E000DF5002E17CEC2FF0E552E552E5CFDAFF73
:1009F000E7CFD9FF1200D9CFE6FFDACFE6FFE1CF8C
:100A0000D9FFE2CFDAFFE652E652E652F250E66E46
:100A1000F29ED950FC0FE96EFF0EDA20EA6EEE501E
:100A2000ED1005E170C510F071C511F006D0FC0E97
:100A3000DBCF10F0FD0EDBCF11F010C0DEFF11C0D8
:100A4000DDFFDECFE9FFDDCFEAFF160EE926000E5F
:100A5000EA22020EEFCFDBFFE552E7BEF28E020E76
:100A6000DB5000D0E552E552E552E552E5CFDAFF22
:100A7000E7CFD9FF1200D9CFE6FFDACFE6FFE1CF0B
:100A8000D9FFE2CFDAFFE652E652E652E652030E13
:100A9000DB6AD950FC0FE96EFF0EDA20EA6EEE50E9
:100AA000ED1005E170C510F071C511F006D0FC0E17
:100AB000DBCF10F0FD0EDBCF11F010C0DEFF11C058
:100AC000DDFFDECFE9FFDDCFEAFF160EE926000EDF
:100AD000EA22020EEFCFDBFFDB50106E040EE15C6A
:100AE00002E2E16AE552E16E1050E552E5CFDAFF2D
:100AF000E7CFD9FF1200D9CFE6FFDACFE6FFE1CF8B
:100B0000D9FFE2CFDAFFE652E652E652E652E6526B
:100B1000040EDB6A030EF36EFB0EDBCFF4FFF35023
:100B2000F45C06E3020EF36EFB0EF3CFDBFF00D0A6
:100B3000F250E66EF29ED950FC0FE96EFF0EDA20FD
:100B4000EA6EEE50ED1005E170C510F071C511F0C0
:100B500006D0FC0EDBCF10F0FD0EDBCF11F010C085
:100B6000DEFF11C0DDFFDECFE9FFDDCFEAFF250E9E
:100B7000E926000EEA22020EEFCFDBFFFB0EDB5070
:100B8000F36E020EDB50F35C01E124D1FB0EDBCFF0
:100B900010F0020EDB50D880105420E2DECF10F0AF
:100BA000DDCF11F005017051101802E171511118DB
:100BB00014E070C5E9FF71C5EAFF160EEB50F36E45
:100BC000FB0EDBCFF4FFF350F45C06E3010EF36E93
:100BD000040EF3CFDBFF00D000D011D0DECF10F039
:100BE000DDCF11F005017051101802E1715111189B
:100BF00006E1010EF36E040EF3CFDBFF00D0DECF73
:100C0000E9FFDDCFEAFF160EE926000EEA22030E09
:100C1000EFCFDBFFDECFE9FFDDCFEAFF250EE926D0
:100C2000000EEA22EFCF10F0DECFE9FFDDCFEAFFC2
:100C3000160EE926000EEA22EF50105C0CE1DECF22
:100C4000E9FFDDCFEAFF160EE926000EEA22FB0ED1
:100C5000DBCFEFFF00D0DECFE9FFDDCFEAFF250ECF
:100C6000E926000EEA22FB0EDBCFEFFFDECFE9FF25
:100C7000DDCFEAFF0C0EE926000EEA22EECF10F0DF
:100C8000EFCF11F0000E1016800E1116126A136AC3
:100C9000105011101210131016E1FB0EDB50106EE5
:100CA000116A030ED8801056000E1156DECFE9FFF0
:100CB000DDCFEAFF0C0EE926000EEA2210C0EEFF9F
:100CC00011C0EDFF00D0DECFE9FFDDCFEAFF020E5D
:100CD000E926000EEA22080EE926000EEA22EECFEF
:100CE00010F0EFCF11F0030EDB50090DF3CF12F02F
:100CF000F4CF13F0E00E1226040E13221250101837
:100D000002E11350111802E1010E01D0000E00099A
:100D10005DE0DECFE9FFDDCFEAFF020EE926000E3F
:100D2000EA22E9CF10F0EACF11F010C0E6FF11C0BF
:100D3000E6FF95EC36F0E552E552000901E100D0FE
:100D4000DECFE9FFDDCFEAFF160EE926000EEA222C
:100D5000EFCF10F005017651D88010540AE2DECFB3
:100D6000E9FFDDCFEAFF160EE926000EEA22EFCFFB
:100D700076F5DECFE9FFDDCFEAFF020EE926000EB1
:100D8000EA22E9CF10F0EACF11F010C0E6FF11C05F
:100D9000E6FFDECFE9FFDDCFEAFF160EE926000E03
:100DA000EA22EF50090DF3CF12F0F4CF13F0E00E6A
:100DB0001226040E132212C0E6FF13C0E6FF37EC22
:100DC00035F0E552E552E552E55200D0040EDB5015
:100DD00001E000D0E552E7BEF28E050EE15C02E2D2
:100DE000E16AE552E16EE552E5CFDAFFE7CFD9FFE0
:100DF0001200D9CFE6FFDACFE6FFE1CFD9FFE2CF8D
:100E0000DAFFE652E652F250E66EF29ED950FC0F3F
:100E1000E96EFF0EDA20EA6EEE50ED1005E170C5C6
:100E200010F071C511F006D0FC0EDBCF10F0FD0EF6
:100E3000DBCF11F010C0DEFF11C0DDFFDECFE9FF18
:100E4000DDCFEAFF020EE926000EEA22E9CF10F01C
:100E5000EACF11F010C0E6FF11C0E6FF95EC36F0C6
:100E6000E552E552000901E100D0DECFE9FFDDCF18
:100E7000EAFF0C0EE926000EEA22080EE926000E13
:100E8000EA22EE50ED1015E0DECFE9FFDDCFEAFFFC
:100E90000C0EE926000EEA22E9CF10F0EACF11F09D
:100EA00010C0E6FF11C0E6FF95EC36F0E552E552C2
:100EB00000D0DECFE9FFDDCFEAFF020EE926000E0B
:100EC000EA22E9CF10F0EACF11F010C0E6FF11C01E
:100ED000E6FF230EE66E050EE66E37EC35F0E552C2
:100EE000E552E552E552DECFE9FFDDCFEAFF350EF0
:100EF000E926000EEA22EF0409E1DECFE9FFDDCFAB
:100F0000EAFF350EE926000EEA22EF6AE552E7BE57
:100F1000F28E0501775109E0F250E66EF29EBFECC9
:100F200011F0E552E7BEF28E00D0DECF10F0DDCF3B
:100F300011F005017051101802E17151111812E100
:100F40000501775103E07CEC2FF00BD005017351C4
:100F50000501235D04E10501706B716B02D07AEC31
:100F60000CF000D0E552E552E552E5CFDAFFE7CFCD
:100F7000D9FF1200D9CFE6FFDACFE6FFE1CFD9FFE4
:100F8000E2CFDAFFE652E652E652DF6AFC0EDBCF32
:100F900008F0FD0EDBCF09F0DE5208C0DEFF09C00D
:100FA000DDFFDD52010EDBCFE9FF020EDBCFEAFFF2
:100FB000E926000EEA22080EE926000EEA22EECF0C
:100FC00010F0EFCF11F0230E101805E1050E1118E7
:100FD00002E1010E01D0000E000935E0010EDBCF69
:100FE000E9FF020EDBCFEAFF0C0EE926000EEA2233
:100FF000080EE926000EEA22EECF10F0EFCF11F036
:10100000110E101805E1050E111802E1010E01D0B4
:10101000000E000918E1010EDBCFE9FF020EDBCF65
:10102000EAFF0C0EE926000EEA22080EE926000E61
:10103000EA22EE50ED1002E1010E01D0000E00098F
:1010400002E0010EDF6EDF50E552E552E552E55257
:10105000E5CFDAFFE7CFD9FF1200D9CFE6FFDACF2D
:10106000E6FFE1CFD9FFE2CFDAFFE652E652FC0E0F
:10107000DBCFDEFFDBCFDDFFDECF10F0DDCF11F009
:1010800005017051101802E17151111801E185D06C
:10109000D9CFE9FFDACFEAFFEE50ED1001E17DD0C4
:1010A000F250E66EF29EDECFE6FFDDCFE6FF62DFB6
:1010B000E552E55200096DE0DECFE9FFDDCFEAFF42
:1010C000020EE926000EEA22E9CF10F0EACF11F075
:1010D00010C0E6FF11C0E6FF95EC36F0E552E55290
:1010E000DECFE9FFDDCFEAFF160EE926000EEA2289
:1010F000EFCF10F005017651D88010540AE2DECF10
:10110000E9FFDDCFEAFF160EE926000EEA22EFCF57
:1011100076F5DECFE9FFDDCFEAFF020EE926000E0D
:10112000EA22E9CF10F0EACF11F010C0E6FF11C0BB
:10113000E6FFDECFE9FFDDCFEAFF160EE926000E5F
:10114000EA22EF50090DF3CF12F0F4CF13F0E00EC6
:101150001226040E132212C0E6FF13C0E6FF37EC7E
:1011600035F0E552E552E552E552DECFE9FFDDCF3D
:10117000EAFF160EE926000EEA22EFCF10F070C546
:10118000E9FF71C5EAFF160EEB50105C01E300D0D9
:1011900000D0E552E7BEF28E00D0E552E552E552AE
:1011A000E5CFDAFFE7CFD9FF1200D9CFE6FFDACFDC
:1011B000E6FFE1CFD9FFE2CFDAFFE652E652E65290
:1011C000E652DF6AFC0EDBCF08F0FD0EDBCF09F044
:1011D000DE5208C0DEFF09C0DDFFDD52030EDB6A10
:1011E000010EDBCFE6FF020EDBCFE6FFC3DEE552EA
:1011F000E552000901E191D00501805172E1010E33
:10120000DBCFE9FF020EDBCFEAFF160EE926000E68
:10121000EA22EFCF10F070C5E9FF71C5EAFF160EA4
:10122000EB50105C02E3010EDF6E010EDBCFE9FF35
:10123000020EDBCFEAFFE926000EEA22E9CF10F02A
:10124000EACF11F0E9CFE6FFEACFE6FF95EC36F002
:10125000E552E552010EDBCFE9FF020EDBCFEAFFDC
:10126000160EE926000EEA22EFCF10F005017651A6
:10127000D88010540CE2010EDBCFE9FF020EDBCF69
:10128000EAFF160EE926000EEA22EFCF76F5010EF0
:10129000DBCFE9FF020EDBCFEAFFE926000EEA22F0
:1012A000E9CF10F0EACF11F0E9CFE6FFEACFE6FF91
:1012B000010EDBCFE9FF020EDBCFEAFF160EE926B7
:1012C000000EEA22EF50090DF3CF12F0F4CF13F025
:1012D000E00E1226040E132212C0E6FF13C0E6FF32
:1012E00016D0010EDBCFE9FF020EDBCFEAFF0C0EBA
:1012F000E926000EEA22E9CF10F0EACF11F0E9CF9B
:10130000E6FFEACFE6FF110EE66E050EE66E37EC5D
:1013100035F0E552E552E552E552DF50106E040E0D
:10132000E15C02E2E16AE552E16E1050E552E5CF80
:10133000DAFFE7CFD9FF1200D9CFE6FFDACFE6FF19
:10134000E1CFD9FFE2CFDAFFE6527E0EE66E050E60
:10135000E66EE66A000EE66EE66A800EE66EE66A05
:10136000F60EE66E760EE66E460EE66E200EE66E23
:1013700030EC00F0106E0B0EE15C02E2E16AE55227
:10138000E16E1050DF6EDF040BE1F29E05017C6917
:101390007D69010E776F746B756B0AEC2FF0000995
:1013A000E552E552E5CFDAFFE7CFD9FF1200F29E12
:1013B0000501776B7BEF2FF00501802B1200D9CF51
:1013C000E6FFDACFE6FFE1CFD9FFE2CFDAFFE65260
:1013D000E652E652E652DE6ADD6A020EDB6AF2503F
:1013E000E66EF29E050180070501805101E0C3D041
:1013F00005017351000801E3BDD00501115102E15F
:10140000010E01D0000E000901E090D016C5E9FFE1
:1014100017C5EAFF060EE926000EEA22EECFDEFF30
:10142000EDCFDDFFDECFE9FFDDCFEAFF0C0EE926D1
:10143000000EEA22E9CF10F0EACF11F010C0E6FF6B
:1014400011C0E6FF95EC36F0E552E552DECFE9FF3C
:10145000DDCFEAFF020EE926000EEA22E9CF10F006
:10146000EACF11F010C0E6FF11C0E6FF95EC36F0B0
:10147000E552E552DECFE9FFDDCFEAFF160EE926A1
:10148000000EEA22EFCF10F005017651D8801054FB
:101490000AE2DECFE9FFDDCFEAFF160EE926000EF5
:1014A000EA22EFCF76F5DECFE9FFDDCFEAFF020ECD
:1014B000E926000EEA22E9CF10F0EACF11F010C0C1
:1014C000E6FF11C0E6FFDECFE9FFDDCFEAFF160E33
:1014D000E926000EEA22EF50090DF3CF12F0F4CF07
:1014E00013F0E00E1226040E132212C0E6FF13C002
:1014F000E6FF37EC35F0E552E552E552E552DECF36
:10150000E9FFDDCFEAFF160EE926000EEA22EFCF53
:1015100010F070C5E9FF71C5EAFF160EEB50105CC4
:1015200004E30501010E796F00D067D7D9CFE9FF39
:10153000DACFEAFFEE50ED1002E0BFEC11F0030E3F
:1015400078C5DBFF030EDB50000810E2A8D80009C5
:1015500004E00501010E796F00D0030EDB06030ED7
:10156000DB500008F3E30501786B00D005017951E9
:1015700001E000D000D0E552E7BEF28E020EDB5053
:1015800000D0106E040EE15C02E2E16AE552E16E09
:101590001050E552E5CFDAFFE7CFD9FF1200D9CFDF
:1015A000E6FFDACFE6FFE1CFD9FFE2CFDAFFE6527E
:1015B000E652F250E66EF29E74C5DEFF75C5DDFFA1
:1015C000E552E7BEF28EDECF10F0DDCF11F010C095
:1015D000F3FF11C0F4FF00D0E552E552E552E5CF2C
:1015E000DAFFE7CFD9FF1200D9CFE6FFDACFE6FF67
:1015F000E1CFD9FFE2CFDAFFE652E652E652020E21
:10160000DB6A74C5DEFF75C5DDFFDECF10F0DDCF10
:1016100011F010C0F3FF11C0F4FFE552E552E5529E
:10162000E552E5CFDAFFE7CFD9FF1200050173518C
:101630001200D9CFE6FFDACFE6FFE1CFD9FFE2CF44
:10164000DAFFE652E652D950FC0FE96EFF0EDA20BF
:10165000EA6EEE50ED1005E170C510F071C511F0A5
:1016600006D0FC0EDBCF10F0FD0EDBCF11F010C06A
:10167000DEFF11C0DDFFDECFE9FFDDCFEAFF190E8F
:10168000E926000EEA22E9CFF3FFEACFF4FFE552A4
:10169000E552E552E5CFDAFFE7CFD9FF1200D9CF07
:1016A000E6FFDACFE6FFE1CFD9FFE2CFDAFF090E9E
:1016B000E12402E3E168E652E16E040EDB6A050113
:1016C000805101E006D1010E116A7425106E75512A
:1016D0001122050E10C0DBFF060E11C0DBFF050E48
:1016E000DBCF74F5060EDBCF75F5D950050FE96E2B
:1016F000000EDA20EA6EEE50ED1013E1070E0DC574
:10170000DBFF080E0EC5DBFF0FC50DF510C50EF58E
:10171000070EDBCF0FF5080EDBCF10F57A2BBFECF1
:1017200011F0050EDBCF10F0060EDBCF11F0050136
:101730007C51105C7D51115801E2CCD00DC5E9FF00
:101740000EC5EAFFEF50000902E1010E01D0000EC4
:10175000000904E005017C697D69BCD00DC5E9FF85
:101760000EC5EAFF030EE926000EEA22020EE92664
:10177000000EEA22EE50EFCFEAFFE96E060EE926F0
:10178000000EEA22EECFDEFFEDCFDDFFDECFE9FF78
:10179000DDCFEAFF020EE926000EEA22020EEECFAE
:1017A000DBFF030EEDCFDBFF050EDBCF10F0060EE7
:1017B000DBCF11F0020EDBCF12F0030EDBCF13F004
:1017C0001250105C1350115807E2020EDBCF7CF56B
:1017D000030EDBCF7DF57ED0DECFE9FFDDCFEAFF64
:1017E000020EE926000EEA22E9CF10F0EACF11F04E
:1017F000E9CFE6FFEACFE6FF95EC36F0E552E55299
:10180000DECFE9FFDDCFEAFF0C0EE926000EEA226B
:10181000080EE926000EEA22EE50ED1014E0DECFAD
:10182000E9FFDDCFEAFF0C0EE926000EEA22E9CF40
:1018300010F0EACF11F0E9CFE6FFEACFE6FF95EC32
:1018400036F0E552E552DECFE9FFDDCFEAFF160EB6
:10185000E926000EEA22EFCF10F005017651D8807C
:1018600010540AE2DECFE9FFDDCFEAFF160EE926CB
:10187000000EEA22EFCF76F5DECFE9FFDDCFEAFFFB
:10188000020EE926000EEA22E9CF10F0EACF11F0AD
:10189000E9CFE6FFEACFE6FFDECFE9FFDDCFEAFFE3
:1018A000160EE926000EEA22EF50090DF3CF12F0D2
:1018B000F4CF13F0E00E1226040E132212C0E6FF3E
:1018C00013C0E6FF37EC35F0E552E552E552E5523C
:1018D00035D7782B040EDB50106E090EE15C02E266
:1018E000E16AE552E16E1050E552E5CFDAFFE7CF4D
:1018F000D9FF1200D9CFE6FFDACFE6FFE1CFD9FF5B
:10190000E2CFDAFFE652E652E6520501805103E0EB
:10191000010E796F94D0796B76C5DFFFDF50090D2A
:10192000F3CFE9FFF4CFEAFFE00EE926040EEA2246
:10193000EF5002E1010E01D0000E000902E0DF06C7
:10194000EDD7DF50090DF3CF10F0F4CF11F0E00E1A
:101950001026040E1122010E10C0DBFF020E11C072
:10196000DBFF010EDBCFE9FF020EDBCFEAFFEE5219
:10197000EE50EFCFEAFFE96E020EE926000EEA22F2
:10198000EECF10F0EFCF11F0010EDBCFE9FF020E2A
:10199000DBCFEAFFEE5210C0EEFF11C0EDFF010EEB
:1019A000DBCFE9FF020EDBCFEAFFEE52EECF10F005
:1019B000EFCF11F0010EDBCFE9FF020EDBCFEAFF24
:1019C000030EE926000EEA22EACF13F0E9501018C0
:1019D00021E1135011181EE1010EDBCFE9FF020EC9
:1019E000DBCFEAFFEE52EE50EFCFEAFFE96E020ED8
:1019F000E926000EEA22EECF10F0EFCF11F0010E33
:101A0000DBCFE9FF020EDBCFEAFFEE5210C0EEFFA4
:101A100011C0EDFF010EDBCFE9FF020EDBCFEAFFC5
:101A2000EE52EE50EFCFEAFFE96E060EE926000E09
:101A3000EA22EECF70F5EDCF71F5DFCF76F5E55206
:101A4000E552E552E552E5CFDAFFE7CFD9FF1200C4
:101A5000D9CFE6FFDACFE6FFE1CFD9FFE2CFDAFF59
:101A600070C5E9FF71C5EAFF0C0EE926000EEA22F7
:101A7000E9CF10F0EACF11F0E9CFE6FFEACFE6FFB9
:101A8000FC0EDBCFE6FFFD0EDBCFE6FFB7EC35F05B
:101A9000E552E552E552E552010EE66EFA0EDBCF55
:101AA000E6FFFB0EDBCFE6FF11EC1BF0E552E55243
:101AB000E552E552E5CFDAFFE7CFD9FF1200D9CFE3
:101AC000E6FFDACFE6FFE1CFD9FFE2CFDAFFFA0E89
:101AD000DBCF10F0FB0EDBCF11F0800E111270C5C2
:101AE000E9FF71C5EAFF0C0EE926000EEA2210C0DC
:101AF000EEFF11C0EDFF70C5E9FF71C5EAFF0C0EE6
:101B0000E926000EEA22E9CF10F0EACF11F0E9CF82
:101B1000E6FFEACFE6FFFC0EDBCFE6FFFD0EDBCFF4
:101B2000E6FF37EC35F0E552E552E552E552010E9D
:101B3000E66EF80EDBCFE6FFF90EDBCFE6FF11EC29
:101B40001BF0E552E552E552E552E5CFDAFFE7CF6B
:101B5000D9FF1200D9CFE6FFDACFE6FFE1CFD9FFF8
:101B6000E2CFDAFFE652E652E652FC0EDBCFE9FFA7
:101B7000FD0EDBCFEAFF030EE926000EEA22020E7D
:101B8000E926000EEA22EE50EFCFEAFFE96E060EDC
:101B9000E926000EEA22EECFDEFFEDCFDDFFDECF3D
:101BA000E9FFDDCFEAFF0C0EE926000EEA22E9CFBD
:101BB00010F0EACF11F0E9CFE6FFEACFE6FF95ECAF
:101BC00036F0E552E5520501805154E1DECFE9FFE0
:101BD000DDCFEAFF020EE926000EEA22E9CF10F07F
:101BE000EACF11F0E9CFE6FFEACFE6FF95EC36F059
:101BF000E552E552DECFE9FFDDCFEAFF160EE9261A
:101C0000000EEA22EFCF10F005017651D880105473
:101C10000AE2DECFE9FFDDCFEAFF160EE926000E6D
:101C2000EA22EFCF76F5DECFE9FFDDCFEAFF020E45
:101C3000E926000EEA22E9CF10F0EACF11F0E9CF51
:101C4000E6FFEACFE6FFDECFE9FFDDCFEAFF160EC3
:101C5000E926000EEA22EF50090DF3CF12F0F4CF7F
:101C600013F0E00E1226040E132212C0E6FF13C07A
:101C7000E6FF14D0DECFE9FFDDCFEAFF0C0EE92648
:101C8000000EEA22E9CF10F0EACF11F0E9CFE6FF2B
:101C9000EACFE6FF110EE66E050EE66E37EC35F084
:101CA000E552E552E552E552DECFE9FFDDCFEAFF2E
:101CB000160EE926000EEA22EFCF10F070C5E9FFFC
:101CC00071C5EAFF160EEB50D880105409E2010EE0
:101CD000F36E020EF3CFDBFF0501010E796F02D028
:101CE000020EDB6A020EDB50E552E552E552E55288
:101CF000E5CFDAFFE7CFD9FF1200D9CFE6FFDACF81
:101D0000E6FFE1CFD9FFE2CFDAFFE652E652FA0E64
:101D1000DBCF10F0FB0EDBCF11F0800E1112FC0EAA
:101D2000DBCFE9FFFD0EDBCFEAFF10C0EEFF11C0F5
:101D3000EDFFFC0EDBCFE9FFFD0EDBCFEAFF060E69
:101D4000E926000EEA22EECFDEFFEDCFDDFFFC0E2E
:101D5000DBCFE6FFFD0EDBCFE6FF95EC36F0E5527C
:101D6000E552DECFE9FFDDCFEAFF020EE926000EE5
:101D7000EA22E9CF10F0EACF11F0E9CFE6FFEACF8F
:101D8000E6FF95EC36F0E552E552DECFE9FFDDCF18
:101D9000EAFF160EE926000EEA22EFCF10F0050149
:101DA0007651D88010540AE2DECFE9FFDDCFEAFF9A
:101DB000160EE926000EEA22EFCF76F5DECFE9FF18
:101DC000DDCFEAFF020EE926000EEA22E9CF10F08D
:101DD000EACF11F0E9CFE6FFEACFE6FFDECFE9FF79
:101DE000DDCFEAFF160EE926000EEA22EF50090DBC
:101DF000F3CF12F0F4CF13F0E00E1226040E1322EC
:101E000012C0E6FF13C0E6FF37EC35F0E552E552AD
:101E1000E552E552DECFE9FFDDCFEAFF160EE926F7
:101E2000000EEA22EFCF10F070C5E9FF71C5EAFF9E
:101E3000160EEB50D880105403E20501010E796FA5
:101E4000E552E552E552E5CFDAFFE7CFD9FF1200C0
:101E5000D9CFE6FFDACFE6FFE1CFD9FFE2CFDAFF55
:101E6000F250E66EF29EFC0EDBCFE9FFFD0EDBCFFB
:101E7000EAFF7AC5EFFFFC0EDBCFE9FFFD0EDBCFFB
:101E8000EAFFEE5274C5EEFF75C5EDFFE552E7BE01
:101E9000F28EE552E5CFDAFFE7CFD9FF1200D9CFB6
:101EA000E6FFDACFE6FFE1CFD9FFE2CFDAFFFC0EA3
:101EB000DBCFE9FFFD0EDBCFEAFF7AC5EFFFFC0EBB
:101EC000DBCFE9FFFD0EDBCFEAFFEE5274C5EEFF7C
:101ED00075C5EDFFE552E5CFDAFFE7CFD9FF120078
:101EE000D9CFE6FFDACFE6FFE1CFD9FFE2CFDAFFC5
:101EF000E652E652E652E652E652F250E66EF29EA4
:101F0000010E74C5DBFF020E75C5DBFF010EDBCFD2
:101F100012F0020EDBCF13F0FC0EDBCFE9FFFD0E5B
:101F2000DBCFEAFFEE52EE50125C106EEE5013580B
:101F3000116E030E10C0DBFF040E11C0DBFFFA0EA2
:101F4000DBCFE9FFFB0EDBCFEAFFFF0EEE1802E16D
:101F5000FF0EED1802E1DF6A5FD0FC0EDBCFE9FF78
:101F6000FD0EDBCFEAFFEF5005017A5D1BE0010EAD
:101F7000DBCF10F0020EDBCF11F0FC0EDBCFE9FF60
:101F8000FD0EDBCFEAFFEECF12F0EECF13F0EFCF76
:101F900014F000011350105C1450115803E3010EAB
:101FA000DF6E3AD0030EDBCF10F0040EDBCF11F062
:101FB000FA0EDBCFE9FFFB0EDBCFEAFFEECF12F02C
:101FC000EFCF13F01250105C135011581BE2030EA8
:101FD000DBCF10F0040EDBCF11F0FA0EDBCFE9FF00
:101FE000FB0EDBCFEAFF1050EE5E1150ED5AFC0EF7
:101FF000DBCFE6FFFD0EDBCFE6FF51DFE552E5521A
:10200000DF6A0AD0FA0EDBCFE9FFFB0EDBCFEAFF77
:10201000EE6AED6A010EDF6EE552E7BEF28EDF502A
:1020200000D0106E050EE15C02E2E16AE552E16E5D
:102030001050E552E5CFDAFFE7CFD9FF12000501D6
:10204000010E796F1200D9CFE6FFDACFE6FFE1CFBC
:10205000D9FFE2CFDAFF21D97CEC2FF0FCD7D9CF22
:10206000E6FFDACFE6FFE1CFD9FFE2CFDAFFE652B3
:10207000E652FB0EDBCF10F0050EE76E1018E8AE4F
:1020800002D0E73402D0E750105C39E2D950FC0F9F
:10209000E96EFF0EDA20EA6EEE50ED1005E170C534
:1020A00010F071C511F006D0FC0EDBCF10F0FD0E64
:1020B000DBCF11F010C0DEFF11C0DDFFDECFE9FF86
:1020C000DDCFEAFF270EE926000EEA22E9CF10F065
:1020D000EACF11F0FB0EDBCF12F0136A12BE1368C9
:1020E000D8901236133610501224E96E1150132076
:1020F000EA6EF90EDBCFEEFFFA0EDBCFEDFFE55215
:10210000E552E552E5CFDAFFE7CFD9FF1200D9CF8C
:10211000E6FFDACFE6FFE1CFD9FFE2CFDAFFE65202
:10212000E652E652E652DE6ADD6AFB0EDBCF10F0C5
:10213000050EE76E1018E8AE02D0E73402D0E75083
:10214000105C3CE2D950FC0FE96EFF0EDA20EA6E1B
:10215000EE50ED1005E170C510F071C511F006D01C
:10216000FC0EDBCF10F0FD0EDBCF11F0020E10C025
:10217000DBFF030E11C0DBFF020EDBCFE9FF030E16
:10218000DBCFEAFF270EE926000EEA22E9CF10F0A6
:10219000EACF11F0FB0EDBCF12F0136A12BE136808
:1021A000D8901236133610501224E96E11501320B5
:1021B000EA6EEECFDEFFEDCFDDFF02D0DE6ADD6A34
:1021C000DECF10F0DDCF11F010C0F3FF11C0F4FF2F
:1021D000040EE15C02E2E16AE552E16EE552E5CF10
:1021E000DAFFE7CFD9FF1200D9CFE6FFDACFE6FF5B
:1021F000E1CFD9FFE2CFDAFFE652DF6A030EDF5C00
:1022000014E2DF50090DF3CF10F0F4CF11F0E00E1F
:102210001026040E112210C0E6FF11C0E6FFA5EC47
:1022200034F0E552E552DF2AE9D7FB0EE66E040EE4
:10223000E66EA5EC34F0E552E552040EE66E050EAE
:10224000E66EA5EC34F0E552E552110EE66E050E91
:10225000E66EA5EC34F0E552E5521A0EE66E050E78
:10226000E66EA5EC34F0E552E552230EE66E050E5F
:10227000E66EA5EC34F0E552E5520501FB0E0D6F5C
:10228000040E0E6F040E0F6F050E106FE552E5522F
:10229000E5CFDAFFE7CFD9FF1200D9CFE6FFDACFDB
:1022A000E6FFE1CFD9FFE2CFDAFFE652E6520501C1
:1022B0007251000832E2F250E66EF29E1FC5E9FF4D
:1022C00020C5EAFF060EE926000EEA22EECFDEFF69
:1022D000EDCFDDFFDECFE9FFDDCFEAFF020EE9261D
:1022E000000EEA22E9CF10F0EACF11F010C0E6FFAD
:1022F00011C0E6FF95EC36F0E552E5520501730793
:1023000005017207E552E7BEF28EDECFE6FFDDCFB4
:10231000E6FF0BD8E552E552CAD7E552E552E55241
:10232000E5CFDAFFE7CFD9FF1200D9CFE6FFDACF4A
:10233000E6FFE1CFD9FFE2CFDAFFFC0EDBCFE9FF0A
:10234000FD0EDBCFEAFF170EE926000EEA22EECFE4
:10235000E6FFEFCFE6FF35EC38F0E552E552FC0E34
:10236000DBCFE6FFFD0EDBCFE6FF35EC38F0E552C4
:10237000E552E552E5CFDAFFE7CFD9FF1200D9CF1A
:10238000E6FFDACFE6FFE1CFD9FFE2CFDAFFE65290
:10239000E6520DC5E9FF0EC5EAFFEF50000902E164
:1023A000010E01D0000E000904E005017C697D6981
:1023B00024D00DC5E9FF0EC5EAFF030EE926000E85
:1023C000EA22020EE926000EEA22EE50EFCFEAFFE3
:1023D000E96E060EE926000EEA22EECFDEFFEDCF13
:1023E000DDFFDECFE9FFDDCFEAFF020EE926000EBA
:1023F000EA22EECF7CF5EDCF7DF5E552E552E552D0
:10240000E5CFDAFFE7CFD9FF1200D9CFE6FFDACF69
:10241000E6FFE1CFD9FFE2CFDAFFE652E65270C520
:10242000DEFF71C5DDFFDECF10F0DDCF11F010C093
:10243000F3FF11C0F4FFE552E552E552E5CFDAFFB4
:10244000E7CFD9FF1200D9CFE6FFDACFE6FFE1CF21
:10245000D9FFE2CFDAFFE6520501775102E1010E22
:1024600003D0805103E1020EDF6E01D0DF6ADF503E
:10247000E552E552E5CFDAFFE7CFD9FF1200D9CF19
:10248000E6FFDACFE6FFE1CFD9FFE2CFDAFFE6528F
:10249000E652E652FC0EDBCFDEFFDBCFDDFF020EA5
:1024A000DB6AD950FC0FE96EFF0EDA20EA6EEE50BF
:1024B000ED1001E106D1DECFE9FFDDCFEAFF160E18
:1024C000E926000EEA22EFCF10F070C5E9FF71C5D2
:1024D000EAFF160EEB50105C01E3DCD0DECFE9FF23
:1024E000DDCFEAFF0C0EE926000EEA22EECF10F057
:1024F000EFCF11F01016800E1116126A136A1050E9
:1025000011101210131019E170C5E9FF71C5EAFF2F
:10251000160EEB50106E116A030ED8801056000E86
:102520001156DECFE9FFDDCFEAFF0C0EE926000EE3
:10253000EA2210C0EEFF11C0EDFFDECFE9FFDDCFD4
:10254000EAFF020EE926000EEA22080EE926000E36
:10255000EA22EECF10F0EFCF11F0DECFE9FFDDCFB2
:10256000EAFF160EE926000EEA22EF50090DF3CF1E
:1025700012F0F4CF13F0E00E1226040E13221250C4
:10258000101805E11350111802E1010E01D0000EE0
:1025900000096DE0DECFE9FFDDCFEAFF020EE9269C
:1025A000000EEA22E9CF10F0EACF11F0E9CFE6FF02
:1025B000EACFE6FF95EC36F0E552E552000970C52A
:1025C000E9FF71C5EAFF160EEB50E66EDECFE9FFBC
:1025D000DDCFEAFF160EE926000EEA22E552E750AB
:1025E000EF6EDECFE9FFDDCFEAFF160EE926000E23
:1025F000EA22EFCF10F005017651D88010540AE29C
:10260000DECFE9FFDDCFEAFF160EE926000EEA2253
:10261000EFCF76F5DECFE9FFDDCFEAFF020EE92648
:10262000000EEA22E9CF10F0EACF11F0E9CFE6FF81
:10263000EACFE6FFDECFE9FFDDCFEAFF160EE9269F
:10264000000EEA22EF50090DF3CF12F0F4CF13F091
:10265000E00E1226040E132212C0E6FF13C0E6FF9E
:1026600037EC35F0E552E552E552E55225D070C51C
:10267000E9FF71C5EAFF160EEB50E66EDECFE9FF0B
:10268000DDCFEAFF160EE926000EEA22E552E750FA
:10269000EF6E12D0DECFE9FFDDCFEAFF250EE9268F
:1026A000000EEA22EFCF10F070C5E9FF71C5EAFF16
:1026B000160EEB50105C05E2010EF36E020EF3CF26
:1026C000DBFF020EDB50E552E552E552E552E5CF65
:1026D000DAFFE7CFD9FF1200D9CFE6FFDACFE6FF66
:1026E000E1CFD9FFE2CFDAFFE652E652E652FC0E26
:1026F000DBCFDEFFDBCFDDFF020EDB6AD950FC0F44
:10270000E96EFF0EDA20EA6EEE50ED1001E1BAD06C
:10271000DECFE9FFDDCFEAFF260EE926000EEA2232
:10272000EF06DECFE9FFDDCFEAFF160EE926000E49
:10273000EA22EFCF10F0DECFE9FFDDCFEAFF250E72
:10274000E926000EEA22EF50105C01E19BD0DECFBB
:10275000E9FFDDCFEAFF260EE926000EEA22EF5060
:1027600001E090D0DECFE9FFDDCFEAFF020EE926DF
:10277000000EEA22E9CF10F0EACF11F0E9CFE6FF30
:10278000EACFE6FF95EC36F0E552E5520009DECFE0
:10279000E9FFDDCFEAFF250EE926000EEA22EF5021
:1027A000E66EDECFE9FFDDCFEAFF160EE926000E6A
:1027B000EA22E552E750EF6EDECFE9FFDDCFEAFF18
:1027C000160EE926000EEA22EF50106E116A030E73
:1027D000D8801056000E1156DECFE9FFDDCFEAFF9C
:1027E0000C0EE926000EEA2210C0EEFF11C0EDFF2C
:1027F000DECFE9FFDDCFEAFF160EE926000EEA2262
:10280000EFCF10F005017651D88010540AE2DECFE8
:10281000E9FFDDCFEAFF160EE926000EEA22EFCF30
:1028200076F5DECFE9FFDDCFEAFF020EE926000EE6
:10283000EA22E9CF10F0EACF11F0E9CFE6FFEACFC4
:10284000E6FFDECFE9FFDDCFEAFF160EE926000E38
:10285000EA22EF50090DF3CF12F0F4CF13F0E00E9F
:102860001226040E132212C0E6FF13C0E6FF37EC57
:1028700035F0E552E552E552E552010EF36E020ED7
:10288000F3CFDBFF020EDB50E552E552E552E55295
:10289000E5CFDAFFE7CFD9FF1200D9CFE6FFDACFD5
:1028A000E6FFE1CFD9FFE2CFDAFFE652E652E65289
:1028B000E652E652FC0EDBCFDEFFDBCFDDFF010E82
:1028C000F36E040EF3CFDBFFD950FC0FE96EFF0E61
:1028D000DA20EA6EEE50ED1001E1FFD0DECFE9FF25
:1028E000DDCFEAFF250EE926000EEA22EFCF10F039
:1028F000FB0EDB50105C07E2FB0EDB50E76E030EB5
:10290000E7CFDBFF0BD0DECFE9FFDDCFEAFF250EFF
:10291000E926000EEA22030EEFCFDBFFDECFE9FF50
:10292000DDCFEAFF160EE926000EEA22EFCF10F007
:10293000030EDB50105C01E1D0D0DECFE9FFDDCF2C
:10294000EAFF260EE926000EEA22EFCF10F0040E71
:10295000DB50105C01E0C1D0DECFE9FFDDCFEAFF44
:10296000160EE926000EEA22020EEFCFDBFFDECFC5
:10297000E9FFDDCFEAFF160EE926000EEA22030E7C
:10298000DBCFEFFFDECFE9FFDDCFEAFF0C0EE9265C
:10299000000EEA22EECF10F0EFCF11F01016800EED
:1029A0001116126A136A105011101210131015E14B
:1029B000030EDB50106E116A030ED8801056000E05
:1029C0001156DECFE9FFDDCFEAFF0C0EE926000E3F
:1029D000EA2210C0EEFF11C0EDFFDECFE9FFDDCF30
:1029E000EAFF020EE926000EEA22080EE926000E92
:1029F000EA22EECF10F0EFCF11F0020EDB50090DFE
:102A0000F3CF12F0F4CF13F0E00E1226040E1322CF
:102A10001250101805E11350111802E1010E01D0F7
:102A2000000E00095AE0DECFE9FFDDCFEAFF020E1B
:102A3000E926000EEA22E9CF10F0EACF11F0E9CF43
:102A4000E6FFEACFE6FF95EC36F0E552E5520009E5
:102A5000DECFE9FFDDCFEAFF160EE926000EEA22FF
:102A6000EFCF10F005017651D88010540AE2DECF86
:102A7000E9FFDDCFEAFF160EE926000EEA22EFCFCE
:102A800076F5DECFE9FFDDCFEAFF020EE926000E84
:102A9000EA22E9CF10F0EACF11F0E9CFE6FFEACF62
:102AA000E6FFDECFE9FFDDCFEAFF160EE926000ED6
:102AB000EA22EF50090DF3CF12F0F4CF13F0E00E3D
:102AC0001226040E132212C0E6FF13C0E6FF37ECF5
:102AD00035F0E552E552E552E552050EE15C02E2C1
:102AE000E16AE552E16EE552E5CFDAFFE7CFD9FFC3
:102AF0001200D9CFE6FFDACFE6FFE1CFD9FFE2CF70
:102B0000DAFFE652E65270C5E9FF71C5EAFF0C0E26
:102B1000E926000EEA22EECFDEFFEDCFDDFF70C525
:102B2000E9FF71C5EAFF160EEB50106E116A030E35
:102B3000D8801056000E115670C5E9FF71C5EAFF26
:102B40000C0EE926000EEA2210C0EEFF11C0EDFFC8
:102B5000DECF10F0DDCF11F010C0F3FF11C0F4FF95
:102B6000E552E552E552E5CFDAFFE7CFD9FF120093
:102B700005017051711109E070C5E9FF71C5EAFFE7
:102B8000260EE926000EEA22EF2A70C5F3FF71C572
:102B9000F4FF1200D9CFE6FFDACFE6FFE1CFD9FF8D
:102BA000E2CFDAFFE652E652E652E652F250E66E25
:102BB000F29E70C5E9FF71C5EAFF310EE926000EED
:102BC000EA22EECF10F0EECF11F0EECF12F0EFCF01
:102BD00013F0105011101210131027E170C5E9FF07
:102BE00071C5EAFF350EE926000EEA22010EEF6EEE
:102BF000D950FB0FE96EFF0EDA20EA6E000ED88086
:102C0000EE54000EED5410E2010EE66EFB0EDBCF2B
:102C1000E6FFFC0EDBCFE6FF11EC1BF0E552E552C0
:102C2000E5527CEC2FF000D000D0E552E7BEF28EEA
:102C3000F250E66EF29E70C5E9FF71C5EAFF310EF3
:102C4000E926000EEA22EECFDFFF010EEECFDBFF1A
:102C5000020EEECFDBFF030EEECFDBFFD9CFE9FF95
:102C6000DACFEAFFEECF10F0EECF11F0EECF12F098
:102C7000EFCF13F0105011101210131034E0FD0EAE
:102C8000DB500DE070C5E9FF71C5EAFF310EE926A2
:102C9000000EEA22EE6AEE6AEE6AEE6A23D0D9CF1F
:102CA000E9FFDACFEAFFEECF10F0EECF11F0EECF72
:102CB00012F0EFCF13F01006000E115A000E125A48
:102CC000000E135A70C5E9FF71C5EAFF310EE926FF
:102CD000000EEA2210C0EEFF11C0EEFF12C0EEFFA0
:102CE00013C0EEFF00D070C5E9FF71C5EAFF350ED5
:102CF000E926000EEA22EF6AE552E7BEF28EDECF49
:102D000006F0DECF07F0DECF08F0DDCF09F0DD52B0
:102D1000DD5200D0040EE15C02E2E16AE552E16EB0
:102D2000E552E5CFDAFFE7CFD9FF1200D9CFE6FFB2
:102D3000DACFE6FFE1CFD9FFE2CFDAFFE652F25079
:102D4000E66EF29E70C5E9FF71C5EAFF350EEB50E5
:102D5000020847E0FA0EDBCF10F0FB0EDBCF11F0DC
:102D6000FC0EDBCF12F0FD0EDBCF13F0101E111E98
:102D7000121E131E70C5E9FF71C5EAFF310EE92668
:102D8000000EEA221050EE161150EE161250EE16FA
:102D90001350EE1670C5E9FF71C5EAFF350EE9263E
:102DA000000EEA22010EEF6ED950F20FE96EFF0E0F
:102DB000DA20EA6E000ED880EE54000EED5410E2D8
:102DC000010EE66EF20EDBCFE6FFF30EDBCFE6FF81
:102DD00011EC1BF0E552E552E5527CEC2FF000D0EF
:102DE00000D0E552E7BEF28EF250E66EF29ED95068
:102DF000F40FE96EFF0EDA20EA6EEE50ED101EE0E1
:102E000070C5E9FF71C5EAFF310EE926000EEA221E
:102E1000EECF10F0EECF11F0EECF12F0EFCF13F0B7
:102E2000F40EDBCFE9FFF50EDBCFEAFF10C0EEFFBB
:102E300011C0EEFF12C0EEFF13C0EEFF70C5E9FF38
:102E400071C5EAFF350EEB50020802E0DF6A22D0BE
:102E5000F60EDBCF10F0F70EDBCF11F0F80EDBCF64
:102E600012F0F90EDBCF13F0101E111E121E131EEE
:102E700070C5E9FF71C5EAFF310EE926000EEA22AE
:102E80001050EE161150EE161250EE161350EE16AC
:102E9000010EDF6E70C5E9FF71C5EAFF350EE92648
:102EA000000EEA22EF6AE552E7BEF28EDF5000D054
:102EB000E552E552E5CFDAFFE7CFD9FF1200D9CFCF
:102EC000E6FFDACFE6FFE1CFD9FFE2CFDAFFE65245
:102ED000E652E652E652010EF36E020EF3CFDBFF2E
:102EE000FC0EDBCFDEFFDBCFDDFFF250E66EF29EA5
:102EF000D950F50FE96EFF0EDA20EA6EEE50ED10B4
:102F00001EE0DECFE9FFDDCFEAFF310EE926000E3D
:102F1000EA22EECF10F0EECF11F0EECF12F0EFCFAD
:102F200013F0F50EDBCFE9FFF60EDBCFEAFF10C0A2
:102F3000EEFF11C0EEFF12C0EEFF13C0EEFFDECFBA
:102F4000E9FFDDCFEAFF350EE926000EEA22030E87
:102F5000EFCFDBFFDECFE9FFDDCFEAFF350EE9265D
:102F6000000EEA22020EEF6EF70EDB505DE0040A5F
:102F70003FE0070A28E0010A18E0030A01E055D003
:102F8000DECFE9FFDDCFEAFF310EE926000EEA22AF
:102F9000F80EDB50EE12F90EDB50EE12FA0EDB509B
:102FA000EE12FB0EDB50EE1241D0DECFE9FFDDCF9B
:102FB000EAFF310EE926000EEA22EE2A000EEE228A
:102FC000EE22EE2233D0DECFE9FFDDCFEAFF310E75
:102FD000E926000EEA22F80EDBCFEEFFF90EDBCF7A
:102FE000EEFFFA0EDBCFEEFFFB0EDBCFEEFF1ED0C7
:102FF000030EDB50020815E0DECFE9FFDDCFEAFF6C
:10300000310EE926000EEA22F80EDBCFEEFFF90EB4
:10301000DBCFEEFFFA0EDBCFEEFFFB0EDBCFEEFFDA
:1030200002D0020EDB6A02D001D000D0030EDB0416
:103030006EE1DECFE9FFDDCFEAFF020EE926000EEA
:10304000EA22E9CF10F0EACF11F010C0E6FF11C07C
:10305000E6FF95EC36F0E552E552DECFE9FFDDCF35
:10306000EAFF160EE926000EEA22EFCF10F0050166
:103070007651D88010540AE2DECFE9FFDDCFEAFFB7
:10308000160EE926000EEA22EFCF76F5DECFE9FF35
:10309000DDCFEAFF020EE926000EEA22E9CF10F0AA
:1030A000EACF11F010C0E6FF11C0E6FFDECFE9FF66
:1030B000DDCFEAFF160EE926000EEA22EF50090DD9
:1030C000F3CF12F0F4CF13F0E00E1226040E132209
:1030D00012C0E6FF13C0E6FF37EC35F0E552E552CB
:1030E000E552E552DECFE9FFDDCFEAFF160EE92615
:1030F000000EEA22EFCF10F070C5E9FF71C5EAFFBC
:10310000160EEB50D880105401E200D000D0E552EA
:10311000E7BEF28E020EDB5000D0106E040EE15CB2
:1031200002E2E16AE552E16E1050E552E5CFDAFFC6
:10313000E7CFD9FF1200D9CFE6FFDACFE6FFE1CF24
:10314000D9FFE2CFDAFFE652E652E652E652E65205
:10315000010EF36E030EF3CFDBFFFC0EDBCFDEFFC1
:10316000DBCFDDFF040EDB6AD950F50FE96EFF0EF1
:10317000DA20EA6EEE50ED101EE0DECFE9FFDDCF83
:10318000EAFF310EE926000EEA22EECF10F0EECF74
:1031900011F0EECF12F0EFCF13F0F50EDBCFE9FF19
:1031A000F60EDBCFEAFF10C0EEFF11C0EEFF12C03B
:1031B000EEFF13C0EEFFDECFE9FFDDCFEAFF350EF5
:1031C000E926000EEA22020EEFCFDBFFDECFE9FF99
:1031D000DDCFEAFF350EE926000EEA22020EEF6E81
:1031E000F70EDB5045E0040A28E0070A2AE0010A4E
:1031F00017E0030A3DE1DECFE9FFDDCFEAFF310E44
:10320000E926000EEA22F80EDB50EE12F90EDB5032
:10321000EE12FA0EDB50EE12FB0EDB50EE1228D04F
:10322000DECFE9FFDDCFEAFF310EE926000EEA220C
:10323000EE2AEE22EE22EE221BD0020EDB50020816
:1032400015E0DECFE9FFDDCFEAFF310EE926000E03
:10325000EA22F80EDBCFEEFFF90EDBCFEEFFFA0E1F
:10326000DBCFEEFFFB0EDBCFEEFF02D0030EDB6AFF
:10327000020EDB0401E098D00501805154E1DECF5D
:10328000E9FFDDCFEAFF020EE926000EEA22E9CFD0
:1032900010F0EACF11F0E9CFE6FFEACFE6FF95ECB8
:1032A00036F0E552E552DECFE9FFDDCFEAFF160E3C
:1032B000E926000EEA22EFCF10F005017651D88002
:1032C00010540AE2DECFE9FFDDCFEAFF160EE92651
:1032D000000EEA22EFCF76F5DECFE9FFDDCFEAFF81
:1032E000020EE926000EEA22E9CF10F0EACF11F033
:1032F000E9CFE6FFEACFE6FFDECFE9FFDDCFEAFF69
:10330000160EE926000EEA22EF50090DF3CF12F057
:10331000F4CF13F0E00E1226040E132212C0E6FFC3
:1033200013C0E6FF14D0DECFE9FFDDCFEAFF0C0EBD
:10333000E926000EEA22E9CF10F0EACF11F0E9CF3A
:10334000E6FFEACFE6FF110EE66E050EE66E37ECFD
:1033500035F0E552E552E552E552DECFE9FFDDCF2B
:10336000EAFF160EE926000EEA22EFCF10F070C534
:10337000E9FF71C5EAFF160EEB50D880105414E235
:10338000D950F30FE96EFF0EDA20EA6EEE50ED1021
:1033900008E0F30EDBCFE9FFF40EDBCFEAFF010E0E
:1033A000EF6E0501010E796F030EDB50106E050EF6
:1033B000E15C02E2E16AE552E16E1050E552E5CFD0
:1033C000DAFFE7CFD9FF1200D9CFE6FFDACFE6FF69
:1033D000E1CFD9FFE2CFDAFFE652E652E652E652FB
:1033E000FC0EDBCFDEFFDBCFDDFF030EDB6ADECFC3
:1033F000E9FFDDCFEAFF350EE926000EEA22020ED4
:10340000EFCFDBFFDECFE9FFDDCFEAFF350EE926A8
:10341000000EEA22020EEF6EDECFE9FFDDCFEAFFFB
:10342000310EE926000EEA22EE2AEE22EE22EE22EC
:10343000020EDB0401E098D00501805154E1DECF9B
:10344000E9FFDDCFEAFF020EE926000EEA22E9CF0E
:1034500010F0EACF11F0E9CFE6FFEACFE6FF95ECF6
:1034600036F0E552E552DECFE9FFDDCFEAFF160E7A
:10347000E926000EEA22EFCF10F005017651D88040
:1034800010540AE2DECFE9FFDDCFEAFF160EE9268F
:10349000000EEA22EFCF76F5DECFE9FFDDCFEAFFBF
:1034A000020EE926000EEA22E9CF10F0EACF11F071
:1034B000E9CFE6FFEACFE6FFDECFE9FFDDCFEAFFA7
:1034C000160EE926000EEA22EF50090DF3CF12F096
:1034D000F4CF13F0E00E1226040E132212C0E6FF02
:1034E00013C0E6FF14D0DECFE9FFDDCFEAFF0C0EFC
:1034F000E926000EEA22E9CF10F0EACF11F0E9CF79
:10350000E6FFEACFE6FF110EE66E050EE66E37EC3B
:1035100035F0E552E552E552E552DECFE9FFDDCF69
:10352000EAFF160EE926000EEA22EFCF10F070C572
:10353000E9FF71C5EAFF160EEB50D880105414E273
:10354000D950FA0FE96EFF0EDA20EA6EEE50ED1058
:1035500008E0FA0EDBCFE9FFFB0EDBCFEAFF010E3E
:10356000EF6E0501010E796F040EE15C02E2E16A83
:10357000E552E16EE552E5CFDAFFE7CFD9FF120061
:10358000D9CFE6FFDACFE6FFE1CFD9FFE2CFDAFF0E
:10359000E652E652E652D950FC0FE96EFF0EDA20F1
:1035A000EA6EEE50ED1005E170C510F071C511F036
:1035B00006D0FC0EDBCF10F0FD0EDBCF11F010C0FB
:1035C000DEFF11C0DDFFF250E66EF29EDECFE9FFB6
:1035D000DDCFEAFF350EE926000EEA22EF500208A1
:1035E0000FE1DECFE9FFDDCFEAFF350EE926000E61
:1035F000EA22EF6A010EF36E020EF3CFDBFF02D078
:10360000020EDB6AE552E7BEF28E020EDB5000D0FE
:10361000E552E552E552E552E5CFDAFFE7CFD9FFB3
:103620001200D9CFE6FFDACFE6FFE1CFD9FFE2CF34
:10363000DAFFE652E652E652E652020E74C5DBFFAE
:10364000030E75C5DBFF70C5E9FF71C5EAFF020E09
:10365000E926000EEA22E9CF10F0EACF11F0E9CF17
:10366000E6FFEACFE6FF95EC36F0E552E5520009B9
:10367000D950FC0FE96EFF0EDA20EA6EFF0EEE184D
:103680001DE1FF0EED181AE1FB0EDB5017E070C5CF
:10369000E9FF71C5EAFF020EE926000EEA22E9CF32
:1036A00010F0EACF11F0E9CFE6FFEACFE6FF230EF4
:1036B000E66E050EE66E37EC35F042D0FC0EDBCF41
:1036C00012F0FD0EDBCF13F0020EDB501224106E51
:1036D000030EDB501320116E10C0DEFFDD6E70C5CF
:1036E000E9FF71C5EAFF020EE926000EEA22DECFED
:1036F000EEFFDDCFEDFFDECF10F0DDCF11F0020EDB
:10370000DBCF12F0030EDBCF13F01250105C13501E
:1037100011581BE270C5E9FF71C5EAFF020EE926E8
:10372000000EEA22E9CF10F0EACF11F0E9CFE6FF70
:10373000EACFE6FF0FC5E6FF10C5E6FFB7EC35F0B0
:10374000E552E552E552E55228D070C5E9FF71C552
:10375000EAFF020EE926000EEA22E9CF10F0EACFD6
:1037600011F0E9CFE6FFEACFE6FF0DC5E6FF0EC593
:10377000E6FFB7EC35F0E552E552E552E552DECF13
:1037800010F0DDCF11F005017C51105C7D51115816
:1037900004E2DECF7CF5DDCF7DF5040EE15C02E2D4
:1037A000E16AE552E16EE552E5CFDAFFE7CFD9FFF6
:0237B000120005
:0E37B200D9CFE6FFDACFE6FFE1CFD9FFE2CFB5
:1037C000DAFFE652E652FC0EDBCFDEFFDBCFDDFF99
:1037D000F250E66EF29EDECFE9FFDDCFEAFF1C0E6F
:1037E000E926000EEA22EFCF14F0DECFE9FFDDCFAD
:1037F000EAFF1B0EE926000EEA22EF501402F350F6
:10380000126E136ADECFE9FFDDCFEAFF1250EE241D
:10381000106E1350EE20116EDECFE9FFDDCFEAFF10
:10382000040EE926000EEA2210C0EEFF11C0EDFFE3
:10383000DECFE9FFDDCFEAFF1A0EE926000EEA220D
:10384000EF6ADECFE9FFDDCFEAFFEECF10F0EFCF7A
:1038500011F0DECFE9FFDDCFEAFF020EE926000E10
:10386000EA2210C0EEFF11C0EDFFDECFE9FFDDCF91
:10387000EAFF1C0EE926000EEA22EFCF14F0DECF9D
:10388000E9FFDDCFEAFF1B0EE926000EEA22EF0476
:103890001402F350126E136ADECFE9FFDDCFEAFFA8
:1038A0001250EE24106E1350EE20116EDECFE9FFA1
:1038B000DDCFEAFF040EE926000EEA22020EE92619
:1038C000000EEA2210C0EEFF11C0EDFFDECFE9FFCF
:1038D000DDCFEAFF1D0EE926000EEA22EF68DECFFB
:1038E000E9FFDDCFEAFF1E0EE926000EEA22EF68AF
:1038F000FB0EDB5028E1DECFE9FFDDCFEAFF080E4B
:10390000E926000EEA22EF5002E1010E01D0000E7E
:10391000000918E1DECFE9FFDDCFEAFF080EE92656
:10392000000EEA22E9CF10F0EACF11F010C0E6FF56
:1039300011C0E6FFAAEC0DF0E552E552000901E0E6
:1039400000D000D028D0DECFE9FFDDCFEAFF080E9F
:10395000E926000EEA22E9CF10F0EACF11F010C0FC
:10396000E6FF11C0E6FFA5EC34F0E552E552DECFEC
:10397000E9FFDDCFEAFF110EE926000EEA22E9CFCA
:1039800010F0EACF11F010C0E6FF11C0E6FFA5EC81
:1039900034F0E552E552E552E7BEF28E010E00D05A
:1039A000E552E552E552E5CFDAFFE7CFD9FF120045
:1039B000D9CFE6FFDACFE6FFE1CFD9FFE2CFDAFFDA
:1039C000060EE12402E3E168E652E16EFC0EDB50F4
:1039D00005E1020EDB6A030EDB6A13D0FC0EDBCFBF
:1039E000E6FFFD0EDB50E552E702F350E66ED950DC
:1039F000020FE96E000EDA20EA6EE552E750EE6E35
:103A0000ED6A020EDBCF10F0030EDBCF11F01F0EBC
:103A10001026000E112210C0E6FF11C0E6FFD3EC05
:103A200037F0E552E552F3CFDEFFF4CFDDFFD9CF1B
:103A3000E9FFDACFEAFFEE50ED1030E0D9CFE9FF31
:103A4000DACFEAFF040EEECFDBFF050EEDCFDBFF92
:103A5000D950040FE96E000EDA20EA6E1F0EEE2632
:103A6000000EED22DECFE6FFDDCFE6FFFB0EDBCF63
:103A7000E6FF040EDBCFE6FF050EDBCFE6FFFC0E14
:103A8000DBCFE6FFFD0EDBCFE6FF1CD8106E070E86
:103A9000E15C02E2E16AE552E16E1050DECF10F027
:103AA000DDCF11F010C0F3FF11C0F4FF060EE15C92
:103AB00002E2E16AE552E16EE552E5CFDAFFE7CFD7
:103AC000D9FF1200D9CFE6FFDACFE6FFE1CFD9FF69
:103AD000E2CFDAFFFC0EDB500BE1F70EDBCFE9FFA4
:103AE000F80EDBCFEAFFF70EDBCFEEFFF80E0AD0C1
:103AF000F70EDBCFE9FFF80EDBCFEAFFFA0EDBCFE4
:103B0000EEFFFB0EDBCFEDFFF70EDBCFE9FFF80E8C
:103B1000DBCFEAFF1B0EE926000EEA22FD0EDBCF0B
:103B2000EFFFF70EDBCFE9FFF80EDBCFEAFF1C0E4D
:103B3000E926000EEA22FC0EDBCFEFFF010EE66E57
:103B4000F70EDBCFE6FFF80EDBCFE6FF32DEE55205
:103B5000E552E552E552E5CFDAFFE7CFD9FF120093
:103B6000D9CFE6FFDACFE6FFE1CFD9FFE2CFDAFF28
:103B7000E150FC0FE96EFF0EE220EA6EEE50ED1010
:103B800037E0FC0EDBCFE9FFFD0EDBCFEAFF040ED2
:103B9000E926000EEA22EE6AED6AFC0EDBCFE9FFB1
:103BA000FD0EDBCFEAFFEE6AED6AFC0EDBCFE9FF2C
:103BB000FD0EDBCFEAFF040EE926000EEA22020E1C
:103BC000E926000EEA22EF6AE66AE66EE66AE66E2B
:103BD000E66AFC0EDBCFE6FFFD0EDBCFE6FF87D803
:103BE000106E070EE15C02E2E16AE552E16E1050F0
:103BF000E552E5CFDAFFE7CFD9FF1200D9CFE6FFD4
:103C0000DACFE6FFE1CFD9FFE2CFDAFFE652E652A4
:103C1000E652E652010EF36E020EF3CFDBFF030E07
:103C2000DB6AFD0EDBCFE6FF030EDBCFE6FF020E05
:103C3000DBCFE6FFBDDEE552E552E552F3CFDEFF16
:103C4000F4CFDDFFDECFE6FFDDCFE6FF89DFE55213
:103C5000E552DECF10F0DDCF11F010C0F3FF11C040
:103C6000F4FF040EE15C02E2E16AE552E16EE55226
:103C7000E5CFDAFFE7CFD9FF1200D9CFE6FFDACFE1
:103C8000E6FFE1CFD9FFE2CFDAFFE652E652020EBD
:103C9000E66EE66AFD0EDBCFE6FF8ADEE552E55210
:103CA000E552F3CFDEFFF4CFDDFFD9CFE9FFDACF66
:103CB000EAFFEE50ED100BE0DECFE9FFDDCFEAFFCB
:103CC0001A0EE926000EEA22FC0EDBCFEFFFDECF54
:103CD00010F0DDCF11F010C0F3FF11C0F4FFE5527A
:103CE000E552E552E5CFDAFFE7CFD9FF1200D9CF91
:103CF000E6FFDACFE6FFE1CFD9FFE2CFDAFF070E2A
:103D0000E12402E3E168E652E16EDF6AFC0EDBCFFC
:103D100008F0FD0EDBCF09F0050E08C0DBFF060E34
:103D200009C0DBFFF250E66EF29E050EDBCFE9FF25
:103D3000060EDBCFEAFF1A0EE926000EEA22EFCFCD
:103D400010F0050EDBCFE9FF060EDBCFEAFF1B0EFE
:103D5000E926000EEA22EF50105C04E3F70EDB5078
:103D6000020852E1F70EDBCFE6FFFA0EDBCFE6FFEB
:103D7000FB0EDBCFE6FF050EDBCFE6FF060EDBCF4B
:103D8000E6FF12EC28F0106E050EE15C02E2E16A3B
:103D9000E552E16E1050E76E010EE7CFDBFF050E36
:103DA000DBCFE9FF060EDBCFEAFF110EE926000E9E
:103DB000EA22EF5002E1010E01D0000E00091AE1E3
:103DC000050EDBCFE9FF060EDBCFEAFF110EE92679
:103DD000000EEA22E9CF10F0EACF11F010C0E6FFA2
:103DE00011C0E6FFAAEC0DF0E552E552000901E032
:103DF00000D004D0010EDB5001E000D0E552E7BE58
:103E0000F28E010EC5D01ED0D950F80FE96EFF0E0C
:103E1000DA20EA6EEE50ED1006E1E552E7BEF28ED2
:103E2000000EB6D00FD0DF500DE1D950020FE66E74
:103E3000000EDA20E66E4FEC0FF0E552E552010E6F
:103E4000DF6E00D0E552E7BEF28EDCEC09F0F250F6
:103E5000E66EF29E050EDBCFE9FF060EDBCFEAFF32
:103E60001D0EE926000EEA22EF50FF080BE1050EB9
:103E7000DBCFE9FF060EDBCFEAFF1D0EE926000EC1
:103E8000EA22EF6A050EDBCFE9FF060EDBCFEAFF81
:103E90001E0EE926000EEA22EF50FF080BE1050E88
:103EA000DBCFE9FF060EDBCFEAFF1E0EE926000E90
:103EB000EA22EF6AE552E7BEF28ED950F80FE66EBD
:103EC000FF0EDA20E66ED950020FE66E000EDA2001
:103ED000E66E70EC0FF0E552E552E552E55200094E
:103EE00048E1050EDBCFE6FF060EDBCFE6FF79ECFF
:103EF0002BF0E552E55200092FE0F80EDBCFE6FF8C
:103F0000F90EDBCFE6FF050EDBCFE9FF060EDBCFB8
:103F1000EAFF080EE926000EEA22E9CF10F0EACF08
:103F200011F010C0E6FF11C0E6FF28EC0DF0E552DD
:103F3000E552E552E552050EDBCFE6FF060EDBCF7C
:103F4000E6FF57EC2AF0E552E552DFEC09F00009F4
:103F500002E17CEC2FF00CD0050EDBCFE6FF060E65
:103F6000DBCFE6FF57EC2AF0E552E552DFEC09F033
:103F70000ED0050EDBCFE6FF060EDBCFE6FF57ECDB
:103F80002AF0E552E552DFEC09F0000E01D0CAD666
:103F9000106E070EE15C02E2E16AE552E16E10503C
:103FA000E552E5CFDAFFE7CFD9FF1200D9CFE6FF20
:103FB000DACFE6FFE1CFD9FFE2CFDAFFE652E652F1
:103FC000E652E652E652FC0EDBCF08F0FD0EDBCFE8
:103FD00009F0020E08C0DBFF030E09C0DBFF010E73
:103FE000DB6A020EDBCFE9FF030EDBCFEAFF1A0E1E
:103FF000E926000EEA22EFCF10F0020EDBCFE9FF38
:10400000030EDBCFEAFF1B0EE926000EEA22EF507B
:10401000105C05E3F70EDB50020801E077D0020EDA
:10402000DBCFE9FF030EDBCFEAFF1E0EE926000E11
:10403000EA22040EEFCFDBFFF70EDBCFE6FFFA0E2E
:10404000DBCFE6FFFB0EDBCFE6FF020EDBCFE6FFAA
:10405000030EDBCFE6FF12EC28F0106E050EE15CDC
:1040600002E2E16AE552E16E1050040EDB50FF08F7
:104070003AE1020EDBCFE9FF030EDBCFEAFF110EC0
:10408000E926000EEA22EF5002E1010E01D0000EF7
:10409000000939E1020EDBCFE9FF030EDBCFEAFFB7
:1040A000110EE926000EEA22E9CF10F0EACF11F056
:1040B000E9CFE6FFEACFE6FFAAEC0DF0E552E552C4
:1040C000000921E0D950F80FE96EFF0EDA20EA6E00
:1040D000EE50ED1018E0F80EDBCFE9FFF90EDBCF64
:1040E000EAFF010E0FD0040EDB28E66E020EDBCFD6
:1040F000E9FF030EDBCFEAFF1E0EE926000EEA22DF
:10410000E552E750EF6E010EDF6E01D0DF6ADF503F
:10411000106E050EE15C02E2E16AE552E16E1050BC
:10412000E552E5CFDAFFE7CFD9FF1200D9CFE6FF9E
:10413000DACFE6FFE1CFD9FFE2CFDAFF060EE124C6
:1041400002E3E168E652E16EFC0EDBCF08F0FD0E03
:10415000DBCF09F0020E08C0DBFF030E09C0DBFF56
:10416000010EDB6A020EDBCFE9FF030EDBCFEAFFB5
:104170001A0EE926000EEA22040EEFCFDBFF020E34
:10418000DBCFE9FF030EDBCFEAFF1B0EE926000EB3
:10419000EA22EF50F36E040EDBCFF4FFF350F45C31
:1041A0006EE2020EDBCFE9FF030EDBCFEAFF1E0E4D
:1041B000E926000EEA22050EEFCFDBFF040EDB2816
:1041C000E66E020EDBCFE9FF030EDBCFEAFF1A0E2D
:1041D000E926000EEA22E552E750EF6E050EDB50AD
:1041E000FF083AE1020EDBCFE9FF030EDBCFEAFF67
:1041F000110EE926000EEA22EF5002E1010E01D075
:10420000000E000939E1020EDBCFE9FF030EDBCF20
:10421000EAFF110EE926000EEA22E9CF10F0EACFFC
:1042200011F0E9CFE6FFEACFE6FFAAEC0DF0E55288
:10423000E552000921E0D950FA0FE96EFF0EDA20AD
:10424000EA6EEE50ED1018E0FA0EDBCFE9FFFB0E40
:10425000DBCFEAFF010E0FD0050EDB28E66E020E63
:10426000DBCFE9FF030EDBCFEAFF1E0EE926000ECF
:10427000EA22E552E750EF6E010EDF6E01D0DF6AF1
:10428000DF50106E060EE15C02E2E16AE552E16E7B
:104290001050E552E5CFDAFFE7CFD9FF1200D9CFB2
:1042A000E6FFDACFE6FFE1CFD9FFE2CFDAFF070E74
:1042B000E12402E3E168E652E16EDF6AFC0EDBCF47
:1042C00008F0FD0EDBCF09F0040E08C0DBFF050E81
:1042D00009C0DBFFF250E66EF29E040EDBCFE9FF71
:1042E000050EDBCFEAFF1A0EE926000EEA22060EC3
:1042F000EFCFDBFF060EDB50000853E2FA0EDBCFF8
:10430000E6FFFB0EDBCFE6FF040EDBCFE6FF050E7C
:10431000DBCFE6FFA8EC29F0E552E552E552E55285
:10432000060EDB04E66E040EDBCFE9FF050EDBCFE5
:10433000EAFF1A0EE926000EEA22E552E750EF6E78
:10434000040EDBCFE9FF050EDBCFEAFF080EE926FE
:10435000000EEA22EF5002E1010E01D0000E00092A
:104360001AE1040EDBCFE9FF050EDBCFEAFF080EF2
:10437000E926000EEA22E9CF10F0EACF11F010C0D2
:10438000E6FF11C0E6FFAAEC0DF0E552E552000988
:1043900001E000D000D0E552E7BEF28E010ED3D08E
:1043A0001ED0D950F80FE96EFF0EDA20EA6EEE50FB
:1043B000ED1006E1E552E7BEF28E000EC4D00FD03C
:1043C000DF500DE1D950010FE66E000EDA20E66EE7
:1043D0004FEC0FF0E552E552010EDF6E00D0E552D2
:1043E000E7BEF28EDCEC09F0F250E66EF29E040EAF
:1043F000DBCFE9FF050EDBCFEAFF1D0EE926000E3D
:10440000EA22EF50FF080BE1040EDBCFE9FF050EB7
:10441000DBCFEAFF1D0EE926000EEA22EF6A040E4A
:10442000DBCFE9FF050EDBCFEAFF1E0EE926000E0B
:10443000EA22EF50FF080BE1040EDBCFE9FF050E87
:10444000DBCFEAFF1E0EE926000EEA22EF6AE552F4
:10445000E7BEF28ED950F80FE66EFF0EDA20E66E58
:10446000D950010FE66E000EDA20E66E70EC0FF008
:10447000E552E552E552E552000949E1040EDBCF71
:10448000E6FF050EDBCFE6FF20EC2BF0E552E55210
:10449000000930E0F80EDBCFE6FFF90EDBCFE6FFD8
:1044A000040EDBCFE9FF050EDBCFEAFF110EE92694
:1044B000000EEA22E9CF10F0EACF11F010C0E6FFBB
:1044C00011C0E6FF28EC0DF0E552E552E552E55249
:1044D000040EDBCFE6FF050EDBCFE6FF57EC2AF03C
:1044E000E552E552DFEC09F0000903E17CEC2FF026
:1044F00000D00CD0040EDBCFE6FF050EDBCFE6FFCD
:1045000057EC2AF0E552E552DFEC09F01BD0040E1F
:10451000DBCFE6FF050EDBCFE6FF57EC2AF0E552D6
:10452000E552DFEC09F0040EDBCFE6FF050EDBCF32
:10453000E6FF20EC2BF0E552E552000903E0000E07
:1045400002D000D0C7D6106E070EE15C02E2E16A2D
:10455000E552E16E1050E552E5CFDAFFE7CFD9FF23
:104560001200D9CFE6FFDACFE6FFE1CFD9FFE2CFE5
:10457000DAFF090EE12402E3E168E652E16EDF6A48
:10458000FC0EDBCF08F0FD0EDBCF09F0040E08C0F7
:10459000DBFF050E09C0DBFF060EDB6AF250E66E9C
:1045A000F29E040EDBCFE9FF050EDBCFEAFF1A0E09
:1045B000E926000EEA22070EEFCFDBFF070EDB50E5
:1045C00000085FE2070EDB04E66E040EDBCFE9FFB6
:1045D000050EDBCFEAFF1A0EE926000EEA22E552AD
:1045E000E750EF6E040EDBCFE9FF050EDBCFEAFFED
:1045F000EE50ED1015E1B8EC15F0F3CF10F0F4CF5C
:1046000011F0040EDBCFE9FF050EDBCFEAFF040E4D
:10461000E926000EEA2210C0EEFF11C0EDFF00D027
:10462000040EDBCFE9FF050EDBCFEAFF080EE9261B
:10463000000EEA22EF5002E1010E01D0000E000947
:104640001AE1040EDBCFE9FF050EDBCFEAFF080E0F
:10465000E926000EEA22E9CF10F0EACF11F010C0EF
:10466000E6FF11C0E6FFAAEC0DF0E552E5520009A5
:1046700001E000D000D0E552E7BEF28E010E25D158
:104680001ED0D950FA0FE96EFF0EDA20EA6EEE5016
:10469000ED1006E1E552E7BEF28E000E16D10FD006
:1046A000DF500DE1D950010FE66E000EDA20E66E04
:1046B0004FEC0FF0E552E552010EDF6E00D0E552EF
:1046C000E7BEF28EDCEC09F0F250E66EF29E040ECC
:1046D000DBCFE9FF050EDBCFEAFF1D0EE926000E5A
:1046E000EA22EF50FF080BE1040EDBCFE9FF050ED5
:1046F000DBCFEAFF1D0EE926000EEA22EF6A040E68
:10470000DBCFE9FF050EDBCFEAFF1E0EE926000E28
:10471000EA22EF50FF080BE1040EDBCFE9FF050EA4
:10472000DBCFEAFF1E0EE926000EEA22EF6AE55211
:10473000E7BEF28ED950FA0FE66EFF0EDA20E66E73
:10474000D950010FE66E000EDA20E66E70EC0FF025
:10475000E552E552E552E55200096FE1040EDBCF68
:10476000E6FF050EDBCFE6FF20EC2BF0E552E5522D
:10477000000956E0040EDBCFE9FF050EDBCFEAFFB0
:10478000EE50ED101DE1F250E66EF29E040EDBCF0E
:10479000E9FF050EDBCFEAFF040EE926000EEA2250
:1047A000EECFE6FFEFCFE6FF3FEC12F0E552E55229
:1047B000E76E060EE7CFDBFFE552E7BEF28E00D0D4
:1047C000FA0EDBCFE6FFFB0EDBCFE6FF040EDBCFFE
:1047D000E9FF050EDBCFEAFF110EE926000EEA2203
:1047E000E9CF10F0EACF11F010C0E6FF11C0E6FFEC
:1047F00028EC0DF0E552E552E552E552040EDBCF10
:10480000E6FF050EDBCFE6FF57EC2AF0E552E55256
:10481000DFEC09F0000903E17CEC2FF000D00CD0B4
:10482000040EDBCFE6FF050EDBCFE6FF57EC2AF0E8
:10483000E552E552DFEC09F047D0040EDBCFE6FF8E
:10484000050EDBCFE6FF57EC2AF0E552E552DFEC30
:1048500009F0040EDBCFE6FF050EDBCFE6FF20EC10
:104860002BF0E552E55200092FE0060EDB5029E05F
:10487000F250E66EF29E040EDBCFE6FF050EDBCFB4
:10488000E6FF95DBE552E552E76E080EE7CFDBFF6A
:10489000080EDBCFE6FF040EDBCFE9FF050EDBCF12
:1048A000EAFF040EE926000EEA22EECFE6FFEFCF84
:1048B000E6FF4DEC14F0E552E552E552E552E7BE55
:1048C000F28E000E02D000D069D6106E090EE15CA7
:1048D00002E2E16AE552E16E1050E552E5CFDAFFFF
:1048E000E7CFD9FF1200D9CFE6FFDACFE6FFE1CF5D
:1048F000D9FFE2CFDAFF090EE12402E3E168E652D4
:10490000E16EDF6AFC0EDBCF08F0FD0EDBCF09F0B5
:10491000060E08C0DBFF070E09C0DBFFF250E66E93
:10492000F29E060EDBCFE9FF070EDBCFEAFF1A0E81
:10493000E926000EEA22080EEFCFDBFF080EDB505F
:1049400000086BE2060EDBCFE9FF070EDBCFEAFFC4
:10495000040EE926000EEA22020EE926000EEA22E3
:10496000040EEECFDBFF050EEDCFDBFFFA0EDBCF43
:10497000E6FFFB0EDBCFE6FF060EDBCFE6FF070E02
:10498000DBCFE6FFA8EC29F0E552E552E552E5520F
:10499000060EDBCFE9FF070EDBCFEAFF040EE926A8
:1049A000000EEA22020EE926000EEA22040EDBCFF8
:1049B000EEFF050EDBCFEDFF060EDBCFE9FF070EA6
:1049C000DBCFEAFF110EE926000EEA22EF5002E1EA
:1049D000010E01D0000E00091AE1060EDBCFE9FF3F
:1049E000070EDBCFEAFF110EE926000EEA22E9CF1F
:1049F00010F0EACF11F010C0E6FF11C0E6FFAAECFC
:104A00000DF0E552E552000901E000D000D0E5527A
:104A1000E7BEF28E010ED3D01ED0D950F80FE96E4A
:104A2000FF0EDA20EA6EEE50ED1006E1E552E7BE29
:104A3000F28E000EC4D00FD0DF500DE1D950010F1F
:104A4000E66E000EDA20E66E4FEC0FF0E552E5520E
:104A5000010EDF6E00D0E552E7BEF28EDCEC09F00D
:104A6000F250E66EF29E060EDBCFE9FF070EDBCFBB
:104A7000EAFF1D0EE926000EEA22EF50FF080BE1C7
:104A8000060EDBCFE9FF070EDBCFEAFF1D0EE9269E
:104A9000000EEA22EF6A060EDBCFE9FF070EDBCF3E
:104AA000EAFF1E0EE926000EEA22EF50FF080BE196
:104AB000060EDBCFE9FF070EDBCFEAFF1E0EE9266D
:104AC000000EEA22EF6AE552E7BEF28ED950F80FE7
:104AD000E66EFF0EDA20E66ED950010FE66E000E8C
:104AE000DA20E66E70EC0FF0E552E552E552E55241
:104AF000000949E1060EDBCFE6FF070EDBCFE6FF3C
:104B000020EC2BF0E552E552000930E0F80EDBCF47
:104B1000E6FFF90EDBCFE6FF060EDBCFE9FF070E5F
:104B2000DBCFEAFF110EE926000EEA22E9CF10F0F2
:104B3000EACF11F010C0E6FF11C0E6FF28EC0DF03F
:104B4000E552E552E552E552060EDBCFE6FF070ED1
:104B5000DBCFE6FF57EC2AF0E552E552DFEC09F037
:104B6000000903E17CEC2FF000D00CD0060EDBCF67
:104B7000E6FF070EDBCFE6FF57EC2AF0E552E552E1
:104B8000DFEC09F01BD0060EDBCFE6FF070EDBCF14
:104B9000E6FF57EC2AF0E552E552DFEC09F0060E8D
:104BA000DBCFE6FF070EDBCFE6FF20EC2BF0E55274
:104BB000E552000903E0000E02D000D0AFD6106E1F
:104BC000090EE15C02E2E16AE552E16E1050E55245
:104BD000E5CFDAFFE7CFD9FF1200D9CFE6FFDACF72
:104BE000E6FFE1CFD9FFE2CFDAFF060EE12402E3D0
:104BF000E168E652E16EFC0EDBCF08F0FD0EDBCF84
:104C000009F0020E08C0DBFF030E09C0DBFF010E36
:104C1000DB6A020EDBCFE9FF030EDBCFEAFF1A0EE1
:104C2000E926000EEA22040EEFCFDBFFDB5000087E
:104C300001E37FD0020EDBCFE9FF030EDBCFEAFFFB
:104C40001D0EE926000EEA22050EEFCFDBFFFA0E5D
:104C5000DBCFE6FFFB0EDBCFE6FF020EDBCFE6FF8E
:104C6000030EDBCFE6FF74DBE552E552E552E55279
:104C7000040EDB04E66E020EDBCFE9FF030EDBCF92
:104C8000EAFF1A0EE926000EEA22E552E750EF6E1F
:104C9000050EDB50FF083AE1020EDBCFE9FF030E01
:104CA000DBCFEAFF080EE926000EEA22EF5002E110
:104CB000010E01D0000E000939E1020EDBCFE9FF41
:104CC000030EDBCFEAFF080EE926000EEA22E9CF49
:104CD00010F0EACF11F0E9CFE6FFEACFE6FFAAEC49
:104CE0000DF0E552E552000921E0D950F80FE96EC8
:104CF000FF0EDA20EA6EEE50ED1018E0F80EDBCF72
:104D0000E9FFF90EDBCFEAFF010E0FD0050EDB281D
:104D1000E66E020EDBCFE9FF030EDBCFEAFF1D0ECE
:104D2000E926000EEA22E552E750EF6E010EDF6E33
:104D300001D0DF6ADF50106E060EE15C02E2E16A2C
:104D4000E552E16E1050E552E5CFDAFFE7CFD9FF2B
:104D50001200D9CFE6FFDACFE6FFE1CFD9FFE2CFED
:104D6000DAFF060EE12402E3E168E652E16EFC0E92
:104D7000DBCF08F0FD0EDBCF09F0040E08C0DBFF2F
:104D8000050E09C0DBFF010EDB6A040EDBCFE9FF75
:104D9000050EDBCFEAFF1A0EE926000EEA22EF50DD
:104DA00000083CE2040EDBCFE9FF050EDBCFEAFF93
:104DB000040EE926000EEA22020EE926000EEA227F
:104DC000020EEECFDBFF030EEDCFDBFFFA0EDBCFE3
:104DD000E6FFFB0EDBCFE6FF040EDBCFE6FF050EA2
:104DE000DBCFE6FFB5DAE552E552E552E552040EB7
:104DF000DBCFE9FF050EDBCFEAFF040EE926000E4C
:104E0000EA22020EE926000EEA22020EDBCFEEFFB6
:104E1000030EDBCFEDFF010EDF6E01D0DF6ADF5046
:104E2000106E060EE15C02E2E16AE552E16E10509E
:104E3000E552E5CFDAFFE7CFD9FF1200D9CFE6FF81
:104E4000DACFE6FFE1CFD9FFE2CFDAFFE652F25048
:104E5000E66EF29EFC0EDBCFE9FFFD0EDBCFEAFF34
:104E60001A0EE926000EEA22EFCFDFFFE552E7BE79
:104E7000F28EDF5000D0E552E552E5CFDAFFE7CF02
:104E8000D9FF1200D9CFE6FFDACFE6FFE1CFD9FF95
:104E9000E2CFDAFFE652E652E652FC0EDBCF08F034
:104EA000FD0EDBCF09F0DE5208C0DEFF09C0DDFFDA
:104EB000DD52F250E66EF29E010EDBCFE9FF020EEC
:104EC000DBCFEAFF1B0EE926000EEA22EFCF10F03F
:104ED000010EDBCFE9FF020EDBCFEAFF1A0EE92657
:104EE000000EEA22EF50105CDF6EE552E7BEF28E54
:104EF000DF5000D0E552E552E552E552E5CFDAFF4A
:104F0000E7CFD9FF1200D9CFE6FFDACFE6FFE1CF36
:104F1000D9FFE2CFDAFFE652E652E652FC0EDBCFD3
:104F200008F0FD0EDBCF09F0DE5208C0DEFF09C03D
:104F3000DDFFDD52010EDBCFE9FF020EDBCFEAFF22
:104F40001A0EE926000EEA22EFCFDFFFDF50E5520E
:104F5000E552E552E552E5CFDAFFE7CFD9FF12007F
:104F6000D9CFE6FFDACFE6FFE1CFD9FFE2CFDAFF14
:104F7000E652E652FC0EDBCFDEFFDBCFDDFFDECFFD
:104F8000E6FFDDCFE6FF87EC2CF0E552E552DECF01
:104F9000E6FFDDCFE6FF35EC38F0E552E552E552AD
:104FA000E552E552E5CFDAFFE7CFD9FF1200D9CFBE
:104FB000E6FFDACFE6FFE1CFD9FFE2CFDAFFE65234
:104FC000FC0EDBCFE9FFFD0EDBCFEAFF110EE92679
:104FD000000EEA22EF5000081CE2030E106EFC0ED9
:104FE000DBCFE9FFFD0EDBCFEAFF110EE926000E55
:104FF000EA22030EE926000EEA22020EE926000E3E
:10500000EA22EE50EFCFEAFFE96EEF50105CDF6E60
:1050100001D0DF6ADF50E552E552E5CFDAFFE7CF96
:10502000D9FF1200D9CFE6FFDACFE6FFE1CFD9FFF3
:10503000E2CFDAFFE652E652DF6AFC0EDBCFE9FF91
:10504000FD0EDBCFEAFF1A0EE926000EEA22010E62
:10505000EFCFDBFFFC0EDBCFE9FFFD0EDBCFEAFF7E
:105060001C0EE926000EEA22EF502AE1FC0EDBCFEF
:10507000E9FFFD0EDBCFEAFFEE50ED1001E04FD16E
:10508000FC0EDBCFE9FFFD0EDBCFEAFF040EE926C5
:10509000000EEA22EECFE6FFEFCFE6FF6CEC13F056
:1050A000E552E552DF6EFC0EDBCFE9FFFD0EDBCFF4
:1050B000EAFF040EE926000EEA22EE6AED6A2FD11D
:1050C000F90EDB5001E083D0FC0EDBCFE9FFFD0ED3
:1050D000DBCFEAFF1C0EE926000EEA22EF50E66E57
:1050E000E66AFA0EDBCFE6FFFB0EDBCFE6FFFC0E37
:1050F000DBCFE9FFFD0EDBCFEAFF020EE926000E53
:10510000EA22EECFE6FFEFCFE6FF22EC3AF0106E98
:10511000060EE15C02E2E16AE552E16E1050FC0E1F
:10512000DBCFE9FFFD0EDBCFEAFF1C0EE926000E08
:10513000EA22EF50106E116AFC0EDBCFE9FFFD0E84
:10514000DBCFEAFF020EE926000EEA221050EE261F
:105150001150ED22FC0EDBCFE9FFFD0EDBCFEAFFA5
:10516000020EE926000EEA22EECF10F0EFCF11F08A
:10517000FC0EDBCFE9FFFD0EDBCFEAFF040EE926D4
:10518000000EEA22EECF12F0EECF13F0EECF14F0C5
:105190001250105C1350115801E2C1D0FC0EDBCF4D
:1051A000E9FFFD0EDBCFEAFFEECF10F0EFCF11F0FD
:1051B000FC0EDBCFE9FFFD0EDBCFEAFF020EE92696
:1051C000000EEA2210C0EEFF11C0EDFFA8D0FC0EC9
:1051D000DBCFE9FFFD0EDBCFEAFF1C0EE926000E58
:1051E000EA22EF50E66EE66AFA0EDBCFE6FFFB0E30
:1051F000DBCFE6FFFC0EDBCFE9FFFD0EDBCFEAFFE6
:10520000040EE926000EEA22020EE926000EEA222A
:10521000EECFE6FFEFCFE6FF22EC3AF0106E060E7F
:10522000E15C02E2E16AE552E16E1050FC0EDBCF78
:10523000E9FFFD0EDBCFEAFF1C0EE926000EEA2295
:10524000EF50106E116AFC0EDBCFE9FFFD0EDBCFD5
:10525000EAFF040EE926000EEA22020EE926000EFD
:10526000EA221050EE5E1150ED5AFC0EDBCFE9FF42
:10527000FD0EDBCFEAFF040EE926000EEA22EECF98
:1052800010F0EECF11F0EECF12F0EFCF13F0FC0ED6
:10529000DBCFE9FFFD0EDBCFEAFFEECF14F0EFCF5F
:1052A00015F01450125C155013582FE2FC0EDBCF92
:1052B000E9FFFD0EDBCFEAFF1C0EE926000EEA2215
:1052C000EF50126E136AFC0EDBCFE9FFFD0EDBCF51
:1052D000EAFF040EE926000EEA221250EE5C106E80
:1052E0001350EE58116EFC0EDBCFE9FFFD0EDBCF45
:1052F000EAFF040EE926000EEA22020EE926000E5D
:10530000EA2210C0EEFF11C0EDFFF90EDB500208DB
:1053100006E1010EDB50000802E2010EDB06010E81
:10532000DB28E66EFC0EDBCFE9FFFD0EDBCFEAFFEC
:105330001A0EE926000EEA22E552E750EF6EDF5022
:10534000E552E552E552E5CFDAFFE7CFD9FF12008B
:10535000D9CFE6FFDACFE6FFE1CFD9FFE2CFDAFF20
:10536000FC0EDBCFE9FFFD0EDBCFEAFF1C0EE926CA
:10537000000EEA22EF5001E194D0FC0EDBCFE9FFF2
:10538000FD0EDBCFEAFF1C0EE926000EEA22EF50ED
:10539000106E116AFC0EDBCFE9FFFD0EDBCFEAFFDA
:1053A000040EE926000EEA22020EE926000EEA2289
:1053B0001050EE261150ED22FC0EDBCFE9FFFD0E62
:1053C000DBCFEAFF040EE926000EEA22EECF10F052
:1053D000EECF11F0EECF12F0EFCF13F0FC0EDBCFDB
:1053E000E9FFFD0EDBCFEAFF040EE926000EEA22FC
:1053F000EECF14F0EECF15F0EECF16F0EFCF17F0A2
:1054000000011450125C155013581CE3FC0EDBCF46
:10541000E9FFFD0EDBCFEAFFEECF10F0EFCF11F08A
:10542000FC0EDBCFE9FFFD0EDBCFEAFF040EE92621
:10543000000EEA22020EE926000EEA2210C0EEFF5C
:1054400011C0EDFFFC0EDBCFE9FFFD0EDBCFEAFF65
:105450001C0EE926000EEA22EF50E66EE66AFC0E0C
:10546000DBCFE9FFFD0EDBCFEAFF040EE926000EDD
:10547000EA22020EE926000EEA22EECFE6FFEFCF87
:10548000E6FFFA0EDBCFE6FFFB0EDBCFE6FF22ECFA
:105490003AF0106E060EE15C02E2E16AE552E16E5E
:1054A0001050E552E5CFDAFFE7CFD9FF1200D9CF90
:1054B000E6FFDACFE6FFE1CFD9FFE2CFDAFFE6522F
:1054C000E652F250E66EF29EFC0EDBCFE9FFFD0ED7
:1054D000DBCFEAFF1E0EE926000EEA22EFCFDFFF48
:1054E000DFCF10F0000EE76E1018E8AE02D01034D7
:1054F00003D0E750D880105430E2FC0EDBCFE9FF38
:10550000FD0EDBCFEAFF110EE926000EEA22EF5076
:1055100002E1010E01D0000E00091CE1FC0EDBCF00
:10552000E9FFFD0EDBCFEAFF110EE926000EEA22AD
:10553000E9CF10F0EACF11F010C0E6FF11C0E6FF8E
:10554000AAEC0DF0E552E552000903E01FEC10F063
:1055500000D001D002D0DF06C3D7FC0EDBCFE9FFBD
:10556000FD0EDBCFEAFF1E0EE926000EEA22EF68F1
:10557000E552E7BEF28EF250E66EF29EFC0EDBCFF5
:10558000E9FFFD0EDBCFEAFF1D0EE926000EEA2241
:10559000010EEFCFDBFF010EDBCF10F0000EE76E48
:1055A0001018E8AE02D0103403D0E750D880105461
:1055B00031E2FC0EDBCFE9FFFD0EDBCFEAFF080E88
:1055C000E926000EEA22EF5002E1010E01D0000EA2
:1055D00000091EE1FC0EDBCFE9FFFD0EDBCFEAFF89
:1055E000080EE926000EEA22E9CF10F0EACF11F00A
:1055F00010C0E6FF11C0E6FFAAEC0DF0E552E5523F
:10560000000903E01FEC10F000D0010EDB0601D012
:1056100001D0C1D7FC0EDBCFE9FFFD0EDBCFEAFFE7
:105620001D0EE926000EEA22EF68E552E7BEF28E73
:10563000E552E552E552E5CFDAFFE7CFD9FF120098
:10564000D9CFE6FFDACFE6FFE1CFD9FFE2CFDAFF2D
:10565000E652F250E66EF29EFC0EDBCFE9FFFD0E45
:10566000DBCFEAFF1A0EE926000EEA22EF5003E133
:10567000010EDF6E01D0DF6AE552E7BEF28EDF5029
:1056800000D0E552E552E5CFDAFFE7CFD9FF1200AF
:10569000D9CFE6FFDACFE6FFE1CFD9FFE2CFDAFFDD
:1056A000E652E652E652FC0EDBCF08F0FD0EDBCFF1
:1056B00009F0DE5208C0DEFF09C0DDFFDD52010E39
:1056C000DBCFE9FF020EDBCFEAFF1A0EE926000E60
:1056D000EA22EF5003E1010EDF6E01D0DF6ADF50F6
:1056E000E552E552E552E552E5CFDAFFE7CFD9FFC3
:1056F0001200D9CFE6FFDACFE6FFE1CFD9FFE2CF44
:10570000DAFFE652F250E66EF29EFC0EDBCFE9FFC6
:10571000FD0EDBCFEAFF1A0EE926000EEA22EFCFDC
:1057200010F0FC0EDBCFE9FFFD0EDBCFEAFF1B0E16
:10573000E926000EEA22EF50105C03E1010EDF6E55
:1057400001D0DF6AE552E7BEF28EDF5000D0E552AD
:10575000E552E5CFDAFFE7CFD9FF1200D9CFE6FF58
:10576000DACFE6FFE1CFD9FFE2CFDAFFE652E65229
:10577000E652FC0EDBCF08F0FD0EDBCF09F0DE5267
:1057800008C0DEFF09C0DDFFDD52010EDBCFE9FFFF
:10579000020EDBCFEAFF1A0EE926000EEA22EFCF57
:1057A00010F0010EDBCFE9FF020EDBCFEAFF1B0E8C
:1057B000E926000EEA22EF50105C03E1010EDF6ED5
:1057C00001D0DF6ADF50E552E552E552E552E5CF00
:1057D000DAFFE7CFD9FF1200D9CFE6FFDACFE6FF35
:1057E000E1CFD9FFE2CFDAFFE652DF6A0A0EDF5CD3
:1057F00034E2DF50040DF3CFE9FFF4CFEAFF2C0EC3
:10580000E926050EEA22EE50ED1025E1DF50040DE9
:10581000F3CFE9FFF4CFEAFF2C0EE926050EEA22CA
:10582000FA0EDBCFEEFFFB0EDBCFEDFFDF50040DFA
:10583000F3CFE9FFF4CFEAFF2C0EE926050EEA22AA
:10584000020EE926000EEA22FC0EDBCFEEFFFD0E73
:10585000DBCFEDFF02D0DF2AC9D7E552E552E5CF15
:10586000DAFFE7CFD9FF1200D9CFE6FFDACFE6FFA4
:10587000E1CFD9FFE2CFDAFFE652E652E652010E5F
:10588000DB6A020EDB6ADF6A0A0EDF5C2DE2DF50A4
:10589000040DF3CFE9FFF4CFEAFF2C0EE926050E45
:1058A000EA22020EE926000EEA22EECF10F0EFCF38
:1058B00011F0FC0EDB50101815E1FD0EDB50111835
:1058C00011E1DF50040DF3CFE9FFF4CFEAFF2C0E16
:1058D000E926050EEA22010EEECFDBFF020EEDCF28
:1058E000DBFF02D0DF2AD0D7010EDBCF10F0020E93
:1058F000DBCF11F010C0F3FF11C0F4FFE552E55209
:10590000E552E552E5CFDAFFE7CFD9FF1200D9CF54
:10591000E6FFDACFE6FFE1CFD9FFE2CFDAFFE652CA
:10592000DF6A0A0EDF5C39E2DF50040DF3CFE9FFD6
:10593000F4CFEAFF2C0EE926050EEA22020EE92634
:10594000000EEA22EECF10F0EFCF11F0FC0EDB508C
:10595000101821E1FD0EDB5011181DE1DF50040D80
:10596000F3CFE9FFF4CFEAFF2C0EE926050EEA2279
:10597000EE6AED6ADF50040DF3CFE9FFF4CFEAFFE2
:105980002C0EE926050EEA22020EE926000EEA2276
:10599000EE6AED6A02D0DF2AC4D7E552E552E5CFC0
:0859A000DAFFE7CFD9FF120086
:0859A800D9CFE6FFDACFE6FFDC
:1059B000E1CFD9FFE2CFDAFFE652E652E652E652F5
:1059C000E652FC0EDBCFE9FFFD0EDBCFEAFF110E46
:1059D000EF6EFC0EDB2AFD0E01E3DB2AFC0EDBCFB3
:1059E000E9FFFD0EDBCFEAFF220EEF6EFC0EDB2A95
:1059F000FD0E01E3DB2AFC0EDBCFE9FFFD0EDBCF62
:105A0000EAFF330EEF6EFC0EDB2AFD0E01E3DB2A0C
:105A1000F80EDBCF10F0F90EDBCF11F0000E10C046
:105A2000DFFF010E11C0DBFF020EDB6A030EDB6A33
:105A3000D9CFE9FFDACFEAFFEECF10F0EECF11F0C9
:105A4000EECF12F01050E66EFC0EDBCFE9FFFD0E3C
:105A5000DBCFEAFFE552E750EF6EFC0EDB2AFD0ECE
:105A600001E3DB2AD9CFE9FFDACFEAFF080EE76EC0
:105A7000D890030EEB32020EEB32010EEB32EF3216
:105A8000E706F6E1D9CFE9FFDACFEAFFEECF10F073
:105A9000EECF11F0EECF12F01050E66EFC0EDBCF21
:105AA000E9FFFD0EDBCFEAFFE552E750EF6EFC0E9B
:105AB000DB2AFD0E01E3DB2AFC0EDBCFE9FFFD0E46
:105AC000DBCFEAFF440EEF6EFC0EDB2AFD0E01E396
:105AD000DB2AFC0EDBCFE9FFFD0EDBCFEAFF660E13
:105AE000EF6EFC0EDB2AFD0E01E3DB2AFC0EDBCFA2
