:020000040000FA
:060000002FEF1DF01200BD
:08000800D0BEFCEF1CF030EF4C
:0400100018F01200D2
:0600180030EF18F01200A9
:06002A000200EE3B0000A5
:100030004D050000020000007C3A0000E1020000D3
:040040007201000049
:0C00440071EC17F046DA69DAC5DA42DA2E
:1000500019EC0BF08DDAA6DA72EC17F060EC15F003
:1000600012000101440506E1FF0E01013E5D02E2BE
:1000700001013E2B1200D9CFE6FFDACFE6FFE1CF38
:10008000D9FFE2CFDAFFE652DF6A010144053FE122
:10009000C00EF214DF6E800ED0143F09F21601017B
:1000A0003E51000802E201013E0701013E512DE1EF
:1000B00001013F512AE1CBDB01014151E96EEA6ABE
:1000C000D890E936EA36D20EE926010EEA22EECFC2
:1000D000CEF1EDCFCFF1010140510101415D15E0BD
:1000E000CEC1E9FFCFC1EAFF120EE926000EEA22D7
:1000F000EE2A000EEE22EE22EE220001B02B000EC0
:10010000B123B223B32379EC18F0DF50F212E55299
:10011000E552E5CFDAFFE7CFD9FF1200D9CFE6FFEE
:10012000DACFE6FFE1CFD9FFE2CFDAFFE652DF6AAE
:100130000101440512E1C00EF214DF6E800ED014EE
:100140003F09F21601013E5106E1FF0E01013F5D3C
:1001500002E201013F2BDF50F212E552E552E5CFFA
:10016000DAFFE7CFD9FF1200D9CFE6FFDACFE6FFFB
:10017000E1CFD9FFE2CFDAFFE652DF6A01014405A1
:100180001FE1C00EF214DF6E800ED0143F09F2168C
:1001900001013F51000812E201013F0701013F51F7
:1001A0000AE101013E5104E1DF50F21206DB02D008
:1001B000DF50F21202D0DF50F21202D0DF50F21202
:1001C000E552E552E5CFDAFFE7CFD9FF1200010192
:1001D000445118E13CDB41C140F101014151E96E5C
:1001E000EA6AD890E936EA36D20EE926010EEA220A
:1001F000EECFCEF1EDCFCFF1CEC1CAF1CFC1CBF171
:1002000073EC17F01200D9CFE6FFDACFE6FFE1CFAB
:10021000D9FFE2CFDAFFE652DF6A020EE66EE66A47
:10022000E66AE66AAEEC12F0E552E552E552E552B6
:10023000C00EF214DF6E800ED0143F09F2160101D9
:10024000466B476B486B496BDF50F2120A0EE66E45
:10025000E66AE66AE66AAEEC12F0E552E552E5526D
:10026000E552C00EF214DF6E800ED0143F09F21674
:1002700046C1B5F047C1B6F048C1B7F049C1B8F0C2
:100280000001010EBD6FDF50F212E552E552E5CFDD
:10029000DAFFE7CFD9FF1200D9CFE6FFDACFE6FFCA
:1002A000E1CFD9FFE2CFDAFFE652E652E652E6525C
:1002B000030EDB6A53EC17F0C00EF214E76E030E68
:1002C000E7CFDBFF800ED0143F09F2160201DD2BD1
:1002D000000EDE23DF23E023030EDB50F2120101C8
:1002E000440501E0E4D002018051020A0EE0030A55
:1002F00009E0010A01E012D0010EF36E020EF3CF05
:10030000DBFF14D0020EDB6A11D0010EF36E020E79
:10031000F3CFDBFF0201010E806F08D0010EF36EF8
:10032000020EF3CFDBFF0201806B00D0020EDB5028
:1003300001E1BDD0D0C1DEFFD1C1DDFFDECFE9FFDD
:10034000DDCFEAFF0C0EE926000EEA22EF50060888
:1003500001E1ADD0C00EF214E76E030EE7CFDBFF74
:10036000800ED0143F09F216DECFE9FFDDCFEAFFA1
:10037000060EE926000EEA22EECF00F0EECF01F0E5
:10038000EECF02F0EFCF03F0005001100210031087
:1003900001E17DD0DECFE9FFDDCFEAFF060EE926E1
:1003A000000EEA22EE06000EEE5AEE5AEE5ADECFAC
:1003B000E9FFDDCFEAFF060EE926000EEA22EECFC6
:1003C00000F0EECF01F0EECF02F0EFCF03F00050DF
:1003D0000110021003105BE1DECFE9FFDDCFEAFF81
:1003E0000A0EE926000EEA22EF50370B17E0C80E7E
:1003F000006EDECFE9FFDDCFEAFF0A0EE926000E30
:10040000EA220050EF16DECFE9FFDDCFEAFF0B0E48
:10041000E926000EEA22010EEF6E09D0DECFE9FFD9
:10042000DDCFEAFF0B0EE926000EEA22EF6ADECFEF
:10043000E9FFDDCFEAFF0A0EE926000EEA22EF50BF
:10044000080B25E1DECFE9FFDDCFEAFF100EE9263C
:10045000000EEA22EF5001014213DECFE9FFDDCFAB
:10046000EAFF0F0EE926000EEA22EFCF00F0DECF02
:10047000E9FFDDCFEAFF0E0EE926000EEA22EF507B
:10048000EA6A430FE96E010EEA220050EF12DECF56
:10049000E9FFDDCFEAFF020EE926000EEA22EECFE9
:1004A000DEFFEDCFDDFF030EDB50F21247D7040E67
:1004B000E15C02E2E16AE552E16EE552E5CFDAFF86
:1004C000E7CFD9FF1200230EF36E010EF46E00D0B9
:1004D0001200120012000201DD6BDE6BDF6BE06BBD
:1004E00001013E6B01013F6B0101456B0101446B52
:1004F0000001B06BB16BB26BB36B0101466B476B24
:10050000486B496B0001B96BBA6BBB6BBC6B0001EC
:10051000B56BB66BB76BB86B0001BD6B1200D9CF72
:10052000E6FFDACFE6FFE1CFD9FFE2CFDAFFE6520E
:100530000101426BDF6A010EDF5C09E2DF50EA6A0B
:10054000430FE96E010EEA22EF6ADF2AF4D70101B8
:10055000406B0101416B0101CE6BCF6B0101CA6B96
:10056000CB6BE552E552E5CFDAFFE7CFD9FF1200BA
:10057000060EE66E4A0EE66E010EE66E000EE66EA2
:10058000E66AEC0EE66E080EE66E000EE66E25ECF0
:100590000DF0006E080EE15C02E2E16AE552E16EE8
:1005A00000501200050EE66EBE0EE66E000EE66E00
:1005B000000EE66EE66A4A0EE66E090EE66E000E64
:1005C000E66E25EC0DF0006E080EE15C02E2E16AD9
:1005D000E552E16E00501200D9CFE6FFDACFE6FF18
:1005E000E1CFD9FFE2CFDAFF060EE12402E3E168B2
:1005F000E652E16EA00EE66EE66AE00EE66E010ED1
:10060000E66E7AD8E552E552E552E5520E0EE66EF8
:10061000E66AD20EE66E010EE66E6ED8E552E5523F
:10062000E552E552DF6A030EDF5C38E2DF28E76E51
:10063000010EE7CFDBFFDF50280DF3CF00F0F4CF42
:1006400001F0E00E0026010E0122020E00C0DBFFC9
:10065000030E01C0DBFF010EDB50280DF3CF00F0CD
:10066000F4CF01F0E00E0026010E0122040E00C0BE
:10067000DBFF050E01C0DBFF020EDBCFE9FF030E3F
:10068000DBCFEAFF020EE926000EEA22040EDBCFE2
:10069000EEFF050EDBCFEDFFDF2AC5D7DF50280DBB
:1006A000F3CF00F0F4CF01F0E00E0026010E01229E
:1006B000020E00C0DBFF030E01C0DBFF020EDBCF2A
:1006C000E9FF030EDBCFEAFF020EEB6A030EEB6AD3
:1006D0000101D06BD16B0101E00ECC6F010ECD6F2B
:1006E000060EE15C02E2E16AE552E16EE552E5CF19
:1006F000DAFFE7CFD9FF1200D9CFE6FFDACFE6FF66
:10070000E1CFD9FFE2CFDAFFD950FA0FE96EFF0E41
:10071000DA20EA6E000ED880EE54000EED5410E29E
:10072000FC0EDBCFE9FFDB2AFD0EDBCFEAFF01E3A6
:10073000DB2AEF6AFA0EDB06FB0E01E2DB06E4D7EA
:10074000E552E5CFDAFFE7CFD9FF1200D9CFE6FFB8
:10075000DACFE6FFE1CFD9FFE2CFDAFFD950F80FC9
:10076000E96EFF0EDA20EA6E000ED880EE54000E1D
:10077000ED541DE2FA0EDBCFE9FFDB2AFB0EDBCFE7
:10078000EAFF01E3DB2AEF50E66EFC0EDBCFE9FF68
:10079000DB2AFD0EDBCFEAFF01E3DB2AE552E7505F
:1007A000EF6EF80EDB06F90E01E2DB06D7D7E55255
:1007B000E5CFDAFFE7CFD9FF1200D9CFE6FFDACFD6
:1007C000E6FFE1CFD9FFE2CFDAFFE652DF6AC00EE3
:1007D000F214DF6E800ED0143F09F21601013E5173
:1007E0002DE101013F512AE132D801014151E96E69
:1007F000EA6AD890E936EA36D20EE926010EEA22F4
:10080000EECFCEF1EDCFCFF1010140510101415DBD
:1008100015E0CEC1E9FFCFC1EAFF120EE926000EB6
:10082000EA22EE2A000EEE22EE22EE220001B02B8A
:10083000000EB123B223B323B5EC17F0DF50F21250
:10084000E552E552E5CFDAFFE7CFD9FF1200D9CF65
:10085000E6FFDACFE6FFE1CFD9FFE2CFDAFFE652DB
:1008600001014251EA6AE10FE96E020EEA22EFCF7E
:10087000DFFFDF50EA6A430FE96E010EEA22EF5014
:10088000EA6AE10FE96E020EEA22EFCF00F0DF50D4
:10089000080DF35000240101416FE552E552E5CF08
:1008A000DAFFE7CFD9FF1200D9CFE6FFDACFE6FFB4
:1008B000E1CFD9FFE2CFDAFFE652DF6AFC0EDBCFF1
:1008C000E9FFFD0EDBCFEAFFEF5007E0FC0EDB2A6D
:1008D000FD0E01E3DB2ADF2AF1D7DF5000D0E5521D
:1008E000E552E5CFDAFFE7CFD9FF1200D9CFE6FF17
:1008F000DACFE6FFE1CFD9FFE2CFDAFFE652DF6AD7
:10090000FC0EDBCF1AF0FD0EDBCF1BF0FC0E1AC085
:10091000DBFFFD0E1BC0DBFFC00EF214DF6E800E8E
:10092000D0143F09F2160101462B000E472348233D
:100930004923DF50F21262EC17F0EED7E552E55290
:10094000E5CFDAFFE7CFD9FF1200D9CFE6FFDACF44
:10095000E6FFE1CFD9FFE2CFDAFFE652DF6AFC0E15
:10096000DBCF1AF0FD0EDBCF1BF0FC0E1AC0DBFF55
:10097000FD0E1BC0DBFF0001BD510CE1140EE66E45
:10098000E66AE66AE66AAEEC12F0E552E552E55236
:10099000E552F1D7640E1D6E1E6A1F6A206AB5C04B
:1009A00018F0B6C019F0B7C01AF0B8C01BF05AEC76
:1009B0001CF018C0B5F019C0B6F01AC0B7F01BC0D3
:1009C000B8F00001B551B611B711B81106E1000138
:1009D000B46BE6688DEC10F0E552C00EF214DF6ED9
:1009E000800ED0143F09F21646C1B9F047C1BAF0E3
:1009F00048C1BBF049C1BCF00101466B476B486B75
:100A0000496BDF50F212640E046E056A066A076ACB
:100A1000B9C018F0BAC019F0BBC01AF0BCC01BF0C6
:100A2000B5C01DF0B6C01EF0B7C01FF0B8C020F0B2
:100A30005AEC1CF01850045C006E19500558016EF9
:100A40001A500658026E1B500758036E00C0B4F0CF
:100A500052EC17F00A0EE66EE66AE66AE66AAEEC5B
:100A600012F0E552E552E552E552B7D7E552E552AC
:100A7000E5CFDAFFE7CFD9FF1200D9CFE6FFDACF13
:100A8000E6FFE1CFD9FFE2CFDAFFE652E652E652C7
:100A9000E652020EDB6AC00EF214E76E020EE7CFDA
:100AA000DBFF800ED0143F09F216CCC1DEFFCDC1B2
:100AB000DDFFD9CFE9FFDACFEAFFEE50ED1001E11B
:100AC000C9D1DECFE9FFDDCFEAFF020EE926000E35
:100AD000EA22EECFCCF1EDCFCDF1020EDB50F212D7
:100AE000DECFE9FFDDCFEAFFFB0EDBCFEEFFFC0E32
:100AF000DBCFEDFFDECFE9FFDDCFEAFF0C0EE9260D
:100B0000000EEA22FD0EDBCFEFFFDECFE9FFDDCFE7
:100B1000EAFF0A0EE926000EEA22EF6ADECFE9FFBD
:100B2000DDCFEAFF0B0EE926000EEA22EF6ADECFE8
:100B3000E9FFDDCFEAFF060EE926000EEA22EE6AA3
:100B4000EE6AEE6AEE6AF10EDBCF1AF0F20EDBCF40
:100B50001BF0F10E1AC0DBFFF20E1BC0DBFFD950F9
:100B6000F30FE96EFF0EDA20EA6EF30EEECFDBFF35
:100B7000F40EEECFDBFFF50EEECFDBFFF60EEECF81
:100B8000DBFFF90EDBCF1AF0FA0EDBCF1BF0F90E0C
:100B90001AC0DBFFFA0E1BC0DBFFEF0EDBCF1AF033
:100BA000F00EDBCF1BF0EF0E1AC0DBFFF00E1BC008
:100BB000DBFFF70EDBCF1AF0F80EDBCF1BF0F70EE2
:100BC0001AC0DBFFF80E1BC0DBFFDECFE9FFDDCF75
:100BD000EAFF110EE926000EEA22EF6AFD0EDB4065
:100BE000E840E8401F0BE66EDECFE9FFDDCFEAFF0D
:100BF0000E0EE926000EEA22E552E750EF6EFD0EDA
:100C0000DB50070BE66EDECFE9FFDDCFEAFF0D0E0E
:100C1000E926000EEA22E552E750EF6E010E006E63
:100C2000016A026A036ADECFE9FFDDCFEAFF0E0E3A
:100C3000E926000EEA22EF501F0B07E0D89000369D
:100C4000013602360336E806F9E1DECFE9FFDDCFF3
:100C5000EAFF100EE926000EEA2200C0EFFF010EA7
:100C6000006E016A026A036ADECFE9FFDDCFEAFFA8
:100C70000D0EE926000EEA22EF501F0B07E0D89078
:100C80000036013602360336E806F9E1DECFE9FF29
:100C9000DDCFEAFF0F0EE926000EEA2200C0EFFFCB
:100CA000DECFE9FFDDCFEAFF120EE926000EEA22D1
:100CB000EE6AEE6AEE6AEE6ADECFE9FFDDCFEAFFAA
:100CC0001A0EE926000EEA22EE6AEE6AEE6AEE6A73
:100CD000DECFE9FFDDCFEAFF160EE926000EEA229D
:100CE000EE6AEE6AEE6AEE6ADECFE9FFDDCFEAFF7A
:100CF0001E0EEB6A1F0EEB6ADECFE9FFDDCFEAFFC7
:100D0000200EE926000EEA22EE6AEE6AEE6AEE6A2C
:100D1000030EDB6A010EF36E030EDBCFF4FFF3501C
:100D2000F45C1CE2DECFE9FFDDCFEAFF240EE9260A
:100D3000000EEA22E9CF00F0EACF01F0030EDB500B
:100D4000040D0050F324E96E0150F420EA6EEE6ABF
:100D5000EE6AEE6AEE6A030EDB2ADCD7DECFE6FF30
:100D6000DDCFE6FF54EC17F0E552E552DECFE6FFAB
:100D7000DDCFE6FF34EC17F0E552E552C00EF21479
:100D8000E76E020EE7CFDBFF800ED0143F09F216AC
:100D9000FD0EEA6ADB34FE0BEA36E96ED20EE92676
:100DA000010EEA22DECFEEFFDDCFEDFFDECFE9FF61
:100DB000DDCFEAFF020EE926000EEA22D0C1EEFFE7
:100DC000D1C1EDFFDECFE9FFDDCFEAFF040EEB6A14
:100DD000050EEB6A0101D051D1110CE0D0C1E9FF41
:100DE000D1C1EAFF040EE926000EEA22DECFEEFFB3
:100DF000DDCFEDFFDECFD0F1DDCFD1F1DECFE9FFEA
:100E0000DDCFEAFF100EE926000EEA22EF500101C5
:100E10004213DECFE9FFDDCFEAFF0F0EE926000E19
:100E2000EA22EFCF00F0DECFE9FFDDCFEAFF0E0EC2
:100E3000E926000EEA22EF50EA6A430FE96E010E3E
:100E4000EA220050EF120101452B020EDB50F21294
:100E5000000E05D0020EDB50F212420E00D0006EE2
:100E6000040EE15C02E2E16AE552E16E0050E552F7
:100E7000E5CFDAFFE7CFD9FF1200D9CFE6FFDACF0F
:100E8000E6FFE1CFD9FFE2CFDAFF0F0EE12402E364
:100E9000E168E652E16E0E0EDB6AC00EF214E76EF8
:100EA0000E0EE7CFDBFF800ED0143F09F21681C291
:100EB000DEFF82C2DDFF0201815182110CE081C29E
:100EC000E9FF82C2EAFF020EE926000EEA22EECF17
:100ED00081F2EDCF82F20E0EDB50F212D9CFE9FF94
:100EE000DACFEAFFEE50ED100BE1F20EDBCFE9FFB7
:100EF000F30EDBCFEAFF5A0EEF6EF36AF46AFAD014
:100F0000FC0EDBCF1AF0FD0EDBCF1BF0040E1AC077
:100F1000DBFF050E1BC0DBFFFC0EDBCF1AF0FD0E66
:100F2000DBCF1BF0020E1AC0DBFF030E1BC0DBFF82
:100F3000F80EDBCF00F0F90EDBCF01F0FA0EDBCFBD
:100F400002F0FB0EDBCF03F00006000E015A000E8C
:100F5000025A000E035A060E00C0DBFF070E01C046
:100F6000DBFF080E02C0DBFF090E03C0DBFF0A0E29
:100F7000DB6A0B0EDB6A0C0EDB6A0D0EDB6A060EFB
:100F8000DBCF00F0070EDBCF01F0080EDBCF02F065
:100F9000090EDBCF03F0D9500A0FE96E000EDA20FC
:100FA000EA6E0050EE5C0150EE580250EE580350CD
:100FB000EE5834E2F40EDBCF00F0F50EDBCF01F09B
:100FC000D950020FE96E000EDA20EA6E0050EE26CC
:100FD0000150ED22040EDBCFE9FF050EDBCFEAFF67
:100FE000020EDBCFEEFF030EDBCFEDFF020EDBCFF9
:100FF0001AF0030EDBCF1BF0040E1AC0DBFF050E48
:101000001BC0DBFFD9500A0FE96E000EDA20EA6E32
:10101000EE2A000EEE22EE22EE22B1D7040EDBCF36
:10102000E9FF050EDBCFEAFFEE6AED6ADECFE9FFEE
:10103000DDCFEAFFFC0EDBCFEEFFFD0EDBCFEDFFD9
:10104000DECFE9FFDDCFEAFF020EE926000EEA223D
:10105000FC0EDBCFEEFFFD0EDBCFEDFFDECFE9FFB9
:10106000DDCFEAFF0C0EE926000EEA22F80EDBCFF8
:10107000EEFFF90EDBCFEEFFFA0EDBCFEEFFFB0E3D
:10108000DBCFEEFFDECFE9FFDDCFEAFF080EE9267A
:10109000000EEA22F80EDBCFEEFFF90EDBCFEEFFFB
:1010A000FA0EDBCFEEFFFB0EDBCFEEFFDECFE9FF6C
:1010B000DDCFEAFF040EE926000EEA22F40EDBCFB4
:1010C000EEFFF50EDBCFEEFFF60EDBCFEEFFF70EF9
:1010D000DBCFEEFFF20EDBCFE9FFF30EDBCFEAFF53
:1010E000EF6ADECF00F0DDCF01F000C0F3FF01C0FA
:1010F000F4FF00D00F0EE15C02E2E16AE552E16E1E
:10110000E552E5CFDAFFE7CFD9FF1200D9CFE6FFEE
:10111000DACFE6FFE1CFD9FFE2CFDAFFE652E652BF
:10112000E652020EDB6AC00EF214E76E020EE7CF43
:10113000DBFF800ED0143F09F216FC0EDBCFE9FF77
:10114000FD0EDBCFEAFF0C0EE926000EEA22D88066
:10115000000EEE54000EEE54000EEE54000EEE544F
:1011600046E2FC0EDBCFE9FFFD0EDBCFEAFF020E0D
:10117000E926000EEA22EECFDEFFEDCFDDFFDECF67
:10118000E9FFDDCFEAFFEECF00F0EFCF01F0FC0E7C
:10119000DBCFE9FFFD0EDBCFEAFF020EE926000EF2
:1011A000EA2200C0EEFF01C0EDFFFC0EDBCFE9FF3D
:1011B000FD0EDBCFEAFF0C0EE926000EEA22EE065A
:1011C000000EEE5AEE5AEE5A020EDB50F212FA0EF2
:1011D000DBCFE9FFFB0EDBCFEAFFEF6ADECF00F0EB
:1011E000DDCF01F000C0F3FF01C0F4FF0ED0020E0E
:1011F000DB50F212FA0EDBCFE9FFFB0EDBCFEAFF8A
:101200005D0EEF6EF36AF46A00D0E552E552E552E6
:10121000E552E5CFDAFFE7CFD9FF1200D9CFE6FFDD
:10122000DACFE6FFE1CFD9FFE2CFDAFFE652E652AE
:10123000010EDB6A01013E5100080AE2F80EDBCF25
:10124000E9FFF90EDBCFEAFF110EEF6E000E3DD085
:10125000C00EF214E76E010EE7CFDBFF800ED01454
:101260003F09F216FC0EDBCFE9FFFD0EDBCFEAFFF4
:10127000100EE926000EEA22EECF00F0EFCF01F0CB
:10128000FA0EDBCFE9FFFB0EDBCFEAFF00C0EEFF7B
:1012900001C0EDFFFA0EDBCFE9FFFB0EDBCFEAFF6B
:1012A000EECFE6FFEFCFE6FF54EC04F0E552E55257
:1012B000DF6E010EDB50F212F80EDBCFE9FFF90E04
:1012C000DBCFEAFFEF6ADF5000D0E552E552E5528E
:1012D000E5CFDAFFE7CFD9FF1200D9CFE6FFDACFAB
:1012E000E6FFE1CFD9FFE2CFDAFFE652DF6A010184
:1012F0003E51000809E2F80EDBCFE9FFF90EDBCF23
:10130000EAFF120EEF6E20D0C00EF214DF6E800ED8
:10131000D0143F09F216FC0EDBCFE9FFFD0EDBCF48
:10132000EAFF100EE926000EEA22FA0EDBCFEEFFEE
:10133000FB0EDBCFEDFFDF50F212F80EDBCFE9FF43
:10134000F90EDBCFEAFFEF6AE552E552E5CFDAFFAF
:10135000E7CFD9FF1200D9CFE6FFDACFE6FFE1CF22
:10136000D9FFE2CFDAFFE652DF6AC00EF214DF6E79
:10137000800ED0143F09F216FC0EDBCFE9FFFD0E04
:10138000DBCFEAFF080EE926000EEA22EECF00F0DE
:10139000EECF01F0EECF02F0EFCF03F0FC0EDBCF8B
:1013A000E9FFFD0EDBCFEAFF0C0EE926000EEA2274
:1013B0000050EE5C0150EE580250EE580350EE58CB
:1013C00004E3DF50F2125E0E3BD0FC0EDBCFE9FFF0
:1013D000FD0EDBCFEAFF020EE926000EEA22EECF79
:1013E00000F0EFCF01F0FA0EDBCFE9FFFB0EDBCF11
:1013F000EAFF00C0EEFF01C0EDFFFC0EDBCFE9FF0E
:10140000FD0EDBCFEAFF020EE926000EEA22FA0EFD
:10141000DBCFEEFFFB0EDBCFEDFFFC0EDBCFE9FFFA
:10142000FD0EDBCFEAFF0C0EE926000EEA22EE2AC3
:10143000000EEE22EE22EE22DF50F212000E00D05D
:10144000E552E552E5CFDAFFE7CFD9FF1200D9CF59
:10145000E6FFDACFE6FFE1CFD9FFE2CFDAFFE652CF
:10146000DF6AC00EF214DF6E800ED0143F09F21650
:10147000FC0EDBCFE9FFFD0EDBCFEAFFEECF00F085
:10148000EFCF01F0FA0EDBCFE9FFFB0EDBCFEAFF77
:1014900000C0EEFF01C0EDFFFC0EDBCFE9FFFD0E4B
:1014A000DBCFEAFF020EE926000EEA22EECF00F0C3
:1014B000EFCF01F0FA0EDBCFE9FFFB0EDBCFEAFF47
:1014C000020EE926000EEA2200C0EEFF01C0EDFF89
:1014D000FC0EDBCFE9FFFD0EDBCFEAFF040EE926B1
:1014E000000EEA22EECF00F0EECF01F0EECF02F0D8
:1014F000EFCF03F0FA0EDBCFE9FFFB0EDBCFEAFF05
:10150000040EE926000EEA2200C0EEFF01C0EEFF45
:1015100002C0EEFF03C0EEFFFC0EDBCFE9FFFD0EC5
:10152000DBCFEAFF080EE926000EEA22EECF00F03C
:10153000EECF01F0EECF02F0EFCF03F0FA0EDBCFEB
:10154000E9FFFB0EDBCFEAFF080EE926000EEA22D8
:1015500000C0EEFF01C0EEFF02C0EEFF03C0EEFFD1
:10156000FC0EDBCFE9FFFD0EDBCFEAFF0C0EE92618
:10157000000EEA22EECF00F0EECF01F0EECF02F047
:10158000EFCF03F0FA0EDBCFE9FFFB0EDBCFEAFF74
:101590000C0EE926000EEA2200C0EEFF01C0EEFFAD
:1015A00002C0EEFF03C0EEFFDF50F212FA0EDBCFF7
:1015B000E9FFFB0EDBCFEAFF080EE926000EEA2268
:1015C000EECF04F0EECF05F0EECF06F0EFCF07F050
:1015D000FA0EDBCFE9FFFB0EDBCFEAFF0C0EE926AC
:1015E000000EEA22EE50045C006EEE500558016ECB
:1015F000EE500658026EEE500758036EFA0EDBCF1F
:10160000E9FFFB0EDBCFEAFF100EE926000EEA220F
:1016100000C0EEFF01C0EEFF02C0EEFF03C0EEFF10
:10162000000E00D0E552E552E5CFDAFFE7CFD9FF53
:101630001200D9CFE6FFDACFE6FFE1CFD9FFE2CF44
:10164000DAFFE652E652E652E6525A0EE66EE66AD5
:10165000830EE66E020EE66E7CEC03F0E552E55278
:10166000E552E552020EDB6A030EDB6A020EDBCFA7
:1016700000F0030EDBCF01F0040E005C000E0158F9
:1016800050E2020EDBCF00F0030EDBCF01F0120EB2
:101690000102F3CF01F0120E0002F3CF00F0F4507C
:1016A0000126830E0026020E012200C0DEFF01C0CB
:1016B000DDFF010EE76E020EDBCF00F0030EDBCF85
:1016C00001F0E7500026000E0122120E0102F3CFB6
:1016D00001F0120E0002F3CF00F0F4500126830E49
:1016E0000026020E0122DECFE9FFDDCFEAFF020E67
:1016F000E926000EEA2200C0EEFF01C0EDFFDECFBA
:10170000E9FFDDCFEAFF100EE926000EEA225B0EAC
:10171000EE6E3A0EED6E020EDB2A030E01E3DB2ABB
:10172000A5D7020EDBCF00F0030EDBCF01F0120EC7
:101730000102F3CF01F0120E0002F3CF00F0F450DB
:101740000126830E0026020E012200C0DEFF01C02A
:10175000DDFFDECFE9FFDDCFEAFF020EEB6A030E0D
:10176000EB6ADECFE9FFDDCFEAFF100EE926000EBF
:10177000EA225B0EEE6E3A0EED6E0201830E816F71
:10178000020E826F040EE15C02E2E16AE552E16E54
:10179000E552E5CFDAFFE7CFD9FF1200D9CFE6FF58
:1017A000DACFE6FFE1CFD9FFE2CFDAFF0A0EE1247C
:1017B00002E3E168E652E16E090EDB6AC00EF21444
:1017C000E76E090EE7CFDBFF800ED0143F09F2165B
:1017D000FC0EEA6ADB34FE0BEA36E96ED20EE9262D
:1017E000010EEA22EE50ED1005E0090EDB50F21278
:1017F000280E1DD1FD0EDB50FF080AE1CAC1E9FF2A
:10180000CBC1EAFF0C0EEB50E76EFD0EE7CFDBFF1E
:10181000FD0EEA6ADB34FE0BEA36E96ED20EE926EB
:10182000010EEA22EECFDEFFEDCFDDFFD9CFE9FFDB
:10183000DACFEAFFEE50ED1005E1090EDB50F212AF
:10184000290EF5D0D9CFE9FFDACFEAFF010EEE1865
:1018500001E1ED5005E1090EDB50F212430EE7D035
:10186000FC0EDB40E840E8401F0BE76E020EE7CFBE
:10187000DBFFFC0EDB50070BE76E030EE7CFDBFF51
:10188000010E006E016A026A036A020EDB501F0B32
:1018900007E0D8900036013602360336E806F9E153
:1018A000050E00C0DBFF010E006E016A026A036ACA
:1018B000030EDB501F0B07E0D890003601360236CE
:1018C0000336E806F9E1060E00C0DBFFFD0EEA6A0A
:1018D000DB34FE0BEA36E96ED20EE926010EEA226F
:1018E000EE6AED6AFC0EEA6ADB34FE0BEA36E96E5C
:1018F000D20EE926010EEA22DECFEEFFDDCFEDFFAC
:10190000DECFE9FFDDCFEAFF0E0EE926000EEA2268
:10191000040EEFCFDBFFDECFE9FFDDCFEAFF100ED5
:10192000E926000EEA22070EEFCFDBFFDECFE9FF4C
:10193000DDCFEAFF0F0EE926000EEA22080EEFCFF8
:10194000DBFF080EDBCFE6FF040EDB50EA6A430F35
:10195000E96E010EEA22EF50E552E71427E0080E87
:10196000DB1C006E040EDB50EA6A430FE96E010EC9
:10197000EA220050EF16040EDB50EA6A430FE96ECC
:10198000010EEA22EF5004E1070EDB1C01014217B1
:10199000050EDB5001014213020EDB50EA6A430FD1
:1019A000E96E010EEA22060EDB50EF12DECFE9FFF0
:1019B000DDCFEAFF0C0EE926000EEA22FC0EDBCF9B
:1019C000EFFFDECFE9FFDDCFEAFF0E0EE926000EC6
:1019D000EA22020EDBCFEFFFDECFE9FFDDCFEAFF29
:1019E0000D0EE926000EEA22030EDBCFEFFFDECF5D
:1019F000E9FFDDCFEAFF100EE926000EEA22050E10
:101A0000DBCFEFFFDECFE9FFDDCFEAFF0F0EE926E8
:101A1000000EEA22060EDBCFEFFF090EDB50F212BA
:101A20000101440502E1DDEC03F0000E00D0006E80
:101A30000A0EE15C02E2E16AE552E16E0050E55215
:101A4000E5CFDAFFE7CFD9FF1200D9CFE6FFDACF33
:101A5000E6FFE1CFD9FFE2CFDAFFE652E652E652E7
:101A6000E652030EDB6AC00EF214E76E030EE7CFF8
:101A7000DBFF800ED0143F09F21601013E51000831
:101A800005E2030EDB50F2123C0E93D0F60EEA6A2A
:101A9000DB34FE0BEA36E96ED20EE926010EEA22AD
:101AA000EE50ED1001E080D0F60EEA6ADB34FE0B5A
:101AB000EA36E96ED20EE926010EEA22010EEE6E3A
:101AC000ED6A030EDB50F212000EE66EE66AF70EC8
:101AD000DBCFE6FFF80EDBCFE6FFF90EDBCFE6FF4C
:101AE000FA0EDBCFE6FFFB0EDBCFE6FFFC0EDBCF13
:101AF000E6FFFD0EDBCFE6FF2AEC16F0006E090EC6
:101B0000E15C02E2E16AE552E16E0050F3CFDEFFF4
:101B1000F4CFDDFF000EE66EE66A000EE66EE66AC2
:101B2000E66AE66AE66AE66A000EE66EE66A000EB5
:101B3000E66EE66ADECFE6FFDDCFE6FFF60EDBCF30
:101B4000E6FF3DEC05F0006E0F0EE15C02E2E16A9B
:101B5000E552E16E0050E76E020EE7CFDBFF020EAA
:101B6000DB5006E10101440502E1DDEC03F019D090
:101B7000C00EF214E76E030EE7CFDBFF800ED01429
:101B80003F09F216F60EEA6ADB34FE0BEA36E96E1E
:101B9000D20EE926010EEA22EE6AED6A030EDB5050
:101BA000F212020EDB5005D0030EDB50F212280EAB
:101BB00000D0006E040EE15C02E2E16AE552E16EE3
:101BC0000050E552E5CFDAFFE7CFD9FF1200D9CFB9
:101BD000E6FFDACFE6FFE1CFD9FFE2CFDAFFE65248
:101BE000E652E652020EDB6A01013E51000802E2B3
:101BF000400E4ED1FD0EDB50060802E13E0E48D1EC
:101C0000C00EF214E76E020EE7CFDBFF800ED01499
:101C10003F09F216FD0EDB50FF080AE1CAC1E9FFD9
:101C2000CBC1EAFF0C0EEB50E76EFD0EE7CFDBFFFA
:101C3000FD0EEA6ADB34FE0BEA36E96ED20EE926C7
:101C4000010EEA22EECFDEFFEDCFDDFFD9CFE9FFB7
:101C5000DACFEAFFEE50ED1005E1020EDB50F21292
:101C6000430E16D1D9CFE9FFDACFEAFF010EEE1805
:101C700001E1ED5005E1020EDB50F2123D0E08D1FC
:101C8000DECFE9FFDDCFEAFF0F0EE926000EEA22E4
:101C9000EF1C006EDECFE9FFDDCFEAFF0E0EE92676
:101CA000000EEA22EF50EA6A430FE96E010EEA22C3
:101CB0000050EF16DECFE9FFDDCFEAFF0E0EE9267A
:101CC000000EEA22EF50EA6A430FE96E010EEA22A3
:101CD000EF500BE1DECFE9FFDDCFEAFF100EE92682
:101CE000000EEA22EF1C01014217DECFE9FFDDCF33
:101CF000EAFF060EE926000EEA22EE6AEE6AEE6AB6
:101D0000EE6ADECFE9FFDDCFEAFF0A0EE926000E1C
:101D1000EA22EF6ADECFE9FFDDCFEAFF0B0EE9260C
:101D2000000EEA22EF6AFF0E01013F5D02E20101AF
:101D30003F2B020EDB50F21269EC02F0C00EF214DF
:101D4000E76E020EE7CFDBFF800ED0143F09F216DC
:101D500001013F51000802E201013F07DECFE6FF2B
:101D6000DDCFE6FF42EC17F0E552E55201014507F1
:101D7000FD0EEA6ADB34FE0BEA36E96ED20EE92686
:101D8000010EEA22EE6AED6ADECFE9FFDDCFEAFF5F
:101D9000040EE926000EEA22EE50ED101FE1DECF20
:101DA000E9FFDDCFEAFF020EE926000EEA22EE503F
:101DB000EFCFEAFFE96E040EE926000EEA22EE6A92
:101DC000ED6ADECFE9FFDDCFEAFF020EE926000E65
:101DD000EA22EECFD0F1EDCFD1F140D0DECFE9FF56
:101DE000DDCFEAFF020EE926000EEA22EECF00F078
:101DF000EFCF01F0DECFE9FFDDCFEAFF040EE926E9
:101E0000000EEA22EE50EFCFEAFFE96E020EE9265D
:101E1000000EEA2200C0EEFF01C0EDFFDECFE9FFB9
:101E2000DDCFEAFF040EE926000EEA22EECF00F035
:101E3000EFCF01F0DECFE9FFDDCFEAFF020EE926AA
:101E4000000EEA22EE50EFCFEAFFE96E040EE9261B
:101E5000000EEA2200C0EEFF01C0EDFFDECFE9FF79
:101E6000DDCFEAFF020EE926000EEA22CCC1EEFF2A
:101E7000CDC1EDFFDECFCCF1DDCFCDF1020EDB50D9
:101E8000F2120101440502E1DDEC03F0000E00D086
:101E9000E552E552E552E552E5CFDAFFE7CFD9FF4B
:101EA0001200D9CFE6FFDACFE6FFE1CFD9FFE2CFCC
:101EB000DAFFE652E652E652E652030EDB6AFD0E08
:101EC000DB50060802E13E0E63D0FD0EDB50FF083A
:101ED00016E1C00EF214E76E030EE7CFDBFF800EB3
:101EE000D0143F09F216CAC1E9FFCBC1EAFF110EB7
:101EF000EB50DF6E030EDB50F212DF5049D0C00E04
:101F0000F214E76E030EE7CFDBFF800ED0143F091B
:101F1000F216FD0EEA6ADB34FE0BEA36E96ED20EEB
:101F2000E926010EEA22010EEECFDBFF020EEDCF15
:101F3000DBFFD950010FE96E000EDA20EA6EEE5099
:101F4000ED1005E1030EDB50F212430E21D0D95003
:101F5000010FE96E000EDA20EA6E010EEE1801E1C3
:101F6000ED5005E1030EDB50F2123D0E11D0010ED3
:101F7000DBCFE9FF020EDBCFEAFF110EE926000EF0
:101F8000EA223F0EEF6E030EDB50F212000E00D07D
:101F9000006E040EE15C02E2E16AE552E16E00507F
:101FA000E552E5CFDAFFE7CFD9FF1200D9CFE6FF40
:101FB000DACFE6FFE1CFD9FFE2CFDAFFE652E65211
:101FC000E652020EDB6AC00EF214E76E020EE7CF95
:101FD000DBFF800ED0143F09F216FD0EEA6ADB34F7
:101FE000FE0BEA36E96ED20EE926010EEA22EECFAA
:101FF000DEFFEDCFDDFFD9CFE9FFDACFEAFFEE500C
:10200000ED1005E1020EDB50F212460E7DD0D9CF65
:10201000E9FFDACFEAFF010EEE1801E1ED5005E12C
:10202000020EDB50F212430E6FD0DECFE9FFDDCFA0
:10203000EAFF0A0EE926000EEA22EF50080B5FE0E5
:10204000DECFE9FFDDCFEAFF0A0EE926000EEA2225
:10205000EF96DECFE9FFDDCFEAFF0A0EE926000E9C
:10206000EA22EF5047E1DECFE9FFDDCFEAFF060EBF
:10207000E926000EEA22EECF00F0EECF01F0EECF1F
:1020800002F0EFCF03F000500110021003102EE118
:10209000DECFE9FFDDCFEAFF100EE926000EEA22CF
:1020A000EF5001014213DECFE9FFDDCFEAFF0F0E53
:1020B000E926000EEA22EFCF00F0DECFE9FFDDCF08
:1020C000EAFF0E0EE926000EEA22EF50EA6A430FFD
:1020D000E96E010EEA220050EF12020EDB50F212FE
:1020E0000101440502E1DDEC03F003D0020EDB50F8
:1020F000F21203D0020EDB50F212000E05D0020ED7
:10210000DB50F212440E00D0E552E552E552E552A2
:10211000E5CFDAFFE7CFD9FF1200D9CFE6FFDACF5C
:10212000E6FFE1CFD9FFE2CFDAFFE652E652E65210
:10213000E652E652040EDB6AC00EF214E76E040E9D
:10214000E7CFDBFF800ED0143F09F216FD0EDB5007
:10215000FF080DE1CAC1E9FFCBC1EAFF0C0EEB504D
:10216000E76EFD0EE7CFDBFF010EDF6E0FD0CAC1B9
:10217000E9FFCBC1EAFF0C0EEB50F36EFD0EDB5016
:10218000F35C03E1010EDF6E01D0DF6AFD0EEA6A47
:10219000DB34FE0BEA36E96ED20EE926010EEA22A6
:1021A000010EEECFDBFF020EEDCFDBFFD950010FAA
:1021B000E96E000EDA20EA6EEE50ED1005E1040E35
:1021C000DB50F212480E5CD0D950010FE96E000EC0
:1021D000DA20EA6E010EEE1801E1ED5005E1040E81
:1021E000DB50F212430E4CD0010EDBCFE9FF020EA2
:1021F000DBCFEAFF0E0EE926000EEA22030EEFCF38
:10220000DBFF010EDBCFE9FF020EDBCFEAFF0F0E93
:10221000E926000EEA22EF1C006E030EDB50EA6A8C
:10222000430FE96E010EEA220050EF16030EDB5059
:10223000EA6A430FE96E010EEA22EF500DE1010E4A
:10224000DBCFE9FF020EDBCFEAFF100EE926000E1E
:10225000EA22EF1C01014217010EDBCFE9FF020E5B
:10226000DBCFEAFF0A0EE926000EEA22EF86040E13
:10227000DB50F212DF0402E1DDEC03F0000E00D0CF
:10228000006E050EE15C02E2E16AE552E16E00508B
:10229000E552E5CFDAFFE7CFD9FF1200D9CFE6FF4D
:1022A000DACFE6FFE1CFD9FFE2CFDAFFE652E6521E
:1022B000E652020EDB6AC00EF214E76E020EE7CFA2
:1022C000DBFF800ED0143F09F216FD0EDB50FF0835
:1022D0000AE1CAC1E9FFCBC1EAFF0C0EEB50E76E81
:1022E000FD0EE7CFDBFFFD0EEA6ADB34FE0BEA36BC
:1022F000E96ED20EE926010EEA22EECFDEFFEDCF27
:10230000DDFFD9CFE9FFDACFEAFFEE50ED1005E1AE
:10231000020EDB50F212290E2AD0D9CFE9FFDACF14
:10232000EAFF010EEE1801E1ED5005E1020EDB506F
:10233000F212430E1CD0280EE66EE66ADECFE6FFF0
:10234000DDCFE6FFFB0EDBCFE6FFFC0EDBCFE6FFCB
:10235000A6EC03F0006E060EE15C02E2E16AE552D3
:10236000E16E0050020EDB50F212000E00D0E5527A
:10237000E552E552E552E5CFDAFFE7CFD9FF12008B
:10238000D9CFE6FFDACFE6FFE1CFD9FFE2CFDAFF20
:10239000070EE12402E3E168E652E16EDF6AC00E57
:1023A000F214DF6E800ED0143F09F216FD0EDB50E2
:1023B000FF0807E1050ECAC1DBFF060ECBC1DBFF3C
:1023C00010D0FD0EEA6ADB34FE0BEA36E96ED20E5F
:1023D000E926010EEA22050EEECFDBFF060EEDCF59
:1023E000DBFF050EDBCFE9FF060EDBCFEAFF240E95
:1023F000E926000EEA22E9CF00F0EACF01F0FC0E58
:10240000DB50040D0050F324E96E0150F420EA6E15
:10241000010EEECFDBFF020EEECFDBFF030EEECFA1
:10242000DBFF040EEECFDBFFDF50F212FA0EDBCF44
:10243000E9FFFB0EDBCFEAFFEF6A010EDBCF00F016
:10244000020EDBCF01F0030EDBCF02F0040EDBCF78
:1024500003F000C018F001C019F002C01AF003C068
:102460001BF000D0070EE15C02E2E16AE552E16E8A
:10247000E552E5CFDAFFE7CFD9FF1200D9CFE6FF6B
:10248000DACFE6FFE1CFD9FFE2CFDAFFE652E6523C
:10249000E652DF6AC00EF214DF6E800ED0143F09E0
:1024A000F216FD0EDB50FF0807E1010ECAC1DBFF8B
:1024B000020ECBC1DBFF10D0FD0EEA6ADB34FE0B4F
:1024C000EA36E96ED20EE926010EEA22010EEECFBF
:1024D000DBFF020EEDCFDBFF010EDBCFE9FF020ECB
:1024E000DBCFEAFF240EE926000EEA22E9CF00F056
:1024F000EACF01F0FC0EDB50040D0050F324E96E2E
:102500000150F420EA6EF80EDBCFEEFFF90EDBCFC0
:10251000EEFFFA0EDBCFEEFFFB0EDBCFEEFFDF5060
:10252000F212F60EDBCFE9FFF70EDBCFEAFFEF6A20
:10253000E552E552E552E552E5CFDAFFE7CFD9FFA4
:102540001200CAC1E6FFCBC1E6FF63EC17F0E5520B
:10255000E552E668E7EC0DF0E5521200D9CFE6FF50
:10256000DACFE6FFE1CFD9FFE2CFDAFFE652E6525B
:10257000010EDB6A01013E51000801E260D0010159
:102580003F51000801E25BD0D950FA0FE96EFF0E0F
:10259000DA20EA6ED880000EEE54000EEE54000EE3
:1025A000EE54000EEE544BE2C00EF214E76E010E34
:1025B000E7CFDBFF800ED0143F09F216CAC1E9FF56
:1025C000CBC1EAFF0E0EEB50DF6ECAC1E9FFCBC1F3
:1025D000EAFF0F0EEB50E81C006EDF50EA6A430F73
:1025E000E96E010EEA220050EF16DF50EA6A430F4F
:1025F000E96E010EEA22EF5009E1CAC1E9FFCBC141
:10260000EAFF100EEB50E81C01014217CAC1E9FFB6
:10261000CBC1EAFF060EE926000EEA22FA0EDBCF56
:10262000EEFFFB0EDBCFEEFFFC0EDBCFEEFFFD0E71
:10263000DBCFEEFF010EDB50F212DDEC03F0E552D2
:10264000E552E552E5CFDAFFE7CFD9FF1200D9CF47
:10265000E6FFDACFE6FFE1CFD9FFE2CFDAFFE652BD
:10266000E652E652E65201013E51000802E2550EE2
:10267000D7D001013F51000802E2320ED1D0FD0E49
:10268000DBCF04F0056A066A076A100E1D6E0E0E97
:102690001E6E1F6A206A04C018F005C019F006C03B
:1026A0001AF007C01BF0E9EC1AF014C004F015C0D2
:1026B00005F016C006F017C007F0FC0EDBCF08F0DF
:1026C000096A0A6A0B6A3C0E1D6E1E6A1F6A206A3E
:1026D00008C018F009C019F00AC01AF00BC01BF0AE
:1026E000E9EC1AF014C008F015C009F016C00AF0A1
:1026F00017C00BF008500426095005220A50062284
:102700000B500722FB0EDBCF0CF00D6A0E6A0F6A2E
:1027100004500C24006E05500D20016E06500E2052
:10272000026E07500F20036E640E1D6E1E6A1F6A34
:10273000206A00C018F001C019F002C01AF003C0EE
:102740001BF0E9EC1AF014C000F015C001F016C03F
:1027500002F017C003F0F90EDBCF10F0FA0EDBCF5A
:1027600011F0126A136A050E1026000E1122000ED7
:102770001222000E1322640E1D6E1E6A1F6A206A4A
:1027800010C018F011C019F012C01AF013C01BF0DD
:10279000E9EC1AF014C010F015C011F016C012F0D8
:1027A00017C013F0E80E1D6E030E1E6E1F6A206A1E
:1027B00010C018F011C019F012C01AF013C01BF0AD
:1027C0005AEC1CF018C010F019C011F01AC012F029
:1027D0001BC013F01050002611500122125002228B
:1027E0001350032200C0DFFF010E01C0DBFF020E09
:1027F00002C0DBFF030E03C0DBFFD9CFE9FFDACF56
:10280000EAFFEECFE6FFEECFE6FFEECFE6FFEFCF3B
:10281000E6FFA4DEE552E552E552E552000E00D097
:10282000006E040EE15C02E2E16AE552E16E0050E6
:10283000E552E5CFDAFFE7CFD9FF1200D9CFE6FFA7
:10284000DACFE6FFE1CFD9FFE2CFDAFFE652E65278
:10285000E652020EDB6A060EF36EFD0EDBCFF4FFCE
:10286000F350F45C02E32A0EBED0C00EF214E76E01
:10287000020EE7CFDBFF800ED0143F09F216FD0EEB
:10288000EA6ADB34FE0BEA36E96ED20EE926010E67
:10289000EA22EECFDEFFEDCFDDFFD9CFE9FFDACFC1
:1028A000EAFFEE50ED1005E1020EDB50F212430E8E
:1028B0009AD0D9CFE9FFDACFEAFF010EEE1801E195
:1028C000ED5005E1020EDB50F212430E8CD0DECF4C
:1028D000E9FFDDCFEAFF060EE926000EEA22EECF81
:1028E00000F0EECF01F0EECF02F0EFCF03F000509A
:1028F00001100210031005E1020EDB50F212500E1F
:1029000072D0DECFE9FFDDCFEAFF060EE926000E2A
:10291000EA22EE6AEE6AEE6AEE6ADECFE9FFDDCF0A
:10292000EAFF0A0EE926000EEA22EF50370B17E005
:10293000C80E006EDECFE9FFDDCFEAFF0A0EE92602
:10294000000EEA220050EF16DECFE9FFDDCFEAFFEE
:102950000B0EE926000EEA22010EEF6E09D0DECF43
:10296000E9FFDDCFEAFF0B0EE926000EEA22EF6A4F
:10297000DECFE9FFDDCFEAFF0A0EE926000EEA22EC
:10298000EF50080B2BE1DECFE9FFDDCFEAFF100EA1
:10299000E926000EEA22EF5001014213DECFE9FFE3
:1029A000DDCFEAFF0F0EE926000EEA22EFCF00F09E
:1029B000DECFE9FFDDCFEAFF0E0EE926000EEA22A8
:1029C000EF50EA6A430FE96E010EEA220050EF125F
:1029D000020EDB50F212DDEC03F003D0020EDB50EE
:1029E000F212000E00D0E552E552E552E552E5CF75
:1029F000DAFFE7CFD9FF1200D9CFE6FFDACFE6FF43
:102A0000E1CFD9FFE2CFDAFFE652E652E652E652D4
:102A1000E652040EDB6AC00EF214E76E040EE7CF36
:102A2000DBFF800ED0143F09F216DDC2DFFF010E7E
:102A3000DEC2DBFF020EDFC2DBFF030EE0C2DBFF04
:102A4000040EDB50F212DECF18F0DECF19F0DECF2D
:102A50001AF0DDCF1BF0DD52DD5200D0050EE15C37
:102A600002E2E16AE552E16EE552E5CFDAFFE7CF37
:102A7000D9FF1200D9CFE6FFDACFE6FFE1CFD9FFC9
:102A8000E2CFDAFFE652DF6AC00EF214DF6E800E8C
:102A9000D0143F09F216FA0EDBCFDDF2FB0EDBCFCE
:102AA000DEF2FC0EDBCFDFF2FD0EDBCFE0F2DF501B
:102AB000F212E552E552E5CFDAFFE7CFD9FF120077
:102AC000D9CFE6FFDACFE6FFE1CFD9FFE2CFDAFFD9
:102AD000E652E652E10EDE6E030EDD6EE30EDE6EB2
:102AE000030EDD6EE90EDE6E030EDD6EEB0EDE6EA6
:102AF000030EDD6EE70EDE6E030EDD6EED0EDE6E96
:102B0000030EDD6EEF0EDE6E030EDD6EF10EDE6E79
:102B1000030EDD6EF30EDE6E030EDD6EF50EDE6E61
:102B2000030EDD6EF70EDE6E030EDD6EF90EDE6E49
:102B3000030EDD6EFB0EDE6E030EDD6EFD0EDE6E31
:102B4000030EDD6EFF0EDE6E030EDD6E010EDE6E19
:102B5000040EDD6E030EDE6E040EDD6E050EDE6EFF
:102B6000040EDD6E070EDE6E040EDD6E090EDE6EE7
:102B7000040EDD6E0B0EDE6E040EDD6E0D0EDE6ECF
:102B8000040EDD6E0F0EDE6E040EDD6E110EDE6EB7
:102B9000040EDD6E130EDE6E040EDD6E150EDE6E9F
:102BA000040EDD6E170EDE6E040EDD6E190EDE6E87
:102BB000040EDD6E1B0EDE6E040EDD6E1D0EDE6E6F
:102BC000040EDD6E1F0EDE6E040EDD6E210EDE6E57
:102BD000040EDD6E230EDE6E040EDD6E250EDE6E3F
:102BE000040EDD6E270EDE6E040EDD6E290EDE6E27
:102BF000040EDD6E2B0EDE6E040EDD6E2D0EDE6E0F
:102C0000040EDD6E2F0EDE6E040EDD6E310EDE6EF6
:102C1000040EDD6E350EDE6E040EDD6E370EDE6EDA
:102C2000040EDD6E390EDE6E040EDD6E3B0EDE6EC2
:102C3000040EDD6E3D0EDE6E040EDD6E510EDE6E98
:102C4000040EDD6EE552E552E552E5CFDAFFE7CF3F
:042C5000D9FF120096
:0C2C5400D9CFE6FFDACFE6FFE1CFD9FFD1
:102C6000E2CFDAFFE652E652F70EDBCFDEFFDBCF34
:102C7000DDFFDFCFE9FFDF2A010EDBCFEAFF01E353
:102C8000DB2AF90EDBCFEFFFDFCFE9FFDF2A010EF2
:102C9000DBCFEAFF01E3DB2AFA0EDBCFEFFFDFCF6A
:102CA000E9FFDF2A010EDBCFEAFF01E3DB2AEF6851
:102CB000DFCFE9FFDF2A010EDBCFEAFF01E3DB2AEA
:102CC0001A0EEF6EDFCFE9FFDF2A010EDBCFEAFF3E
:102CD00001E3DB2A1B0EEF6EDFCFE9FFDF2A010ED7
:102CE000DBCFEAFF01E3DB2A1C0EEF6EDFCFE9FF4B
:102CF000DF2A010EDBCFEAFF01E3DB2A1D0EEF6EB8
:102D0000DFCFE9FFDF2A010EDBCFEAFF01E3DB2A99
:102D10001E0EEF6EDFCFE9FFDF2A010EDBCFEAFFE9
:102D200001E3DB2A1F0EEF6EDFCFE9FFDF2A010E82
:102D3000DBCFEAFF01E3DB2A2A0EEF6EDFCFE9FFEC
:102D4000DF2A010EDBCFEAFF01E3DB2A2B0EEF6E59
:102D5000DFCFE9FFDF2A010EDBCFEAFF01E3DB2A49
:102D60002C0EEF6EDFCFE9FFDF2A010EDBCFEAFF8B
:102D700001E3DB2A2D0EEF6EDFCFE9FFDF2A010E24
:102D8000DBCFEAFF01E3DB2A2E0EEF6EDFCFE9FF98
:102D9000DF2A010EDBCFEAFF01E3DB2A2F0EEF6E05
:102DA000DFCFE9FFDF2A010EDBCFEAFF01E3DB2AF9
:102DB0003A0EEF6EDFCFE9FFDF2A010EDBCFEAFF2D
:102DC00001E3DB2A3B0EEF6EDFCFE9FFDF2A010EC6
:102DD000DBCFEAFF01E3DB2A3C0EEF6EDFCFE9FF3A
:102DE000DF2A010EDBCFEAFF01E3DB2A3D0EEF6EA7
:102DF000DFCFE9FFDF2A010EDBCFEAFF01E3DB2AA9
:102E0000FB0EDBCFEFFFDFCFE9FFDF2A010EDBCFC9
:102E1000EAFF01E3DB2AFC0EDBCFEFFFDFCFE9FFA8
:102E2000DF2A010EDBCFEAFF01E3DB2AFD0EDBCF59
:102E3000EFFFDFCFE9FFDF2A010EDBCFEAFF01E37F
:102E4000DB2A010EEF6EDECF00F0DDCF01F000C017
:102E5000F3FF01C0F4FF00D0E552E552E552E5CFA3
:102E6000DAFFE7CFD9FF1200D9CFE6FFDACFE6FFCE
:102E7000E1CFD9FFE2CFDAFFE552E5CFDAFFE7CFC6
:102E8000D9FF1200D9CFE6FFDACFE6FFE1CFD9FFB5
:102E9000E2CFDAFFE552E5CFDAFFE7CFD9FF120044
:102EA0000400120012001200D9CFE6FFDACFE6FFCD
:102EB000E1CFD9FFE2CFDAFFE552E5CFDAFFE7CF86
:102EC000D9FF12001200D9CFE6FFDACFE6FFE1CF3B
:102ED000D9FFE2CFDAFFE552E5CFDAFFE7CFD9FF3E
:102EE000120012001200DCDF0101010E446FCEC19E
:102EF000E9FFCFC1EAFFEECFE1FFEDCFE2FF1F0E0A
:102F0000FC1402E00600FBD7FC5001E0FC6AE5522D
:102F1000E550E96E0500E550FF6EE550FE6EE550A8
:102F2000FD6EE906F7E1E5CF1BF0E5CF1AF0E5CF3E
:102F300019F0E5CF18F0E5CFF4FFE5CFF3FFE5CFCB
:102F4000F8FFE5CFF7FFE5CFF6FFE5CFDAFFE7CFF4
:102F5000D9FFE552E5CFEAFFE5CFE9FFE550E5CF40
:102F6000E0FFE5CFD8FF10001200800ED0143F091B
:102F7000F216D8CFE4FFE0CFE4FFE46EE9CFE4FF40
:102F8000EACFE4FFE652D9CFE6FFDACFE6FFF6CF8D
:102F9000E6FFF7CFE6FFF8CFE6FFF3CFE6FFF4CF8B
:102FA000E6FF18C0E6FF19C0E6FF1AC0E6FF1BC027
:102FB000E6FFE96A1F0EFC1409E0FDCFE6FFFECF35
:102FC000E6FFFFCFE6FF0600E92AF4D7E9CFE6FFE8
:102FD000FC5001E0FC6ACAC1E9FFCBC1EAFFE1CFC6
:102FE000EEFFE2CFEDFF5CDFCEC1CAF1CFC1CBF186
:102FF00041C140F1CEC1E9FFCFC1EAFFEECFE1FF11
:10300000EDCFE2FFE552E550E96E0500E550FF6EB9
:10301000E550FE6EE550FD6EE906F7E1E5CF1BF0E9
:10302000E5CF1AF0E5CF19F0E5CF18F0E5CFF4FFC2
:10303000E5CFF3FFE5CFF8FFE5CFF7FFE5CFF6FFEC
:10304000E5CFDAFFE7CFD9FFE552E5CFEAFFE5CFDD
:10305000E9FFE550E5CFE0FFE5CFD8FF1000120013
:10306000D8CFE4FFE0CFE4FFE46EE9CFE4FFEACF9E
:10307000E4FFE652D9CFE6FFDACFE6FFF6CFE6FF70
:10308000F7CFE6FFF8CFE6FFF3CFE6FFF4CFE6FF9A
:1030900018C0E6FF19C0E6FF1AC0E6FF1BC0E6FF36
:1030A00001013E2BECEC1CF03BEC00F0E552E5CFCF
:1030B0001BF0E5CF1AF0E5CF19F0E5CF18F0E5CF1A
:1030C000F4FFE5CFF3FFE5CFF8FFE5CFF7FFE5CF5E
:1030D000F6FFE5CFDAFFE7CFD9FFE552E5CFEAFF0C
:1030E000E5CFE9FFE550E5CFE0FFE5CFD8FF1000E1
:1030F000120006000600E552E552E552E96A1F0E8D
:10310000FC1409E0FDCFE6FFFECFE6FFFFCFE6FFB0
:103110000600E92AF4D7E9CFE6FFFC5001E0FC6A9B
:10312000CAC1E9FFCBC1EAFFE1CFEEFFE2CFEDFF7D
:10313000B7DECEC1CAF1CFC1CBF141C140F1CEC1A2
:10314000E9FFCFC1EAFFEECFE1FFEDCFE2FF1F0EB7
:10315000FC1402E00600FBD7FC5001E0FC6AE552DB
:10316000E550E96E0500E550FF6EE550FE6EE55056
:10317000FD6EE906F7E1E5CF1BF0E5CF1AF0E5CFEC
:1031800019F0E5CF18F0E5CFF4FFE5CFF3FFE5CF79
:10319000F8FFE5CFF7FFE5CFF6FFE5CFDAFFE7CFA2
:1031A000D9FFE552E5CFEAFFE5CFE9FFE550E5CFEE
:0A31B000E0FFE5CFD8FF1000120089
:0631BA000000000000000F
:1031C00000000000000000000000000000000000FF
:1031D00000000000000000000000000000001200DD
:1031E0000F0EE66EFFEC1CF0E5521200050EE66EC7
:1031F000FFEC1CF0E5521200280EE66EE9EC19F027
:10320000E5527EEC1CF0000901E0FBD7060EE66EED
:10321000ADEC1BF0E5521200D9CFE6FFDACFE6FFA6
:10322000E1CFD9FFE2CFDAFF93900501010E4D19EE
:1032300001E14E512CE0E66A21EC1BF0E5527EECF8
:103240001CF0000901E0FBD74D0EE66E3A0EE66E6B
:10325000000EE66EAEEC1AF0E552E552E5527EEC59
:103260001CF0000901E0FBD78170000EE66EE66AF3
:10327000010EE66EE66AE66A27EC13F0006E050EB4
:10328000E15C02E2E16AE552E16E0050CED7E66809
:10329000E7EC0DF0E552E552E5CFDAFFE7CFD9FFD5
:1032A0001200D9CFE6FFDACFE6FFE1CFD9FFE2CFB8
:1032B000DAFF93920501010E4D1901E14E5127E00D
:1032C000100EE66E21EC1BF0E5527EEC1CF00009BE
:1032D00001E0FBD73E0EE66E3A0EE66E000EE66E9D
:1032E000AEEC1AF0E552E552E5527EEC1CF0000916
:1032F00001E0FBD78172C80EE66EE66AE66AE66A0E
:10330000AEEC12F0E552E552E552E552D3D7E55264
:10331000E5CFDAFFE7CFD9FF1200D9CFE6FFDACF4A
:10332000E6FFE1CFD9FFE2CFDAFFE652C00EF2149A
:10333000DF6E800ED0143F09F21622EC00F09F0ED3
:10334000E66EB9EC1CF0E552D59EEF0EE66ED80E97
:10335000E66E9DEC1CF0E552E552D58EE66ACA0E8B
:10336000E66E040EE66E000EE66EE66A180EE66E77
:10337000320EE66E000EE66E25EC0DF0006E080EC5
:10338000E15C02E2E16AE552E16E0050010EE66E98
:10339000420EE66E050EE66E000EE66EE66AA20EC0
:1033A000E66E320EE66E000EE66E25EC0DF0006E57
:1033B000080EE15C02E2E16AE552E16E00501CDFBA
:1033C000E7EC00F0E552E552E5CFDAFFE7CFD9FFB1
:0233D0001200E9
:0E33D200D9CFE6FFDACFE6FFE1CFD9FFE2CF99
:1033E000DAFF0F0E83160F0E951695949592959011
:1033F0008C948C928C90F0EC18F0300EE66EADEC64
:103400001BF0E552050EE66ED5EC1CF0E552300ED1
:10341000E66EADEC1BF0E552010EE66ED5EC1CF04D
:10342000E552320EE66EADEC1BF0E5527EEC1CF080
:10343000000901E0FBD77EEC1CF0000901E0FBD79E
:10344000FD0EDBCFE6FFADEC1BF0E5527EEC1CF091
:10345000000901E0FBD7080EE66EADEC1BF0E5526B
:103460007EEC1CF0000901E0FBD70F0EE66EADEC20
:103470001BF0E5527EEC1CF0000901E0FBD7010EC9
:10348000E66EADEC1BF0E5527EEC1CF0000901E0AD
:10349000FBD7040EE66EADEC1BF0E5527EEC1CF0A3
:1034A000000901E0FBD7800EE66E21EC1BF0E5522F
:0E34B00000D0E552E5CFDAFFE7CFD9FF1200DA
:0234BE002A0ED4
:1034C000F66E000EF76E000EF86E05010900F5505D
:1034D000486F0900F550496F03E1486701D03DD0BE
:1034E0000900F550436F0900F550446F0900F5508D
:1034F000456F09000900F550E96E0900F550EA6EC4
:10350000090009000900F550466F0900F550476FA2
:1035100009000900F6CF4AF5F7CF4BF5F8CF4CF587
:1035200043C5F6FF44C5F7FF45C5F8FF05014653FF
:1035300002E1475307E00900F550EE6E4607F8E256
:103540004707F9D74AC5F6FF4BC5F7FF4CC5F8FF4B
:0C35500005014807000E495BBFD71200C0
:04355C00D9CFE6FFDE
:10356000DACFE6FFE1CFD9FFE2CFDAFFFB0EDBCF08
:10357000F6FFFC0EDBCFF7FFFD0EDBCFF8FF0800F8
:10358000F55020E07EEC1CF0000901E0FBD7FB0EBB
:10359000DBCFF6FFFC0EDBCFF7FFFD0EDBCFF8FF36
:1035A0000800F550E66E7FEC1BF0E552D950FB0F9A
:1035B000E96EFF0EDA20EA6EEE2A000EEE22000E11
:1035C000EE22D4D700D0E552E5CFDAFFE7CFD9FF1E
:0235D0001200E7
:0E35D20018501D02F3CF14F0F4CF15F01E02B6
:1035E000F3501526000EF420166E18501F02F350EB
:1035F0001626000EF420176E18502002F3501726DE
:1036000019501D02F3501526F4501622000E1722F1
:1036100019501E02F3501626F450172219501F029B
:10362000F35017261A501D02F3501626F450172295
:103630001A501E02F35017261B501D02F350172676
:02364000120076
:0E364200D9CFE6FFDACFE6FFE1CFD9FFE2CF26
:10365000DAFF0F0E95160F0E8316FD0EDB50800954
:10366000F00B83128C948C92DDEC18F08C80DDECE6
:1036700018F08C900F0E8316FD0EDB38F00BF00B5C
:103680008312DDEC18F08C80DDEC18F08C90F00EDD
:10369000951200D0E552E5CFDAFFE7CFD9FF12004F
:1036A000D9CFE6FFDACFE6FFE1CFD9FFE2CFDAFFED
:1036B0000F0E95160F0E8316FD0EDB504009F00B12
:1036C00083128C948C92DDEC18F08C80DDEC18F079
:1036D0008C900F0E8316FD0EDB38F00BF00B83126F
:1036E000DDEC18F08C80DDEC18F08C90F00E95126B
:0E36F00000D0E552E5CFDAFFE7CFD9FF120098
:0236FE00D9CF22
:10370000E6FFDACFE6FFE1CFD9FFE2CFDAFF0F0E17
:1037100095160F0E8316FD0EDB50F00B83128C8274
:103720008C94DDEC18F08C80DDEC18F08C900F0E92
:103730008316FD0EDB38F00BF00B8312DDEC18F076
:103740008C80DDEC18F08C90F00E951200D0E552D4
:0A375000E5CFDAFFE7CFD9FF120042
:06375A00D9CFE6FFDACF33
:10376000E6FFE1CFD9FFE2CFDAFF0F0E95160F0E7D
:103770008316FD0EDB50F00B83128C948C92DDECE3
:1037800018F08C80DDEC18F08C900F0E8316FD0E77
:10379000DB38F00BF00B8312DDEC18F08C80DDECE5
:1037A00018F08C90F00E951200D0E552E5CFDAFFBC
:0637B000E7CFD9FF120073
:0A37B600D9CFE6FFDACFE6FFE1CF3E
:1037C000D9FFE2CFDAFFFC0EDBCFE9FFFD0EDBCF46
:1037D000EAFFEF5016E07EEC1CF0000901E0FBD799
:1037E000FC0EDBCFE9FFFD0EDBCFEAFFEF50E66E0C
:1037F0007FEC1BF0E552FC0EDB2AFD0E01E3DB2A19
:10380000E2D700D0E552E5CFDAFFE7CFD9FF1200CB
:10381000D9CFE6FFDACFE6FFE1CFD9FFE2CFDAFF7B
:10382000E6528C848C82DDEC18F08C80DDEC18F094
:10383000F00E8314DF6E8C90DDEC18F08C80DDECE4
:1038400018F083380F0B0F0BDF128C908C928C9436
:10385000DF5000D0E552E552E5CFDAFFE7CFD9FFE0
:02386000120054
:0E386200D9CFE6FFDACFE6FFE1CFD9FFE2CF04
:10387000DAFFE6528C848C92DDEC18F08C80DDEC63
:1038800018F0F00E8314DF6E8C90DDEC18F08C8055
:10389000DDEC18F083380F0B0F0BDF128C908C943B
:1038A0007F0EDF1400D0E552E552E5CFDAFFE7CF17
:0438B000D9FF12002A
:0C38B400176A166A156A146A200EE76E87
:1038C000D890183619361A361B3614361536163671
:1038D00017361D50145C1E5015581F501658205096
:1038E000175809E31D50145E1E50155A1F50165AE2
:0C38F0002050175A182AE72EE4D71200C7
:0438FC008C848C929A
:10390000DDEC18F08C80DDEC18F083AE0BD08C90E1
:10391000DDEC18F08C80DDEC18F08C908C94010EAE
:103920000BD00AD08C90DDEC18F08C80DDEC18F018
:0A3930008C908C94000E00D0120061
:06393A00D9CFE6FFDACF51
:10394000E6FFE1CFD9FFE2CFDAFFE652E652FC0E06
:10395000DBCFDEFFDBCFDDFF010EDB50D76EDF50AC
:10396000D66EE552E552E552E5CFDAFFE7CFD9FF53
:02397000120043
:0E397200D9CFE6FFDACFE6FFE1CFD9FFE2CFF3
:10398000DAFFFD0EDB507F0BD56ED76AD66AF29454
:10399000FD0EDBAE02D0F28A01D0F29AD58EE5524E
:0A39A000E5CFDAFFE7CFD9FF1200F0
:0639AA00FF0EE350256E44
:1039B000EF0E01D0F30EE76EE72EDCEF1CF00C0EDD
:1039C000246EE76AE72EE2EF1CF0242EE1EF1CF0F4
:0839D000252EDAEF1CF01200B5
:0839D800F2A40DD0F294D59E7B
:1039E000EF0EE66ED80EE66E9DEC1CF0E552E55249
:0E39F000D58E4CEC01F01200E652E5521100AB
:0239FE00FF0EBA
:103A0000E350256E480E01D04C0EE76EE72EFED730
:0E3A1000E76AE72EFED7252EF7D7000012003A
:023A1E00000E98
:103A2000F36E00EE00F0060E01D81200EA6002D03C
:0E3A3000EE6AFCD7F350E9601200EE6AFCD794
:023A3E005461D1
:103A4000736B20322072756C65733F0A005461738A
:0D3A50006B203120726F636B7321003F000B
:023A5E0010EE68
:103A600080F020EE80F0F86A239C5FEC1AF03DECC9
:0A3A70001DF08DEC19F0FBD71200D9
:023A7A00120038
:043A7C000000010045
:103A80000200010003000100020001000400010027
:103A90000200010003000100020001000500010016
:103AA0000200010003000100020001000400010007
:103AB00002000100030001000200010006000100F5
:103AC00002000100030001000200010004000100E7
:103AD00002000100030001000200010005000100D6
:103AE00002000100030001000200010004000100C7
:103AF00002000100030001000200010007000100B4
:103B000002000100030001000200010004000100A6
:103B10000200010003000100020001000500010095
:103B20000200010003000100020001000400010086
:103B30000200010003000100020001000600010074
:103B40000200010003000100020001000400010066
:103B50000200010003000100020001000500010055
:103B60000200010003000100020001000400010046
:103B7000020001000300010002000100010078566C
:103B8000341200000A0001000000000001000000E3
:103B90000000000000000500010006000000010018
:103BA0000500010012005A0000000200000004009D
:103BB0000000010000000100010000000100800081
:103BC000010004000000010080000100010001006C
:103BD000070028006400010023010000100001001C
:0E3BE00008000A000000000000000000310292
:023BEE000000D5
:020000040030CA
:0100010022DC
:010003000EEE
:010006008178
:00000001FF
