:020000040000FA
:060000002FEF37F01200A3
:08000800D0BEE5EF36F069EF10
:0400100031F01200B9
:0600180069EF31F0120057
:06002A000200EE6F000071
:10003000BD050000020000007C6E00004D030000C2
:040040007201000049
:0C004400D9CFE6FFDACFE6FFE1CFD9FF0D
:10005000E2CFDAFFE652E652010EDB6A01019A5165
:1000600000080AE2F80EDBCFE9FFF90EDBCFEAFF6A
:10007000110EEF6E000E58D0FC0EDBCFE9FFFD0E27
:10008000DBCFEAFFEF50030A07E0070A05E0050AA5
:1000900003E0030A01E001D00AD0F80EDBCFE9FF4C
:1000A000F90EDBCFEAFF010EEF6E000E3DD0C00E61
:1000B000F214E76E010EE7CFDBFF800ED0143F098C
:1000C000F216FC0EDBCFE9FFFD0EDBCFEAFF070ED9
:1000D000E926000EEA22EECF00F0EFCF01F0FA0E93
:1000E000DBCFE9FFFB0EDBCFEAFF00C0EEFF01C074
:1000F000EDFFFA0EDBCFE9FFFB0EDBCFEAFFEECF21
:10010000E6FFEFCFE6FF71EC0CF0E552E552DF6E53
:10011000010EDB50F212F80EDBCFE9FFF90EDBCF58
:10012000EAFFEF6ADF5000D0E552E552E552E5CF35
:10013000DAFFE7CFD9FF1200D9CFE6FFDACFE6FF2B
:10014000E1CFD9FFE2CFDAFFE652DF6A01019A512F
:10015000000809E2F80EDBCFE9FFF90EDBCFEAFF7A
:10016000120EEF6E3AD0FC0EDBCFE9FFFD0EDBCFB7
:10017000EAFFEF50030A07E0070A05E0050A03E07B
:10018000030A01E001D009D0F80EDBCFE9FFF90E38
:10019000DBCFEAFF010EEF6E20D0C00EF214DF6E4F
:1001A000800ED0143F09F216FC0EDBCFE9FFFD0EE6
:1001B000DBCFEAFF070EE926000EEA22FA0EDBCFBC
:1001C000EEFFFB0EDBCFEDFFDF50F212F80EDBCFC0
:1001D000E9FFF90EDBCFEAFFEF6AE552E552E5CF22
:1001E000DAFFE7CFD9FF1200D9CFE6FFDACFE6FF7B
:1001F000E1CFD9FFE2CFDAFF090EE12402E3E168A3
:10020000E652E16E080EDB6AFA0EDBCFE9FFFB0E69
:10021000DBCFEAFFEE6AED6AFC0EDBCFDEFFDBCF61
:10022000DDFFDECFE9FFDDCFEAFF020EEECFDBFF21
:10023000030EEDCFDBFFD950020FE96E000EDA207E
:10024000EA6EEE50ED102DE0020EDBCFE9FF030E5B
:10025000DBCFEAFFEF50040A06E0010A04E0060AD9
:1002600001E001D00BD0F20EDBCFE9FFF30EDBCFC4
:10027000EAFF010EEF6EF36AF46A8CD2D9CFE9FF80
:10028000DACFEAFF020EEE26000EEF22DECFE9FF04
:10029000DDCFEAFF020EEECFDBFF030EEDCFDBFF7B
:1002A000CAD701019A5100080BE2F20EDBCFE9FF39
:1002B000F30EDBCFEAFF020EEF6EF36AF46A6AD246
:1002C00001019B5100080BE2F20EDBCFE9FFF30EB8
:1002D000DBCFEAFF0D0EEF6EF36AF46A5BD2C00E5D
:1002E000F214E76E080EE7CFDBFF800ED0143F0953
:1002F000F216040EDB6A050EDB6A060EDB6A070ED9
:10030000DB6AFC0EDBCFDEFFDBCFDDFFDECFE9FFFC
:10031000DDCFEAFF020EEECFDBFF030EEDCFDBFFFA
:10032000D950020FE96E000EDA20EA6EEE50ED10A1
:1003300001E196D0020EDBCFE9FF030EDBCFEAFF2F
:10034000EF50040A5CE0010A5AE0060A01E057D0C7
:10035000020EDBCFE9FF030EDBCFEAFF030EE92637
:10036000000EEA22000ED880EE54000EED5444E256
:10037000020EDBCFE9FF030EDBCFEAFF030EE92617
:10038000000EEA22EE06000EEF5AD950FA0FE96E7F
:10039000FF0EDA20EA6EEECFF3FFEDCFF4FF020E90
:1003A000EE26000EEF22F3CFE9FFF4CFEAFF020EB4
:1003B000DBCFEEFF030EDBCFEDFF010EF36E040E7D
:1003C000F3CFDBFFD950F80FE96EFF0EDA20EA6EAB
:1003D000EECFF3FFEDCFF4FF020EEE26000EEF227C
:1003E000F3CFE9FFF4CFEAFFEE6AED6A050EDB2AF0
:1003F000060E01E3DB2A02D0070EDB801ED0080EBA
:10040000DB50F212FA0EDBCFE9FFFB0EDBCFEAFF87
:10041000EE6AED6AF20EDBCFE9FFF30EDBCFEAFF07
:10042000010EEF6E050EDBCF00F0060EDBCF01F004
:1004300000C0F3FF01C0F4FFADD1D9CFE9FFDACF9F
:10044000EAFF020EEE26000EEF22DECFE9FFDDCF3F
:10045000EAFF020EEECFDBFF030EEDCFDBFF60D72E
:10046000040EDB041DE1FA0EDBCFE9FFFB0EDBCF50
:10047000EAFFEE6AED6A080EDB50F212F20EDBCFF5
:10048000E9FFF30EDBCFEAFFEF6A050EDBCF00F0EA
:10049000060EDBCF01F000C0F3FF01C0F4FF7AD1FC
:1004A000070EDB508009006E26C2E9FF27C2EAFF73
:1004B0000E0EE926000EEA220050EF1226C2E9FFD6
:1004C00027C2EAFF0F0EE926000EEA22EF6A26C2D3
:1004D000E9FF27C2EAFF0A0EE926000EEA22F40E1F
:1004E000DBCFEEFFF50EDBCFEEFFF60EDBCFEEFF40
:1004F000F70EDBCFEEFFFC0EDBCFE6FFFD0EDBCF12
:10050000E6FFA4EC07F0E552E552080EDB50F212CC
:10051000FAEC0BF0C00EF214E76E080EE7CFDBFF2B
:10052000800ED0143F09F21626C2E9FF27C2EAFF67
:100530000F0EEB50010A5DE0010A03E0020A01E040
:1005400058D026C2E9FF27C2EAFF060EE926000EB0
:10055000EA22020EEECFDBFF030EEDCFDBFFD95018
:10056000020FE96E000EDA20EA6EEE50ED1026E082
:10057000D950FA0FE96EFF0EDA20EA6EEECFF3FFE4
:10058000EDCFF4FF020EEE26000EEF22F3CFE9FFCF
:10059000F4CFEAFF020EDBCFEEFF030EDBCFEDFF61
:1005A000FA0EDBCFE9FFFB0EDBCFEAFFEE6AED6A66
:1005B000050EDB2A060E01E3DB2A1AD026C2E9FF6C
:1005C00027C2EAFF0F0EE926000EEA22010EEF6EA7
:1005D000FC0EDBCFE6FFFD0EDBCFE6FF26C2E6FF1B
:1005E00027C2E6FFCFEC08F0E552E552E552E552AE
:1005F00011D0FC0EDBCFE6FFFD0EDBCFE6FF26C2FF
:10060000E6FF27C2E6FFCFEC08F0E552E552E552DF
:10061000E55200D026C2E9FF27C2EAFF0F0EEB50D9
:10062000010A6BE0030A4CE0020A01E066D0020E08
:10063000DBCFE9FF030EDBCFEAFFEF50040A1AE03D
:10064000010A18E0060A01E015D0D950F80FE96E4A
:10065000FF0EDA20EA6EEECFF3FFEDCFF4FF020ECD
:10066000EE26000EEF22F3CFE9FFF4CFEAFFEE6AA9
:10067000ED6A1ED0080EDB50F212FA0EDBCFE9FF56
:10068000FB0EDBCFEAFFEE6AED6AF20EDBCFE9FF8D
:10069000F30EDBCFEAFF010EEF6E050EDBCF00F0AD
:1006A000060EDBCF01F000C0F3FF01C0F4FF72D0F3
:1006B000F20EDBCFE9FFF30EDBCFEAFFEF6A3AD0B1
:1006C000D950F80FE96EFF0EDA20EA6EEECFF3FF95
:1006D000EDCFF4FF020EEE26000EEF22F3CFE9FF7E
:1006E000F4CFEAFFEE6AED6AF20EDBCFE9FFF30E1C
:1006F000DBCFEAFF0E0EEF6E1DD0D950F80FE96E7A
:10070000FF0EDA20EA6EEECFF3FFEDCFF4FF020E1C
:10071000EE26000EEF22F3CFE9FFF4CFEAFFEE6AF8
:10072000ED6AF20EDBCFE9FFF30EDBCFEAFF0A0E34
:10073000EF6E00D026C2E9FF27C2EAFF0E0EE926BF
:10074000000EEA22EF6A26C2E9FF27C2EAFF0F0E77
:10075000E926000EEA22EF6A26C2E9FF27C2EAFF75
:10076000060EEB6A070EEB6A26C2E9FF27C2EAFF14
:10077000080EEB6A090EEB6A080EDB50F212050E4A
:10078000DBCF00F0060EDBCF01F000C0F3FF01C0AD
:10079000F4FF00D0090EE15C02E2E16AE552E16E8D
:1007A000E552E5CFDAFFE7CFD9FF1200AAEC30F02F
:1007B00088EC0AF0ACEC0AF009EC0BF0B4EC09F0B0
:1007C00046EC13F0D5EC0AF0EFEC0AF0ABEC30F0AD
:1007D00099EC2EF012000101A00506E1FF0E0101C7
:1007E0009A5D02E201019A2B1200D9CFE6FFDACF1F
:1007F000E6FFE1CFD9FFE2CFDAFFE652DF6A01017F
:10080000A00540E1C00EF214DF6E800ED0143F0947
:10081000F21601019A51000802E201019A07010152
:100820009A512EE101019B512BE144EC0CF00101A6
:100830009D51E96EEA6AD890E936EA362E0EE9262D
:10084000020EEA22EECF2AF2EDCF2BF201019C51EB
:1008500001019D5D15E02AC2E9FF2BC2EAFF160ED9
:10086000E926000EEA22EE2A000EEE22EE22EE2209
:100870000001B02B000EB123B223B323B2EC31F050
:10088000DF50F212E552E552E5CFDAFFE7CFD9FFAC
:100890001200D9CFE6FFDACFE6FFE1CFD9FFE2CFF2
:1008A000DAFFE652DF6A0101A00512E1C00EF21480
:1008B000DF6E800ED0143F09F21601019A5106E155
:1008C000FF0E01019B5D02E201019B2BDF50F21242
:1008D000E552E552E5CFDAFFE7CFD9FF1200D9CFD5
:1008E000E6FFDACFE6FFE1CFD9FFE2CFDAFFE6524B
:1008F000DF6A0101A00520E1C00EF214DF6E800E58
:10090000D0143F09F21601019B51000813E20101C6
:100910009B0701019B510BE101019A5105E1DF5059
:10092000F212FAEC0BF002D0DF50F21202D0DF50DC
:10093000F21202D0DF50F212E552E552E5CFDAFFB3
:10094000E7CFD9FF12000101A05119E144EC0CF0EE
:100950009DC19CF101019D51E96EEA6AD890E9368A
:10096000EA362E0EE926020EEA22EECF2AF2EDCF6B
:100970002BF22AC226F22BC227F2ACEC30F0120086
:10098000D9CFE6FFDACFE6FFE1CFD9FFE2CFDAFF3A
:10099000E652DF6A020EE66EE66AE66AE66AE7ECAF
:1009A0002BF0E552E552E552E552C00EF214DF6E2F
:1009B000800ED0143F09F2160101A26BA36BA46B49
:1009C000A56BDF50F2120A0EE66EE66AE66AE66A88
:1009D000E7EC2BF0E552E552E552E552C00EF21479
:1009E000DF6E800ED0143F09F216A2C111F1A3C12F
:1009F00012F1A4C113F1A5C114F10101010E196F87
:100A0000DF50F212E552E552E5CFDAFFE7CFD9FF2A
:100A10001200D9CFE6FFDACFE6FFE1CFD9FFE2CF70
:100A2000DAFFE652E652E652E652030EDB6A8CEC3F
:100A300030F0C00EF214E76E030EE7CFDBFF800E3E
:100A4000D0143F09F2160301492B000E4A234B2311
:100A50004C23030EDB50F2120101A00501E0E4D0AB
:100A60000201EC51020A0EE0030A09E0010A01E06A
:100A700012D0010EF36E020EF3CFDBFF14D0020E84
:100A8000DB6A11D0010EF36E020EF3CFDBFF020121
:100A9000010EEC6F08D0010EF36E020EF3CFDBFFF8
:100AA0000201EC6B00D0020EDB5001E1BDD02CC284
:100AB000DEFF2DC2DDFFDECFE9FFDDCFEAFF100E46
:100AC000E926000EEA22EF50060801E1ADD0C00E83
:100AD000F214E76E030EE7CFDBFF800ED0143F0960
:100AE000F216DECFE9FFDDCFEAFF0A0EE926000E9F
:100AF000EA22EECF00F0EECF01F0EECF02F0EFCF22
:100B000003F0005001100210031001E17DD0DECF90
:100B1000E9FFDDCFEAFF0A0EE926000EEA22EE0623
:100B2000000EEE5AEE5AEE5ADECFE9FFDDCFEAFFB5
:100B30000A0EE926000EEA22EECF00F0EECF01F019
:100B4000EECF02F0EFCF03F00050011002100310BF
:100B50005BE1DECFE9FFDDCFEAFF0E0EE926000EF6
:100B6000EA22EF50370B17E0C80E006EDECFE9FF28
:100B7000DDCFEAFF0E0EE926000EEA220050EF1646
:100B8000DECFE9FFDDCFEAFF0F0EE926000EEA22F5
:100B9000010EEF6E09D0DECFE9FFDDCFEAFF0F0EC9
:100BA000E926000EEA22EF6ADECFE9FFDDCFEAFF99
:100BB0000E0EE926000EEA22EF50080B25E1DECFEB
:100BC000E9FFDDCFEAFF140EE926000EEA22EF501E
:100BD00001019E13DECFE9FFDDCFEAFF130EE92608
:100BE000000EEA22EFCF00F0DECFE9FFDDCFEAFF13
:100BF000120EE926000EEA22EF50EA6A9F0FE96E14
:100C0000010EEA220050EF12DECFE9FFDDCFEAFF4E
:100C1000020EE926000EEA22EECFDEFFEDCFDDFF69
:100C2000030EDB50F21247D7040EE15C02E2E16AE8
:100C3000E552E16EE552E5CFDAFFE7CFD9FF1200CA
:100C4000230EF36E010EF46E00D012001200D9CF05
:100C5000E6FFDACFE6FFE1CFD9FFE2CFDAFFE652D7
:100C6000E652E652E652E652FC0EDBCFE9FFFD0EFD
:100C7000DBCFEAFF050EE926000EEA22EF50EA6A12
:100C80004D0FE96E030EEA22020EEFCFDBFFFC0EE2
:100C9000DBCFE9FFFD0EDBCFEAFF060EE926000EF3
:100CA000EA22E9CF00F0EACF01F0020EDB500F019B
:100CB0000024E96E000E0120EA6EEF50EA6A4D0F43
:100CC000E96E030EEA22030EEFCFDBFF030EDBCF4C
:100CD000E6FF020EDB50080DF350E552E724E76E05
:100CE000040EE7CFDBFF040EEA6ADB34FE0BEA36C4
:100CF000E96E2E0EE926020EEA22EECFDEFFEDCFE0
:100D0000DDFFDECFE9FFDDCFEAFF0A0EE926000EA8
:100D1000EA22EE6AEE6AEE6AEE6AFA0EDBCF1AF0AB
:100D2000FB0EDBCF1BF0FA0E1AC0DBFFFB0E1BC065
:100D3000DBFFF90EDB1C006EDECFE9FFDDCFEAFF43
:100D40000E0EE926000EEA220050EF16DECFE9FF74
:100D5000DDCFEAFF0F0EE926000EEA22F80EDBCF08
:100D6000EFFFDECFE9FFDDCFEAFF0E0EE926000E32
:100D7000EA22EF50080B1EE1DECFE9FFDDCFEAFFEC
:100D8000140EE926000EEA22EF5001019E13DECF79
:100D9000E9FFDDCFEAFF130EE926000EEA22EFCFCE
:100DA00000F0020EDB50EA6A9F0FE96E010EEA22A4
:100DB0000050EF12FC0EDBCFE6FFFD0EDBCFE6FFAF
:100DC000DECFE6FFDDCFE6FF7CD9E552E552E55206
:100DD000E552DECFE9FFDDCFEAFF080EE926000E7F
:100DE000EA22EE50ED1023E0DECFE9FFDDCFEAFF8F
:100DF000080EE926000EEA22EECFE6FFEFCFE6FF6F
:100E0000DECFE6FFDDCFE6FFCAD9E552E552E55277
:100E1000E552DECFE9FFDDCFEAFF060EE926000E40
:100E2000EA22FC0EDBCFEEFFFD0EDBCFEDFF040E62
:100E3000DB5000D0006E050EE15C02E2E16AE55293
:100E4000E16E0050E552E5CFDAFFE7CFD9FF12009F
:100E5000D9CFE6FFDACFE6FFE1CFD9FFE2CFDAFF65
:100E6000E65226C2E9FF27C2EAFF060EE926000E77
:100E7000EA22FC0EDBCFEEFFFD0EDBCFEDFF26C23C
:100E8000E9FF27C2EAFF130EEB50026EFC0EDBCF28
:100E9000E9FFFD0EDBCFEAFF060EE926000EEA228F
:100EA000E9CF00F0EACF01F026C2E9FF27C2EAFF4E
:100EB000120EEB500F010024E96E000E0120EA6EC5
:100EC0000250EF1226C2E9FF27C2EAFF140EEB50D0
:100ED000006EFC0EDBCFE9FFFD0EDBCFEAFF050E57
:100EE000E926000EEA220050EF1226C2E9FF27C2CF
:100EF000EAFF120EEB50DF6E26C2E9FF27C2EAFFBF
:100F0000130EEB50E81C006EDF50EA6A9F0FE96E8B
:100F1000010EEA220050EF16DF50EA6A9F0FE96ED9
:100F2000010EEA22EF5009E126C2E9FF27C2EAFFDB
:100F3000140EEB50E81C01019E17E552E552E5CF77
:100F4000DAFFE7CFD9FF1200D9CFE6FFDACFE6FF0D
:100F5000E1CFD9FFE2CFDAFFE652E652E652E6529F
:100F6000E65226C2E9FF27C2EAFF060EEB6A070E29
:100F7000EB6A26C2E9FF27C2EAFF080EE926000E47
:100F8000EA22FC0EDBCFEEFFFD0EDBCFEDFFFC0E09
:100F9000DBCFDEFFDBCFDDFFDECFE9FFDDCFEAFF1A
:100FA000020EEECFDBFF030EEDCFDBFFD950020FB9
:100FB000E96E000EDA20EA6EEE50ED1049E026C22E
:100FC000E9FF27C2EAFF130EEB50026E020EDBCFE1
:100FD000E9FF030EDBCFEAFF060EE926000EEA2248
:100FE000E9CF00F0EACF01F026C2E9FF27C2EAFF0D
:100FF000120EEB500F010024E96E000E0120EA6E84
:101000000250EF1226C2E9FF27C2EAFF140EEB508E
:10101000006E020EDBCFE9FF030EDBCFEAFF050E09
:10102000E926000EEA220050EF12D9CFE9FFDACF0D
:10103000EAFF020EEE26000EEF22DECFE9FFDDCF43
:10104000EAFF020EEECFDBFF030EEDCFDBFFAED7E4
:1010500026C2E9FF27C2EAFF120EEB50E76E040E2C
:10106000E7CFDBFF26C2E9FF27C2EAFF130EEB50F2
:10107000E81C006E040EDB50EA6A9F0FE96E010E59
:10108000EA220050EF16040EDB50EA6A9F0FE96E69
:10109000010EEA22EF5009E126C2E9FF27C2EAFF6A
:1010A000140EEB50E81C01019E17050EE15C02E2F4
:1010B000E16AE552E16EE552E5CFDAFFE7CFD9FF0D
:1010C0001200D9CFE6FFDACFE6FFE1CFD9FFE2CFBA
:1010D000DAFFE652FC0EDBCFE9FFFD0EDBCFEAFFC5
:1010E000120EE926000EEA22EFCFDFFFFC0EDBCF67
:1010F000E9FFFD0EDBCFEAFF130EE926000EEA2220
:10110000EF1C026EFA0EDBCFE9FFFB0EDBCFEAFF2E
:10111000060EE926000EEA22E9CF00F0EACF01F040
:10112000DF500F010024E96E000E0120EA6E02502C
:10113000EF16FA0EDBCFE9FFFB0EDBCFEAFF060E60
:10114000E926000EEA22E9CF00F0EACF01F0DF50F5
:101150000F010024E96E000E0120EA6EEF5018E145
:10116000FC0EDBCFE9FFFD0EDBCFEAFF140EE92614
:10117000000EEA22EF1C006EFA0EDBCFE9FFFB0E39
:10118000DBCFEAFF050EE926000EEA220050EF163B
:10119000E552E552E5CFDAFFE7CFD9FF1200D9CF0C
:1011A000E6FFDACFE6FFE1CFD9FFE2CFDAFF070EA5
:1011B000E12402E3E168E652E16EFC0EDBCFE9FFD9
:1011C000FD0EDBCFEAFF120EE926000EEA22040E26
:1011D000EFCFDBFFFC0EDBCFE9FFFD0EDBCFEAFF3D
:1011E000140EE926000EEA22050EEFCFDBFFFC0EFF
:1011F000DBCFE9FFFD0EDBCFEAFF130EE926000E81
:10120000EA22060EEFCFDBFFFA0EDBCFDEFFDBCFED
:10121000DDFFDECFE9FFDDCFEAFF020EEECFDBFF21
:10122000030EEDCFDBFFD950020FE96E000EDA207E
:10123000EA6EEE50ED1055E0060EDB1C026E020E5B
:10124000DBCFE9FF030EDBCFEAFF060EE926000E37
:10125000EA22E9CF00F0EACF01F0040EDB500F01E3
:101260000024E96E000E0120EA6E0250EF16020E15
:10127000DBCFE9FF030EDBCFEAFF060EE926000E07
:10128000EA22E9CF00F0EACF01F0040EDB500F01B3
:101290000024E96E000E0120EA6EEF500FE1050E0A
:1012A000DB1C006E020EDBCFE9FF030EDBCFEAFF93
:1012B000050EE926000EEA220050EF16D9CFE9FF0D
:1012C000DACFEAFF020EEE26000EEF22DECFE9FFB4
:1012D000DDCFEAFF020EEECFDBFF030EEDCFDBFF2B
:1012E000A2D7070EE15C02E2E16AE552E16EE55247
:1012F000E5CFDAFFE7CFD9FF1200D9CFE6FFDACF8B
:10130000E6FFE1CFD9FFE2CFDAFFE652FC0EDBCFFA
:10131000E9FFFD0EDBCFEAFF050EE926000EEA220B
:10132000EF6ADF6A010EDF5C18E2FC0EDBCFE9FF3B
:10133000FD0EDBCFEAFF060EE926000EEA22E9CF1A
:1013400000F0EACF01F0DF500F010024E96E000E3B
:101350000120EA6EEF6ADF2AE5D7E552E552E5CFD4
:10136000DAFFE7CFD9FF1200D9CFE6FFDACFE6FFE9
:10137000E1CFD9FFE2CFDAFF080EE12402E3E16812
:10138000E652E16E5A0EE66EE66AB60EE66E000EA4
:10139000E66ECFD9E552E552E552E552DE6ADD6AE6
:1013A000DECF00F0DDCF01F0090E005C000E015829
:1013B00067E2DECF00F0DDCF01F0010E0026000E67
:1013C0000122020E00C0DBFF030E01C0DBFFDECFF7
:1013D00000F0DDCF01F0090E0102F3CF01F0090E9C
:1013E0000002F3CF00F0F4500126B60E0026000EE6
:1013F0000122040E00C0DBFF050E01C0DBFF020E60
:10140000DBCF00F0030EDBCF01F0090E0102F3CFBA
:1014100001F0090E0002F3CF00F0F4500126B60EE1
:101420000026000E0122060E00C0DBFF070E01C0E1
:10143000DBFF040EDBCFE9FF050EDBCFEAFFEF6A2F
:10144000040EDBCFE9FF050EDBCFEAFFEE52060EFE
:10145000DBCFEEFF070EDBCFEDFF040EDBCFE9FFA6
:10146000050EDBCFEAFF070EE926000EEA223E0E4C
:10147000EE6E6E0EED6EDF2A010E01E3DB2A90D7D1
:10148000DECF00F0DDCF01F0090E0102F3CF01F055
:10149000090E0002F3CF00F0F4500126B60E00262C
:1014A000000E0122040E00C0DBFF050E01C0DBFFB1
:1014B000040EDBCFE9FF050EDBCFEAFFEF6A040E77
:1014C000DBCFE9FF050EDBCFEAFF010EEB6A020E70
:1014D000EB6A040EDBCFE9FF050EDBCFEAFF070E58
:1014E000E926000EEA223E0EEE6E6E0EED6E000153
:1014F000B60EB46F000EB56F080EE15C02E2E16A51
:10150000E552E16EE552E5CFDAFFE7CFD9FF1200F1
:101510000301496B4A6B4B6B4C6B01019A6B0101E8
:101520009B6B0101A16B0101A06B0001B06BB16B62
:10153000B26BB36B0101A26BA36BA46BA56B010132
:10154000156B166B176B186B0101116B126B136B1C
:10155000146B0101196B1200D9CFE6FFDACFE6FF59
:10156000E1CFD9FFE2CFDAFFE65201019E6BDF6ADD
:10157000010EDF5C09E2DF50EA6A9F0FE96E010E9F
:10158000EA22EF6ADF2AF4D701019C6B01019D6B0F
:1015900002012A6B2B6B0201266B276BE552E55289
:1015A000E5CFDAFFE7CFD9FF1200060EE66EA60EF2
:1015B000E66E010EE66E000EE66EE66A260EE66E3A
:1015C000190EE66E000EE66E1CEC26F0006E080E9C
:1015D000E15C02E2E16AE552E16E00501200050EA4
:1015E000E66E1A0EE66E010EE66E000EE66EE66A16
:1015F000840EE66E190EE66E000EE66E1CEC26F00A
:10160000006E080EE15C02E2E16AE552E16E005014
:101610001200D9CFE6FFDACFE6FFE1CFD9FFE2CF64
:10162000DAFF060EE12402E3E168E652E16EB00E55
:10163000E66EE66A3C0EE66E020EE66E7AD8E5527B
:10164000E552E552E5520E0EE66EE66A2E0EE66EA5
:10165000020EE66E6ED8E552E552E552E552DF6ABB
:10166000030EDF5C38E2DF28E76E010EE7CFDBFF19
:10167000DF502C0DF3CF00F0F4CF01F03C0E00262C
:10168000020E0122020E00C0DBFF030E01C0DBFFD1
:10169000010EDB502C0DF3CF00F0F4CF01F03C0E27
:1016A0000026020E0122040E00C0DBFF050E01C061
:1016B000DBFF020EDBCFE9FF030EDBCFEAFF020EFA
:1016C000E926000EEA22040EDBCFEEFF050EDBCF8B
:1016D000EDFFDF2AC5D7DF502C0DF3CF00F0F4CF9C
:1016E00001F03C0E0026020E0122020E00C0DBFFBC
:1016F000030E01C0DBFF020EDBCFE9FF030EDBCFE1
:10170000EAFF020EEB6A030EEB6A02012C6B2D6BF3
:1017100002013C0E286F020E296F060EE15C02E208
:10172000E16AE552E16EE552E5CFDAFFE7CFD9FF96
:101730001200D9CFE6FFDACFE6FFE1CFD9FFE2CF43
:10174000DAFFD950FA0FE96EFF0EDA20EA6E000ECA
:10175000D880EE54000EED5410E2FC0EDBCFE9FF12
:10176000DB2AFD0EDBCFEAFF01E3DB2AEF6AFA0E8C
:10177000DB06FB0E01E2DB06E4D7E552E5CFDAFF3C
:10178000E7CFD9FF1200D9CFE6FFDACFE6FFE1CFEE
:10179000D9FFE2CFDAFFD950F80FE96EFF0EDA2059
:1017A000EA6E000ED880EE54000EED541DE2FA0EE3
:1017B000DBCFE9FFDB2AFB0EDBCFEAFF01E3DB2A0D
:1017C000EF50E66EFC0EDBCFE9FFDB2AFD0EDBCF30
:1017D000EAFF01E3DB2AE552E750EF6EF80EDB0685
:1017E000F90E01E2DB06D7D7E552E5CFDAFFE7CF06
:1017F000D9FF1200D9CFE6FFDACFE6FFE1CFD9FF5C
:10180000E2CFDAFFE652DF6AC00EF214DF6E800E1E
:10181000D0143F09F21601019A512DE101019B51AB
:101820002AE132D801019D51E96EEA6AD890E93681
:10183000EA362E0EE926020EEA22EECF2AF2EDCF8C
:101840002BF201019C5101019D5D15E02AC2E9FFC7
:101850002BC2EAFF160EE926000EEA22EE2A000E3F
:10186000EE22EE22EE220001B02B000EB123B223B5
:10187000B323EEEC30F0DF50F212E552E552E5CF43
:10188000DAFFE7CFD9FF1200D9CFE6FFDACFE6FFC4
:10189000E1CFD9FFE2CFDAFFE65201019E51EA6AB9
:1018A0004D0FE96E030EEA22EFCFDFFFDF50EA6A49
:1018B0009F0FE96E010EEA22EF50EA6A4D0FE96EC2
:1018C000030EEA22EFCF00F0DF50080DF3500024A2
:1018D00001019D6FE552E552E5CFDAFFE7CFD9FF71
:1018E0001200D9CFE6FFDACFE6FFE1CFD9FFE2CF92
:1018F000DAFFE652DF6AFC0EDBCFE9FFFD0EDBCF3D
:10190000EAFFEF5007E0FC0EDB2AFD0E01E3DB2AC5
:10191000DF2AF1D7DF5000D0E552E552E5CFDAFFFC
:10192000E7CFD9FF1200D9CFE6FFDACFE6FFE1CF4C
:10193000D9FFE2CFDAFFE652DF6AFC0EDBCF1AF006
:10194000FD0EDBCF1BF0FC0E1AC0DBFFFD0E1BC033
:10195000DBFFC00EF214DF6E800ED0143F09F216CA
:101960000101A22B000EA323A423A523DF50F21212
:101970009BEC30F0EED7E552E552E5CFDAFFE7CF4A
:10198000D9FF1200D9CFE6FFDACFE6FFE1CFD9FFCA
:10199000E2CFDAFFE652DF6AFC0EDBCF1AF0FD0E73
:1019A000DBCF1BF0FC0E1AC0DBFFFD0E1BC0DBFF04
:1019B000010119510CE1140EE66EE66AE66AE66A68
:1019C000E7EC2BF0E552E552E552E552F1D7640E13
:1019D0001D6E1E6A1F6A206A11C118F012C119F02B
:1019E00013C11AF014C11BF017EC36F018C011F136
:1019F00019C012F11AC013F11BC014F101011151E9
:101A000012111311141106E10101106BE668C6EC06
:101A100029F0E552C00EF214DF6E800ED0143F099B
:101A2000F216A2C115F1A3C116F1A4C117F1A5C107
:101A300018F10101A26BA36BA46BA56BDF50F2122E
:101A4000640E046E056A066A076A15C118F016C1AD
:101A500019F017C11AF018C11BF011C11DF012C105
:101A60001EF013C11FF014C120F017EC36F018500F
:101A7000045C006E19500558016E1A500658026E2B
:101A80001B500758036E00C010F18BEC30F00A0EAB
:101A9000E66EE66AE66AE66AE7EC2BF0E552E552A6
:101AA000E552E552B7D7E552E552E5CFDAFFE7CF89
:101AB000D9FF1200D9CFE6FFDACFE6FFE1CFD9FF99
:101AC000E2CFDAFFE652E652E652E652020EDB6A57
:101AD000C00EF214E76E020EE7CFDBFF800ED014CB
:101AE0003F09F21628C2DEFF29C2DDFFD9CFE9FF88
:101AF000DACFEAFFEE50ED1001E1D9D1DECFE9FFF8
:101B0000DDCFEAFF020EE926000EEA22EECF28F230
:101B1000EDCF29F2020EDB50F212DECFE9FFDDCF6E
:101B2000EAFFFB0EDBCFEEFFFC0EDBCFEDFFDECFDF
:101B3000E9FFDDCFEAFF100EE926000EEA22FD0ED6
:101B4000DBCFEFFFDECFE9FFDDCFEAFF0E0EE926A8
:101B5000000EEA22EF6ADECFE9FFDDCFEAFF0F0ECB
:101B6000E926000EEA22EF6ADECFE9FFDDCFEAFFC9
:101B70000A0EE926000EEA22EE6AEE6AEE6AEE6AC4
:101B8000F10EDBCF1AF0F20EDBCF1BF0F10E1AC014
:101B9000DBFFF20E1BC0DBFFD950F30FE96EFF0E27
:101BA000DA20EA6EF30EEECFDBFFF40EEECFDBFFB2
:101BB000F50EEECFDBFFF60EEECFDBFFF90EDBCF3F
:101BC0001AF0FA0EDBCF1BF0F90E1AC0DBFFFA0E8B
:101BD0001BC0DBFFEF0EDBCF1AF0F00EDBCF1BF0EC
:101BE000EF0E1AC0DBFFF00E1BC0DBFFF70EDBCFE2
:101BF0001AF0F80EDBCF1BF0F70E1AC0DBFFF80E61
:101C00001BC0DBFFDECFE9FFDDCFEAFF150EE926C3
:101C1000000EEA22EF6AFD0EDB40E840E8401F0BB1
:101C2000E66EDECFE9FFDDCFEAFF120EE926000EF9
:101C3000EA22E552E750EF6EFD0EDB50070BE66E31
:101C4000DECFE9FFDDCFEAFF110EE926000EEA2222
:101C5000E552E750EF6E010E006E016A026A036AF8
:101C6000DECFE9FFDDCFEAFF120EE926000EEA2201
:101C7000EF501F0B07E0D8900036013602360336CE
:101C8000E806F9E1DECFE9FFDDCFEAFF140EE92631
:101C9000000EEA2200C0EFFF010E006E016A026A28
:101CA000036ADECFE9FFDDCFEAFF110EE926000E61
:101CB000EA22EF501F0B07E0D890003601360236BB
:101CC0000336E806F9E1DECFE9FFDDCFEAFF130EC8
:101CD000E926000EEA2200C0EFFFDECFE9FFDDCFEC
:101CE000EAFF060EEB6A070EEB6ADECFE9FFDDCFF7
:101CF000EAFF080EEB6A090EEB6ADECFE9FFDDCFE3
:101D0000EAFF160EE926000EEA22EE6AEE6AEE6A95
:101D1000EE6ADECFE9FFDDCFEAFF1E0EE926000EF8
:101D2000EA22EE6AEE6AEE6AEE6ADECFE9FFDDCF06
:101D3000EAFF1A0EE926000EEA22EE6AEE6AEE6A61
:101D4000EE6ADECFE9FFDDCFEAFF220EEB6A230E5B
:101D5000EB6ADECFE9FFDDCFEAFF240EE926000EB5
:101D6000EA22EE6AEE6AEE6AEE6A030EDB6A010EA2
:101D7000F36E030EDBCFF4FFF350F45C1CE2DECF16
:101D8000E9FFDDCFEAFF280EE926000EEA22E9CFBF
:101D900000F0EACF01F0030EDB50040D0050F324F5
:101DA000E96E0150F420EA6EEE6AEE6AEE6AEE6ABF
:101DB000030EDB2ADCD7DECFE6FFDDCFE6FF8DECBE
:101DC00030F0E552E552DECFE6FFDDCFE6FF6DEC09
:101DD00030F0E552E552C00EF214E76E020EE7CF86
:101DE000DBFF800ED0143F09F216FD0EEA6ADB34E9
:101DF000FE0BEA36E96E2E0EE926020EEA22DECF4F
:101E0000EEFFDDCFEDFFDECFE9FFDDCFEAFF020E13
:101E1000E926000EEA222CC2EEFF2DC2EDFFDECF36
:101E2000E9FFDDCFEAFF040EEB6A050EEB6A020163
:101E30002C512D110CE02CC2E9FF2DC2EAFF040E3B
:101E4000E926000EEA22DECFEEFFDDCFEDFFDECF8A
:101E50002CF2DDCF2DF2DECFE9FFDDCFEAFF140E4D
:101E6000E926000EEA22EF5001019E13DECFE9FFC2
:101E7000DDCFEAFF130EE926000EEA22EFCF00F0D5
:101E8000DECFE9FFDDCFEAFF120EE926000EEA22DF
:101E9000EF50EA6A9F0FE96E010EEA220050EF123E
:101EA0000101A12B020EDB50F212000E05D0020E32
:101EB000DB50F212420E00D0006E040EE15C02E232
:101EC000E16AE552E16E0050E552E5CFDAFFE7CF77
:101ED000D9FF1200D9CFE6FFDACFE6FFE1CFD9FF75
:101EE000E2CFDAFF0F0EE12402E3E168E652E16E91
:101EF0000E0EDB6AC00EF214E76E0E0EE7CFDBFFAC
:101F0000800ED0143F09F216EDC2DEFFEEC2DDFFF7
:101F10000201ED51EE110CE0EDC2E9FFEEC2EAFF65
:101F2000020EE926000EEA22EECFEDF2EDCFEEF240
:101F30000E0EDB50F212D9CFE9FFDACFEAFFEE50F6
:101F4000ED100BE1F20EDBCFE9FFF30EDBCFEAFF82
:101F50005A0EEF6EF36AF46AFAD0FC0EDBCF1AF079
:101F6000FD0EDBCF1BF0040E1AC0DBFF050E1BC0FD
:101F7000DBFFFC0EDBCF1AF0FD0EDBCF1BF0020EF9
:101F80001AC0DBFF030E1BC0DBFFF80EDBCF00F037
:101F9000F90EDBCF01F0FA0EDBCF02F0FB0EDBCF48
:101FA00003F00006000E015A000E025A000E035AFA
:101FB000060E00C0DBFF070E01C0DBFF080E02C0EB
:101FC000DBFF090E03C0DBFF0A0EDB6A0B0EDB6AC8
:101FD0000C0EDB6A0D0EDB6A060EDBCF00F0070E7F
:101FE000DBCF01F0080EDBCF02F0090EDBCF03F0F0
:101FF000D9500A0FE96E000EDA20EA6E0050EE5C4E
:102000000150EE580250EE580350EE5834E2F40EF0
:10201000DBCF00F0F50EDBCF01F0D950020FE96EF7
:10202000000EDA20EA6E0050EE260150ED22040E7A
:10203000DBCFE9FF050EDBCFEAFF020EDBCFEEFFC1
:10204000030EDBCFEDFF020EDBCF1AF0030EDBCF6A
:102050001BF0040E1AC0DBFF050E1BC0DBFFD950BE
:102060000A0FE96E000EDA20EA6EEE2A000EEE226A
:10207000EE22EE22B1D7040EDBCFE9FF050EDBCF57
:10208000EAFFEE6AED6ADECFE9FFDDCFEAFFFC0E84
:10209000DBCFEEFFFD0EDBCFEDFFDECFE9FFDDCFC7
:1020A000EAFF020EE926000EEA22FC0EDBCFEEFF6D
:1020B000FD0EDBCFEDFFDECFE9FFDDCFEAFF0C0E3B
:1020C000E926000EEA22F80EDBCFEEFFF90EDBCF99
:1020D000EEFFFA0EDBCFEEFFFB0EDBCFEEFFDECF27
:1020E000E9FFDDCFEAFF080EE926000EEA22F80E2E
:1020F000DBCFEEFFF90EDBCFEEFFFA0EDBCFEEFF0C
:10210000FB0EDBCFEEFFDECFE9FFDDCFEAFF040EF3
:10211000E926000EEA22F40EDBCFEEFFF50EDBCF50
:10212000EEFFF60EDBCFEEFFF70EDBCFEEFFF20E8B
:10213000DBCFE9FFF30EDBCFEAFFEF6ADECF00F083
:10214000DDCF01F000C0F3FF01C0F4FF00D00F0E9F
:10215000E15C02E2E16AE552E16EE552E5CFDAFFC9
:10216000E7CFD9FF1200D9CFE6FFDACFE6FFE1CF04
:10217000D9FFE2CFDAFFE652E652E652020EDB6A00
:10218000C00EF214E76E020EE7CFDBFF800ED01414
:102190003F09F216FC0EDBCFE9FFFD0EDBCFEAFFB5
:1021A0000C0EE926000EEA22D880000EEE54000E36
:1021B000EE54000EEE54000EEE5446E2FC0EDBCF61
:1021C000E9FFFD0EDBCFEAFF020EE926000EEA2250
:1021D000EECFDEFFEDCFDDFFDECFE9FFDDCFEAFFA3
:1021E000EECF00F0EFCF01F0FC0EDBCFE9FFFD0EEC
:1021F000DBCFEAFF020EE926000EEA2200C0EEFF66
:1022000001C0EDFFFC0EDBCFE9FFFD0EDBCFEAFFE7
:102210000C0EE926000EEA22EE06000EEE5AEE5AE9
:10222000EE5A020EDB50F212FA0EDBCFE9FFFB0E84
:10223000DBCFEAFFEF6ADECF00F0DDCF01F000C0B8
:10224000F3FF01C0F4FF0ED0020EDB50F212FA0EC3
:10225000DBCFE9FFFB0EDBCFEAFF5D0EEF6EF36A2B
:10226000F46A00D0E552E552E552E552E5CFDAFFD7
:10227000E7CFD9FF1200D9CFE6FFDACFE6FFE1CFF3
:10228000D9FFE2CFDAFFE652E652010EDB6A010126
:102290009A5100080AE2F80EDBCFE9FFF90EDBCF16
:1022A000EAFF110EEF6E000E3DD0C00EF214E76E85
:1022B000010EE7CFDBFF800ED0143F09F216FC0EB3
:1022C000DBCFE9FFFD0EDBCFEAFF100EE926000EA3
:1022D000EA22EECF00F0EFCF01F0FA0EDBCFE9FFFC
:1022E000FB0EDBCFEAFF00C0EEFF01C0EDFFFA0EF0
:1022F000DBCFE9FFFB0EDBCFEAFFEECFE6FFEFCF50
:10230000E6FF71EC0CF0E552E552DF6E010EDB509A
:10231000F212F80EDBCFE9FFF90EDBCFEAFFEF6A2E
:10232000DF5000D0E552E552E552E5CFDAFFE7CFC6
:10233000D9FF1200D9CFE6FFDACFE6FFE1CFD9FF10
:10234000E2CFDAFFE652DF6A01019A51000809E2A2
:10235000F80EDBCFE9FFF90EDBCFEAFF120EEF6ECE
:1023600020D0C00EF214DF6E800ED0143F09F2169A
:10237000FC0EDBCFE9FFFD0EDBCFEAFF100EE926F6
:10238000000EEA22FA0EDBCFEEFFFB0EDBCFEDFFF5
:10239000DF50F212F80EDBCFE9FFF90EDBCFEAFFD8
:1023A000EF6AE552E552E5CFDAFFE7CFD9FF120039
:1023B000D9CFE6FFDACFE6FFE1CFD9FFE2CFDAFFF0
:1023C000E652DF6AC00EF214DF6E800ED0143F09B1
:1023D000F216FC0EDBCFE9FFFD0EDBCFEAFF080EA5
:1023E000E926000EEA22EECF00F0EECF01F0EECFAC
:1023F00002F0EFCF03F0FC0EDBCFE9FFFD0EDBCFE9
:10240000EAFF0C0EE926000EEA220050EE5C0150B5
:10241000EE580250EE580350EE5804E3DF50F2122B
:102420005E0E3BD0FC0EDBCFE9FFFD0EDBCFEAFFFB
:10243000020EE926000EEA22EECF00F0EFCF01F007
:10244000FA0EDBCFE9FFFB0EDBCFEAFF00C0EEFFA9
:1024500001C0EDFFFC0EDBCFE9FFFD0EDBCFEAFF95
:10246000020EE926000EEA22FA0EDBCFEEFFFB0E8B
:10247000DBCFEDFFFC0EDBCFE9FFFD0EDBCFEAFF8C
:102480000C0EE926000EEA22EE2A000EEE22EE22C3
:10249000EE22DF50F212000E00D0E552E552E5CFF9
:1024A000DAFFE7CFD9FF1200D9CFE6FFDACFE6FF98
:1024B000E1CFD9FFE2CFDAFFE652DF6AC00EF214B5
:1024C000DF6E800ED0143F09F216FC0EDBCFE9FF61
:1024D000FD0EDBCFEAFFEECF00F0EFCF01F0FA0EFA
:1024E000DBCFE9FFFB0EDBCFEAFF00C0EEFF01C050
:1024F000EDFFFC0EDBCFE9FFFD0EDBCFEAFF020EA6
:10250000E926000EEA22EECF00F0EFCF01F0FA0E3E
:10251000DBCFE9FFFB0EDBCFEAFF020EE926000E60
:10252000EA2200C0EEFF01C0EDFFFC0EDBCFE9FFA9
:10253000FD0EDBCFEAFF040EE926000EEA22EECF05
:1025400000F0EECF01F0EECF02F0EFCF03F0FA0E85
:10255000DBCFE9FFFB0EDBCFEAFF040EE926000E1E
:10256000EA2200C0EEFF01C0EEFF02C0EEFF03C092
:10257000EEFFFC0EDBCFE9FFFD0EDBCFEAFF080E1E
:10258000E926000EEA22EECF00F0EECF01F0EECF0A
:1025900002F0EFCF03F0FA0EDBCFE9FFFB0EDBCF4B
:1025A000EAFF080EE926000EEA2200C0EEFF01C095
:1025B000EEFF02C0EEFF03C0EEFFFC0EDBCFE9FF33
:1025C000FD0EDBCFEAFF0C0EE926000EEA22EECF6D
:1025D00000F0EECF01F0EECF02F0EFCF03F0FA0EF5
:1025E000DBCFE9FFFB0EDBCFEAFF0C0EE926000E86
:1025F000EA2200C0EEFF01C0EEFF02C0EEFF03C002
:10260000EEFFDF50F212FA0EDBCFE9FFFB0EDBCF5D
:10261000EAFF080EE926000EEA22EECF04F0EECF24
:1026200005F0EECF06F0EFCF07F0FA0EDBCFE9FFB3
:10263000FB0EDBCFEAFF0C0EE926000EEA22EE507D
:10264000045C006EEE500558016EEE500658026EA6
:10265000EE500758036EFA0EDBCFE9FFFB0EDBCF1F
:10266000EAFF100EE926000EEA2200C0EEFF01C0CC
:10267000EEFF02C0EEFF03C0EEFF000E00D0E552F9
:10268000E552E5CFDAFFE7CFD9FF1200D9CFE6FF59
:10269000DACFE6FFE1CFD9FFE2CFDAFFE652E6522A
:1026A000E652E6525A0EE66EE66AEF0EE66E020E4D
:1026B000E66E99EC0BF0E552E552E552E552020E5A
:1026C000DB6A030EDB6A020EDBCF00F0030EDBCF0A
:1026D00001F0040E005C000E015850E2020EDBCF48
:1026E00000F0030EDBCF01F0120E0102F3CF01F078
:1026F000120E0002F3CF00F0F4500126EF0E002678
:10270000020E012200C0DEFF01C0DDFF010EE76EF8
:10271000020EDBCF00F0030EDBCF01F0E750002606
:10272000000E0122120E0102F3CF01F0120E000280
:10273000F3CF00F0F4500126EF0E0026020E012226
:10274000DECFE9FFDDCFEAFF020EE926000EEA2226
:1027500000C0EEFF01C0EDFFDECFE9FFDDCFEAFFF5
:10276000100EE926000EEA223E0EEE6E6E0EED6EA3
:10277000020EDB2A030E01E3DB2AA5D7020EDBCF14
:1027800000F0030EDBCF01F0120E0102F3CF01F0D7
:10279000120E0002F3CF00F0F4500126EF0E0026D7
:1027A000020E012200C0DEFF01C0DDFFDECFE9FF27
:1027B000DDCFEAFF020EEB6A030EEB6ADECFE9FF24
:1027C000DDCFEAFF100EE926000EEA223E0EEE6E85
:1027D0006E0EED6E0201EF0EED6F020EEE6F040E47
:1027E000E15C02E2E16AE552E16EE552E5CFDAFF33
:1027F000E7CFD9FF1200D9CFE6FFDACFE6FFE1CF6E
:10280000D9FFE2CFDAFFE652E652010EDB6AFC0E98
:10281000DBCFE9FFFD0EDBCFEAFFEF5004080AE053
:10282000FA0EDBCFE9FFFB0EDBCFEAFF010EEF6E06
:10283000000E9ED001019A5100080AE2FA0EDBCF89
:10284000E9FFFB0EDBCFEAFF020EEF6E000E90D029
:10285000C00EF214E76E010EE7CFDBFF800ED0143E
:102860003F09F216FC0EDBCFE9FFFD0EDBCFEAFFDE
:10287000030EE926000EEA22EECF00F0EFCF01F0C2
:1028800001C000F0016A0050DF6EFC0EDBCFE9FFF3
:10289000FD0EDBCFEAFF030EE926000EEA22EECFA3
:1028A00000F0EFCF01F0FF0E0016000E0116FF0E34
:1028B000001801E1015050E1FC0EDBCFE9FFFD0EF5
:1028C000DBCFEAFF030EE926000EEA22EE6AED52A4
:1028D00026C2E9FF27C2EAFF100EEB50006E016A24
:1028E000FC0EDBCFE9FFFD0EDBCFEAFF030EE9268E
:1028F000000EEA220050EE120150ED12FC0EDBCF6A
:10290000E9FFFD0EDBCFEAFFEE5226C2EEFF27C243
:10291000EDFF26C2E9FF27C2EAFF100EEB50006E62
:10292000DF50D88000540CE3010EDB50F212FA0E97
:10293000DBCFE9FFFB0EDBCFEAFF780EEF6E0AD0AC
:10294000010EDB50F212FA0EDBCFE9FFFB0EDBCFFC
:10295000EAFFEF6A010E0CD0010EDB50F212FA0E04
:10296000DBCFE9FFFB0EDBCFEAFFEF6A000E00D002
:10297000E552E552E552E5CFDAFFE7CFD9FF120085
:10298000D9CFE6FFDACFE6FFE1CFD9FFE2CFDAFF1A
:10299000E652E652E652020EDB6A01019A51000845
:1029A0000BE2FB0EDBCFE9FFFC0EDBCFEAFF100EE4
:1029B000EF6EF36AF46AB1D0C00EF214E76E020E45
:1029C000E7CFDBFF800ED0143F09F216FD0EEA6A56
:1029D000DB34FE0BEA36E96E2E0EE926020EEA2201
:1029E000EE50ED100EE0020EDB50F212FB0EDBCFCC
:1029F000E9FFFC0EDBCFEAFF280EEF6EF36AF46A04
:102A00008CD0FD0EEA6ADB34FE0BEA36E96E2E0E40
:102A1000E926020EEA22010EEE6EED6AB4C0DEFF78
:102A2000B5C0DDFFD9CFE9FFDACFEAFFEE50ED10F8
:102A300020E1FD0EEA6ADB34FE0BEA36E96E2E0E6B
:102A4000E926020EEA22EE6AED6A020EDB50F2126D
:102A5000FB0EDBCFE9FFFC0EDBCFEAFF040EEF6ECF
:102A6000DECF00F0DDCF01F000C0F3FF01C0F4FFC6
:102A700054D0B4C0E9FFB5C0EAFFEE52EECFB4F0D7
:102A8000EDCFB5F0020EDB50F212DECFE9FFDDCF65
:102A9000EAFF040EEF6EFD0EDBCF00F000C001F088
:102AA000006AFF0E0012000E0112DECFE9FFDDCF3B
:102AB000EAFF030EE926000EEA2200C0EEFF01C085
:102AC000EDFFDECFE9FFDDCFEAFF010EEB6A020E7C
:102AD000EB6ADECFE9FFDDCFEAFF070EE926000E45
:102AE000EA223E0EEE6E6E0EED6EDECFE6FFDDCF1D
:102AF000E6FF7DEC09F0E552E552FB0EDBCFE9FF86
:102B0000FC0EDBCFEAFFEF6ADECF00F0DDCF01F095
:102B100000C0F3FF01C0F4FF00D0E552E552E552DA
:102B2000E552E5CFDAFFE7CFD9FF1200D9CFE6FFB4
:102B3000DACFE6FFE1CFD9FFE2CFDAFF080EE124DA
:102B400002E3E168E652E16E070EDB6AFC0EDBCFC2
:102B5000E9FFFD0EDBCFEAFFEF50040813E0F90EAA
:102B6000DBCFE9FFFA0EDBCFEAFF010EEF6EFC0EC2
:102B7000DBCF00F0FD0EDBCF01F000C0F3FF01C0A2
:102B8000F4FFB8D101019A51000813E2F90EDBCF2E
:102B9000E9FFFA0EDBCFEAFF0F0EEF6EFC0EDBCF84
:102BA00000F0FD0EDBCF01F000C0F3FF01C0F4FF29
:102BB000A1D1C00EF214E76E070EE7CFDBFF800E47
:102BC000D0143F09F216FC0EDBCFE9FFFD0EDBCF80
:102BD000EAFF050EE926000EEA22EF5003E0010E9F
:102BE000DF6E01D0DF6AFB0EDB50010A01E17CD011
:102BF000010A01E05CD1DF505FE1FC0EDBCFE9FFB1
:102C0000FD0EDBCFEAFF070EE926000EEA223E0E9C
:102C1000EE6E6E0EED6EFC0EDBCFE9FFFD0EDBCF30
:102C2000EAFF030EE926000EEA22EECF00F0EFCF16
:102C300001F001C000F0016A030E00C0DBFF030ECB
:102C4000EA6ADB34FE0BEA36E96E2E0EE926020E46
:102C5000EA22EE6AED6AFC0EDBCFE9FFFD0EDBCF68
:102C6000EAFFEF6AFC0EDBCFE9FFFD0EDBCFEAFFE8
:102C7000EE52B4C0EEFFB5C0EDFFFC0EDBCFE9FFB6
:102C8000FD0EDBCFEAFF030EEB6A040EEB6AFC0ECF
:102C9000DBCFB4F0FD0EDBCFB5F0070EDB50F21248
:102CA000F90EDBCFE9FFFA0EDBCFEAFFEF6A010E88
:102CB000DB6A020EDB6A17D0070EDB50F212F90E48
:102CC000DBCFE9FFFA0EDBCFEAFF490EEF6EFC0E19
:102CD000DBCF1AF0FD0EDBCF1BF0DE521AC0DEFF99
:102CE0001BC0DDFFDD52FBD0FC0EDBCFE9FFFD0E8C
:102CF000DBCFEAFF030EE926000EEA22EECF00F05A
:102D0000EFCF01F001C000F0016A030E00C0DBFF4D
:102D1000FC0EDBCFE9FFFD0EDBCFEAFF030EE92659
:102D2000000EEA22EECF00F0EFCF01F0FF0E00160A
:102D3000000E0116040E00C0DBFFFC0EDBCFE9FF26
:102D4000FD0EDBCFEAFFEE52050EEECFDBFF060EE7
:102D5000EDCFDBFFD950050FE96E000EDA20EA6EE9
:102D6000EE50ED101EE0050EDBCFE9FF060EDBCFC7
:102D7000EAFF100EE926000EEA22EFCF00F0030E64
:102D8000DB50005C0EE1040EDBCFE6FF050EDBCF6F
:102D9000E6FF060EDBCFE6FF38EC1DF0E552E5520C
:102DA000E552FC0EDBCFE9FFFD0EDBCFEAFF050E9F
:102DB000E926000EEA22EF5017E0E66A100EE66EF2
:102DC000000EE66EE66AFC0EDBCFE6FFFD0EDBCF03
:102DD000E6FF27EC06F0006E060EE15C02E2E16A17
:102DE000E552E16E0050DDD7FC0EDBCFE9FFFD0EB2
:102DF000DBCFEAFF070EE926000EEA223E0EEE6E5A
:102E00006E0EED6EFC0EDBCFE9FFFD0EDBCFEAFFB1
:102E1000030EE926000EEA22EECF00F0EFCF01F01C
:102E200001C000F0016A030E00C0DBFF030EEA6A76
:102E3000DB34FE0BEA36E96E2E0EE926020EEA229C
:102E4000EE6AED6AFC0EDBCFE9FFFD0EDBCFEAFF99
:102E5000EF6AFC0EDBCFE9FFFD0EDBCFEAFFEE529F
:102E6000B4C0EEFFB5C0EDFFFC0EDBCFE9FFFD0EF9
:102E7000DBCFEAFF030EEB6A040EEB6AFC0EDBCF3E
:102E8000B4F0FD0EDBCFB5F0070EDB50F212DF041D
:102E900002E1FAEC0BF0F90EDBCFE9FFFA0EDBCF23
:102EA000EAFFEF6A010EDB6A020EDB6A18D0070E3A
:102EB000DB50F212F90EDBCFE9FFFA0EDBCFEAFFAF
:102EC000070EEF6EFC0EDBCF1AF0FD0EDBCF1BF012
:102ED000DE521AC0DEFF1BC0DDFFDD5200D0010E46
:102EE000DBCF00F0020EDBCF01F000C0F3FF01C02A
:102EF000F4FF00D0080EE15C02E2E16AE552E16E07
:102F0000E552E5CFDAFFE7CFD9FF1200D9CFE6FFD0
:102F1000DACFE6FFE1CFD9FFE2CFDAFF090EE124F5
:102F200002E3E168E652E16E080EDB6AFC0EDBCFDD
:102F3000E9FFFD0EDBCFEAFFEF50040809E0F60ED3
:102F4000DBCFE9FFF70EDBCFEAFF010EEF6E70D3A8
:102F500001019A51000809E2F60EDBCFE9FFF70EF6
:102F6000DBCFEAFF020EEF6E63D301019B51000835
:102F700009E2F60EDBCFE9FFF70EDBCFEAFF0D0E1D
:102F8000EF6E56D3C00EF214E76E080EE7CFDBFFEC
:102F9000800ED0143F09F216FC0EDBCFE9FFFD0EC8
:102FA000DBCFEAFF030EE926000EEA22EECF00F0A7
:102FB000EFCF01F001C000F0016A0050DF6EFC0E9F
:102FC000DBCFE9FFFD0EDBCFEAFF030EE926000EA3
:102FD000EA22EECF02F0EFCF03F00250006E016A5A
:102FE000FF0E001801E101504FE1FC0EDBCFE9FFBD
:102FF000FD0EDBCFEAFF030EE926000EEA22EE6AA1
:10300000ED5226C2E9FF27C2EAFF100EEB50006E18
:10301000016AFC0EDBCFE9FFFD0EDBCFEAFF030EFA
:10302000E926000EEA220050EE120150ED12FC0ECD
:10303000DBCFE9FFFD0EDBCFEAFFEE5226C2EEFF4B
:1030400027C2EDFF26C2E9FF27C2EAFF100EEB50B0
:10305000006EDF50D88000540CE3080EDB50F212F3
:10306000F60EDBCFE9FFF70EDBCFEAFF780EEF6E4F
:103070000AD0080EDB50F212F60EDBCFE9FFF70E96
:10308000DBCFEAFFEF6AD4D2FC0EDBCFE9FFFD0E07
:10309000DBCFEAFF030EE926000EEA22EECF00F0B6
:1030A000EFCF01F0FF0E0016000E0116010E00C05A
:1030B000DBFFFC0EDBCFE9FFFD0EDBCFEAFFEE52BC
:1030C000030EEECFDBFF040EEDCFDBFF030EDBCFF5
:1030D000E9FF040EDBCFEAFF100EE926000EEA221C
:1030E000EFCF00F0DF50D880005401E306D2010E8C
:1030F000DBCF00F026C2E9FF27C2EAFF100EEB503B
:10310000D880005401E3F9D1030EDBCFE9FF040EB0
:10311000DBCFEAFF120EE926000EEA22070EEFCF00
:10312000DBFF030EDBCFE9FF040EDBCFEAFF130E5C
:10313000E926000EEA22EFCF00F0070EDB50EA6A24
:103140009F0FE96E010EEA22EF50001431E0030EEA
:10315000DBCFE9FF040EDBCFEAFF130EE926000EFA
:10316000EA22EF1C006E070EDB50EA6A9F0FE96E41
:10317000010EEA220050EF16070EDB50EA6A9F0F9D
:10318000E96E010EEA22EF500DE1030EDBCFE9FFFD
:10319000040EDBCFEAFF140EE926000EEA22EF1C34
:1031A00001019E17010EF36E020EF3CFDBFF7CD000
:1031B000030EDBCFE9FF040EDBCFEAFF060EE926A4
:1031C000000EEA22050EEECFDBFF060EEDCFDBFF91
:1031D000D950050FE96E000EDA20EA6EEE50ED10C0
:1031E00061E0030EDBCFE9FF040EDBCFEAFF120E36
:1031F000E926000EEA22070EEFCFDBFF030EDBCF3E
:10320000E9FF040EDBCFEAFF130EE926000EEA22E7
:10321000EF1C026E050EDBCFE9FF060EDBCFEAFFE7
:10322000060EE926000EEA22E9CF00F0EACF01F00F
:10323000070EDB500F010024E96E000E0120EA6E3C
:103240000250EF16050EDBCFE9FF060EDBCFEAFFDB
:10325000060EE926000EEA22E9CF00F0EACF01F0DF
:10326000070EDB500F010024E96E000E0120EA6E0C
:10327000EF5018E1030EDBCFE9FF040EDBCFEAFFCE
:10328000140EE926000EEA22EF1C006E050EDBCFBD
:10329000E9FF060EDBCFEAFF050EE926000EEA2263
:1032A0000050EF16020EDB6A030EDBCFE9FF040EBF
:1032B000DBCFEAFF100EE926000EEA22DFCFEFFF98
:1032C000030EDBCFE9FF040EDBCFEAFF100EE92689
:1032D000000EEA22EF50E840E840E8401F0BE66E9F
:1032E000030EDBCFE9FF040EDBCFEAFF120EE92667
:1032F000000EEA22E552E750EF6E030EDBCFE9FF46
:10330000040EDBCFEAFF100EE926000EEA22EF5092
:10331000070BE66E030EDBCFE9FF040EDBCFEAFFFF
:10332000110EE926000EEA22E552E750EF6E010E7B
:10333000006E016A026A036A030EDBCFE9FF040E26
:10334000DBCFEAFF120EE926000EEA22EF501F0B38
:1033500007E0D8900036013602360336E806F9E178
:10336000030EDBCFE9FF040EDBCFEAFF140EE926E4
:10337000000EEA2200C0EFFF010E006E016A026A31
:10338000036A030EDBCFE9FF040EDBCFEAFF110E69
:10339000E926000EEA22EF501F0B07E0D890003616
:1033A000013602360336E806F9E1030EDBCFE9FF0A
:1033B000040EDBCFEAFF130EE926000EEA2200C05E
:1033C000EFFF020EDB042CE1030EDBCFE9FF040E5E
:1033D000DBCFEAFF140EE926000EEA22EF500101CE
:1033E0009E13030EDBCFE9FF040EDBCFEAFF130EC3
:1033F000E926000EEA22EFCF00F0030EDBCFE9FF53
:10340000040EDBCFEAFF120EE926000EEA22EF508F
:10341000EA6A9F0FE96E010EEA220050EF125ED0B9
:10342000030EDBCFE9FF040EDBCFEAFF060EE92631
:10343000000EEA22050EEECFDBFF060EEDCFDBFF1E
:10344000D950050FE96E000EDA20EA6EEE50ED104D
:1034500045E0030EDBCFE9FF040EDBCFEAFF140EDD
:10346000E926000EEA22EFCF00F0050EDBCFE9FFE0
:10347000060EDBCFEAFF050EE926000EEA22005019
:10348000EF12030EDBCFE9FF040EDBCFEAFF130ED2
:10349000E926000EEA22EFCF02F0050EDBCFE9FFAE
:1034A000060EDBCFEAFF060EE926000EEA22E9CF80
:1034B00000F0EACF01F0030EDBCFE9FF040EDBCF13
:1034C000EAFF120EE926000EEA22EF500F01002457
:1034D000E96E000E0120EA6E0250EF12EA6ADF3454
:1034E000FE0BEA36E96E2E0EE926020EEA22030EE4
:1034F000DBCFEEFF040EDBCFEDFF26C2E9FF27C2D4
:10350000EAFF0E0EE926000EEA22EF8826C2E9FF46
:1035100027C2EAFF0F0EE926000EEA22EF6A26C252
:10352000E9FF27C2EAFF0A0EE926000EEA22F80E9A
:10353000DBCFEEFFF90EDBCFEEFFFA0EDBCFEEFFB7
:10354000FB0EDBCFEEFFFC0EDBCFE6FFFD0EDBCF8D
:10355000E6FF28EC07F0E552E552080EDB50F212C8
:10356000FAEC0BF0C00EF214E76E080EE7CFDBFFAB
:10357000800ED0143F09F21626C2E9FF27C2EAFFE7
:103580000F0EEB50010A16E0030A0BE0020A01E0FD
:1035900011D0F60EDBCFE9FFF70EDBCFEAFFEF6AC3
:1035A00022D0F60EDBCFE9FFF70EDBCFEAFF0E0EDF
:1035B000EF6E19D0FC0EDBCFE6FFFD0EDBCFE6FF92
:1035C00026C2E6FF27C2E6FF61EC08F0E552E552AD
:1035D000E552E552F60EDBCFE9FFF70EDBCFEAFF4F
:1035E0000A0EEF6E00D026C2E9FF27C2EAFF0E0ED8
:1035F000E926000EEA22EF6A26C2E9FF27C2EAFFA7
:103600000F0EE926000EEA22EF6A26C2E9FF27C262
:10361000EAFF060EEB6A070EEB6A26C2E9FF27C235
:10362000EAFF080EEB6A090EEB6A080EDB50F21295
:10363000090EE15C02E2E16AE552E16EE552E5CF96
:10364000DAFFE7CFD9FF1200D9CFE6FFDACFE6FFE6
:10365000E1CFD9FFE2CFDAFFE652E652E652020EA0
:10366000DB6A01019A51000802E2050E03D1FC0E4B
:10367000DBCFE9FFFD0EDBCFEAFFEF50040802E0ED
:10368000010EF8D0C00EF214E76E020EE7CFDBFF9A
:10369000800ED0143F09F216FC0EDBCFE9FFFD0EC1
:1036A000DBCFEAFF030EE926000EEA22EECF00F0A0
:1036B000EFCF01F001C000F0016A0050DF6EFC0E98
:1036C000DBCFE9FFFD0EDBCFEAFF030EE926000E9C
:1036D000EA22EECF00F0EFCF01F0FF0E0016000E51
:1036E0000116010E00C0DBFFFC0EDBCFE9FFFD0E73
:1036F000DBCFEAFFEE52EECF00F0EFCF01F000504B
:103700000201261902E10150271905E0020EDB50E3
:10371000F212640EAFD026C2E9FF27C2EAFF100EF4
:10372000EB50006EDF50005C0BE1010EDBCFE6FFDB
:1037300026C2E6FF27C2E6FF9BD9E552E552E552D5
:10374000EA6ADF34FE0BEA36E96E2E0EE926020E37
:10375000EA22010EEE6EED6AFC0EDBCFE9FFFD0EF4
:10376000DBCFEAFF050EE926000EEA22EF5067E004
:10377000E66A100EE66E000EE66EE66AFC0EDBCF21
:10378000E6FFFD0EDBCFE6FF27EC06F0006E060E2F
:10379000E15C02E2E16AE552E16E0050E76E010E83
:1037A000E7CFDBFFFC0EDBCFE9FFFD0EDBCFEAFF4F
:1037B000030EE926000EEA22EE6AED52010EDB50FE
:1037C000006E016AFC0EDBCFE9FFFD0EDBCFEAFFE6
:1037D000030EE926000EEA220050EE120150ED120F
:1037E000010EEA6ADB34FE0BEA36E96E2E0EE9269C
:1037F000020EEA22EECF00F0EFCF01F0FC0EDBCF9D
:10380000E9FFFD0EDBCFEAFFEE5200C0EEFF01C084
:10381000EDFF010EDBCF00F0DF50D880005408E34D
:10382000020EDB50F212FAEC0BF0780E23D007D028
:10383000020EDB50F212FAEC0BF0000E1BD0FC0E65
:10384000DBCFE9FFFD0EDBCFEAFF030EE926000E1A
:10385000EA22EE68ED52FC0EDBCFE9FFFD0EDBCF76
:10386000EAFF010EEB6A020EEB6A020EDB50F21267
:10387000000E00D0E552E552E552E552E5CFDAFF01
:10388000E7CFD9FF1200D9CFE6FFDACFE6FFE1CFCD
:10389000D9FFE2CFDAFF060EE12402E3E168E65247
:1038A000E16E050EDB6A01019A51000802E2060E84
:1038B000D1D0FC0EDBCFE9FFFD0EDBCFEAFFEF50EE
:1038C000040802E0010EC6D0C00EF214E76E050E29
:1038D000E7CFDBFF800ED0143F09F216FC0EDBCFE2
:1038E000E9FFFD0EDBCFEAFF030EE926000EEA2218
:1038F000EECF00F0EFCF01F001C000F0016AFA0E48
:10390000DBCFE9FFFB0EDBCFEAFF040EE926000E5A
:10391000EA2200C0EFFFFC0EDBCFE9FFFD0EDBCF9C
:10392000EAFF030EE926000EEA22EECF00F0EFCF09
:1039300001F0FF0E0016000E0116FA0EDBCFE9FFB4
:10394000FB0EDBCFEAFF030EE926000EEA2200C0E1
:10395000EFFFFA0EDBCFE9FFFB0EDBCFEAFF030E32
:10396000E926000EEA22EF50FF080DE1FA0EDBCF48
:10397000E9FFFB0EDBCFEAFF020EE926000EEA228A
:10398000010EEF6E0BD0FA0EDBCFE9FFFB0EDBCFA3
:10399000EAFF020EE926000EEA22EF6AFC0EDBCFF8
:1039A000E9FFFD0EDBCFEAFF050EE926000EEA2255
:1039B000EF50E66EFA0EDBCFE9FFFB0EDBCFEAFF3E
:1039C000EE52E552E750EF6EFC0EDBCFE9FFFD0E45
:1039D000DBCFEAFF060EE926000EEA22E9CF00F06F
:1039E000EACF01F0010E00C0DBFF020E01C0DBFFD9
:1039F000FA0EDBCFE9FFFB0EDBCFEAFFE9CF00F0E9
:103A0000EACF01F0030E00C0DBFF040E01C0DBFFB4
:103A1000DF6A010EDF5C19E2010EDBCFE9FFDB2A72
:103A2000020EDBCFEAFF01E3DB2AEF50E66E030E66
:103A3000DBCFE9FFDB2A040EDBCFEAFF01E3DB2A61
:103A4000E552E750EF6EDF2AE4D7050EDB50F212A5
:103A5000000E00D0006E060EE15C02E2E16AE55263
:103A6000E16E0050E552E5CFDAFFE7CFD9FF120053
:103A7000D9CFE6FFDACFE6FFE1CFD9FFE2CFDAFF19
:103A8000E652FC0EDBCFE9FFFD0EDBCFEAFF120EA4
:103A9000E926000EEA22EFCFDFFFFC0EDBCFE9FFC5
:103AA000FD0EDBCFEAFF130EE926000EEA22EF1C23
:103AB000006EDF50EA6A9F0FE96E010EEA220050A5
:103AC000EF16DF50EA6A9F0FE96E010EEA22EF500F
:103AD0000DE1FC0EDBCFE9FFFD0EDBCFEAFF140E9C
:103AE000E926000EEA22EF1C01019E17FC0EDBCF37
:103AF000E9FFFD0EDBCFEAFF100EE926000EEA22F9
:103B0000FB0EDBCFEFFFFB0EDBCF9CF1FB0EDB40B0
:103B1000E840E8401F0B070BE66EFC0EDBCFE9FF29
:103B2000FD0EDBCFEAFF120EE926000EEA22E55277
:103B3000E750EF6EFB0EDB50070BE66EFC0EDBCFA3
:103B4000E9FFFD0EDBCFEAFF110EE926000EEA22A7
:103B5000E552E750EF6E010E006E016A026A036AD9
:103B6000FC0EDBCFE9FFFD0EDBCFEAFF120EE926EC
:103B7000000EEA22EF501F0B07E0D8900036013606
:103B800002360336E806F9E1FC0EDBCFE9FFFD0E55
:103B9000DBCFEAFF140EE926000EEA2200C0EFFF99
:103BA000010E006E016A026A036AFC0EDBCFE9FFB8
:103BB000FD0EDBCFEAFF110EE926000EEA22EF50E0
:103BC0001F0B07E0D8900036013602360336E806B0
:103BD000F9E1FC0EDBCFE9FFFD0EDBCFEAFF130EB0
:103BE000E926000EEA2200C0EFFFFC0EDBCFE9FF62
:103BF000FD0EDBCFEAFF140EE926000EEA22EF509D
:103C000001019E13FC0EDBCFE9FFFD0EDBCFEAFFC7
:103C1000130EE926000EEA22EFCF00F0FC0EDBCFF8
:103C2000E9FFFD0EDBCFEAFF120EE926000EEA22C5
:103C3000EF50EA6A9F0FE96E010EEA220050EF1280
:103C4000FB0EEA6ADB34FE0BEA36E96E2E0EE9263D
:103C5000020EEA22FC0EDBCFEEFFFD0EDBCFEDFF06
:103C6000E552E552E5CFDAFFE7CFD9FF1200D9CF11
:103C7000E6FFDACFE6FFE1CFD9FFE2CFDAFFE65287
:103C8000E652E652020EDB6AFC0EDBCFE9FFFD0EC8
:103C9000DBCFEAFFEF50030803E0F36AF46A3BD09E
:103CA000C00EF214E76E020EE7CFDBFF800ED014D9
:103CB0003F09F216FC0EDBCFE9FFFD0EDBCFEAFF7A
:103CC000030EE926000EEA22EECFDEFFEDCFDDFF88
:103CD000D9CFE9FFDACFEAFF000ED880EE54000E0C
:103CE000ED540DE2FC0EDBCFE9FFFD0EDBCFEAFF6A
:103CF000030EE926000EEA22EE06000EEF5A020E2F
:103D0000DB50F212DECF00F0DDCF01F000C0F3FF98
:103D100001C0F4FF00D0E552E552E552E552E5CF8F
:103D2000DAFFE7CFD9FF1200D9CFE6FFDACFE6FFFF
:103D3000E1CFD9FFE2CFDAFFE652E652E652020EB9
:103D4000DB6A01019A51000803E2F36AF46A5ED06B
:103D5000C00EF214E76E020EE7CFDBFF800ED01428
:103D60003F09F216B4C0DEFFB5C0DDFF0001B4515B
:103D7000B51109E0B4C0E9FFB5C0EAFFEE52EECFDD
:103D8000B4F0EDCFB5F0020EDB50F212D9CFE9FF5F
:103D9000DACFEAFFEE50ED1030E0DECFE9FFDDCF05
:103DA000EAFF030EEF6EDECFE9FFDDCFEAFF030E81
:103DB000E926000EEA22FC0EDBCFEEFFFD0EDBCF84
:103DC000EDFFDECFE9FFDDCFEAFF010EEB6A020E69
:103DD000EB6ADECFE9FFDDCFEAFF070EE926000E32
:103DE000EA223E0EEE6E6E0EED6EDECFE6FFDDCF0A
:103DF000E6FF7DEC09F0E552E552DECF00F0DDCFC5
:103E000001F000C0F3FF01C0F4FF00D0E552E5521D
:103E1000E552E552E5CFDAFFE7CFD9FF1200D9CF5F
:103E2000E6FFDACFE6FFE1CFD9FFE2CFDAFFE652D5
:103E3000E652E652E652030EDB6AFC0EDBCFE9FFE8
:103E4000FD0EDBCFEAFFEF50030813E0F90EDBCFE6
:103E5000E9FFFA0EDBCFEAFF010EEF6EFC0EDBCFBF
:103E600000F0FD0EDBCF01F000C0F3FF01C0F4FF56
:103E70001AD101019A51000813E2F90EDBCFE9FFD4
:103E8000FA0EDBCFEAFF0F0EEF6EFC0EDBCF00F079
:103E9000FD0EDBCF01F000C0F3FF01C0F4FF03D142
:103EA000C00EF214E76E030EE7CFDBFF800ED014D6
:103EB0003F09F216FC0EDBCFE9FFFD0EDBCFEAFF78
:103EC000050EE926000EEA22EF5003E0010EDF6E38
:103ED00001D0DF6AFB0EDB50010A5CE0010A01E061
:103EE000BFD0DF503FE1FC0EDBCFE9FFFD0EDBCFA3
:103EF000EAFF070EE926000EEA223E0EEE6E6E0E77
:103F0000ED6EFC0EDBCFE9FFFD0EDBCFEAFFEF6AC3
:103F1000FC0EDBCFE9FFFD0EDBCFEAFFEE52B4C0B3
:103F2000EEFFB5C0EDFFFC0EDBCFE9FFFD0EDBCFF2
:103F3000EAFF030EEB6A040EEB6AFC0EDBCFB4F073
:103F4000FD0EDBCFB5F0030EDB50F212F90EDBCF26
:103F5000E9FFFA0EDBCFEAFFEF6A010EDB6A020E21
:103F6000DB6A17D0030EDB50F212F90EDBCFE9FF4C
:103F7000FA0EDBCFEAFF490EEF6EFC0EDBCF1AF034
:103F8000FD0EDBCF1BF0DE521AC0DEFF1BC0DDFFD3
:103F9000DD527ED0FC0EDBCFE9FFFD0EDBCFEAFF6A
:103FA000050EE926000EEA22EF5017E0E66A010E40
:103FB000E66E000EE66EE66AFC0EDBCFE6FFFD0E57
:103FC000DBCFE6FF27EC06F0006E060EE15C02E2B6
:103FD000E16AE552E16E0050DDD7FC0EDBCFE9FF70
:103FE000FD0EDBCFEAFF070EE926000EEA223E0EA9
:103FF000EE6E6E0EED6EFC0EDBCFE9FFFD0EDBCF3D
:10400000EAFFEF6AFC0EDBCFE9FFFD0EDBCFEAFF34
:10401000EE52B4C0EEFFB5C0EDFFFC0EDBCFE9FF02
:10402000FD0EDBCFEAFF030EEB6A040EEB6AFC0E1B
:10403000DBCFB4F0FD0EDBCFB5F0030EDB50F21298
:10404000DF0402E1FAEC0BF0F90EDBCFE9FFFA0E28
:10405000DBCFEAFFEF6A010EDB6A020EDB6A18D0E3
:10406000030EDB50F212F90EDBCFE9FFFA0EDBCFC5
:10407000EAFF070EEF6EFC0EDBCF1AF0FD0EDBCF72
:104080001BF0DE521AC0DEFF1BC0DDFFDD5200D088
:10409000010EDBCF00F0020EDBCF01F000C0F3FF1A
:1040A00001C0F4FF00D0040EE15C02E2E16AE552D7
:1040B000E16EE552E5CFDAFFE7CFD9FF1200D9CFA5
:1040C000E6FFDACFE6FFE1CFD9FFE2CFDAFFE65233
:1040D000DF6AFC0EDBCFE9FFFD0EDBCFEAFFEF501E
:1040E000030809E0F60EDBCFE9FFF70EDBCFEAFFAE
:1040F000010EEF6EDED001019A51000809E2F60EC2
:10410000DBCFE9FFF70EDBCFEAFF020EEF6ED1D077
:1041100001019B51000809E2F60EDBCFE9FFF70E23
:10412000DBCFEAFF0D0EEF6EC4D0C00EF214DF6ECF
:10413000800ED0143F09F216FC0EDBCFE9FFFD0E16
:10414000DBCFEAFF030EE926000EEA22000ED8803C
:10415000EE54000EED5417E2FC0EDBCFE9FFFD0E2E
:10416000DBCFEAFF030EE926000EEA22EE06000E80
:10417000EF5ADF50F212F60EDBCFE9FFF70EDBCF7E
:10418000EAFFEF6A96D026C2E9FF27C2EAFF0E0EC9
:10419000E926000EEA22EF8026C2E9FF27C2EAFFE5
:1041A0000F0EE926000EEA22EF6A26C2E9FF27C2B7
:1041B000EAFF0A0EE926000EEA22F80EDBCFEEFF38
:1041C000F90EDBCFEEFFFA0EDBCFEEFFFB0EDBCFFF
:1041D000EEFFFC0EDBCFE6FFFD0EDBCFE6FF28ECAB
:1041E00007F0E552E552DF50F212FAEC0BF0C00E88
:1041F000F214DF6E800ED0143F09F21626C2E9FFDA
:1042000027C2EAFF0F0EEB50010A16E0030A0BE08B
:10421000020A01E011D0F60EDBCFE9FFF70EDBCF8B
:10422000EAFFEF6A22D0F60EDBCFE9FFF70EDBCF15
:10423000EAFF0E0EEF6E19D0FC0EDBCFE6FFFD0E8F
:10424000DBCFE6FF26C2E6FF27C2E6FF61EC08F0FF
:10425000E552E552E552E552F60EDBCFE9FFF70EE7
:10426000DBCFEAFF0A0EEF6E00D026C2E9FF27C2BD
:10427000EAFF0E0EE926000EEA22EF6A26C2E9FFE7
:1042800027C2EAFF0F0EE926000EEA22EF6A26C2D5
:10429000E9FF27C2EAFF060EEB6A070EEB6A26C2A9
:1042A000E9FF27C2EAFF080EEB6A090EEB6ADF504E
:1042B000F212E552E552E5CFDAFFE7CFD9FF12005F
:1042C000D9CFE6FFDACFE6FFE1CFD9FFE2CFDAFFC1
:1042D000E652E652010EDB6AFC0EDBCFE9FFFD0E73
:1042E000DBCFEAFFEF5003080AE0F90EDBCFE9FF6E
:1042F000FA0EDBCFEAFF010EEF6E000E77D0C00E94
:10430000F214E76E010EE7CFDBFF800ED0143F09F9
:10431000F216FC0EDBCFE9FFFD0EDBCFEAFF050E48
:10432000E926000EEA22EF5055E0DF6AFB0EDB5073
:1043300029E0010A01E026D0FC0EDBCFE9FFFD0EEB
:10434000DBCFEAFF050EE926000EEA22EF5019E066
:10435000020EE66E010EE66E000EE66EE66AFC0EDA
:10436000DBCFE6FFFD0EDBCFE6FF27EC06F0006EAD
:10437000060EE15C02E2E16AE552E16E0050DF2ADE
:10438000DBD719D0020EE66E010EE66E000EE66E69
:10439000E66AFC0EDBCFE6FFFD0EDBCFE6FF27EC87
:1043A00006F0006E060EE15C02E2E16AE552E16EA3
:1043B0000050DF2A00D0010EDB50F212FAEC0BF0B5
:1043C000F90EDBCFE9FFFA0EDBCFEAFF0E0EEF6E40
:1043D000DF500CD0010EDB50F212F90EDBCFE9FFFB
:1043E000FA0EDBCFEAFFEF6A000E00D0E552E5528D
:1043F000E552E5CFDAFFE7CFD9FF1200D9CFE6FFCC
:10440000DACFE6FFE1CFD9FFE2CFDAFFE652DF6A8B
:10441000FC0EDBCFE9FFFD0EDBCFEAFFEF50030818
:1044200002E0010E57D0C00EF214DF6E800ED014E1
:104430003F09F216FC0EDBCFE9FFFD0EDBCFEAFFF2
:10444000050EE926000EEA22EF501CE0E66A010E96
:10445000E66E000EE66EE66AFC0EDBCFE6FFFD0EB2
:10446000DBCFE6FF27EC06F0006E060EE15C02E211
:10447000E16AE552E16E0050DF50F212FAEC0BF007
:10448000000E28D0FC0EDBCFE9FFFD0EDBCFEAFFEC
:10449000030EE926000EEA22EECF00F0EFCF01F086
:1044A000FF0E005CFF0E015811E2FC0EDBCFE9FFAE
:1044B000FD0EDBCFEAFF030EE926000EEA22EE2A0C
:1044C000000EEF22DF50F212000E04D0DF50F21285
:1044D000330E00D0E552E552E5CFDAFFE7CFD9FF42
:1044E0001200D9CFE6FFDACFE6FFE1CFD9FFE2CF66
:1044F000DAFF060EE12402E3E168E652E16E050E02
:10450000DB6AFC0EDBCFE9FFFD0EDBCFEAFFEF50ED
:10451000030802E0010E85D0C00EF214E76E050E0E
:10452000E7CFDBFF800ED0143F09F216FC0EDBCF85
:10453000E9FFFD0EDBCFEAFF050EE926000EEA22B9
:10454000EF50E66EFA0EDBCFE9FFFB0EDBCFEAFFA2
:10455000030EE926000EEA22E552E750EF6EFC0E4C
:10456000DBCFE9FFFD0EDBCFEAFF060EE926000EEA
:10457000EA22E9CF00F0EACF01F0010E00C0DBFF34
:10458000020E01C0DBFFFA0EDBCFE9FFFB0EDBCF33
:10459000EAFF020EE926000EEA22E9CF00F0EACF98
:1045A00001F0030E00C0DBFF040E01C0DBFFDF6A79
:1045B000010EDF5C19E2010EDBCFE9FFDB2A020E00
:1045C000DBCFEAFF01E3DB2AEF50E66E030EDBCF21
:1045D000E9FFDB2A040EDBCFEAFF01E3DB2AE55229
:1045E000E750EF6EDF2AE4D7FC0EDBCFE9FFFD0ECC
:1045F000DBCFEAFF030EE926000EEA22EECF00F041
:10460000EFCF01F0FA0EDBCFE9FFFB0EDBCFEAFFC5
:1046100000C0EEFF01C0EDFF050EDB50F212000EF0
:1046200000D0006E060EE15C02E2E16AE552E16E46
:104630000050E552E5CFDAFFE7CFD9FF1200D9CF1E
:10464000E6FFDACFE6FFE1CFD9FFE2CFDAFFE652AD
:10465000DF6AFC0EDBCFE9FFFD0EDBCFEAFFEF5098
:10466000030809E0F80EDBCFE9FFF90EDBCFEAFF24
:10467000010EEF6E56D0C00EF214DF6E800ED01415
:104680003F09F216F80EDBCFE9FFF90EDBCFEAFFA8
:10469000EF6AFC0EDBCFE9FFFD0EDBCFEAFF030E76
:1046A000E926000EEA22000ED880EE54000EED54EA
:1046B00011E2FC0EDBCFE9FFFD0EDBCFEAFF030EBC
:1046C000E926000EEA22FA0EDBCFEEFFFB0EDBCF6F
:1046D000EDFF25D0FC0EDBCFE9FFFD0EDBCFEAFFBF
:1046E000050EE926000EEA22EF5011E1FC0EDBCFA9
:1046F000E9FFFD0EDBCFEAFF030EE926000EEA22FA
:10470000FA0EDBCFEEFFFB0EDBCFEDFF08D0F80E8D
:10471000DBCFE9FFF90EDBCFEAFF490EEF6EDF508A
:10472000F212E552E552E5CFDAFFE7CFD9FF1200EA
:10473000D9CFE6FFDACFE6FFE1CFD9FFE2CFDAFF4C
:104740000E0EE12402E3E168E652E16E0D0EDB6A33
:10475000C00EF214E76E0D0EE7CFDBFF800ED01413
:104760003F09F216FC0EEA6ADB34FE0BEA36E96E0C
:104770002E0EE926020EEA22EE50ED1005E00D0E97
:10478000DB50F212280E4AD2FD0EDB50FF080AE180
:1047900026C2E9FF27C2EAFF100EEB50E76EFD0EBE
:1047A000E7CFDBFFFD0EEA6ADB34FE0BEA36E96E8B
:1047B0002E0EE926020EEA22040EEECFDBFF050ED6
:1047C000EDCFDBFFD950040FE96E000EDA20EA6E60
:1047D000EE50ED1005E10D0EDB50F212290E1ED247
:1047E000D950040FE96E000EDA20EA6E010EEE18C1
:1047F00001E1ED5005E10D0EDB50F212430E0ED239
:10480000FC0EDB40E840E8401F0BE76E060EE7CFEA
:10481000DBFFFC0EDB50070BE76E070EE7CFDBFF7D
:10482000010E006E016A026A036A060EDB501F0B5E
:1048300007E0D8900036013602360336E806F9E183
:10484000090E00C0DBFF010E006E016A026A036AF6
:10485000070EDB501F0B07E0D890003601360236FA
:104860000336E806F9E10A0E00C0DBFFFD0EEA6A36
:10487000DB34FE0BEA36E96E2E0EE926020EEA2242
:10488000EE6AED6AFC0EEA6ADB34FE0BEA36E96E8C
:104890002E0EE926020EEA22040EDBCFEEFF050EF5
:1048A000DBCFEDFF040EDBCFE9FF050EDBCFEAFF28
:1048B000120EE926000EEA22080EEFCFDBFF040EEF
:1048C000DBCFE9FF050EDBCFEAFF140EE926000E71
:1048D000EA220B0EEFCFDBFF040EDBCFE9FF050E64
:1048E000DBCFEAFF130EE926000EEA220C0EEFCF13
:1048F000DBFF0C0EDBCFE6FF080EDB50EA6A9F0FF2
:10490000E96E010EEA22EF50E552E71427E00C0EA3
:10491000DB1C006E080EDB50EA6A9F0FE96E010E89
:10492000EA220050EF16080EDB50EA6A9F0FE96E8C
:10493000010EEA22EF5004E10B0EDB1C01019E1771
:10494000090EDB5001019E13060EDB50EA6A9F0F31
:10495000E96E010EEA220A0EDB50EF12040EDBCFE5
:10496000E9FF050EDBCFEAFF060EE926000EEA227C
:10497000EECFDEFFEDCFDDFFD9CFE9FFDACFEAFFE3
:10498000EE50ED105EE00C0EDB1C026EDECFE9FF98
:10499000DDCFEAFF060EE926000EEA22E9CF00F09D
:1049A000EACF01F0080EDB500F010024E96E000E83
:1049B0000120EA6E0250EF16DECFE9FFDDCFEAFFFD
:1049C000060EE926000EEA22E9CF00F0EACF01F058
:1049D000080EDB500F010024E96E000E0120EA6E84
:1049E000EF500DE10B0EDB1C006EDECFE9FFDDCFDB
:1049F000EAFF050EE926000EEA220050EF16DECF90
:104A0000E9FFDDCFEAFF050EE926000EEA22090ED6
:104A1000DB50EF12DECFE9FFDDCFEAFF060EE9261D
:104A2000000EEA22E9CF00F0EACF01F0060EDB50DB
:104A30000F010024E96E000E0120EA6E0A0EDB5021
:104A4000EF12040EDBCFE9FF050EDBCFEAFF080E05
:104A5000E926000EEA22EE50ED1001E194D0040E9A
:104A6000DBCFE9FF050EDBCFEAFF080EE926000EDB
:104A7000EA22020EEECFDBFF030EEDCFDBFF020ECC
:104A8000DBCFE9FF030EDBCFEAFFEECFDEFFEDCF9A
:104A9000DDFFD9CFE9FFDACFEAFFEE50ED1073E08A
:104AA0000C0EDB1C026EDECFE9FFDDCFEAFF060E47
:104AB000E926000EEA22E9CF00F0EACF01F0080E65
:104AC000DB500F010024E96E000E0120EA6E025057
:104AD000EF16DECFE9FFDDCFEAFF060EE926000E76
:104AE000EA22E9CF00F0EACF01F0080EDB500F0117
:104AF0000024E96E000E0120EA6EEF500DE10B0E6E
:104B0000DB1C006EDECFE9FFDDCFEAFF050EE926F4
:104B1000000EEA220050EF16DECFE9FFDDCFEAFFFC
:104B2000050EE926000EEA22090EDB50EF12DECF59
:104B3000E9FFDDCFEAFF060EE926000EEA22E9CF03
:104B400000F0EACF01F0060EDB500F010024E96E01
:104B5000000E0120EA6E0A0EDB50EF12D950020F50
:104B6000E96E000EDA20EA6E020EEE26000EEF224B
:104B7000020EDBCFE9FF030EDBCFEAFFEECFDEFF55
:104B8000EDCFDDFF86D7040EDBCFE9FF050EDBCFCF
:104B9000EAFF100EE926000EEA22FC0EDBCFEFFF43
:104BA000040EDBCFE9FF050EDBCFEAFF120EE9268C
:104BB000000EEA22060EDBCFEFFF040EDBCFE9FF8B
:104BC000050EDBCFEAFF110EE926000EEA22070EE2
:104BD000DBCFEFFF040EDBCFE9FF050EDBCFEAFFF3
:104BE000140EE926000EEA22090EDBCFEFFF040EB9
:104BF000DBCFE9FF050EDBCFEAFF130EE926000E3F
:104C0000EA220A0EDBCFEFFF0D0EDB50F21201019C
:104C1000A00502E1FAEC0BF0000E00D0006E0E0EC3
:104C2000E15C02E2E16AE552E16E0050E552E5CF57
:104C3000DAFFE7CFD9FF1200D9CFE6FFDACFE6FFE0
:104C4000E1CFD9FFE2CFDAFFE652E652E652E65272
:104C5000030EDB6AC00EF214E76E030EE7CFDBFF34
:104C6000800ED0143F09F21601019A51000805E2A6
:104C7000030EDB50F2123C0E93D0F60EEA6ADB34E0
:104C8000FE0BEA36E96E2E0EE926020EEA22EE50FF
:104C9000ED1001E080D0F60EEA6ADB34FE0BEA3656
:104CA000E96E2E0EE926020EEA22010EEE6EED6A84
:104CB000030EDB50F212000EE66EE66AF70EDBCF53
:104CC000E6FFF80EDBCFE6FFF90EDBCFE6FFFA0ECC
:104CD000DBCFE6FFFB0EDBCFE6FFFC0EDBCFE6FF14
:104CE000FD0EDBCFE6FF63EC2FF0006E090EE15CFA
:104CF00002E2E16AE552E16E0050F3CFDEFFF4CF4D
:104D0000DDFF000EE66EE66A000EE66EE66AE66A13
:104D1000E66AE66AE66A000EE66EE66A000EE66E8F
:104D2000E66ADECFE6FFDDCFE6FFF60EDBCFE6FF7D
:104D30005AEC0DF0006E0F0EE15C02E2E16AE55202
:104D4000E16E0050E76E020EE7CFDBFF020EDB5094
:104D500006E10101A00502E1FAEC0BF019D0C00E4A
:104D6000F214E76E030EE7CFDBFF800ED0143F098D
:104D7000F216F60EEA6ADB34FE0BEA36E96E2E0E08
:104D8000E926020EEA22EE6AED6A030EDB50F21209
:104D9000020EDB5005D0030EDB50F212280E00D0BD
:104DA000006E040EE15C02E2E16AE552E16E005041
:104DB000E552E5CFDAFFE7CFD9FF1200D9CFE6FF02
:104DC000DACFE6FFE1CFD9FFE2CFDAFFE652E652D3
:104DD000E652020EDB6A01019A51000802E2400E1F
:104DE00090D1FD0EDB50060802E13E0E8AD1C00EC6
:104DF000F214E76E020EE7CFDBFF800ED0143F09FE
:104E0000F216FD0EDB50FF080AE126C2E9FF27C2B9
:104E1000EAFF100EEB50E76EFD0EE7CFDBFFFD0E55
:104E2000EA6ADB34FE0BEA36E96E2E0EE926020E44
:104E3000EA22EECFDEFFEDCFDDFFD9CFE9FFDACFFB
:104E4000EAFFEE50ED1005E1020EDB50F212430EC8
:104E500058D1D9CFE9FFDACFEAFF010EEE1801E110
:104E6000ED5005E1020EDB50F2123D0E4AD1DECFCD
:104E7000E9FFDDCFEAFF130EE926000EEA22EF1C60
:104E8000006EDECFE9FFDDCFEAFF120EE926000E4D
:104E9000EA22EF50EA6A9F0FE96E010EEA22005003
:104EA000EF16DECFE9FFDDCFEAFF120EE926000E96
:104EB000EA22EF50EA6A9F0FE96E010EEA22EF50F4
:104EC0000BE1DECFE9FFDDCFEAFF140EE926000E8D
:104ED000EA22EF1C01019E17DECFE9FFDDCFEAFFDA
:104EE000060EE926000EEA22EE50ED1016E0DECFA7
:104EF000E9FFDDCFEAFF060EE926000EEA22EECF3B
:104F0000E6FFEFCFE6FFDECFE6FFDDCFE6FF61ECA9
:104F100008F0E552E552E552E552DECFE9FFDDCF7C
:104F2000EAFF080EE926000EEA22EE50ED1016E028
:104F3000DECFE9FFDDCFEAFF080EE926000EEA2208
:104F4000EECFE6FFEFCFE6FFDECFE6FFDDCFE6FFF9
:104F5000CFEC08F0E552E552E552E552DECFE9FF2D
:104F6000DDCFEAFF0A0EE926000EEA22EE6AEE6ABB
:104F7000EE6AEE6ADECFE9FFDDCFEAFF0E0EE9262C
:104F8000000EEA22EF6ADECFE9FFDDCFEAFF0F0E67
:104F9000E926000EEA22EF6AFF0E01019B5D02E2A4
:104FA00001019B2B020EDB50F21226EC06F0C00E24
:104FB000F214E76E020EE7CFDBFF800ED0143F093C
:104FC000F21601019B51000802E201019B07DECFAE
:104FD000E6FFDDCFE6FF7BEC30F0E552E552010164
:104FE000A107FD0EEA6ADB34FE0BEA36E96E2E0EEF
:104FF000E926020EEA22EE6AED6ADECFE9FFDDCF96
:10500000EAFF040EE926000EEA22EE50ED101FE141
:10501000DECFE9FFDDCFEAFF020EE926000EEA222D
:10502000EE50EFCFEAFFE96E040EE926000EEA2209
:10503000EE6AED6ADECFE9FFDDCFEAFF020EE92678
:10504000000EEA22EECF2CF2EDCF2DF240D0DECFD3
:10505000E9FFDDCFEAFF020EE926000EEA22EECFDD
:1050600000F0EFCF01F0DECFE9FFDDCFEAFF040E65
:10507000E926000EEA22EE50EFCFEAFFE96E020EBB
:10508000E926000EEA2200C0EEFF01C0EDFFDECFF0
:10509000E9FFDDCFEAFF040EE926000EEA22EECF9B
:1050A00000F0EFCF01F0DECFE9FFDDCFEAFF020E27
:1050B000E926000EEA22EE50EFCFEAFFE96E040E79
:1050C000E926000EEA2200C0EEFF01C0EDFFDECFB0
:1050D000E9FFDDCFEAFF020EE926000EEA2228C230
:1050E000EEFF29C2EDFFDECF28F2DDCF29F2020E5E
:1050F000DB50F2120101A00502E1FAEC0BF0000E08
:1051000000D0E552E552E552E552E5CFDAFFE7CFB0
:10511000D9FF1200D9CFE6FFDACFE6FFE1CFD9FF02
:10512000E2CFDAFFE652E652E652E652030EDB6ABF
:10513000FD0EDB50060802E13E0E63D0FD0EDB5093
:10514000FF0816E1C00EF214E76E030EE7CFDBFF97
:10515000800ED0143F09F21626C2E9FF27C2EAFFEB
:10516000150EEB50DF6E030EDB50F212DF5049D00C
:10517000C00EF214E76E030EE7CFDBFF800ED014F3
:105180003F09F216FD0EEA6ADB34FE0BEA36E96EE1
:105190002E0EE926020EEA22010EEECFDBFF020EF2
:1051A000EDCFDBFFD950010FE96E000EDA20EA6E79
:1051B000EE50ED1005E1030EDB50F212430E21D04C
:1051C000D950010FE96E000EDA20EA6E010EEE18DA
:1051D00001E1ED5005E1030EDB50F2123D0E11D05E
:1051E000010EDBCFE9FF020EDBCFEAFF150EE92649
:1051F000000EEA223F0EEF6E030EDB50F212000E9D
:1052000000D0006E040EE15C02E2E16AE552E16E5C
:105210000050E552E5CFDAFFE7CFD9FF1200D9CF32
:10522000E6FFDACFE6FFE1CFD9FFE2CFDAFFE652C1
:10523000E652E652020EDB6AC00EF214E76E020E70
:10524000E7CFDBFF800ED0143F09F216FD0EEA6AAD
:10525000DB34FE0BEA36E96E2E0EE926020EEA2258
:10526000EECFDEFFEDCFDDFFD9CFE9FFDACFEAFFEA
:10527000EE50ED1005E1020EDB50F212460E7DD02D
:10528000D9CFE9FFDACFEAFF010EEE1801E1ED50C8
:1052900005E1020EDB50F212430E6FD0DECFE9FFC4
:1052A000DDCFEAFF0E0EE926000EEA22EF50080BD2
:1052B0005FE0DECFE9FFDDCFEAFF0E0EE926000E4C
:1052C000EA22EF96DECFE9FFDDCFEAFF0E0EE926F8
:1052D000000EEA22EF5047E1DECFE9FFDDCFEAFF23
:1052E0000A0EE926000EEA22EECF00F0EECF01F022
:1052F000EECF02F0EFCF03F00050011002100310C8
:105300002EE1DECFE9FFDDCFEAFF140EE926000E25
:10531000EA22EF5001019E13DECFE9FFDDCFEAFF65
:10532000130EE926000EEA22EFCF00F0DECFE9FFF0
:10533000DDCFEAFF120EE926000EEA22EF50EA6AFC
:105340009F0FE96E010EEA220050EF12020EDB50B1
:10535000F2120101A00502E1FAEC0BF003D0020EFB
:10536000DB50F21203D0020EDB50F212000E05D019
:10537000020EDB50F212440E00D0E552E552E55227
:10538000E552E5CFDAFFE7CFD9FF1200D9CFE6FF2C
:10539000DACFE6FFE1CFD9FFE2CFDAFFE652E652FD
:1053A000E652E652E652040EDB6AC00EF214E76ED5
:1053B000040EE7CFDBFF800ED0143F09F216FD0E7E
:1053C000DB50FF080DE126C2E9FF27C2EAFF100EFD
:1053D000EB50E76EFD0EE7CFDBFF010EDF6E0FD067
:1053E00026C2E9FF27C2EAFF100EEB50F36EFD0E56
:1053F000DB50F35C03E1010EDF6E01D0DF6AFD0ECE
:10540000EA6ADB34FE0BEA36E96E2E0EE926020E5E
:10541000EA22010EEECFDBFF020EEDCFDBFFD9500B
:10542000010FE96E000EDA20EA6EEE50ED1005E194
:10543000040EDB50F212480E5CD0D950010FE96E19
:10544000000EDA20EA6E010EEE1801E1ED5005E1E2
:10545000040EDB50F212430E4CD0010EDBCFE9FFFD
:10546000020EDBCFEAFF120EE926000EEA22030E3F
:10547000EFCFDBFF010EDBCFE9FF020EDBCFEAFF50
:10548000130EE926000EEA22EF1C006E030EDB501D
:10549000EA6A9F0FE96E010EEA220050EF16030E32
:1054A000DB50EA6A9F0FE96E010EEA22EF500DE130
:1054B000010EDBCFE9FF020EDBCFEAFF140EE92677
:1054C000000EEA22EF1C01019E17010EDBCFE9FF5F
:1054D000020EDBCFEAFF0E0EE926000EEA22EF866F
:1054E000040EDB50F212DF0402E1FAEC0BF0000EC6
:1054F00000D0006E050EE15C02E2E16AE552E16E69
:105500000050E552E5CFDAFFE7CFD9FF1200D9CF3F
:10551000E6FFDACFE6FFE1CFD9FFE2CFDAFFE652CE
:10552000E652E652020EDB6AC00EF214E76E020E7D
:10553000E7CFDBFF800ED0143F09F216FD0EDB50E3
:10554000FF080AE126C2E9FF27C2EAFF100EEB506E
:10555000E76EFD0EE7CFDBFFFD0EEA6ADB34FE0BE4
:10556000EA36E96E2E0EE926020EEA22EECFDEFFC3
:10557000EDCFDDFFD9CFE9FFDACFEAFFEE50ED1036
:1055800005E1020EDB50F212290E2AD0D9CFE9FF35
:10559000DACFEAFF010EEE1801E1ED5005E1020E4F
:1055A000DB50F212430E1CD02C0EE66EE66ADECF04
:1055B000E6FFDDCFE6FFFB0EDBCFE6FFFC0EDBCF29
:1055C000E6FFC3EC0BF0006E060EE15C02E2E16A5E
:1055D000E552E16E0050020EDB50F212000E00D0D8
:1055E000E552E552E552E552E5CFDAFFE7CFD9FFC4
:1055F0001200D9CFE6FFDACFE6FFE1CFD9FFE2CF45
:10560000DAFF070EE12402E3E168E652E16EDF6AA9
:10561000C00EF214DF6E800ED0143F09F216FD0E9C
:10562000DB50FF0807E1050E26C2DBFF060E27C28E
:10563000DBFF10D0FD0EEA6ADB34FE0BEA36E96EC2
:105640002E0EE926020EEA22050EEECFDBFF060E35
:10565000EDCFDBFF050EDBCFE9FF060EDBCFEAFF68
:10566000280EE926000EEA22E9CF00F0EACF01F089
:10567000FC0EDB50040D0050F324E96E0150F420C1
:10568000EA6E010EEECFDBFF020EEECFDBFF030E64
:10569000EECFDBFF040EEECFDBFFDF50F212FA0E8F
:1056A000DBCFE9FFFB0EDBCFEAFFEF6A010EDBCFBA
:1056B00000F0020EDBCF01F0030EDBCF02F0040E90
:1056C000DBCF03F000C018F001C019F002C01AF0DF
:1056D00003C01BF000D0070EE15C02E2E16AE55274
:1056E000E16EE552E5CFDAFFE7CFD9FF1200D9CF5F
:1056F000E6FFDACFE6FFE1CFD9FFE2CFDAFFE652ED
:10570000E652E652DF6AC00EF214DF6E800ED0144D
:105710003F09F216FD0EDB50FF0807E1010E26C21D
:10572000DBFF020E27C2DBFF10D0FD0EEA6ADB347E
:10573000FE0BEA36E96E2E0EE926020EEA22010E73
:10574000EECFDBFF020EEDCFDBFF010EDBCFE9FF7B
:10575000020EDBCFEAFF280EE926000EEA22E9CF8F
:1057600000F0EACF01F0FC0EDB50040D0050F324F2
:10577000E96E0150F420EA6EF80EDBCFEEFFF90E71
:10578000DBCFEEFFFA0EDBCFEEFFFB0EDBCFEEFF43
:10579000DF50F212F60EDBCFE9FFF70EDBCFEAFFA8
:1057A000EF6AE552E552E552E552E5CFDAFFE7CF81
:1057B000D9FF120026C2E6FF27C2E6FF9CEC30F0BC
:1057C000E552E552E668DEEC26F0E5521200D9CF4C
:1057D000E6FFDACFE6FFE1CFD9FFE2CFDAFFE6520C
:1057E000E652010EDB6A01019A51000801E260D025
:1057F00001019B51000801E25BD0D950FA0FE96E1C
:10580000FF0EDA20EA6ED880000EEE54000EEE5441
:10581000000EEE54000EEE544BE2C00EF214E76E92
:10582000010EE7CFDBFF800ED0143F09F21626C22F
:10583000E9FF27C2EAFF120EEB50DF6E26C2E9FF36
:1058400027C2EAFF130EEB50E81C006EDF50EA6A35
:105850009F0FE96E010EEA220050EF16DF50EA6A50
:105860009F0FE96E010EEA22EF5009E126C2E9FF1F
:1058700027C2EAFF140EEB50E81C01019E1726C256
:10588000E9FF27C2EAFF0A0EE926000EEA22FA0E15
:10589000DBCFEEFFFB0EDBCFEEFFFC0EDBCFEEFF30
:1058A000FD0EDBCFEEFF010EDB50F212FAEC0BF037
:1058B000E552E552E552E5CFDAFFE7CFD9FF120016
:1058C000D9CFE6FFDACFE6FFE1CFD9FFE2CFDAFFAB
:1058D000E652E652E652E65201019A51000802E20F
:1058E000550ED7D001019B51000802E2320ED1D0F3
:1058F000FD0EDBCF04F0056A066A076A100E1D6E06
:105900000E0E1E6E1F6A206A04C018F005C019F042
:1059100006C01AF007C01BF0A6EC34F014C004F067
:1059200015C005F016C006F017C007F0FC0EDBCF5F
:1059300008F0096A0A6A0B6A3C0E1D6E1E6A1F6A2D
:10594000206A08C018F009C019F00AC01AF00BC08C
:105950001BF0A6EC34F014C008F015C009F016C016
:105960000AF017C00BF008500426095005220A500F
:1059700006220B500722FB0EDBCF0CF00D6A0E6ADD
:105980000F6A04500C24006E05500D20016E065065
:105990000E20026E07500F20036E640E1D6E1E6AED
:1059A0001F6A206A00C018F001C019F002C01AF086
:1059B00003C01BF0A6EC34F014C000F015C001F0D9
:1059C00016C002F017C003F0F90EDBCF10F0FA0E8C
:1059D000DBCF11F0126A136A050E1026000E112299
:1059E000000E1222000E1322640E1D6E1E6A1F6A24
:1059F000206A10C018F011C019F012C01AF013C0BC
:105A00001BF0A6EC34F014C010F015C011F016C055
:105A100012F017C013F0E80E1D6E030E1E6E1F6A03
:105A2000206A10C018F011C019F012C01AF013C08B
:105A30001BF017EC36F018C010F019C011F01AC0A6
:105A400012F01BC013F0105000261150012212500A
:105A500002221350032200C0DFFF010E01C0DBFF52
:105A6000020E02C0DBFF030E03C0DBFFD9CFE9FF4C
:105A7000DACFEAFFEECFE6FFEECFE6FFEECFE6FFAE
:105A8000EFCFE6FFA4DEE552E552E552E552000E07
:105A900000D0006E040EE15C02E2E16AE552E16EC4
:105AA0000050E552E5CFDAFFE7CFD9FF1200D9CF9A
:105AB000E6FFDACFE6FFE1CFD9FFE2CFDAFFE65229
:105AC000E652E652020EDB6A060EF36EFD0EDBCFE7
:105AD000F4FFF350F45C02E32A0EBED0C00EF214C1
