:020000040000FA
:060000008CEF39F0120044
:080008009EA402D083EF2FF04B
:100010009EAA02D008EF35F09EA804D09DA802D079
:1000200009EF35F0F2A404D0F2AA02D09EEF33F02B
:020030001200BC
:06003A00030071730000D9
:10004000CB050000040000006D730000C705000030
:100050000400000058730000A8050000150000000F
:10006000D9CFE6FFDACFE6FFE1CFD9FFE2CFDAFF63
:10007000E652E652E652340EE66EE66AEAEC35F0F7
:10008000E552E552F3CFDEFFF4CFDDFFD9CFE9FF34
:10009000DACFEAFFEE50ED102FE0F70EDBCFE6FFF0
:1000A000F80EDBCFE6FFEAEC35F0E552E552F3CF90
:1000B00000F0F4CF01F0DECFE9FFDDCFEAFF1B0E49
:1000C000E926000EEA2200C0EEFF01C0EDFFDECF00
:1000D000E9FFDDCFEAFF1B0EE926000EEA22EE5013
:1000E000ED100AE1DECFE6FFDDCFE6FF58EC36F09B
:1000F000E552E552DE6ADD6AD9CFE9FFDACFEAFFE1
:10010000EE50ED104BE0000EE66EE66ADECFE6FF45
:10011000DDCFE6FFF20EDBCFE6FFF30EDBCFE6FF2F
:10012000F40EDBCFE6FFF50EDBCFE6FFF60EDBCFFE
:10013000E6FFF70EDBCF00F0F80EDBCF01F0026A2E
:10014000036A00C0E6FF01C0E6FF02C0E6FF03C08D
:10015000E6FFF90EDBCFE6FFFA0EDBCFE6FFFB0E84
:10016000DBCFE6FFFC0EDBCFE6FFFD0EDBCFE6FFCD
:1001700023D8046E120EE15C02E2E16AE552E16E00
:100180000450DECFE6FFDDCFE6FFEBD9E552E552C6
:10019000010EF36E020EF3CFDBFF02D0020EDB681E
:1001A000020EDB5000D0E552E552E552E552E5CFB4
:1001B000DAFFE7CFD9FF1200D9CFE6FFDACFE6FFAB
:1001C000E1CFD9FFE2CFDAFFE652E652E652EE0E79
:1001D000DBCFE9FFEF0EDBCFEAFF1B0EE926000EB7
:1001E000EA22EECFDEFFEDCFDDFFF50EDBCF02F032
:1001F000F60EDBCF03F0F70EDBCF04F0F80EDBCF0B
:1002000005F00206000E035A000E045A000E055AAD
:10021000EE0EDBCFE9FFEF0EDBCFEAFF1B0EE92688
:10022000000EEA220250EE24006E0350EE20016E12
:10023000EE0EDBCFE9FFEF0EDBCFEAFF230EE92660
:10024000000EEA2200C0EEFF01C0EDFFD950F90F09
:10025000E96EFF0EDA20EA6EEE50ED1056E0020E67
:10026000DB6A060EF36E020EDBCFF4FFF350F45C94
:100270003CE2020EDB50E76EF90EDBCFE9FFFA0E2F
:10028000DBCFEAFFE750E926000EEA22EF50E66EE8
:10029000EE0EDBCFE9FFEF0EDBCFEAFF1D0EE92606
:1002A000000EEA22E9CF00F0EACF01F0020EDB50A7
:1002B0000F010024E96E000E0120EA6EE552E750BE
:1002C000EF6E020EDB50E76EF90EDBCFE9FFFA0EA0
:1002D000DBCFEAFFE750E926000EEA22EF5002E109
:1002E00004D000D0020EDB2ABCD7EE0EDBCFE9FF34
:1002F000EF0EDBCFEAFF1D0EE926000EEA22050E07
:10030000E926000EEA22EF6A0BD0EE0EDBCFE9FF02
:10031000EF0EDBCFEAFF1D0EE926000EEA22EF6AA0
:10032000030EF36EF20EDBCFF4FFF350F45C06E342
:10033000020EF36EF20EF3CFDBFF00D0EE0EDBCF3A
:10034000E9FFEF0EDBCFEAFF1A0EE926000EEA22E4
:10035000F20EDBCFEFFFEE0EDBCFE9FFEF0EDBCFD0
:10036000EAFF020EE926000EEA22E9CF00F0EACF0A
:1003700001F000C0E6FF01C0E6FF4BEC31F0E552B2
:10038000E552EE0EDBCFE9FFEF0EDBCFEAFF0E0EFC
:10039000E926000EEA22E9CF00F0EACF01F000C022
:1003A000E6FF01C0E6FF4BEC31F0E552E552EE0E00
:1003B000DBCFE9FFEF0EDBCFEAFF020EE926000EEE
:1003C000EA22080EE926000EEA22EE0EDBCFEEFF4F
:1003D000EF0EDBCFEDFF030E046E056A066A076AB7
:1003E000F20EDBCF08F0096A0A6A0B6A0850045C57
:1003F000006E09500558016E0A500658026E0B50E7
:100400000758036EEE0EDBCFE9FFEF0EDBCFEAFFFE
:100410000E0EE926000EEA2200C0EEFF01C0EEFF3C
:1004200002C0EEFF03C0EEFFEE0EDBCFE9FFEF0EE2
:10043000DBCFEAFF0E0EE926000EEA22080EE926BF
:10044000000EEA22EE0EDBCFEEFFEF0EDBCFEDFF6C
:10045000020EDB6A050EF36E020EDBCFF4FFF350E3
:10046000F45C1CE2EE0EDBCFE9FFEF0EDBCFEAFF20
:10047000250EE926000EEA22E9CF00F0EACF01F0CE
:10048000020EDB50020D0050F324E96E0150F420FF
:10049000EA6EEE6AED6A020EDB2ADCD7EE0EDBCFE7
:1004A000E9FFEF0EDBCFEAFF2F0EE926000EEA226E
:1004B000EE6AEE6AEE6AEE6AEE0EDBCFE9FFEF0E51
:1004C000DBCFEAFF330EE926000EEA22EF6AF30ED5
:1004D000DBCFE6FFF40EDBCFE6FFFB0EDBCFE6FF64
:1004E000FC0EDBCFE6FFFD0EDBCFE6FFDECFE6FF47
:1004F000DDCFE6FFF0EC2BF0026E070EE15C02E2CE
:10050000E16AE552E16E0250F3CF00F0F4CF01F062
:10051000EE0EDBCFE9FFEF0EDBCFEAFF00C0EEFF10
:1005200001C0EDFFD950F00FE96EFF0EDA20EA6E40
:10053000EE50ED100DE0F00EDBCFE9FFF10EDBCF5A
:10054000EAFFEE0EDBCFEEFFEF0EDBCFEDFF00D0CC
:10055000E552E552E552E552E5CFDAFFE7CFD9FFA4
:100560001200D9CFE6FFDACFE6FFE1CFD9FFE2CF25
:10057000DAFFF250E66EF29E0501AB2B0501A851A1
:10058000A9110DE1FC0EDBCFA8F5FD0EDBCFA9F51F
:100590000501AB0503E176EC13F000D020D0050196
:1005A000B1511DE1A8C5E9FFA9C5EAFF1A0EEB503C
:1005B000006EFC0EDBCFE9FFFD0EDBCFEAFF1A0E6B
:1005C000E926000EEA22EF50D880005407E3FC0E23
:1005D000DBCFA8F5FD0EDBCFA9F500D000D00501DB
:1005E000B52BFC0EDBCFE9FFFD0EDBCFEAFF1A0EC9
:1005F000E926000EEA22EFCF00F00501B051D880C5
:1006000000540CE2FC0EDBCFE9FFFD0EDBCFEAFF6E
:100610001A0EE926000EEA22EFCFB0F5FC0EDBCF72
:10062000E9FFFD0EDBCFEAFF020EE926000EEA220B
:10063000E9CF00F0EACF01F000C0E6FF01C0E6FF1D
:10064000FC0EDBCFE9FFFD0EDBCFEAFF1A0EE92639
:10065000000EEA22EF500B0DF3CF02F0F4CF03F0BF
:10066000000E0226050E032202C0E6FF03C0E6FFCD
:1006700063EC31F0E552E552E552E552E552E7BE52
:10068000F28E0501B15118E0A8C5E9FFA9C5EAFF3E
:100690001A0EEB50006EFC0EDBCFE9FFFD0EDBCF38
:1006A000EAFF1A0EE926000EEA22EF50005C03E290
:1006B000A9EC2EF000D000D0E552E5CFDAFFE7CF6D
:1006C000D9FF1200D9CFE6FFDACFE6FFE1CFD9FF9D
:1006D000E2CFDAFFE652E652F250E66EF29ED950D1
:1006E000FC0FE96EFF0EDA20EA6EEE50ED1005E128
:1006F000A8C500F0A9C501F006D0FC0EDBCF00F0C4
:10070000FD0EDBCF01F000C0DEFF01C0DDFFDECF5C
:10071000E9FFDDCFEAFF020EE926000EEA22E9CF6B
:1007200000F0EACF01F000C0E6FF01C0E6FFD9EC1F
:1007300032F0E552E552000901E100D0DECFE9FFD9
:10074000DDCFEAFF0E0EE926000EEA220A0EE926A8
:10075000000EEA22EE50ED1015E0DECFE9FFDDCF0E
:10076000EAFF0E0EE926000EEA22E9CF00F0EACFFA
:1007700001F000C0E6FF01C0E6FFD9EC32F0E5521F
:10078000E55200D00501B52BDECF00F0DDCF01F042
:100790000501A851001802E1A95101181DE1DECFA1
:1007A000E9FFDDCFEAFF020EE926000EEA22E9CFDB
:1007B00000F0EACF01F000C0E6FF01C0E6FF460E00
:1007C000E66E050EE66E63EC31F0E552E552E55259
:1007D000E5520501AA2B0CD00501AB07DECFE6FFE1
:1007E000DDCFE6FF18EC14F0E552E55242EC14F0D0
:1007F000E552E7BEF28E0501B1510EE0DECF00F00A
:10080000DDCF01F00501A851001802E1A95101183E
:1008100003E1A9EC2EF000D0E552E552E552E5CF18
:10082000DAFFE7CFD9FF1200D9CFE6FFDACFE6FF34
:10083000E1CFD9FFE2CFDAFF0A0EE12402E3E1685B
:10084000E652E16E050EDB6A4AEC0BF0060EACC513
:10085000DBFF070EADC5DBFF080EAEC5DBFF090EE3
:10086000AFC5DBFFF80EDBCF00F0F90EDBCF01F0F8
:10087000FA0EDBCF02F0FB0EDBCF03F0FC0EDBCF7A
:10088000E9FFFD0EDBCFEAFFEE500026EE5001221D
:10089000EE500222EE50032200C0DFFF010E01C025
:1008A000DBFF020E02C0DBFF030E03C0DBFF060E00
:1008B000DBCF00F0070EDBCF01F0080EDBCF02F03C
:1008C000090EDBCF03F0FC0EDBCFE9FFFD0EDBCF23
:1008D000EAFFEE50005CEE500158EE500258EE5028
:1008E00003583BE2FC0EDBCFE9FFFD0EDBCFEAFF56
:1008F000EECF00F0EECF01F0EECF02F0EFCF03F03D
:10090000D9CFE9FFDACFEAFF0050EE5C0150EE5894
:100910000250EE580350EE581FE2060EDBCF04F0F3
:10092000070EDBCF05F0080EDBCF06F0090EDBCF9C
:1009300007F0D9CFE9FFDACFEAFFEE50045CEE50C2
:100940000558EE500658EE50075806E2010EF36EB9
:10095000050EF3CFDBFF00D03AD0FC0EDBCFE9FF72
:10096000FD0EDBCFEAFFEECF00F0EECF01F0EECFD1
:1009700002F0EFCF03F0D9CFE9FFDACFEAFF005062
:10098000EE5C0150EE580250EE580350EE5819E359
:10099000060EDBCF04F0070EDBCF05F0080EDBCF31
:1009A00006F0090EDBCF07F0D9CFE9FFDACFEAFF77
:1009B000EE50045CEE500558EE500658EE500758C5
:1009C00006E2010EF36E050EF3CFDBFF00D0FC0E46
:1009D000DBCFE9FFFD0EDBCFEAFFDFCFEEFF010E3D
:1009E000DBCFEEFF020EDBCFEEFF030EDBCFEEFF21
:1009F000050EDB5030E0E66A060EDBCF04F0070E92
:100A0000DBCF05F0080EDBCF06F0090EDBCF07F0D9
:100A1000D9CFE9FFDACFEAFF0450EE5C006E055053
:100A2000EE58016E0650EE58026E0750EE58036EF7
:100A300000C0E6FF01C0E6FF02C0E6FF03C0E6FF1C
:100A4000C2EC1AF0086E050EE15C02E2E16AE552C2
:100A5000E16E085000D04DEC0BF0E76E040EE7CFCE
:100A6000DBFF040EDB5003E1A9EC2EF000D00A0EF0
:100A7000E15C02E2E16AE552E16EE552E5CFDAFFC0
:100A8000E7CFD9FF1200D9CFE6FFDACFE6FFE1CFFB
:100A9000D9FFE2CFDAFFE652DF6AD950FA0FE96EEA
:100AA000FF0EDA20EA6ED880000EEE54000EEE54EF
:100AB000000EEE54000EEE541FE24AEC0BF0E66A14
:100AC000D950FA0FE96EFF0EDA20EA6EEECFE6FF9C
:100AD000EECFE6FFEECFE6FFEFCFE6FFC2EC1AF077
:100AE000006E050EE15C02E2E16AE552E16E005043
:100AF0004DEC0BF0DF6E00D0DF5003E1A9EC2EF0DF
:100B000000D0E552E552E5CFDAFFE7CFD9FF12007A
:100B1000D9CFE6FFDACFE6FFE1CFD9FFE2CFDAFFA8
:100B2000090EE12402E3E168E652E16EFC0EDBCF40
:100B300012F0FD0EDBCF13F0070E12C0DBFF080E24
:100B400013C0DBFF070EDBCF00F0080EDBCF01F098
:100B50000501A851001802E1A951011802E1DF6A5C
:100B600091D0F250E66EF29E070EDBCFE9FF080E41
:100B7000DBCFEAFF020EE926000EEA220A0EE92682
:100B8000000EEA22010EEECFDBFF020EEDCFDBFFFF
:100B9000030E37C5DBFF040E38C5DBFF050E39C574
:100BA000DBFF060E3AC5DBFFE552E7BEF28E010E13
:100BB000DBCF00F0020EDBCF01F0030EDB5000189C
:100BC00003E1040EDB5001180EE0010EDBCF02F052
:100BD000020EDBCF03F0050EDB50021803E1060E18
:100BE000DB50031803E1020EDF6E4CD0010EDBCFA9
:100BF00000F0020EDBCF01F0510E001802E1050EED
:100C0000011826E1070EDBCFE9FF080EDBCFEAFF74
:100C10000E0EE926000EEA220A0EE926000EEA224E
:100C2000EE50ED1012E1070EDBCFE9FF080EDBCF2F
:100C3000EAFF330EE926000EEA22EF0403E1020E7A
:100C4000DF6E02D0030EDF6E02D0020EDF6E1AD00E
:100C5000010EDBCF00F0020EDBCF01F0460E0018D4
:100C600002E1050E011809E0D950010FE96E000EEE
:100C7000DA20EA6EEE50ED1003E1040EDF6E02D0D2
:100C8000010EDF6EDF5000D0006E090EE15C02E263
:100C9000E16AE552E16E0050E552E5CFDAFFE7CFB9
:100CA000D9FF1200D9CFE6FFDACFE6FFE1CFD9FFB7
:100CB000E2CFDAFFE652E652E652F250E66EF29EDC
:100CC000D950FC0FE96EFF0EDA20EA6EEE50ED10FF
:100CD00005E1A8C500F0A9C501F006D0FC0EDBCFE8
:100CE00000F0FD0EDBCF01F000C0DEFF01C0DDFF34
:100CF000DECFE9FFDDCFEAFF1A0EE926000EEA2279
:100D0000020EEFCFDBFFE552E7BEF28E020EDB50A4
:100D100000D0E552E552E552E552E5CFDAFFE7CFE4
:100D2000D9FF1200D9CFE6FFDACFE6FFE1CFD9FF36
:100D3000E2CFDAFFE652E652E652E652030EDB6AF3
:100D4000D950FC0FE96EFF0EDA20EA6EEE50ED107E
:100D500005E1A8C500F0A9C501F006D0FC0EDBCF67
:100D600000F0FD0EDBCF01F000C0DEFF01C0DDFFB3
:100D7000DECFE9FFDDCFEAFF1A0EE926000EEA22F8
:100D8000020EEFCFDBFF020EDB5000D0006E040E30
:100D9000E15C02E2E16AE552E16E0050E552E5CF26
:100DA000DAFFE7CFD9FF1200D9CFE6FFDACFE6FFAF
:100DB000E1CFD9FFE2CFDAFFE652E652E652E65241
:100DC000E652040EDB6A030EF36EFB0EDBCFF4FF7C
:100DD000F350F45C06E3020EF36EFB0EF3CFDBFF81
:100DE00000D0F250E66EF29ED950FC0FE96EFF0E75
:100DF000DA20EA6EEE50ED1005E1A8C500F0A9C5B5
:100E000001F006D0FC0EDBCF00F0FD0EDBCF01F0D1
:100E100000C0DEFF01C0DDFFDECFE9FFDDCFEAFF6E
:100E20001A0EE926000EEA22020EEFCFDBFFFB0EC0
:100E3000DB50F36E020EDB50F35C01E11AD1FB0EC6
:100E4000DBCF00F0020EDB50D880005420E2DECF72
:100E500000F0DDCF01F00501A851001802E1A95111
:100E6000011814E0A8C5E9FFA9C5EAFF1A0EEB5066
:100E7000F36EFB0EDBCFF4FFF350F45C06E3010EE0
:100E8000F36E040EF3CFDBFF00D000D011D0DECF25
:100E900000F0DDCF01F00501A851001802E1A951D1
:100EA000011806E1010EF36E040EF3CFDBFF00D054
:100EB000DECFE9FFDDCFEAFF1A0EE926000EEA22B7
:100EC000030EEFCFDBFFDECFE9FFDDCFEAFF1A0E27
:100ED000E926000EEA22FB0EDBCFEFFF006A016A73
:100EE000026A800E036EDECFE9FFDDCFEAFF0E0E51
:100EF000E926000EEA22EE500016EE500116EE50E2
:100F00000216EE500316005001100210031028E1E3
:100F1000030E046E056A066A076AFB0EDBCF08F053
:100F2000096A0A6A0B6A0850045C006E0950055889
:100F3000016E0A500658026E0B500758036EDECF42
:100F4000E9FFDDCFEAFF0E0EE926000EEA2200C01F
:100F5000EEFF01C0EEFF02C0EEFF03C0EEFF00D0C7
:100F6000DECFE9FFDDCFEAFF020EE926000EEA221E
:100F70000A0EE926000EEA22EECF00F0EFCF01F0D4
:100F8000030EDB500B0DF3CF02F0F4CF03F0000E95
:100F90000226050E03220250001802E10350011838
:100FA00002E1010E01D0000E00095DE0DECFE9FF95
:100FB000DDCFEAFF020EE926000EEA22E9CF00F0BB
:100FC000EACF01F000C0E6FF01C0E6FFD9EC32F045
:100FD000E552E552000901E100D0DECFE9FFDDCFA7
:100FE000EAFF1A0EE926000EEA22EFCF00F0050113
:100FF000B051D88000540AE2DECFE9FFDDCFEAFF2E
:101000001A0EE926000EEA22EFCFB0F5DECFE9FF97
:10101000DDCFEAFF020EE926000EEA22E9CF00F05A
:10102000EACF01F000C0E6FF01C0E6FFDECFE9FF36
:10103000DDCFEAFF1A0EE926000EEA22EF500B0D73
:10104000F3CF02F0F4CF03F0000E0226050E0322C8
:1010500002C0E6FF03C0E6FF63EC31F0E552E55263
:10106000E552E55200D0040EDB5003E0A9EC2EF06F
:1010700000D0E552E7BEF28E050EE15C02E2E16AC5
:10108000E552E16EE552E5CFDAFFE7CFD9FF120076
:10109000D9CFE6FFDACFE6FFE1CFD9FFE2CFDAFF23
:1010A000E652E652F250E66EF29ED950FC0FE96E1F
:1010B000FF0EDA20EA6EEE50ED1005E1A8C500F053
:1010C000A9C501F006D0FC0EDBCF00F0FD0EDBCF92
:1010D00001F000C0DEFF01C0DDFFDECFE9FFDDCFA4
:1010E000EAFF020EE926000EEA22E9CF00F0EACF7D
:1010F00001F000C0E6FF01C0E6FFD9EC32F0E55296
:10110000E552000901E100D0DECFE9FFDDCFEAFFC3
:101110000E0EE926000EEA220A0EE926000EEA2249
:10112000EE50ED1015E0DECFE9FFDDCFEAFF0E0E49
:10113000E926000EEA22E9CF00F0EACF01F000C074
:10114000E6FF01C0E6FFD9EC32F0E552E55200D0EF
:10115000DECFE9FFDDCFEAFF020EE926000EEA222C
:10116000E9CF00F0EACF01F000C0E6FF01C0E6FFE2
:10117000510EE66E050EE66E63EC31F0E552E55277
:10118000E552E552DECFE9FFDDCFEAFF330EE92677
:10119000000EEA22EF0409E1DECFE9FFDDCFEAFF2E
:1011A000330EE926000EEA22EF6AE552E7BEF28E20
:1011B0000501B15109E0F250E66EF29E42EC14F0E6
:1011C000E552E7BEF28E00D0DECF00F0DDCF01F0B9
:1011D0000501A851001802E1A951011812E1050109
:1011E000B15103E0A9EC2EF00BD00501AB51050184
:1011F000515D04E10501A86BA96B02D078EC0EF0FB
:1012000000D0E552E552E552E5CFDAFFE7CFD9FF4E
:101210001200D9CFE6FFDACFE6FFE1CFD9FFE2CF68
:10122000DAFFE652E652E652DF6AFC0EDBCF12F03E
:10123000FD0EDBCF13F0DE5212C0DEFF13C0DDFF68
:10124000DD52010EDBCFE9FF020EDBCFEAFF020E1B
:10125000E926000EEA220A0EE926000EEA22EECF67
:1012600000F0EFCF01F0510E001802E1050E011859
:1012700002E1010E01D0000E000938E0010EDBCFC3
:10128000E9FF020EDBCFEAFF0E0EE926000EEA228E
:101290000A0EE926000EEA22EECF00F0EFCF01F0B1
:1012A0003B0E001802E1050E011802E1010E01D00B
:1012B000000E00091AE1010EDBCFE9FF020EDBCFC1
:1012C000EAFF0E0EE926000EEA220A0EE926000EBB
:1012D000EA22EE50ED1002E1010E01D0000E0009ED
:1012E00003E0010EDF6E00D000D000D0DF5000D050
:1012F000E552E552E552E552E5CFDAFFE7CFD9FFF7
:101300001200D9CFE6FFDACFE6FFE1CFD9FFE2CF77
:10131000DAFFE652E652FC0EDBCFDEFFDBCFDDFF6D
:10132000DECF00F0DDCF01F00501A851001802E189
:10133000A951011801E187D0D9CFE9FFDACFEAFF3F
:10134000EE50ED1001E17FD0F250E66EF29EDECF5E
:10135000E6FFDDCFE6FF5DDFE552E55200096FE015
:10136000DECFE9FFDDCFEAFF020EE926000EEA221A
:10137000E9CF00F0EACF01F000C0E6FF01C0E6FFD0
:10138000D9EC32F0E552E552DECFE9FFDDCFEAFFDE
:101390001A0EE926000EEA22EFCF00F00501B05147
:1013A000D88000540AE2DECFE9FFDDCFEAFF1A0E53
:1013B000E926000EEA22EFCFB0F5DECFE9FFDDCF60
:1013C000EAFF020EE926000EEA22E9CF00F0EACF9A
:1013D00001F000C0E6FF01C0E6FFDECFE9FFDDCF90
:1013E000EAFF1A0EE926000EEA22EF500B0DF3CFAA
:1013F00002F0F4CF03F0000E0226050E032202C015
:10140000E6FF03C0E6FF63EC31F0E552E552E5523A
:10141000E552DECFE9FFDDCFEAFF1A0EE926000E26
:10142000EA22EFCF00F0A8C5E9FFA9C5EAFF1A0E2E
:10143000EB50005C03E3A9EC2EF000D000D0E552A5
:10144000E7BEF28E00D0E552E552E552E5CFDAFF75
:10145000E7CFD9FF1200D9CFE6FFDACFE6FFE1CF21
:10146000D9FFE2CFDAFFE652E652E652E652DF6AF1
:10147000FC0EDBCF12F0FD0EDBCF13F0DE5212C0FC
:10148000DEFF13C0DDFFDD52030EDB6A010EDBCF92
:10149000E6FF020EDBCFE6FFBCDEE552E5520009B7
:1014A00001E19CD00501BC5101E07BD0010EDBCFF6
:1014B000E9FF020EDBCFEAFF1A0EE926000EEA2250
:1014C000EFCF00F0A8C5E9FFA9C5EAFF1A0EEB505F
:1014D000005C03E3010EDF6E00D0010EDBCFE9FFFD
:1014E000020EDBCFEAFF020EE926000EEA22E9CF68
:1014F00000F0EACF01F000C0E6FF01C0E6FFD9EC42
:1015000032F0E552E552010EDBCFE9FF020EDBCFF0
:10151000EAFF1A0EE926000EEA22EFCF00F00501DD
:10152000B051D88000540CE2010EDBCFE9FF020E6F
:10153000DBCFEAFF1A0EE926000EEA22EFCFB0F564
:10154000010EDBCFE9FF020EDBCFEAFF020EE92638
:10155000000EEA22E9CF00F0EACF01F000C0E6FF7A
:1015600001C0E6FF010EDBCFE9FF020EDBCFEAFF91
:101570001A0EE926000EEA22EF500B0DF3CF02F00F
:10158000F4CF03F0000E0226050E032202C0E6FF90
:1015900003C0E6FF63EC31F0E552E552E552E55257
:1015A0001CD0010EDBCFE9FF020EDBCFEAFF0E0EEF
:1015B000E926000EEA22E9CF00F0EACF01F000C0F0
:1015C000E6FF01C0E6FF3B0EE66E050EE66E63EC3D
:1015D00031F0E552E552E552E55200D0DF5000D03F
:1015E000006E040EE15C02E2E16AE552E16E005039
:1015F000E552E5CFDAFFE7CFD9FF1200D9CFE6FFFA
:10160000DACFE6FFE1CFD9FFE2CFDAFFE652BA0E3A
:10161000E66E050EE66EE66A000EE66EE66A800E7F
:10162000E66EE66A4A0EE66E730EE66E320EE66E01
:10163000250EE66E000EE66E30EC00F0006E0C0E2D
:10164000E15C02E2E16AE552E16E0050DF6EDF0428
:1016500014E1F29E0501B669B769B869B969050177
:10166000010EB16F0501AC6BAD6BAE6BAF6B37ECC0
:101670002EF0000901E000D000D0E552E552E5CFA0
:10168000DAFFE7CFD9FF1200F29E0501B16BA8EC9B
:101690002EF012000501BC2B1200D9CFE6FFDACFE5
:1016A000E6FFE1CFD9FFE2CFDAFFE652E652E6529B
:1016B000E652DE6ADD6A020EDB6AF250E66EF29EE8
:1016C0000501BC070501BC5101E0CAD00501AB51C1
:1016D000000801E3C4D005013B5102E1010E01D035
:1016E000000E000901E090D042C5E9FF43C5EAFFC2
:1016F000080EE926000EEA22EECFDEFFEDCFDDFF79
:10170000DECFE9FFDDCFEAFF0E0EE926000EEA226A
:10171000E9CF00F0EACF01F000C0E6FF01C0E6FF2C
:10172000D9EC32F0E552E552DECFE9FFDDCFEAFF3A
:10173000020EE926000EEA22E9CF00F0EACF01F01E
:1017400000C0E6FF01C0E6FFD9EC32F0E552E552F9
:10175000DECFE9FFDDCFEAFF1A0EE926000EEA220E
:10176000EFCF00F00501B051D88000540AE2DECF7F
:10177000E9FFDDCFEAFF1A0EE926000EEA22EFCFDD
:10178000B0F5DECFE9FFDDCFEAFF020EE926000E5D
:10179000EA22E9CF00F0EACF01F000C0E6FF01C085
:1017A000E6FFDECFE9FFDDCFEAFF1A0EE926000EE5
:1017B000EA22EF500B0DF3CF02F0F4CF03F0000E4E
:1017C0000226050E032202C0E6FF03C0E6FF63EC1B
:1017D00031F0E552E552E552E552DECFE9FFDDCFCB
:1017E000EAFF1A0EE926000EEA22EFCF00F0A8C5A4
:1017F000E9FFA9C5EAFF1A0EEB50005C04E30501FE
:10180000010EB36F00D067D7D9CFE9FFDACFEAFF77
:10181000EE50ED1002E042EC14F0030EB2C5DBFF17
:10182000030EDB50000810E2D3D8000904E00501E4
:10183000010EB36F00D0030EDB06030EDB50000871
:10184000F3E30501B26B00D00501B35108E0010ECE
:10185000F36E020EF3CFDBFFA9EC2EF000D000D028
:10186000E552E7BEF28E020EDB5000D0006E040E91
:10187000E15C02E2E16AE552E16E0050E552E5CF3B
:10188000DAFFE7CFD9FF1200D9CFE6FFDACFE6FFC4
:10189000E1CFD9FFE2CFDAFFE652E652E652E65256
:1018A000F250E66EF29EACC5DFFF010EADC5DBFF68
:1018B000020EAEC5DBFF030EAFC5DBFFE552E7BE90
:1018C000F28EDECF10F0DECF11F0DECF12F0DDCFE2
:1018D00013F0DD52DD5200D0040EE15C02E2E16A59
:1018E000E552E16EE552E5CFDAFFE7CFD9FF12000E
:1018F000D9CFE6FFDACFE6FFE1CFD9FFE2CFDAFFBB
:10190000E652E652E652E652E652040EDB6AACC5F7
:10191000DFFF010EADC5DBFF020EAEC5DBFF030E20
:10192000AFC5DBFFDECF10F0DECF11F0DECF12F05F
:10193000DDCF13F0DD52DD5200D0050EE15C02E296
:10194000E16AE552E16EE552E5CFDAFFE7CFD9FF74
:1019500012000501AB5100D01200D9CFE6FFDACF5B
:10196000E6FFE1CFD9FFE2CFDAFFE652E652D950E7
:10197000FC0FE96EFF0EDA20EA6EEE50ED1005E185
:10198000A8C500F0A9C501F006D0FC0EDBCF00F021
:10199000FD0EDBCF01F000C0DEFF01C0DDFFDECFBA
:1019A000E9FFDDCFEAFF1D0EE926000EEA22E9CFAE
:1019B00000F0EACF01F000C0F3FF01C0F4FF00D057
:1019C000E552E552E552E5CFDAFFE7CFD9FF120045
:1019D000D9CFE6FFDACFE6FFE1CFD9FFE2CFDAFFDA
:1019E0000D0EE12402E3E168E652E16E060EDB6AC9
:1019F0000501BC5101E060D1ACC500F0ADC501F0FE
:101A0000AEC502F0AFC503F0002A000E0122000EA1
:101A10000222000E0322070E00C0DBFF080E01C0E9
:101A2000DBFF090E02C0DBFF0A0E03C0DBFF070E5F
:101A3000DBCFACF5080EDBCFADF5090EDBCFAEF595
:101A40000A0EDBCFAFF5070EDBCF00F0080EDBCFC1
:101A500001F0090EDBCF02F00A0EDBCF03F00050DD
:101A600001100210031015E10B0E37C5DBFF0C0E41
:101A700038C5DBFF39C537F53AC538F50B0EDBCF76
:101A800039F50C0EDBCF3AF50501B42B42EC14F01E
:101A900000D0D950070FE96E000EDA20EA6E05017A
:101AA000B651EE5C0501B751EE580501B851EE583C
:101AB0000501B951EE5801E2FED037C5E9FF38C53E
:101AC000EAFFEF50000902E1010E01D0000E00090B
:101AD00007E00501B669B769B869B969ECD0EAD021
:101AE00037C5E9FF38C5EAFF030EE926000EEA22F2
:101AF000040EE926000EEA22EE50EFCFEAFFE96E6F
:101B0000080EE926000EEA22EECFDEFFEDCFDDFF64
:101B1000DECFE9FFDDCFEAFF020EE926000EEA2262
:101B2000020EEECFDBFF030EEECFDBFF040EEECF97
:101B3000DBFF050EEECFDBFF020EDBCF00F0030E66
:101B4000DBCF01F0040EDBCF02F0050EDBCF03F09C
:101B5000D950070FE96E000EDA20EA6E0050EE5CF5
:101B60000150EE580250EE580350EE580EE2020EAD
:101B7000DBCFB6F5030EDBCFB7F5040EDBCFB8F540
:101B8000050EDBCFB9F597D000D0DECFE9FFDDCF72
:101B9000EAFF020EE926000EEA22E9CF00F0EACFC2
:101BA00001F000C0E6FF01C0E6FFD9EC32F0E552DB
:101BB000E552DECFE9FFDDCFEAFF0E0EE926000E8B
:101BC000EA220A0EE926000EEA22EE50ED1015E098
:101BD000DECFE9FFDDCFEAFF0E0EE926000EEA2296
:101BE000E9CF00F0EACF01F000C0E6FF01C0E6FF58
:101BF000D9EC32F0E552E55200D0DECFE9FFDDCF7F
:101C0000EAFF1A0EE926000EEA22EFCF00F00501E6
:101C1000B051D88000540AE2DECFE9FFDDCFEAFF01
:101C20001A0EE926000EEA22EFCFB0F5DECFE9FF6B
:101C3000DDCFEAFF020EE926000EEA22E9CF00F02E
:101C4000EACF01F000C0E6FF01C0E6FFDECFE9FF0A
:101C5000DDCFEAFF1A0EE926000EEA22EF500B0D47
:101C6000F3CF02F0F4CF03F0000E0226050E03229C
:101C700002C0E6FF03C0E6FF63EC31F0E552E55237
:101C8000E552E552DECFE9FFDDCFEAFF1A0EE92685
:101C9000000EEA22EFCF00F0A8C5E9FFA9C5EAFFD0
:101CA0001A0EEB50005C06E3010EF36E060EF3CF46
:101CB000DBFF00D002D702D00501B22B0501B351E2
:101CC00006E0010EF36E060EF3CFDBFF00D0060E2A
:101CD000DB5000D0006E0D0EE15C02E2E16AE552DD
:101CE000E16E0050E552E5CFDAFFE7CFD9FF1200F1
:101CF000D9CFE6FFDACFE6FFE1CFD9FFE2CFDAFFB7
:101D0000E652E652E6520501BC5104E00501010E1F
:101D1000B36F97D00501B36BB0C5DFFFDF500B0D7C
:101D2000F3CFE9FFF4CFEAFF000EE926050EEA2221
:101D3000EF5002E1010E01D0000E000902E0DF06C3
:101D4000EDD7DF500B0DF3CF00F0F4CF01F0000E14
:101D50000026050E0122010E00C0DBFF020E01C0AD
:101D6000DBFF010EDBCFE9FF020EDBCFEAFFEE5215
:101D7000EE50EFCFEAFFE96E040EE926000EEA22EC
:101D8000EECF00F0EFCF01F0010EDBCFE9FF020E46
:101D9000DBCFEAFFEE5200C0EEFF01C0EDFF010E07
:101DA000DBCFE9FF020EDBCFEAFFEE52EECF00F011
:101DB000EFCF01F0010EDBCFE9FF020EDBCFEAFF30
:101DC000030EE926000EEA22E9CF02F0EACF03F083
:101DD0000250001802E1035001181EE1010EDBCF92
:101DE000E9FF020EDBCFEAFFEE52EE50EFCFEAFF43
:101DF000E96E040EE926000EEA22EECF00F0EFCFE6
:101E000001F0010EDBCFE9FF020EDBCFEAFFEE525D
:101E100000C0EEFF01C0EDFF010EDBCFE9FF020EB7
:101E2000DBCFEAFFEE52EE50EFCFEAFFE96E080E8D
:101E3000E926000EEA22EECFA8F5EDCFA9F5DFCF17
:101E4000B0F5E552E552E552E552E5CFDAFFE7CFCE
:101E5000D9FF1200D9CFE6FFDACFE6FFE1CFD9FFF5
:101E6000E2CFDAFFA8C5E9FFA9C5EAFF0E0EE92611
:101E7000000EEA22E9CF00F0EACF01F000C0E6FF51
:101E800001C0E6FFFC0EDBCFE6FFFD0EDBCFE6FF79
:101E9000E3EC31F0E552E552E552E552010EE66E13
:101EA000D950F80FE96EFF0EDA20EA6EEECFE6FFAA
:101EB000EECFE6FFEECFE6FFEFCFE6FFC2EC1AF083
:101EC000006E050EE15C02E2E16AE552E16E00504F
:101ED000E552E5CFDAFFE7CFD9FF1200D9CFE6FF11
:101EE000DACFE6FFE1CFD9FFE2CFDAFF006A016A7D
:101EF000026A800E036ED950F80FE96EFF0EDA20E9
:101F0000EA6EEE500012EE500112EE500212EE5048
:101F10000312A8C5E9FFA9C5EAFF0E0EE926000EC7
:101F2000EA2200C0EEFF01C0EEFF02C0EEFF03C0D8
:101F3000EEFFA8C5E9FFA9C5EAFF0E0EE926000ECF
:101F4000EA22E9CF00F0EACF01F000C0E6FF01C0CD
:101F5000E6FFFC0EDBCFE6FFFD0EDBCFE6FF63EC1A
:101F600031F0E552E552E552E552010EE66ED950E8
:101F7000F40FE96EFF0EDA20EA6EEECFE6FFEECF49
:101F8000E6FFEECFE6FFEFCFE6FFC2EC1AF0006E01
:101F9000050EE15C02E2E16AE552E16E0050E552B5
:101FA000E5CFDAFFE7CFD9FF1200D9CFE6FFDACFCE
:101FB000E6FFE1CFD9FFE2CFDAFFE652E652E65282
:101FC000FC0EDBCFE9FFFD0EDBCFEAFF030EE926B7
:101FD000000EEA22040EE926000EEA22EE50EFCFB0
:101FE000EAFFE96E080EE926000EEA22EECFDEFFD8
:101FF000EDCFDDFFDECFE9FFDDCFEAFF0E0EE926F4
:10200000000EEA22E9CF00F0EACF01F000C0E6FFBF
:1020100001C0E6FFD9EC32F0E552E5520501BC51B2
:102020005AE1DECFE9FFDDCFEAFF020EE926000E1E
:10203000EA22E9CF00F0EACF01F000C0E6FF01C0DC
:10204000E6FFD9EC32F0E552E552DECFE9FFDDCF15
:10205000EAFF1A0EE926000EEA22EFCF00F0050192
:10206000B051D88000540AE2DECFE9FFDDCFEAFFAD
:102070001A0EE926000EEA22EFCFB0F5DECFE9FF17
:10208000DDCFEAFF020EE926000EEA22E9CF00F0DA
:10209000EACF01F000C0E6FF01C0E6FFDECFE9FFB6
:1020A000DDCFEAFF1A0EE926000EEA22EF500B0DF3
:1020B000F3CF02F0F4CF03F0000E0226050E032248
:1020C00002C0E6FF03C0E6FF63EC31F0E552E552E3
:1020D000E552E5521AD0DECFE9FFDDCFEAFF0E0E62
:1020E000E926000EEA22E9CF00F0EACF01F000C0B5
:1020F000E6FF01C0E6FF3B0EE66E050EE66E63EC02
:1021000031F0E552E552E552E552DECFE9FFDDCF91
:10211000EAFF1A0EE926000EEA22EFCF00F0A8C56A
:10212000E9FFA9C5EAFF1A0EEB50D880005409E276
:10213000010EF36E020EF3CFDBFF0501010EB36F4C
:1021400002D0020EDB6A020EDB5000D0E552E552EF
:10215000E552E552E5CFDAFFE7CFD9FF1200D9CF3C
:10216000E6FFDACFE6FFE1CFD9FFE2CFDAFFE652B2
:10217000E652006A016A026A800E036ED950F80FB7
:10218000E96EFF0EDA20EA6EEE500012EE500112F8
:10219000EE500212EE500312FC0EDBCFE9FFFD0EF3
:1021A000DBCFEAFF00C0EEFF01C0EEFF02C0EEFF92
:1021B00003C0EEFFFC0EDBCFE9FFFD0EDBCFEAFF35
:1021C000080EE926000EEA22EECFDEFFEDCFDDFF9E
:1021D000FC0EDBCFE6FFFD0EDBCFE6FFD9EC32F0E5
:1021E000E552E552DECFE9FFDDCFEAFF020EE92638
:1021F000000EEA22E9CF00F0EACF01F000C0E6FFCE
:1022000001C0E6FFD9EC32F0E552E552DECFE9FF3E
:10221000DDCFEAFF1A0EE926000EEA22EFCF00F02A
:102220000501B051D88000540AE2DECFE9FFDDCFCE
:10223000EAFF1A0EE926000EEA22EFCFB0F5DECF54
:10224000E9FFDDCFEAFF020EE926000EEA22E9CF20
:1022500000F0EACF01F000C0E6FF01C0E6FFDECFEC
:10226000E9FFDDCFEAFF1A0EE926000EEA22EF5061
:102270000B0DF3CF02F0F4CF03F0000E0226050E93
:10228000032202C0E6FF03C0E6FF63EC31F0E55233
:10229000E552E552E552DECFE9FFDDCFEAFF1A0E47
:1022A000E926000EEA22EFCF00F0A8C5E9FFA9C594
:1022B000EAFF1A0EEB50D880005403E20501010E2C
:1022C000B36FE552E552E552E5CFDAFFE7CFD9FF2C
:1022D0001200D9CFE6FFDACFE6FFE1CFD9FFE2CF98
:1022E000DAFFF250E66EF29EFC0EDBCFE9FFFD0E48
:1022F000DBCFEAFFB4C5EFFFFC0EDBCFE9FFFD0E3D
:10230000DBCFEAFFEE52ACC5EEFFADC5EEFFAEC5CA
:10231000EEFFAFC5EEFFE552E7BEF28EE552E5CF28
:10232000DAFFE7CFD9FF1200D9CFE6FFDACFE6FF19
:10233000E1CFD9FFE2CFDAFFFC0EDBCFE9FFFD0EE4
:10234000DBCFEAFFB4C5EFFFFC0EDBCFE9FFFD0EEC
:10235000DBCFEAFFEE52ACC5EEFFADC5EEFFAEC57A
:10236000EEFFAFC5EEFFE552E5CFDAFFE7CFD9FFCD
:102370001200D9CFE6FFDACFE6FFE1CFD9FFE2CFF7
:10238000DAFF090EE12402E3E168E652E16EF25061
:10239000E66EF29E010EACC5DBFF020EADC5DBFFA3
:1023A000030EAEC5DBFF040EAFC5DBFF010EDBCFB6
:1023B00004F0020EDBCF05F0030EDBCF06F0040EB7
:1023C000DBCF07F0FC0EDBCFE9FFFD0EDBCFEAFF32
:1023D000EE52EE50045C006EEE500558016EEE5069
:1023E0000658026EEE500758036E050E00C0DBFF64
:1023F000060E01C0DBFF070E02C0DBFF080E03C0A4
:10240000DBFFFA0EDBCFE9FFFB0EDBCFEAFFE8686C
:10241000EE1808E1E868EE1805E1E868EE1802E158
:10242000E868EE1802E1DF6A6DD0FC0EDBCFE9FF51
:10243000FD0EDBCFEAFFEF500501B45D1FE0010E9A
:10244000DBCF00F0020EDBCF01F0030EDBCF02F09A
:10245000040EDBCF03F0FC0EDBCFE9FFFD0EDBCF7C
:10246000EAFFEE52EE50005CEE500158EE5002587A
:10247000EE50035803E3010EDF6E44D0050EDBCFB0
:1024800000F0060EDBCF01F0070EDBCF02F0080EE6
:10249000DBCF03F0FA0EDBCFE9FFFB0EDBCFEAFF69
:1024A000EE50005CEE500158EE500258EE500358CA
:1024B0001DE2FA0EDBCFE9FFFB0EDBCFEAFF050ED4
:1024C000DB50EE5E060EDB50EE5A070EDB50EE5A86
:1024D000080EDB50EE5AFC0EDBCFE6FFFD0EDBCF25
:1024E000E6FF22DFE552E552DF6A0CD0FA0EDBCFC1
:1024F000E9FFFB0EDBCFEAFFEE6AEE6AEE6AEE6AF8
:10250000010EDF6EE552E7BEF28EDF5000D0006EA6
:10251000090EE15C02E2E16AE552E16E0050E5522B
:10252000E5CFDAFFE7CFD9FF12000501010EB36F47
:102530001200D9CFE6FFDACFE6FFE1CFD9FFE2CF35
:10254000DAFF2ED905010051010803E2A9EC2EF0B3
:1025500000D0F7D7E552E5CFDAFFE7CFD9FF120079
:10256000D9CFE6FFDACFE6FFE1CFD9FFE2CFDAFF3E
:10257000E652E652FB0EDBCF00F0050EE76E0018C8
:10258000E8AE02D0E73402D0E750005C39E2D9501F
:10259000FC0FE96EFF0EDA20EA6EEE50ED1005E159
:1025A000A8C500F0A9C501F006D0FC0EDBCF00F0F5
:1025B000FD0EDBCF01F000C0DEFF01C0DDFFDECF8E
:1025C000E9FFDDCFEAFF250EE926000EEA22E9CF7A
:1025D00000F0EACF01F0FB0EDBCF02F0036A02BE8F
:1025E0000368D8900236033600500224E96E015089
:1025F0000320EA6EF90EDBCFEEFFFA0EDBCFEDFF24
:10260000E552E552E552E5CFDAFFE7CFD9FF1200F8
:10261000D9CFE6FFDACFE6FFE1CFD9FFE2CFDAFF8D
:10262000E652E652E652E652DE6ADD6AFB0EDBCF88
:1026300000F0050EE76E0018E8AE02D0E73402D0D5
:10264000E750005C3CE2D950FC0FE96EFF0EDA2047
:10265000EA6EEE50ED1005E1A8C500F0A9C501F045
:1026600006D0FC0EDBCF00F0FD0EDBCF01F0020E3A
:1026700000C0DBFF030E01C0DBFF020EDBCFE9FF72
:10268000030EDBCFEAFF250EE926000EEA22E9CF92
:1026900000F0EACF01F0FB0EDBCF02F0036A02BECE
:1026A0000368D8900236033600500224E96E0150C8
:1026B0000320EA6EEECFDEFFEDCFDDFF02D0DE6A53
:1026C000DD6ADECF00F0DDCF01F000C0F3FF01C016
:1026D000F4FF00D0040EE15C02E2E16AE552E16E33
:1026E000E552E5CFDAFFE7CFD9FF1200D9CFE6FFF9
:1026F000DACFE6FFE1CFD9FFE2CFDAFFE652DF6AB9
:10270000030EDF5C14E2DF500B0DF3CF00F0F4CFCB
:1027100001F0000E0026050E012200C0E6FF01C0F8
:10272000E6FFCFEC30F0E552E552DF2AE9D7210E83
:10273000E66E050EE66ECFEC30F0E552E5522C0E5B
:10274000E66E050EE66ECFEC30F0E552E5523B0E3C
:10275000E66E050EE66ECFEC30F0E552E552460E21
:10276000E66E050EE66ECFEC30F0E552E552510E06
:10277000E66E050EE66ECFEC30F0E552E55205014F
:10278000210E376F050E386F05012C0E396F050EBF
:102790003A6FE552E552E5CFDAFFE7CFD9FF1200F5
:1027A000D9CFE6FFDACFE6FFE1CFD9FFE2CFDAFFFC
:1027B000E652E6520501AA51000832E2F250E66EF6
:1027C000F29E4DC5E9FF4EC5EAFF080EE926000E50
:1027D000EA22EECFDEFFEDCFDDFFDECFE9FFDDCF7A
:1027E000EAFF020EE926000EEA22E9CF00F0EACF66
:1027F00001F000C0E6FF01C0E6FFD9EC32F0E5527F
:10280000E5520501AB070501AA07E552E7BEF28EC6
:10281000DECFE6FFDDCFE6FF0BD8E552E552CAD7A3
:10282000E552E552E552E5CFDAFFE7CFD9FF1200D6
:10283000D9CFE6FFDACFE6FFE1CFD9FFE2CFDAFF6B
:10284000FC0EDBCFE9FFFD0EDBCFEAFF1B0EE92616
:10285000000EEA22EECFE6FFEFCFE6FF58EC36F0AF
:10286000E552E552FC0EDBCFE6FFFD0EDBCFE6FFC7
:1028700058EC36F0E552E552E552E5CFDAFFE7CF06
:10288000D9FF1200D9CFE6FFDACFE6FFE1CFD9FFBB
:10289000E2CFDAFFE652E65237C5E9FF38C5EAFF74
:1028A000EF50000902E1010E01D0000E000906E020
:1028B0000501B669B769B869B96928D037C5E9FFB4
:1028C00038C5EAFF030EE926000EEA22040EE926C7
:1028D000000EEA22EE50EFCFEAFFE96E080EE9267D
:1028E000000EEA22EECFDEFFEDCFDDFFDECFE9FF07
:1028F000DDCFEAFF020EE926000EEA22EECFB6F5A2
:10290000EECFB7F5EECFB8F5EFCFB9F5E552E5521A
:10291000E552E5CFDAFFE7CFD9FF1200D9CFE6FFC6
:10292000DACFE6FFE1CFD9FFE2CFDAFFE652E65297
:10293000A8C5DEFFA9C5DDFFDECF00F0DDCF01F0C9
:1029400000C0F3FF01C0F4FF00D0E552E552E552AC
:10295000E5CFDAFFE7CFD9FF1200D9CFE6FFDACF14
:10296000E6FFE1CFD9FFE2CFDAFFE6520501B15130
:1029700003E1010EDF6E07D00501BC5103E1020E39
:10298000DF6E01D0DF6ADF5000D0E552E552E5CFBF
:10299000DAFFE7CFD9FF1200D9CFE6FFDACFE6FFA3
:1029A000E1CFD9FFE2CFDAFFE652E652E652E65235
:1029B000A8C5E9FFA9C5EAFF0E0EE926000EEA2226
:1029C000EECFDFFF010EEECFDBFF020EEECFDBFF1F
:1029D000030EEECFDBFF030E046E056A066A076A7C
:1029E000A8C5E9FFA9C5EAFF1A0EEB50086E096AEF
:1029F0000A6A0B6A0850045C006E09500558016EA3
:102A00000A500658026E0B500758036EA8C5E9FF1E
:102A1000A9C5EAFF0E0EE926000EEA2200C0EEFF6D
:102A200001C0EEFF02C0EEFF03C0EEFFDECF10F0EC
:102A3000DECF11F0DECF12F0DDCF13F0DD52DD522C
:102A400000D0040EE15C02E2E16AE552E16EE5527B
:102A5000E5CFDAFFE7CFD9FF1200D9CFE6FFDACF13
:102A6000E6FFE1CFD9FFE2CFDAFFE652E652E652C7
:102A7000E652F250E66EF29EA8C5E9FFA9C5EAFF4C
:102A80002F0EE926000EEA22EECF00F0EECF01F085
:102A9000EECF02F0EFCF03F0005001100210031050
:102AA00038E1A8C5E9FFA9C5EAFF330EE926000E03
:102AB000EA22010EEF6ED950F90FE96EFF0EDA200F
:102AC000EA6ED880000EEE54000EEE54000EEE5466
:102AD000000EEE541DE2010EE66ED950F90FE96EBC
:102AE000FF0EDA20EA6EEECFE6FFEECFE6FFEECF86
:102AF000E6FFEFCFE6FFC2EC1AF0006E050EE15CD8
:102B000002E2E16AE552E16E0050A9EC2EF000D03D
:102B100000D0E552E7BEF28EF250E66EF29EA8C5F6
:102B2000E9FFA9C5EAFF2F0EE926000EEA22EECF43
:102B3000DFFF010EEECFDBFF020EEECFDBFF030E59
:102B4000EECFDBFFD9CFE9FFDACFEAFFEECF00F01F
:102B5000EECF01F0EECF02F0EFCF03F00050011006
:102B60000210031034E0FD0EDB500DE0A8C5E9FFB4
:102B7000A9C5EAFF2F0EE926000EEA22EE6AEE6AE8
:102B8000EE6AEE6A23D0D9CFE9FFDACFEAFFEECFC3
:102B900000F0EECF01F0EECF02F0EFCF03F0000631
:102BA000000E015A000E025A000E035AA8C5E9FF92
:102BB000A9C5EAFF2F0EE926000EEA2200C0EEFFAB
:102BC00001C0EEFF02C0EEFF03C0EEFF00D0A8C5BB
:102BD000E9FFA9C5EAFF330EE926000EEA22EF6AF3
:102BE000E552E7BEF28EDECF10F0DECF11F0DECF81
:102BF00012F0DDCF13F0DD52DD5200D0040EE15CA7
:102C000002E2E16AE552E16EE552E5CFDAFFE7CF95
:102C1000D9FF1200D9CFE6FFDACFE6FFE1CFD9FF27
:102C2000E2CFDAFFE652F250E66EF29EA8C5E9FF67
:102C3000A9C5EAFF330EEB50020858E0FA0EDBCFCD
:102C400000F0FB0EDBCF01F0FC0EDBCF02F0FD0E3F
:102C5000DBCF03F0001E011E021E031EA8C5E9FF04
:102C6000A9C5EAFF2F0EE926000EEA220050EE1653
:102C70000150EE160250EE160350EE16A8C5E9FFFD
:102C8000A9C5EAFF330EE926000EEA22010EEF6E17
:102C9000D950F00FE96EFF0EDA20EA6ED880000EF0
:102CA000EE54000EEE54000EEE54000EEE541DE2F3
:102CB000010EE66ED950F00FE96EFF0EDA20EA6ED3
:102CC000EECFE6FFEECFE6FFEECFE6FFEFCFE6FF7B
:102CD000C2EC1AF0006E050EE15C02E2E16AE55218
:102CE000E16E0050A9EC2EF000D000D0E552E7BE16
:102CF000F28EF250E66EF29ED950F40FE96EFF0E9E
:102D0000DA20EA6EEE50ED101EE0A8C5E9FFA9C575
:102D1000EAFF2F0EE926000EEA22EECF00F0EECFFA
:102D200001F0EECF02F0EFCF03F0F40EDBCFE9FFBE
:102D3000F50EDBCFEAFF00C0EEFF01C0EEFF02C0E0
:102D4000EEFF03C0EEFFA8C5E9FFA9C5EAFF330EF9
:102D5000EB50020802E0DF6A22D0F60EDBCF00F073
:102D6000F70EDBCF01F0F80EDBCF02F0F90EDBCF70
:102D700003F0001E011E021E031EA8C5E9FFA9C51F
:102D8000EAFF2F0EE926000EEA220050EE1601504F
:102D9000EE160250EE160350EE16010EDF6EA8C5B9
:102DA000E9FFA9C5EAFF330EE926000EEA22EF6A21
:102DB000E552E7BEF28EDF5000D0E552E552E5CF96
:102DC000DAFFE7CFD9FF1200D9CFE6FFDACFE6FF6F
:102DD000E1CFD9FFE2CFDAFFE652E652E652E65201
:102DE000010EF36E020EF3CFDBFFFC0EDBCFDEFF36
:102DF000DBCFDDFFF250E66EF29ED950F50FE96EA3
:102E0000FF0EDA20EA6EEE50ED101EE0DECFE9FF95
:102E1000DDCFEAFF2F0EE926000EEA22EECF00F00A
:102E2000EECF01F0EECF02F0EFCF03F0F50EDBCFE7
:102E3000E9FFF60EDBCFEAFF00C0EEFF01C0EEFFB8
:102E400002C0EEFF03C0EEFFDECFE9FFDDCFEAFFF9
:102E5000330EE926000EEA22030EEFCFDBFFDECFB2
:102E6000E9FFDDCFEAFF330EE926000EEA22020E6B
:102E7000EF6EF70EDB505DE0040A3FE0070A28E042
:102E8000010A18E0030A01E055D0DECFE9FFDDCFEB
:102E9000EAFF2F0EE926000EEA22F80EDB50EE12B2
:102EA000F90EDB50EE12FA0EDB50EE12FB0EDB5089
:102EB000EE1241D0DECFE9FFDDCFEAFF2F0EE9268B
:102EC000000EEA22EE2A000EEE22EE22EE2233D08F
:102ED000DECFE9FFDDCFEAFF2F0EE926000EEA2262
:102EE000F80EDBCFEEFFF90EDBCFEEFFFA0EDBCFF5
:102EF000EEFFFB0EDBCFEEFF1ED0030EDB50020811
:102F000015E0DECFE9FFDDCFEAFF2F0EE926000E48
:102F1000EA22F80EDBCFEEFFF90EDBCFEEFFFA0E62
:102F2000DBCFEEFFFB0EDBCFEEFF02D0020EDB6A43
:102F300002D001D000D0030EDB0470E1DECFE9FF48
:102F4000DDCFEAFF020EE926000EEA22E9CF00F00B
:102F5000EACF01F000C0E6FF01C0E6FFD9EC32F095
:102F6000E552E552DECFE9FFDDCFEAFF1A0EE92692
:102F7000000EEA22EFCF00F00501B051D8800054D6
:102F80000AE2DECFE9FFDDCFEAFF1A0EE926000EE6
:102F9000EA22EFCFB0F5DECFE9FFDDCFEAFF020E88
:102FA000E926000EEA22E9CF00F0EACF01F000C0E6
:102FB000E6FF01C0E6FFDECFE9FFDDCFEAFF1A0E34
:102FC000E926000EEA22EF500B0DF3CF02F0F4CF0A
:102FD00003F0000E0226050E032202C0E6FF03C026
:102FE000E6FF63EC31F0E552E552E552E552DECF03
:102FF000E9FFDDCFEAFF1A0EE926000EEA22EFCF45
:1030000000F0A8C5E9FFA9C5EAFF1A0EEB50D88069
:10301000005403E2A9EC2EF000D000D0E552E7BE48
:10302000F28E020EDB5000D0006E040EE15C02E274
:10303000E16AE552E16E0050E552E5CFDAFFE7CFF5
:10304000D9FF1200D9CFE6FFDACFE6FFE1CFD9FFF3
:10305000E2CFDAFFE652E652E652E652E652010EBF
:10306000F36E030EF3CFDBFFFC0EDBCFDEFFDBCF17
:10307000DDFF040EDB6AD950F50FE96EFF0EDA2092
:10308000EA6EEE50ED101EE0DECFE9FFDDCFEAFF85
:103090002F0EE926000EEA22EECF00F0EECF01F06F
:1030A000EECF02F0EFCF03F0F50EDBCFE9FFF60E27
:1030B000DBCFEAFF00C0EEFF01C0EEFF02C0EEFF73
:1030C00003C0EEFFDECFE9FFDDCFEAFF330EE926D6
:1030D000000EEA22020EEFCFDBFFDECFE9FFDDCFED
:1030E000EAFF330EE926000EEA22020EEF6EF70E1B
:1030F000DB505DE0040A3FE0070A28E0010A18E01F
:10310000030A01E055D0DECFE9FFDDCFEAFF2F0E45
:10311000E926000EEA22F80EDB50EE12F90EDB5023
:10312000EE12FA0EDB50EE12FB0EDB50EE1241D027
:10313000DECFE9FFDDCFEAFF2F0EE926000EEA22FF
:10314000EE2A000EEE22EE22EE2233D0DECFE9FF91
:10315000DDCFEAFF2F0EE926000EEA22F80EDBCFC4
:10316000EEFFF90EDBCFEEFFFA0EDBCFEEFFFB0E2C
:10317000DBCFEEFF1ED0020EDB50020815E0DECFE3
:10318000E9FFDDCFEAFF2F0EE926000EEA22F80E56
:10319000DBCFEEFFF90EDBCFEEFFFA0EDBCFEEFF5B
:1031A000FB0EDBCFEEFF02D0030EDB6A02D001D0B4
:1031B00000D0020EDB0401E09FD00501BC515AE1B2
:1031C000DECFE9FFDDCFEAFF020EE926000EEA229C
:1031D000E9CF00F0EACF01F000C0E6FF01C0E6FF52
:1031E000D9EC32F0E552E552DECFE9FFDDCFEAFF60
:1031F0001A0EE926000EEA22EFCF00F00501B051C9
:10320000D88000540AE2DECFE9FFDDCFEAFF1A0ED4
:10321000E926000EEA22EFCFB0F5DECFE9FFDDCFE1
:10322000EAFF020EE926000EEA22E9CF00F0EACF1B
:1032300001F000C0E6FF01C0E6FFDECFE9FFDDCF11
:10324000EAFF1A0EE926000EEA22EF500B0DF3CF2B
:1032500002F0F4CF03F0000E0226050E032202C096
:10326000E6FF03C0E6FF63EC31F0E552E552E552BC
:10327000E5521AD0DECFE9FFDDCFEAFF0E0EE926D8
:10328000000EEA22E9CF00F0EACF01F000C0E6FF2D
:1032900001C0E6FF3B0EE66E050EE66E63EC31F014
:1032A000E552E552E552E552DECFE9FFDDCFEAFF18
:1032B0001A0EE926000EEA22EFCF00F0A8C5E9FFBA
:1032C000A9C5EAFF1A0EEB50D880005415E2D95078
:1032D000F30FE96EFF0EDA20EA6EEE50ED1008E013
:1032E000F30EDBCFE9FFF40EDBCFEAFF010EEF6E4A
:1032F0000501010EB36F00D0030EDB5000D0006E4D
:10330000050EE15C02E2E16AE552E16E0050E55231
:10331000E5CFDAFFE7CFD9FF1200D9CFE6FFDACF4A
:10332000E6FFE1CFD9FFE2CFDAFFE652E652E652FE
:10333000E652FC0EDBCFDEFFDBCFDDFF030EDB6AE8
:10334000DECFE9FFDDCFEAFF330EE926000EEA22E9
:10335000020EEFCFDBFFDECFE9FFDDCFEAFF330E5A
:10336000E926000EEA22020EEF6EDECFE9FFDDCF86
:10337000EAFF2F0EE926000EEA22EE2A000EEE22C8
:10338000EE22EE22020EDB0401E09FD00501BC51CB
:103390005AE1DECFE9FFDDCFEAFF020EE926000E9B
:1033A000EA22E9CF00F0EACF01F000C0E6FF01C059
:1033B000E6FFD9EC32F0E552E552DECFE9FFDDCF92
:1033C000EAFF1A0EE926000EEA22EFCF00F005010F
:1033D000B051D88000540AE2DECFE9FFDDCFEAFF2A
:1033E0001A0EE926000EEA22EFCFB0F5DECFE9FF94
:1033F000DDCFEAFF020EE926000EEA22E9CF00F057
:10340000EACF01F000C0E6FF01C0E6FFDECFE9FF32
:10341000DDCFEAFF1A0EE926000EEA22EF500B0D6F
:10342000F3CF02F0F4CF03F0000E0226050E0322C4
:1034300002C0E6FF03C0E6FF63EC31F0E552E5525F
:10344000E552E5521AD0DECFE9FFDDCFEAFF0E0EDE
:10345000E926000EEA22E9CF00F0EACF01F000C031
:10346000E6FF01C0E6FF3B0EE66E050EE66E63EC7E
:1034700031F0E552E552E552E552DECFE9FFDDCF0E
:10348000EAFF1A0EE926000EEA22EFCF00F0A8C5E7
:10349000E9FFA9C5EAFF1A0EEB50D880005415E2E7
:1034A000D950FA0FE96EFF0EDA20EA6EEE50ED10F9
:1034B00008E0FA0EDBCFE9FFFB0EDBCFEAFF010EDF
:1034C000EF6E0501010EB36F00D0040EE15C02E265
:1034D000E16AE552E16EE552E5CFDAFFE7CFD9FFC9
:1034E0001200D9CFE6FFDACFE6FFE1CFD9FFE2CF76
:1034F000DAFFE652E652E652D950FC0FE96EFF0EB3
:10350000DA20EA6EEE50ED1005E1A8C500F0A9C57D
:1035100001F006D0FC0EDBCF00F0FD0EDBCF01F09A
:1035200000C0DEFF01C0DDFFF250E66EF29EDECF8E
:10353000E9FFDDCFEAFF330EE926000EEA22EF5065
:1035400002080FE1DECFE9FFDDCFEAFF330EE92607
:10355000000EEA22EF6A010EF36E020EF3CFDBFFDC
:1035600002D0020EDB6AE552E7BEF28E020EDB509D
:1035700000D0E552E552E552E552E5CFDAFFE7CF5C
:10358000D9FF1200D9CFE6FFDACFE6FFE1CFD9FFAE
:10359000E2CFDAFF080EE12402E3E168E652E16ED1
:1035A000040EACC5DBFF050EADC5DBFF060EAEC5D8
:1035B000DBFF070EAFC5DBFFA8C5E9FFA9C5EAFF22
:1035C000020EE926000EEA22E9CF00F0EACF01F070
:1035D00000C0E6FF01C0E6FFD9EC32F0E552E5524B
:1035E000000901E100D0D950FA0FE96EFF0EDA2090
:1035F000EA6EE868EE1808E1E868EE1805E1E868A8
:10360000EE1802E1E868EE181EE1F90EDB501BE04F
:10361000A8C5E9FFA9C5EAFF020EE926000EEA22C5
:10362000E9CF00F0EACF01F000C0E6FF01C0E6FFFD
:10363000510EE66E050EE66E63EC31F0E552E55292
:10364000E552E552A3D0FA0EDBCF00F0FB0EDBCF44
:1036500001F0FC0EDBCF02F0FD0EDBCF03F0D95002
:10366000040FE96E000EDA20EA6EEE500026EE50EE
:103670000122EE500222EE50032200C0DFFF010EB5
:1036800001C0DBFF020E02C0DBFF030E03C0DBFF45
:10369000A8C5E9FFA9C5EAFF020EE926000EEA2245
:1036A000DFCFEEFF010EDBCFEEFF020EDBCFEEFF32
:1036B000030EDBCFEEFF040EDBCF00F0050EDBCFF9
:1036C00001F0060EDBCF02F0070EDBCF03F0D9CFFF
:1036D000E9FFDACFEAFF0050EE5C0150EE580250ED
:1036E000EE580350EE581BE2A8C5E9FFA9C5EAFF52
:1036F000020EE926000EEA22E9CF00F0EACF01F03F
:1037000000C0E6FF01C0E6FF39C5E6FF3AC5E6FFA7
:10371000E3EC31F0E552E552E552E55237D0A8C569
:10372000E9FFA9C5EAFF020EE926000EEA22E9CF69
:1037300000F0EACF01F000C0E6FF01C0E6FF37C5A8
:10374000E6FF38C5E6FFE3EC31F0E552E552E5521D
:10375000E552D9CFE9FFDACFEAFF0501B651EE5CB9
:103760000501B751EE580501B851EE580501B951A0
:10377000EE580CE2DFCFB6F5010EDBCFB7F5020E47
:10378000DBCFB8F5030EDBCFB9F500D0080EE15C56
:1037900002E2E16AE552E16EE552E5CFDAFFE7CFFA
:0437A000D9FF12003B
:0C37A400D9CFE6FFDACFE6FFE1CFD9FF76
:1037B000E2CFDAFFE652E652FC0EDBCFDEFFDBCFD4
:1037C000DDFFF250E66EF29EDECFE9FFDDCFEAFFCD
:1037D000200EE926000EEA22EFCF04F0DECFE9FF4B
:1037E000DDCFEAFF1F0EE926000EEA22EF500402A9
:1037F000F350026E036ADECFE9FFDDCFEAFF02502D
:10380000EE24006E0350EE20016EDECFE9FFDDCF27
:10381000EAFF040EE926000EEA2200C0EEFF01C016
:10382000EDFFDECFE9FFDDCFEAFF1E0EE926000E39
:10383000EA22EF6ADECFE9FFDDCFEAFFEECF00F04C
:10384000EFCF01F0DECFE9FFDDCFEAFF020EE92680
:10385000000EEA2200C0EEFF01C0EDFFDECFE9FF5F
:10386000DDCFEAFF200EE926000EEA22EFCF04F0BA
:10387000DECFE9FFDDCFEAFF1F0EE926000EEA22C8
:10388000EF040402F350026E036ADECFE9FFDDCFDE
:10389000EAFF0250EE24006E0350EE20016EDECFF0
:1038A000E9FFDDCFEAFF040EE926000EEA22020E50
:1038B000E926000EEA2200C0EEFF01C0EDFFDECFD8
:1038C000E9FFDDCFEAFF210EE926000EEA22EF68CC
:1038D000DECFE9FFDDCFEAFF220EE926000EEA2265
:1038E000EF68FB0EDB502AE1DECFE9FFDDCFEAFF18
:1038F000080EE926000EEA22EF5002E1010E01D087
:10390000000E00091AE1DECFE9FFDDCFEAFF080E65
:10391000E926000EEA22E9CF00F0EACF01F000C06C
:10392000E6FF01C0E6FFD5EC0FF0E552E5520009D5
:1039300003E0A9EC2EF000D000D028D0DECFE9FFC4
:10394000DDCFEAFF080EE926000EEA22E9CF00F0FB
:10395000EACF01F000C0E6FF01C0E6FFCFEC30F097
:10396000E552E552DECFE9FFDDCFEAFF130EE9268F
:10397000000EEA22E9CF00F0EACF01F000C0E6FF36
:1039800001C0E6FFCFEC30F0E552E552E552E7BE6C
:10399000F28E010E00D0E552E552E552E5CFDAFF96
:1039A000E7CFD9FF1200D9CFE6FFDACFE6FFE1CFAC
:1039B000D9FFE2CFDAFF060EE12402E3E168E65226
:1039C000E16EFC0EDB5005E1020EDB6A030EDB6AE2
:1039D00013D0FC0EDBCFE6FFFD0EDB50E552E70215
:1039E000F350E66ED950020FE96E000EDA20EA6E4F
:1039F000E552E750EE6EED6A020EDBCF00F0030EEB
:103A0000DBCF01F0230E0026000E012200C0E6FFEE
:103A100001C0E6FFEAEC35F0E552E552F3CFDEFFF8
:103A2000F4CFDDFFD9CFE9FFDACFEAFFEE50ED109A
:103A300031E0D9CFE9FFDACFEAFF040EEECFDBFFAA
:103A4000050EEDCFDBFFD950040FE96E000EDA2032
:103A5000EA6E230EEE26000EED22DECFE6FFDDCF6E
:103A6000E6FFFB0EDBCFE6FF040EDBCFE6FF050E25
:103A7000DBCFE6FFFC0EDBCFE6FFFD0EDBCFE6FF84
:103A80001ED8006E070EE15C02E2E16AE552E16ECB
:103A9000005000D0DECF00F0DDCF01F000C0F3FF1A
:103AA00001C0F4FF00D0060EE15C02E2E16AE552DB
:103AB000E16EE552E5CFDAFFE7CFD9FF1200D9CFAB
:103AC000E6FFDACFE6FFE1CFD9FFE2CFDAFFFC0E67
:103AD000DB500DE1F70EDBCFE9FFF80EDBCFEAFF9D
:103AE000F70EDBCFEEFFF80EDBCFEDFF0CD0F70EBD
:103AF000DBCFE9FFF80EDBCFEAFFFA0EDBCFEEFFFC
:103B0000FB0EDBCFEDFFF70EDBCFE9FFF80EDBCFCF
:103B1000EAFF1F0EE926000EEA22FD0EDBCFEFFFC3
:103B2000F70EDBCFE9FFF80EDBCFEAFF200EE92628
:103B3000000EEA22FC0EDBCFEFFF010EE66EF70E61
:103B4000DBCFE6FFF80EDBCFE6FF2CDEE552E552D9
:103B5000E552E552E5CFDAFFE7CFD9FF1200D9CF22
:103B6000E6FFDACFE6FFE1CFD9FFE2CFDAFFE65298
:103B7000E652020EE66EE66AFD0EDBCFE6FF13DFCD
:103B8000E552E552E552F3CFDEFFF4CFDDFFD9CFAA
:103B9000E9FFDACFEAFFEE50ED100CE0DECFE9FFEF
:103BA000DDCFEAFF1E0EE926000EEA22FC0EDBCF77
:103BB000EFFF00D0DECF00F0DDCF01F000C0F3FF5B
:103BC00001C0F4FF00D0E552E552E552E5CFDAFF3F
:103BD000E7CFD9FF1200D9CFE6FFDACFE6FFE1CF7A
:103BE000D9FFE2CFDAFF090EE12402E3E168E652F1
:103BF000E16EDF6AFC0EDBCF12F0FD0EDBCF13F0BF
:103C0000070E12C0DBFF080E13C0DBFFF250E66E9A
:103C1000F29E070EDBCFE9FF080EDBCFEAFF1E0E98
:103C2000E926000EEA22EFCF00F0070EDBCFE9FF16
:103C3000080EDBCFEAFF1F0EE926000EEA22EF5046
:103C4000005C04E3F50EDB50020856E1F50EDBCF15
:103C5000E6FFFA0EDBCFE6FFFB0EDBCFE6FF070E3B
:103C6000DBCFE6FF080EDBCFE6FF45EC27F0006E6A
:103C7000050EE15C02E2E16AE552E16E0050E76E9A
:103C8000010EE7CFDBFF070EDBCFE9FF080EDBCF2E
:103C9000EAFF130EE926000EEA22EF5002E1010EC0
:103CA00001D0000E00091CE1070EDBCFE9FF080E72
:103CB000DBCFEAFF130EE926000EEA22E9CF00F07F
:103CC000EACF01F000C0E6FF01C0E6FFD5EC0FF03F
:103CD000E552E552000903E0A9EC2EF000D006D031
:103CE000010EDB5003E0A9EC2EF000D0E552E7BE58
:103CF000F28E010ED9D026D0F60EDBCF00F0F70EF3
:103D0000DBCF01F0F80EDBCF02F0F90EDBCF03F0D2
:103D1000005001100210031006E1E552E7BEF28EDA
:103D2000000EC2D00FD0DF500DE1D950020FE66E69
:103D3000000EDA20E66E94EC11F0E552E552010E29
:103D4000DF6E00D0E552E7BEF28E4AEC0BF0F25087
:103D5000E66EF29E070EDBCFE9FF080EDBCFEAFF2F
:103D6000210EE926000EEA22EF50FF080BE1070EB4
:103D7000DBCFE9FF080EDBCFEAFF210EE926000EBC
:103D8000EA22EF6A070EDBCFE9FF080EDBCFEAFF7E
:103D9000220EE926000EEA22EF50FF080BE1070E83
:103DA000DBCFE9FF080EDBCFEAFF220EE926000E8B
:103DB000EA22EF6AE552E7BEF28ED950F60FE66EC0
:103DC000FF0EDA20E66ED950020FE66E000EDA2002
:103DD000E66EB9EC11F0E552E552E552E552000904
:103DE00054E1070EDBCFE6FF080EDBCFE6FF90ECD9
:103DF0002AF0E552E55200093BE0D950F60FE96E92
:103E0000FF0EDA20EA6EEECFE6FFEECFE6FFEECF52
:103E1000E6FFEFCFE6FF070EDBCFE9FF080EDBCFB3
:103E2000EAFF080EE926000EEA22E9CF00F0EACF09
:103E300001F000C0E6FF01C0E6FF2AEC0FF0026EC1
:103E4000060EE15C02E2E16AE552E16E0250070E05
:103E5000DBCFE6FF080EDBCFE6FF6DEC29F0E55285
:103E6000E5524DEC0BF0000902E1A9EC2EF00CD06C
:103E7000070EDBCFE6FF080EDBCFE6FF6DEC29F087
:103E8000E552E5524DEC0BF00ED0070EDBCFE6FF0E
:103E9000080EDBCFE6FF6DEC29F0E552E5524DEC64
:103EA0000BF0000E01D0B2D6006E090EE15C02E20A
:103EB000E16AE552E16E0050E552E5CFDAFFE7CF67
:103EC000D9FF1200D9CFE6FFDACFE6FFE1CFD9FF65
:103ED000E2CFDAFFE652E652E652E652E652FC0E36
:103EE000DBCF12F0FD0EDBCF13F0020E12C0DBFFB2
:103EF000030E13C0DBFF010EDB6A020EDBCFE9FF0E
:103F0000030EDBCFEAFF1E0EE926000EEA22EFCFFA
:103F100000F0020EDBCFE9FF030EDBCFEAFF1F0E3E
:103F2000E926000EEA22EF50005C05E3F70EDB50B5
:103F3000020801E07BD0020EDBCFE9FF030EDBCFEE
:103F4000EAFF220EE926000EEA22040EEFCFDBFF85
:103F5000F70EDBCFE6FFFA0EDBCFE6FFFB0EDBCF83
:103F6000E6FF020EDBCFE6FF030EDBCFE6FF45ECFC
:103F700027F0006E050EE15C02E2E16AE552E16EB7
:103F80000050040EDB50FF083EE1020EDBCFE9FFDC
:103F9000030EDBCFEAFF130EE926000EEA22EF50F4
:103FA00002E1010E01D0000E00092CE1020EDBCF70
:103FB000E9FF030EDBCFEAFF130EE926000EEA222B
:103FC000E9CF00F0EACF01F000C0E6FF01C0E6FF54
:103FD000D5EC0FF0E552E552000913E0D950F80F87
:103FE000E96EFF0EDA20EA6EEE50ED1009E0F80EF1
:103FF000DBCFE9FFF90EDBCFEAFF010EEF6E00D059
:1040000000D000D010D0040EDB28E66E020EDBCF0D
:10401000E9FF030EDBCFEAFF220EE926000EEA22BB
:10402000E552E750EF6E010EDF6E01D0DF6ADF5020
:1040300000D0006E050EE15C02E2E16AE552E16E3D
:104040000050E552E5CFDAFFE7CFD9FF1200D9CF14
:10405000E6FFDACFE6FFE1CFD9FFE2CFDAFF060EC7
:10406000E12402E3E168E652E16EFC0EDBCF12F0E0
:10407000FD0EDBCF13F0020E12C0DBFF030E13C0E8
:10408000DBFF010EDB6A020EDBCFE9FF030EDBCFA5
:10409000EAFF1E0EE926000EEA22040EEFCFDBFF38
:1040A000020EDBCFE9FF030EDBCFEAFF1F0EE9268E
:1040B000000EEA22EF50F36E040EDBCFF4FFF35054
:1040C000F45C72E2020EDBCFE9FF030EDBCFEAFF06
:1040D000220EE926000EEA22050EEFCFDBFF040ECA
:1040E000DB28E66E020EDBCFE9FF030EDBCFEAFF33
:1040F0001E0EE926000EEA22E552E750EF6E050E8D
:10410000DB50FF083EE1020EDBCFE9FF030EDBCF01
:10411000EAFF130EE926000EEA22EF5002E1010E3B
:1041200001D0000E00092CE1020EDBCFE9FF030EE7
:10413000DBCFEAFF130EE926000EEA22E9CF00F0FA
:10414000EACF01F000C0E6FF01C0E6FFD5EC0FF0BA
:10415000E552E552000913E0D950FA0FE96EFF0E5F
:10416000DA20EA6EEE50ED1009E0FA0EDBCFE9FF3F
:10417000FB0EDBCFEAFF010EEF6E00D000D000D0C7
:1041800010D0050EDB28E66E020EDBCFE9FF030E32
:10419000DBCFEAFF220EE926000EEA22E552E750C5
:1041A000EF6E010EDF6E01D0DF6ADF5000D0006ECF
:1041B000060EE15C02E2E16AE552E16E0050E55272
:1041C000E5CFDAFFE7CFD9FF1200D9CFE6FFDACF8C
:1041D000E6FFE1CFD9FFE2CFDAFF090EE12402E3E7
:1041E000E168E652E16EDF6AFC0EDBCF12F0FD0EF5
:1041F000DBCF13F0060E12C0DBFF070E13C0DBFF90
:10420000F250E66EF29E060EDBCFE9FF070EDBCF23
:10421000EAFF1E0EE926000EEA22080EEFCFDBFFB2
:10422000080EDB50000855E2FA0EDBCFE6FFFB0E6E
:10423000DBCFE6FF060EDBCFE6FF070EDBCFE6FFA8
:10424000BAEC28F0E552E552E552E552080EDB04DF
:10425000E66E060EDBCFE9FF070EDBCFEAFF1E0E90
:10426000E926000EEA22E552E750EF6E060EDBCF9C
:10427000E9FF070EDBCFEAFF080EE926000EEA226F
:10428000EF5002E1010E01D0000E00091CE1060E04
:10429000DBCFE9FF070EDBCFEAFF080EE926000EB1
:1042A000EA22E9CF00F0EACF01F000C0E6FF01C04A
:1042B000E6FFD5EC0FF0E552E552000903E0A9EC6A
:1042C0002EF000D000D0E552E7BEF28E010EE7D00E
:1042D00026D0F60EDBCF00F0F70EDBCF01F0F80EA4
:1042E000DBCF02F0F90EDBCF03F00050011002101B
:1042F000031006E1E552E7BEF28E000ED0D00FD0DB
:10430000DF500DE1D950010FE66E000EDA20E66EA7
:1043100094EC11F0E552E552010EDF6E00D0E5524B
:10432000E7BEF28E4AEC0BF0F250E66EF29E060EFD
:10433000DBCFE9FF070EDBCFEAFF210EE926000EF7
:10434000EA22EF50FF080BE1060EDBCFE9FF070E74
:10435000DBCFEAFF210EE926000EEA22EF6A060E05
:10436000DBCFE9FF070EDBCFEAFF220EE926000EC6
:10437000EA22EF50FF080BE1060EDBCFE9FF070E44
:10438000DBCFEAFF220EE926000EEA22EF6AE552B1
:10439000E7BEF28ED950F60FE66EFF0EDA20E66E1B
:1043A000D950010FE66E000EDA20E66EB9EC11F07E
:1043B000E552E552E552E552000955E1060EDBCF24
:1043C000E6FF070EDBCFE6FF36EC2AF0E552E552BA
:1043D00000093CE0D950F60FE96EFF0EDA20EA6ED4
:1043E000EECFE6FFEECFE6FFEECFE6FFEFCFE6FF44
:1043F000060EDBCFE9FF070EDBCFEAFF130EE9263F
:10440000000EEA22E9CF00F0EACF01F000C0E6FF9B
:1044100001C0E6FF2AEC0FF0026E060EE15C02E23C
:10442000E16AE552E16E0250060EDBCFE6FF070EB1
:10443000DBCFE6FF6DEC29F0E552E5524DEC0BF0D9
:10444000000903E1A9EC2EF000D00CD0060EDBCF62
:10445000E6FF070EDBCFE6FF6DEC29F0E552E552F3
:104460004DEC0BF01BD0060EDBCFE6FF070EDBCFCB
:10447000E6FF6DEC29F0E552E5524DEC0BF0060E2F
:10448000DBCFE6FF070EDBCFE6FF36EC2AF0E55286
:10449000E552000903E0000E02D000D0B1D6006E54
:1044A000090EE15C02E2E16AE552E16E0050E5527C
:1044B000E5CFDAFFE7CFD9FF1200D9CFE6FFDACF99
:1044C000E6FFE1CFD9FFE2CFDAFF090EE12402E3F4
:1044D000E168E652E16EDF6AFC0EDBCF12F0FD0E02
:1044E000DBCF13F0060E12C0DBFF070E13C0DBFF9D
:1044F000F250E66EF29E060EDBCFE9FF070EDBCF31
:10450000EAFF1E0EE926000EEA22080EEFCFDBFFBF
:10451000080EDB50000843E2080EDB04E66E060ED0
:10452000DBCFE9FF070EDBCFEAFF1E0EE926000E08
:10453000EA22E552E750EF6E060EDBCFE9FF070EE9
:10454000DBCFEAFF080EE926000EEA22EF5002E177
:10455000010E01D0000E00091CE1060EDBCFE9FFC1
:10456000070EDBCFEAFF080EE926000EEA22E9CFAC
:1045700000F0EACF01F000C0E6FF01C0E6FFD5EC95
:104580000FF0E552E552000903E0A9EC2EF000D04F
:1045900000D0E552E7BEF28E010EE7D026D0F80E2D
:1045A000DBCF00F0F90EDBCF01F0FA0EDBCF02F02B
:1045B000FB0EDBCF03F0005001100210031006E1E8
:1045C000E552E7BEF28E000ED0D00FD0DF500DE1E5
:1045D000D950010FE66E000EDA20E66E94EC11F071
:1045E000E552E552010EDF6E00D0E552E7BEF28ED5
:1045F0004AEC0BF0F250E66EF29E060EDBCFE9FFBE
:10460000070EDBCFEAFF210EE926000EEA22EF506B
:10461000FF080BE1060EDBCFE9FF070EDBCFEAFF59
:10462000210EE926000EEA22EF6A060EDBCFE9FF33
:10463000070EDBCFEAFF220EE926000EEA22EF503A
:10464000FF080BE1060EDBCFE9FF070EDBCFEAFF29
:10465000220EE926000EEA22EF6AE552E7BEF28E4C
:10466000D950F80FE66EFF0EDA20E66ED950010F32
:10467000E66E000EDA20E66EB9EC11F0E552E55276
:10468000E552E552000955E1060EDBCFE6FF070EC5
:10469000DBCFE6FF36EC2AF0E552E55200093CE0BC
:1046A000D950F80FE96EFF0EDA20EA6EEECFE6FF82
:1046B000EECFE6FFEECFE6FFEFCFE6FF060EDBCF55
:1046C000E9FF070EDBCFEAFF130EE926000EEA2210
:1046D000E9CF00F0EACF01F000C0E6FF01C0E6FF3D
:1046E0002AEC0FF0026E060EE15C02E2E16AE5528E
:1046F000E16E0250060EDBCFE6FF070EDBCFE6FFD2
:104700006DEC29F0E552E5524DEC0BF0000903E1A8
:10471000A9EC2EF000D00CD0060EDBCFE6FF070E82
:10472000DBCFE6FF6DEC29F0E552E5524DEC0BF0E6
:104730001BD0060EDBCFE6FF070EDBCFE6FF6DECEE
:1047400029F0E552E5524DEC0BF0060EDBCFE6FF0B
:10475000070EDBCFE6FF36EC2AF0E552E552000902
:1047600003E0000E02D000D0C3D6006E090EE15C5B
:1047700002E2E16AE552E16E0050E552E5CFDAFF70
:10478000E7CFD9FF1200D9CFE6FFDACFE6FFE1CFBE
:10479000D9FFE2CFDAFF0B0EE12402E3E168E65233
:1047A000E16EDF6AFC0EDBCF12F0FD0EDBCF13F003
:1047B000080E12C0DBFF090E13C0DBFFF250E66EDD
:1047C000F29E080EDBCFE9FF090EDBCFEAFF1E0EDB
:1047D000E926000EEA220A0EEFCFDBFF0A0EDB50BD
:1047E00000086DE2080EDBCFE9FF090EDBCFEAFF20
:1047F000040EE926000EEA22020EE926000EEA2245
:10480000060EEECFDBFF070EEDCFDBFFFA0EDBCFA0
:10481000E6FFFB0EDBCFE6FF080EDBCFE6FF090E5F
:10482000DBCFE6FFBAEC28F0E552E552E552E5525F
:10483000080EDBCFE9FF090EDBCFEAFF040EE92605
:10484000000EEA22020EE926000EEA22060EDBCF57
:10485000EEFF070EDBCFEDFF080EDBCFE9FF090E01
:10486000DBCFEAFF130EE926000EEA22EF5002E149
:10487000010E01D0000E00091CE1080EDBCFE9FF9C
:10488000090EDBCFEAFF130EE926000EEA22E9CF7C
:1048900000F0EACF01F000C0E6FF01C0E6FFD5EC72
:1048A0000FF0E552E552000903E0A9EC2EF000D02C
:1048B00000D0E552E7BEF28E010EE7D026D0F60E0C
:1048C000DBCF00F0F70EDBCF01F0F80EDBCF02F00C
:1048D000F90EDBCF03F0005001100210031006E1C7
:1048E000E552E7BEF28E000ED0D00FD0DF500DE1C2
:1048F000D950010FE66E000EDA20E66E94EC11F04E
:10490000E552E552010EDF6E00D0E552E7BEF28EB1
:104910004AEC0BF0F250E66EF29E080EDBCFE9FF98
:10492000090EDBCFEAFF210EE926000EEA22EF5046
:10493000FF080BE1080EDBCFE9FF090EDBCFEAFF32
:10494000210EE926000EEA22EF6A080EDBCFE9FF0E
:10495000090EDBCFEAFF220EE926000EEA22EF5015
:10496000FF080BE1080EDBCFE9FF090EDBCFEAFF02
:10497000220EE926000EEA22EF6AE552E7BEF28E29
:10498000D950F60FE66EFF0EDA20E66ED950010F11
:10499000E66E000EDA20E66EB9EC11F0E552E55253
:1049A000E552E552000955E1080EDBCFE6FF090E9E
:1049B000DBCFE6FF36EC2AF0E552E55200093CE099
:1049C000D950F60FE96EFF0EDA20EA6EEECFE6FF61
:1049D000EECFE6FFEECFE6FFEFCFE6FF080EDBCF30
:1049E000E9FF090EDBCFEAFF130EE926000EEA22EB
:1049F000E9CF00F0EACF01F000C0E6FF01C0E6FF1A
:104A00002AEC0FF0026E060EE15C02E2E16AE5526A
:104A1000E16E0250080EDBCFE6FF090EDBCFE6FFAA
:104A20006DEC29F0E552E5524DEC0BF0000903E185
:104A3000A9EC2EF000D00CD0080EDBCFE6FF090E5B
:104A4000DBCFE6FF6DEC29F0E552E5524DEC0BF0C3
:104A50001BD0080EDBCFE6FF090EDBCFE6FF6DECC7
:104A600029F0E552E5524DEC0BF0080EDBCFE6FFE6
:104A7000090EDBCFE6FF36EC2AF0E552E5520009DD
:104A800003E0000E02D000D099D6006E0B0EE15C60
:104A900002E2E16AE552E16E0050E552E5CFDAFF4D
:104AA000E7CFD9FF1200D9CFE6FFDACFE6FFE1CF9B
:104AB000D9FFE2CFDAFF060EE12402E3E168E65215
:104AC000E16EFC0EDBCF12F0FD0EDBCF13F0020E19
:104AD00012C0DBFF030E13C0DBFF010EDB6A020E08
:104AE000DBCFE9FF030EDBCFEAFF1E0EE926000E47
:104AF000EA22040EEFCFDBFF040EDB50000801E3D7
:104B000083D0020EDBCFE9FF030EDBCFEAFF210EDD
:104B1000E926000EEA22050EEFCFDBFFFA0EDBCF0F
:104B2000E6FFFB0EDBCFE6FF020EDBCFE6FF030E58
:104B3000DBCFE6FF1FDBE552E552E552E552040EFE
:104B4000DB04E66E020EDBCFE9FF030EDBCFEAFFEC
:104B50001E0EE926000EEA22E552E750EF6E050E22
:104B6000DB50FF083EE1020EDBCFE9FF030EDBCF97
:104B7000EAFF080EE926000EEA22EF5002E1010EDC
:104B800001D0000E00092CE1020EDBCFE9FF030E7D
:104B9000DBCFEAFF080EE926000EEA22E9CF00F09B
:104BA000EACF01F000C0E6FF01C0E6FFD5EC0FF050
:104BB000E552E552000913E0D950F80FE96EFF0EF7
:104BC000DA20EA6EEE50ED1009E0F80EDBCFE9FFD7
:104BD000F90EDBCFEAFF010EEF6E00D000D000D05F
:104BE00010D0050EDB28E66E020EDBCFE9FF030EC8
:104BF000DBCFEAFF210EE926000EEA22E552E7505C
:104C0000EF6E010EDF6E01D0DF6ADF5000D0006E64
:104C1000060EE15C02E2E16AE552E16E0050E55207
:104C2000E5CFDAFFE7CFD9FF1200D9CFE6FFDACF21
:104C3000E6FFE1CFD9FFE2CFDAFF060EE12402E37F
:104C4000E168E652E16EFC0EDBCF12F0FD0EDBCF29
:104C500013F0040E12C0DBFF050E13C0DBFF010EC4
:104C6000DB6A040EDBCFE9FF050EDBCFEAFF1E0E89
:104C7000E926000EEA22EF5000083CE2040EDBCFEA
:104C8000E9FF050EDBCFEAFF040EE926000EEA225B
:104C9000020EE926000EEA22020EEECFDBFF030E23
:104CA000EDCFDBFFFA0EDBCFE6FFFB0EDBCFE6FF3F
:104CB000040EDBCFE6FF050EDBCFE6FF5BDAE55245
:104CC000E552E552E552040EDBCFE9FF050EDBCFDE
:104CD000EAFF040EE926000EEA22020EE926000E83
:104CE000EA22020EDBCFEEFF030EDBCFEDFF010E5B
:104CF000DF6E01D0DF6ADF5000D0006E060EE15C8F
:104D000002E2E16AE552E16E0050E552E5CFDAFFDA
:104D1000E7CFD9FF1200D9CFE6FFDACFE6FFE1CF28
:104D2000D9FFE2CFDAFFE652F250E66EF29EFC0EB9
:104D3000DBCFE9FFFD0EDBCFEAFF1E0EE926000EFA
:104D4000EA22EFCFDFFFE552E7BEF28EDF5000D060
:104D5000E552E552E5CFDAFFE7CFD9FF1200D9CF10
:104D6000E6FFDACFE6FFE1CFD9FFE2CFDAFFE65286
:104D7000E652E652FC0EDBCF12F0FD0EDBCF13F055
:104D8000DE5212C0DEFF13C0DDFFDD52F250E66ED0
:104D9000F29E010EDBCFE9FF020EDBCFEAFF1F0E12
:104DA000E926000EEA22EFCF00F0010EDBCFE9FF8B
:104DB000020EDBCFEAFF1E0EE926000EEA22EF50BC
:104DC000005CDF6EE552E7BEF28EDF5000D0E552A8
:104DD000E552E552E552E5CFDAFFE7CFD9FF120001
:104DE000D9CFE6FFDACFE6FFE1CFD9FFE2CFDAFF96
:104DF000E652E652E652FC0EDBCF12F0FD0EDBCFA0
:104E000013F0DE5212C0DEFF13C0DDFFDD52010ED3
:104E1000DBCFE9FF020EDBCFEAFF1E0EE926000E14
:104E2000EA22EFCFDFFFDF5000D0E552E552E55236
:104E3000E552E5CFDAFFE7CFD9FF1200D9CFE6FF81
:104E4000DACFE6FFE1CFD9FFE2CFDAFFE652E65252
:104E5000FC0EDBCFDEFFDBCFDDFFDECFE6FFDDCFFD
:104E6000E6FFA2EC2BF0E552E552DECFE6FFDDCF08
:104E7000E6FF58EC36F0E552E552E552E552E552D0
:104E8000E5CFDAFFE7CFD9FF1200D9CFE6FFDACFBF
:104E9000E6FFE1CFD9FFE2CFDAFFE652E652DF6A62
:104EA000FC0EDBCFE9FFFD0EDBCFEAFF1E0EE9268D
:104EB000000EEA22010EEFCFDBFFFC0EDBCFE9FF95
:104EC000FD0EDBCFEAFF200EE926000EEA22EF50AE
:104ED00001E136D1F90EDB5001E086D0FC0EDBCFCC
:104EE000E9FFFD0EDBCFEAFF200EE926000EEA22E5
:104EF000EF50E66EE66AFA0EDBCFE6FFFB0EDBCF85
:104F0000E6FFFC0EDBCFE9FFFD0EDBCFEAFF020E72
:104F1000E926000EEA22EECFE6FFEFCFE6FF60ECD7
:104F200038F0006E060EE15C02E2E16AE552E16EE5
:104F30000050FC0EDBCFE9FFFD0EDBCFEAFF200EB9
:104F4000E926000EEA22EF50006E016AFC0EDBCF6C
:104F5000E9FFFD0EDBCFEAFF020EE926000EEA2292
:104F60000050EE260150ED22FC0EDBCFE9FFFD0ED6
:104F7000DBCFEAFF020EE926000EEA22EECF00F0B8
:104F8000EFCF01F0FC0EDBCFE9FFFD0EDBCFEAFF38
:104F9000040EE926000EEA22EECF02F0EECF03F077
:104FA000EECF04F0EFCF05F000010250005C03509B
:104FB000015819E3FC0EDBCFE9FFFD0EDBCFEAFF62
:104FC000EECF00F0EFCF01F0FC0EDBCFE9FFFD0EDE
:104FD000DBCFEAFF020EE926000EEA2200C0EEFF58
:104FE00001C0EDFF00D0ACD0FC0EDBCFE9FFFD0E21
:104FF000DBCFEAFF200EE926000EEA22EF50E66E34
:10500000E66AFA0EDBCFE6FFFB0EDBCFE6FFFC0E17
:10501000DBCFE9FFFD0EDBCFEAFF040EE926000E31
:10502000EA22020EE926000EEA22EECFE6FFEFCFDB
:10503000E6FF60EC38F0006E060EE15C02E2E16A29
:10504000E552E16E0050FC0EDBCFE9FFFD0EDBCF39
:10505000EAFF200EE926000EEA22EF50006E016AF8
:10506000FC0EDBCFE9FFFD0EDBCFEAFF040EE926E5
:10507000000EEA22020EE926000EEA220050EE5E41
:105080000150ED5AFC0EDBCFE9FFFD0EDBCFEAFF4E
:10509000040EE926000EEA22EECF00F0EECF01F07A
:1050A000EECF02F0EFCF03F0FC0EDBCFE9FFFD0EF9
:1050B000DBCFEAFFEECF04F0EFCF05F000010450A4
:1050C000025C0550035830E2FC0EDBCFE9FFFD0E19
:1050D000DBCFEAFF200EE926000EEA22EF50026E37
:1050E000036AFC0EDBCFE9FFFD0EDBCFEAFF040E07
:1050F000E926000EEA220250EE5C006E0350EE58E4
:10510000016EFC0EDBCFE9FFFD0EDBCFEAFF040EE4
:10511000E926000EEA22020EE926000EEA2200C06D
:10512000EEFF01C0EDFF00D0F90EDB50020808E1F0
:10513000010EDB50000803E2010EDB0600D000D0B8
:10514000010EDB28E66EFC0EDBCFE9FFFD0EDBCFA8
:10515000EAFF1E0EE926000EEA22E552E750EF6E46
:10516000DF5000D0E552E552E552E5CFDAFFE7CF58
:10517000D9FF1200D9CFE6FFDACFE6FFE1CFD9FFA2
:10518000E2CFDAFFFC0EDBCFE9FFFD0EDBCFEAFF5B
:10519000200EE926000EEA22EF5001E198D0FC0E25
:1051A000DBCFE9FFFD0EDBCFEAFF200EE926000E84
:1051B000EA22EF50006E016AFC0EDBCFE9FFFD0E24
:1051C000DBCFEAFF040EE926000EEA22020EE926F2
:1051D000000EEA220050EE260150ED22FC0EDBCF3D
:1051E000E9FFFD0EDBCFEAFF040EE926000EEA22FE
:1051F000EECF00F0EECF01F0EECF02F0EFCF03F0F4
:10520000FC0EDBCFE9FFFD0EDBCFEAFF040EE92643
:10521000000EEA22EECF04F0EECF05F0EECF06F05E
:10522000EFCF07F0000104500001025C00010550BF
:10523000000103581DE3FC0EDBCFE9FFFD0EDBCFC1
:10524000EAFFEECF00F0EFCF01F0FC0EDBCFE9FF7D
:10525000FD0EDBCFEAFF040EE926000EEA22020E65
:10526000E926000EEA2200C0EEFF01C0EDFF00D0EB
:10527000FC0EDBCFE9FFFD0EDBCFEAFF200EE926B7
:10528000000EEA22EF50E66EE66AFC0EDBCFE9FF85
:10529000FD0EDBCFEAFF040EE926000EEA22020E25
:1052A000E926000EEA22EECFE6FFEFCFE6FFFA0E88
:1052B000DBCFE6FFFB0EDBCFE6FF60EC38F0006EE5
:1052C000060EE15C02E2E16AE552E16E0050E55251
:1052D000E5CFDAFFE7CFD9FF1200D9CFE6FFDACF6B
:1052E000E6FFE1CFD9FFE2CFDAFFE652E652F25015
:1052F000E66EF29EFC0EDBCFE9FFFD0EDBCFEAFF90
:10530000220EE926000EEA22EFCFDFFFDFCF00F00A
:10531000000EE76E0018E8AE02D0003403D0E7506C
:10532000D880005430E2FC0EDBCFE9FFFD0EDBCF6E
:10533000EAFF130EE926000EEA22EF5002E1010E09
:1053400001D0000E00091CE1FC0EDBCFE9FFFD0ED1
:10535000DBCFEAFF130EE926000EEA22E9CF00F0C8
:10536000EACF01F000C0E6FF01C0E6FFD5EC0FF088
:10537000E552E552000903E095EC12F000D001D0AF
:1053800002D0DF06C3D7FC0EDBCFE9FFFD0EDBCF7B
:10539000EAFF220EE926000EEA22EF68E552E7BE98
:1053A000F28EF250E66EF29EFC0EDBCFE9FFFD0EB0
:1053B000DBCFEAFF210EE926000EEA22010EEFCF35
:1053C000DBFF010EDBCF00F0000EE76E0018E8AE49
:1053D00002D0003403D0E750D880005431E2FC0EF4
:1053E000DBCFE9FFFD0EDBCFEAFF080EE926000E5A
:1053F000EA22EF5002E1010E01D0000E00091EE189
:10540000FC0EDBCFE9FFFD0EDBCFEAFF080EE9263D
:10541000000EEA22E9CF00F0EACF01F000C0E6FF7B
:1054200001C0E6FFD5EC0FF0E552E552000903E0BC
:1054300095EC12F000D0010EDB0601D001D0C1D7EF
:10544000FC0EDBCFE9FFFD0EDBCFEAFF210EE926E4
:10545000000EEA22EF68E552E7BEF28EE552E55211
:10546000E552E5CFDAFFE7CFD9FF1200D9CFE6FF4B
:10547000DACFE6FFE1CFD9FFE2CFDAFFE652F25012
:10548000E66EF29EFC0EDBCFE9FFFD0EDBCFEAFFFE
:105490001E0EE926000EEA22EF5003E1010EDF6E38
:1054A00001D0DF6AE552E7BEF28EDF5000D0E55250
:1054B000E552E5CFDAFFE7CFD9FF1200D9CFE6FFFB
:1054C000DACFE6FFE1CFD9FFE2CFDAFFE652E652CC
:1054D000E652FC0EDBCF12F0FD0EDBCF13F0DE52F6
:1054E00012C0DEFF13C0DDFFDD52010EDBCFE9FF8E
:1054F000020EDBCFEAFF1E0EE926000EEA22EF5075
:1055000003E1010EDF6E01D0DF6ADF5000D0E5520B
:10551000E552E552E552E5CFDAFFE7CFD9FF1200B9
:10552000D9CFE6FFDACFE6FFE1CFD9FFE2CFDAFF4E
:10553000E652F250E66EF29EFC0EDBCFE9FFFD0E66
:10554000DBCFEAFF1E0EE926000EEA22EFCF00F0C5
:10555000FC0EDBCFE9FFFD0EDBCFEAFF1F0EE926D5
:10556000000EEA22EF50005C03E1010EDF6E01D075
:10557000DF6AE552E7BEF28EDF5000D0E552E55219
:10558000E5CFDAFFE7CFD9FF1200D9CFE6FFDACFB8
:10559000E6FFE1CFD9FFE2CFDAFFE652E652E6526C
:1055A000FC0EDBCF12F0FD0EDBCF13F0DE5212C08B
:1055B000DEFF13C0DDFFDD52010EDBCFE9FF020E7F
:1055C000DBCFEAFF1E0EE926000EEA22EFCF00F045
:1055D000010EDBCFE9FF020EDBCFEAFF1F0EE9264B
:1055E000000EEA22EF50005C03E1010EDF6E01D0F5
:1055F000DF6ADF5000D0E552E552E552E552E5CFD3
:10560000DAFFE7CFD9FF1200D9CFE6FFDACFE6FF06
:10561000E1CFD9FFE2CFDAFFE652DF6A0A0EDF5CA4
:1056200035E2DF50040DF3CFE9FFF4CFEAFF5C0E63
:10563000E926050EEA22EE50ED1026E1DF50040DBA
:10564000F3CFE9FFF4CFEAFF5C0EE926050EEA226C
:10565000FA0EDBCFEEFFFB0EDBCFEDFFDF50040DCC
:10566000F3CFE9FFF4CFEAFF5C0EE926050EEA224C
:10567000020EE926000EEA22FC0EDBCFEEFFFD0E45
:10568000DBCFEDFF03D000D0DF2AC8D7E552E552CB
:10569000E5CFDAFFE7CFD9FF1200D9CFE6FFDACFA7
:1056A000E6FFE1CFD9FFE2CFDAFFE652E652E6525B
:1056B000010EDB6A020EDB6ADF6A0A0EDF5C2EE295
:1056C000DF50040DF3CFE9FFF4CFEAFF5C0EE926CB
:1056D000050EEA22020EE926000EEA22EECF00F0C5
:1056E000EFCF01F0FC0EDB50001803E1FD0EDB50A4
:1056F000011812E1DF50040DF3CFE9FFF4CFEAFF08
:105700005C0EE926050EEA22010EEECFDBFF020E4B
:10571000EDCFDBFF03D000D0DF2ACFD7010EDBCFE8
:1057200000F0020EDBCF01F000C0F3FF01C0F4FF78
:1057300000D0E552E552E552E552E5CFDAFFE7CF7A
:10574000D9FF1200D9CFE6FFDACFE6FFE1CFD9FFCC
:10575000E2CFDAFFE652DF6A0A0EDF5C3AE2DF50A0
:10576000040DF3CFE9FFF4CFEAFF5C0EE926050E46
:10577000EA22020EE926000EEA22EECF00F0EFCF79
:1057800001F0FC0EDB50001803E1FD0EDB500118A8
:105790001EE1DF50040DF3CFE9FFF4CFEAFF5C0E0A
:1057A000E926050EEA22EE6AED6ADF50040DF3CF1A
:1057B000E9FFF4CFEAFF5C0EE926050EEA22020EAD
:1057C000E926000EEA22EE6AED6A03D000D0DF2A55
:1057D000C3D7E552E552E5CFDAFFE7CFD9FF120094
:1057E000D9CFE6FFDACFE6FFE1CFD9FFE2CFDAFF8C
:1057F000E652E652E652E652E652FC0EDBCFE9FFF5
:10580000FD0EDBCFEAFF110EEF6EFC0EDB2AFD0E64
:1058100001E3DB2AFC0EDBCFE9FFFD0EDBCFEAFF65
:10582000220EEF6EFC0EDB2AFD0E01E3DB2AFC0EDE
:10583000DBCFE9FFFD0EDBCFEAFF330EEF6EFC0E90
:10584000DB2AFD0E01E3DB2AF70EDBCF00F0F80EBA
:10585000DBCF01F0000E00C0DBFF010E01C0DBFF5B
:10586000020EDB6A030EDB6AD9CFE9FFDACFEAFF6B
:10587000EECF00F0EECF01F0EECF02F0EFCF03F06D
:105880000050E66EFC0EDBCFE9FFFD0EDBCFEAFF3A
:10589000E552E750EF6EFC0EDB2AFD0E01E3DB2A3A
:1058A000D9CFE9FFDACFEAFF080EE76ED890030EF2
:1058B000EB32020EEB32010EEB32EF32E706F6E18D
:1058C000D9CFE9FFDACFEAFFEECF00F0EECF01F05B
:1058D000EECF02F0EFCF03F00050E66EFC0EDBCF10
:1058E000E9FFFD0EDBCFEAFFE552E750EF6EFC0E5D
:1058F000DB2AFD0E01E3DB2AFC0EDBCFE9FFFD0E08
:10590000DBCFEAFF440EEF6EFC0EDB2AFD0E01E357
:10591000DB2AFC0EDBCFE9FFFD0EDBCFEAFF660ED4
:10592000EF6EFC0EDB2AFD0E01E3DB2AFC0EDBCF63
:10593000E9FFFD0EDBCFEAFFCC0EEF6EFC0EDB2A9B
:10594000FD0E01E3DB2AFC0EDBCFE9FFFD0EDBCF12
:10595000EAFFC00EEF6EFC0EDB2AFD0E01E3DB2A30
:10596000FC0EDBCFE9FFFD0EDBCFEAFF110EEF6E81
:10597000FC0EDB2AFD0E01E3DB2AFC0EDBCFE9FF88
:10598000FD0EDBCFEAFF220EEF6EFC0EDB2AFD0ED2
:1059900001E3DB2AFC0EDBCFE9FFFD0EDBCFEAFFE4
:1059A000330EEF6EFC0EDB2AFD0E01E3DB2AFC0E4C
:1059B000DBCFE9FFFD0EDBCFEAFF440EEF6EFC0EFE
:1059C000DB2AFD0E01E3DB2AFC0EDBCFE9FFFD0E37
:1059D000DBCFEAFF550EEF6EFC0EDB2AFD0E01E376
:1059E000DB2AFC0EDBCFE9FFFD0EDBCFEAFF660E04
:1059F000EF6EFC0EDB2AFD0E01E3DB2AFC0EDBCF93
:105A0000E9FFFD0EDBCFEAFFEF6AFC0EDB2AFD0E9D
:105A100001E3DB2AFC0EDBCFE9FFFD0EDBCFEAFF63
:105A2000880EEF6EFC0EDB2AFD0E01E3DB2AFC0E76
:105A3000DBCFE9FFFD0EDBCFEAFF990EEF6EFC0E28
:105A4000DB2AFD0E01E3DB2AFC0EDBCFE9FFFD0EB6
:105A5000DBCFEAFFAA0EEF6EFC0EDB2AFD0E01E3A0
:105A6000DB2AFC0EDBCFE9FFFD0EDBCFEAFFBB0E2E
:105A7000EF6EFC0EDB2AFD0E01E3DB2AFC0EDBCF12
:105A8000E9FFFD0EDBCFEAFFEF6AFC0EDB2AFD0E1D
:105A900001E3DB2AFC0EDBCFE9FFFD0EDBCFEAFFE3
:105AA000EF6AFC0EDB2AFD0E01E3DB2A040EDB6A43
:105AB000040EDB50130815E3FC0EDBCFE9FFFD0EEF
:105AC000DBCFEAFF040EDBCFEFFFFC0EDBCFE9FFFD
