:020000040000FA
:0600000019EF0EF01200E2
:06003A000100961C00000D
:08004000F60000000F000000B3
:0800480060EC05F0FB0EDBCFBC
:10005000F3FFDB06F35000090AE0AEEC05F0FA0E00
:1000600019EC06F0F3E1151CF1E1010E01D0000ED0
:100070008FEF05F060EC05F03B0EE12402E3E16850
:10008000E652E16E010EDB6A020EDB6AF90EDBCF8F
:10009000F6FFFA0EDBCFF7FFFB0EDBCFF8FF080011
:1000A000F550DF6EDF5002E1B3EF04F0250EDF5CA8
:1000B00002E0A6EF04F0030EDB6A040EDB6A050E15
:1000C000DB6A060EDB6A070EDB6AC8EC04F02D0E55
:1000D000DF5C0CE02B0EDF5C09E0200EDF5C06E04D
:1000E000230EDF5C03E0300EDF5C1AE1DF50300AE4
:1000F00014E0130A0FE0030A0AE00B0A05E0060AFF
:10010000E4E1030EDB80E1D7030EDB82DED7030ED2
:10011000DB84DBD7030EDB86D8D7030EDB88D5D78D
:100120002A0EDF5C1BE1C4EC04F012EC05F010E0D9
:10013000030EDB8006680768130EDBCF0BF0140E8E
:10014000DBCF0CF01BEC0CF0040E04C0DBFF03D083
:10015000130EFBEC04F0C8EC04F00BD0090EDB6AC4
:1001600069EC05F003E0DDEC05F0FAD7090EFBECD5
:1001700004F0030EDBB0DB982E0EDF5C1BE1C8EC55
:1001800004F02A0EDF5C0BE1C4EC04F012EC05F085
:1001900003E1130E4DEC05F0C8EC04F00BD0090E92
:1001A000DB6A69EC05F003E0DDEC05F0FAD7090E37
:1001B0004DEC05F0680EDF5C07E1C8EC04F0680E5A
:1001C000DF5C1DE1030E18D0740EDF5C17E07A0EC1
:1001D000DF5C14E0480EDF5C06E0540EDF5C03E0F9
:1001E0005A0EDF5C02E1020E07D06C0EDF5C03E00A
:1001F0006A0EDF5C04E1010EA0EC05F0C9DBDF5004
:100200006E0A01E17FD31E0A01E192D1200A01E1C9
:100210008FD13F0A01E149D11A0A01E146D10D0A05
:1002200001E143D1200A01E140D13A0A01E13DD187
:10023000200A01E13AD1260A01E135D10D0A01E196
:1002400032D11A0A01E1D9D0200A4AE0300A1FE06F
:10025000460A0EE0250A01E083D3D950F90FE96E72
:10026000FF0EDA20EA6E010EEE5E000EEE5AEE5A36
:10027000AEEC05F0250EE66E95DB03E1151C01E101
:1002800069D3AAEC05F001E26BD3DB2A69D3080E2F
:10029000DB6A040EDB50010806E2040EDB0472EC9C
:1002A00005F0DB508BDB080EDB5009E0030EDB5062
:1002B000010B05E172DB01E04DD3080EDB6A64DB64
:1002C000EFCFDFFF22EC06F003E1151C01E142D382
:1002D000AAEC05F001E3DB2A60DB01E141D33AD36C
:1002E000070EDB5002080FE1EEEC05F0030EB5EC53
:1002F00005F00E0EEECFDBFF0F0EEECFDBFF100E84
:10030000EECFDBFF20D0F70EDBCF17F0F80EDBCF00
:1003100018F0020E175E000E185AF70E17C0DBFF1A
:10032000F80E18C0DBFF17C0E9FF18C0EAFFA5EC04
:1003300005F0166A0E0E14C0DBFF0F0E15C0DBFFB2
:10034000100E16C0DBFF0E0EDBCFE6FF0F0EDBCF6D
:10035000E6FF100EDBCFE6FF75EC0DF0E552E5523F
:10036000E552130E05C0DBFF140E06C0DBFF060EC0
:10037000DB5005E0130EE9EC05F001E26ADB0DEC61
:1003800006F002E2130E37DBD0EC05F006E0040EB7
:10039000E9EC05F002E2050E2EDB030EDBB005D022
:1003A000FCDA01E0D7D2080EDB6A090EDB6A0E0E1A
:1003B000DBCFF6FF0F0EDBCFF7FF100EDBCFF8FF22
:1003C0000800F550DF6EDF5014E013EC06F011E288
:1003D00022EC06F003E1151C01E1BCD2BBDB01E31A
:1003E000DB2A090EDB2AD9500E0FE96E000ECBDB9B
:1003F000E7D7D3DA01E1B4D2ADD2C6DA110EEECF2F
:10040000DBFF120EEDCFDBFF110EDBCFE6FF120E8E
:10041000DBCFE6FF67EC0DF0E552E552130EF3CFAC
:10042000DBFF140EF4CFDBFF060EDB5004E0130EEF
:10043000D0DB01E20EDB0DEC06F002E2130EDBDA9C
:10044000AFDB05E0040EC5DB02E2050ED4DA030ED5
:10045000DBB005D0A2DA01E07DD2080EDB6A090E1E
:10046000DB6A110EDBCFE9FF120EDBCFEAFFEFCF25
:10047000DFFFDF5014E0D7DB12E2E4DB03E1151C01
:1004800001E168D267DB01E3DB2A090EDB2A110EEA
:10049000DB2ADBCFE9FF120EE8E3DB2AE6D77DDAC1
:1004A00001E15ED257D2030EDB8E070EDB0410E1B2
:1004B00095DB040E5ADB0A0EEECFDBFF0B0EEECF00
:1004C000DBFF0C0EEECFDBFF0D0EEECFDBFF6CD0B3
:1004D000070EDB5003082CE1030EDBAE0DD0B2DAC1
:1004E000020E76DAEFCF14F0156A166A176A14AEA8
:1004F00039D01568166835D0F70EDBCF15F0F80E39
:10050000DBCF16F0020E155E000E165AF70E15C060
:10051000DBFFF80E16C0DBFF15C0E9FF16C0EAFFCF
:10052000EFCF14F00A0E14C0DBFF0B0EDB6A38D0DD
:10053000070EDB50020809E1030EDBAE04D059DBE5
:1005400016AE10D00ED055DB0DD0030EDBAE12D0A0
:1005500079DA020E3DDAF9DA166A176A15AE02D0B8
:1005600016681768E2DA0C0E16C0DBFF0D0E17C016
:10057000DBFF1AD0F70EDBCF16F0F80EDBCF17F04B
:10058000020E165E000E175AF70E16C0DBFFF80EAD
:1005900017C0DBFF16C0E9FF17C0EAFFD6DAC5DADD
:1005A0000C0EDB6A0D0EDB6A060EDB5005E1010E58
:1005B000F36E050EF3CFDBFF150EDB6A160EDB6A5A
:1005C000D950370F146E000EDA20156E390E14C094
:1005D000DBFF3A0E15C0DBFF380EDB6A080EDB6A64
:1005E0000A0EAEDADF50780A12E0200A10E0280A7C
:1005F0000CE0200A0AE03F0A06E00D0A02E0200AA9
:1006000008E1020E05D0080E03D0080EDF26100EFA
:1006100097DA030EDBBE02D0DB92DB94DB50800B5B
:1006200024E08ADAD890030EEB50000A08E6000EA8
:10063000EE5C000EEE58000EEE58000EEE5815E27D
:1006400013DA09680A680B680C682FEC0DF00A0EC3
:1006500000C0DBFF0B0E01C0DBFF0C0E02C0DBFF96
:100660000D0E03C0DBFF2D0E08D0030EDBA202D05F
:100670002B0E03D0DBA408D0200EF36E170EF3CFA1
:10068000DBFF150EDB2A02D0170EDB6A050EDB50EE
:1006900003E1B7D901E189D0800E146E1C0E156EEE
:1006A000000E166E070EDBCF17F0186A196A1A6A69
:1006B00017C009F018C00AF019C00BF01AC00CF0EE
:1006C000D3D99AEC0DF014500024F36E155001208C
:1006D000F46E16500220F86EF4CFF7FFF3CFF6FF5A
:1006E0000800090EF5CFDBFF580EDF5C0FE1610E4D
:1006F000F36E090E7BD90AE3200E146E090EDBCFD0
:10070000E7FF1450E75E090EE7CFDBFF070EDBCFF4
:1007100014F0156A166A176A0FDA14C009F015C0CA
:100720000AF016C00BF017C00CF0EECF04F0EECFBD
:1007300005F0EECF06F0EFCF07F09AEC0DF007C012
:10074000EDFF06C0EDFF05C0EDFF04C0EFFF390E61
:10075000DBCFE9FFDB063A0EDBCFEAFF01E2DB0687
:10076000090EDBCFEFFF150EDB2A4BD995E1030E07
:10077000DBA61DD06F0EDF5C06E1C1D918E3150EB4
:10078000DB285BDA14D0780EDF5C09E0580EDF5C02
:1007900006E0620EDF5C03E0420EDF5C08E1020E61
:1007A000F36E160EF3CFDBFF02D0150EDB6A030EDD
:1007B000DB50100B0EE0040EDBCF14F0050EDB5007
:1007C000D880145406E2060EDB5003E1040EDB5021
:1007D00034DA95D90AE2050EDBCFE7FF150EDB50C0
:1007E000E75E050EE7CFDBFF02D0050EDB6A040EE5
:1007F000DBCF14F0160E45D9D880145414E2160E2F
:10080000DBCFE6FF150EDBCFE6FF040EDBCFE6FF06
:10081000050EDB50E552E75CE552D880E754E5521F
:10082000D880E7545FD9030EDB50010B0BE1080EB3
:10083000DB5008E0B2D801E08DD0080EDB50BED806
:10084000080EDB6A170EDB5007E088D9170EF1D9C6
:1008500003E1151C01E17ED0160EDB5016E07ED9B7
:10086000300EE66E9FD802E1151C74E077D9DFCF19
:10087000E6FFEDEC0CF0E552E552E552F4CF15F051
:100880000001F31C02E1151C65E0050EDBCF14F03E
:10089000160EDB50D880145409E2050EDBCFE7FFBB
:1008A000160EDB50E75E050EE7CFDBFF300EE66E7F
:1008B000050ECBD94FE1390EDB2ADBCFE9FF3A0E2B
:1008C00001E3DB2ADBCFEAFF090EEFCFDBFFDB50D2
:1008D0000EE044D9090EADD902E1151C3BE0390EFA
:1008E000DB2ADBCFE9FF3A0EEDE3DB2AEBD755D865
:1008F00031E1160EDBCFE6FF080EC3D8E552E72440
:100900005DD82ED0070EDB50030A1CE0010A14E06C
:10091000030A07E07BD9DBCFEEFF020EDBCFEDFF52
:100920001FD0F5D8196A17AE02D0186819682CD8EC
:10093000BCD819C0EEFF14D0EAD817BE186824D866
:10094000B4D80ED063D9DBCFEFFF0AD07BD905E155
:10095000151C03E1F368F46810D0FCD801E3DB2A2E
:1009600079D94FEF00F0010EDBCF14F0020EDBCF90
:1009700015F014C0F3FF15C0F4FF3B0EE15C02E27A
:10098000E16AE552E16ECBD029D9020EB5EF05F050
:1009900061D90800F550DF6E1200200EE66E080ED9
:1009A00025EF06F0EDEC0CF0E552E552E552F3CF01
:1009B00014F0F4CF15F00001F31C1200146E156A48
:1009C000D950010F4DD91450EE261550ED221200CA
:1009D000185E000E195AF70E18C0DBFFF80E19C08A
:1009E000DBFF18C0E9FF19C0EAFF1200DBCFF4FFFC
:1009F000F350F45C1200DB50E76E040EE7CFDBFF30
:100A000012000A0EDBCF14F00B0EDBCF15F00C0E2C
:100A1000DBCF16F00D0EDBCF17F0145015101610AB
:100A200017101200130EEECFDBFF140EEDCFDBFF1D
:100A3000130EDBCF14F0140EDBCF15F00001800E87
:100A400015141200F70EDBCF18F0F80EDBCF19F0FB
:100A50001200050EDB50E66ED950130F01D9E55296
:100A6000E750EE6EED6A12000A0EDBCF04F00B0EBB
:100A7000DBCF05F00C0EDBCF06F00D0EDBCF07F061
:100A80001200DBCFE6FF150EDBCFE6FF050EDB50D5
:100A9000E552E724E552E7241200DB50CED8010EE0
:100AA000F36E060EF3CFDBFF1200EE50EFCFEAFF3E
:100AB000E96E16C0EEFF17C0EEFF18C0EEFF120081
:100AC000D9CFE6FFDACFE6FFE1CFD9FFE2CFDAFFF9
:100AD0001200DFCFE6FFE66AD5EC0DF0E552E552F5
:100AE000F3501200E76E080EE7CFDBFF1200EECFE7
:100AF00014F0EECF15F0EFCF16F0176A1200050EC6
:100B0000DBCF14F0150EDB50D88014541200010E08
:100B1000DBCF16F0020EDBCF17F0186A1200E55299
:100B2000E5CFDAFFE7CFD9FF12000A0E14C0DBFFD2
:100B30000B0E15C0DBFF1200D9500A0F30EF06F084
:100B4000F36E070EF3CFDBFF1200EECF14F0EFCF02
:100B500015F01200010EDB2A020E1200FC0EDBCF94
:100B6000E6FFFD0EDBCFE6FF1200145E000E155A05
:100B7000F70E14C0DBFFF80E15C0DBFF14C0E9FF51
:100B800015C0EAFF1200DA20EA6EEF2AEECFF6FF78
:100B9000000EEF22EECFF7FFEF22EECFF8FF1200AC
:100BA000040EDBCFE6FF130EDB50E552E75C9ADF65
:100BB000DB5004DF060EDB501200090EDB500A0D7D
:100BC000F350DF24D00FE76E090EE7CFDBFFC8EF4D
:100BD00004F0DB50F36E050EF6EF04F0F70EDBCFFA
:100BE00014F0F80EDBCF15F01200DFCFE6FFD2EFE6
:100BF00004F028DF030EECDE77EF05F024EC00F0C4
:100C0000E552E552E552E55200091200BDDEEE5014
:100C1000EFCFEAFFE96E010E1200130EDB50F36E08
:100C2000040EF6EF04F0040EDB50F36E090EF6EF3F
:100C300004F0DBCFE6FFD2EF04F0E76E050EE7CF5E
:100C4000DBFF12008BDFF5EF05F0DBCFE6FF86DF81
:100C5000FEEF05F0D950F90FE96EFF0EC3EF05F076
:0A0C6000E96E000EDA20EA6E1200C1
:060C6A00D9CFE6FFDACF4E
:100C7000E6FFE1CFD9FFE2CFDAFFE652E652DE6AC5
:100C8000DD6A938A8A9A939A300EE66E35EC0EF0FE
:100C9000E552938A180EE66E35EC0EF0E55281505F
:100CA000200B200A01E0010E146E156A14BE1568AF
:100CB00014C0DEFF15C0DDFFDF5000D0E552E55265
:100CC000E552E5CFDAFFE7CFD9FF1200D9CFE6FF33
:100CD000DACFE6FFE1CFD9FFE2CFDAFFE652DF6AF3
:100CE000DFCF14F0080EE76E1418E8AE02D0E73438
:100CF00002D0E750145C22E28A9A939A010EE66EC3
:100D000035EC0EF0E552FD0EDB50010BE8B0938A96
:100D1000E8A0939A050EE66E35EC0EF0E552938A44
:100D2000020EE66E35EC0EF0E552FD0EDB407F0B59
:100D3000E76EFD0EE7CFDBFFDF2AD2D7E552E552A3
:100D4000E5CFDAFFE7CFD9FF1200D9CFE6FFDACF40
:100D5000E6FFE1CFD9FFE2CFDAFFE652E652DF6AE3
:100D6000010EDB6A010EDBCF14F0080EE76E1418DB
:100D7000E8AE02D0E73402D0E750145C24E28A9A4D
:100D8000939A00000000938A000000000000000019
:100D900000000000000000008150200B01E0010E67
:100DA000F36E010EDB5004E0D890F336E806FCE168
:100DB000F350DF10DF6E050EE66E35EC0EF0E552F7
:100DC000010EDB2ACFD7DF5000D0E552E552E552C5
:100DD000E5CFDAFFE7CFD9FF1200000000000000E6
:100DE0000000000000000000000000000000000003
:100DF00000000000000000000000000000001200E1
:100E0000050EE66EF9EC0DF0E55212000F0EE66EDF
:100E1000F9EC0DF0E5521200280EE66E79EC08F0C0
:100E2000E552DFEC08F0000901E0FBD7060EE66EA4
:100E300006EC0AF0E552DFEC08F0000901E0FBD710
:100E40001200E66AD7EC09F0E552DFEC08F0000981
:100E500001E0FBD7E20EE66E000EE66E2BEC09F029
:100E6000E552E552DFEC08F0000901E0FBD7120083
:100E7000D3DF0FD822D83FD859D8D9D82ED9E1DF1F
:100E80001CD839D853D8D3D828D9DBDFF9D70300F9
:100E90001200EBDECC0EE66E19DFE5524E0EE66E6A
:100EA00015DFE552E66A12DFE552E66A0FDFE5522A
:100EB0005F0EE66E0BDFE5521200D7DECC0EE66E5B
:100EC00005DFE552440EE66E01DFE552280EE66EC0
:100ED000BEEC0DF0E552C9DECC0EE66EF7DEE55253
:100EE000BE0EE66EF3DEE55230DF0001E06F2DDF6F
:100EF0000001E16F12000001E0390F0B0001F76FF4
:100F0000F86B0001E139F00B0001F96FFA6B000199
:100F10000001F9510001F7110001FB6F0001000110
:100F2000FA510001F8110001FC6F12000001E0A16C
:100F300018D00A6A0B6A800E0C6E3D0E0D6E01C150
:100F400005F002C106F003C107F004C108F063EC2C
:100F50000AF005C001F106C002F107C003F108C0A4
:100F600004F10001E0A317D00A6A0B6A0C6A3E0E76
:100F70000D6E01C105F002C106F003C107F004C106
:100F800008F063EC0AF005C001F106C002F107C0E9
:100F900003F108C004F10001E0A518D00A6A0B6A49
:100FA000800E0C6E3E0E0D6E01C105F002C106F002
:100FB00003C107F004C108F063EC0AF005C001F1B9
:100FC00006C002F107C003F108C004F10001E0A768
:100FD00017D00A6A0B6A0C6A3F0E0D6E01C105F04C
:100FE00002C106F003C107F004C108F063EC0AF087
:100FF00005C001F106C002F107C003F108C004F109
:101000000A6A0B6A7A0E0C6E440E0D6E01C105F071
:1010100002C106F003C107F004C108F0F9EC0AF0C0
:1010200066EC0BF006C0FDF007C0FEF01200F80EF3
:101030000001E1150001FF6F006B0001FF5100117D
:1010400026E10001F651E66EE66AFDC0E6FFFEC04D
:10105000E6FFFBC0E6FFFCC0E6FFE00E146E1B0ED1
:10106000156E166A14C0E6FF15C0E6FF16C0E6FF4F
:10107000E20EE66E000EE66E48EC0CF0176E0B0EFC
:10108000E15C02E2E16AE552E16E175025D0000111
:10109000F651E66EE66AFDC0E6FFFEC0E6FFFBC065
:1010A000E6FFFCC0E6FFCE0E146E1B0E156E166A30
:1010B00014C0E6FF15C0E6FF16C0E6FFE20EE66EBE
:1010C000000EE66E48EC0CF0176E0B0EE15C02E2CF
:1010D000E16AE552E16E175012000101016B026BEB
:1010E000036B046B0001FD6BFE6B0001FF6B006B7B
:0210F0001200EC
:0E10F200D9CFE6FFDACFE6FFE1CFD9FFE2CF9C
:10110000DAFF0F0E83160F0E951695949592959013
:101110008C948C928C9006EC07F0300EE66E76D9AB
:10112000E552050EE66EBEEC0DF0E552300EE66EB1
:101130006DD9E552010EE66EBEEC0DF0E552320EB1
:10114000E66E64D9E5523BD8000901E0FCD737D8F8
:10115000000901E0FCD7FD0EDBCFE6FF57D9E552D1
:101160002ED8000901E0FCD7080EE66E4FD9E552F3
:1011700026D8000901E0FCD70F0EE66E47D9E552EC
:101180001ED8000901E0FCD7010EE66E3FD9E552FA
:1011900016D8000901E0FCD7040EE66E37D9E552F7
:1011A0000ED8000901E0FCD7800EE66E00D9E552AA
:1011B00000D0E552E5CFDAFFE7CFD9FF12008C84EB
:1011C0008C92EDEC06F08C80EDEC06F083AE0BD04B
:1011D0008C90EDEC06F08C80EDEC06F08C908C940D
:1011E000010E0BD00AD08C90EDEC06F08C80EDEC6B
:1011F00006F08C908C94000E00D01200D9CFE6FF40
:10120000DACFE6FFE1CFD9FFE2CFDAFFFC0EDBCF8A
:10121000F6FFFD0EDBCFF7FF0800F55015E0CFDF3E
:10122000000901E0FCD7FC0EDBCFF6FFFD0EDBCFA3
:10123000F7FF0800F550E66E17D9E552FC0EDB2AE1
:10124000FD0E01E3DB2AE2D700D0E552E5CFDAFF5D
:10125000E7CFD9FF1200D9CFE6FFDACFE6FFE1CF23
:10126000D9FFE2CFDAFFFC0EDBCFE9FFFD0EDBCFCB
:10127000EAFFEF5014E0A3DF000901E0FCD7FC0E09
:10128000DBCFE9FFFD0EDBCFEAFFEF50E66EECD8D7
:10129000E552FC0EDB2AFD0E01E3DB2AE4D700D089
:1012A000E552E5CFDAFFE7CFD9FF1200D9CFE6FF4D
:1012B000DACFE6FFE1CFD9FFE2CFDAFFE6528C8446
:1012C0008C92EDEC06F08C80EDEC06F0F00E8314C1
:1012D000DF6E8C90EDEC06F08C80EDEC06F0833840
:1012E0000F0B0F0BDF128C908C947F0EDF1400D04D
:1012F000E552E552E5CFDAFFE7CFD9FF1200D9CFAB
:10130000E6FFDACFE6FFE1CFD9FFE2CFDAFFE65220
:101310008C848C82EDEC06F08C80EDEC06F0F00E07
:101320008314DF6E8C90EDEC06F08C80EDEC06F013
:1013300083380F0B0F0BDF128C908C928C94DF5044
:1013400000D0E552E552E5CFDAFFE7CFD9FF120032
:10135000D9CFE6FFDACFE6FFE1CFD9FFE2CFDAFF60
:101360000F0E95160F0E8316FD0EDB504009F00B85
:1013700083128C948C92EDEC06F08C80EDEC06F0F0
:101380008C900F0E8316FD0EDB38F00BF00B8312E2
:10139000EDEC06F08C80EDEC06F08C90F00E9512E2
:1013A00000D0E552E5CFDAFFE7CFD9FF1200D9CF61
:1013B000E6FFDACFE6FFE1CFD9FFE2CFDAFF0F0E8B
:1013C00095160F0E8316FD0EDB508009F00B83126D
:1013D0008C948C92EDEC06F08C80EDEC06F08C9009
:1013E0000F0E8316FD0EDB38F00BF00B8312EDECC5
:1013F00006F08C80EDEC06F08C90F00E951200D08B
:10140000E552E5CFDAFFE7CFD9FF1200D9CFE6FFEB
:10141000DACFE6FFE1CFD9FFE2CFDAFF0F0E951664
:101420000F0E8316FD0EDB50F00B83128C948C9202
:10143000EDEC06F08C80EDEC06F08C900F0E831630
:10144000FD0EDB38F00BF00B8312EDEC06F08C8018
:10145000EDEC06F08C90F00E951200D0E552E5CF41
:10146000DAFFE7CFD9FF1200D9CFE6FFDACFE6FFE8
:10147000E1CFD9FFE2CFDAFF0F0E95160F0E8316DC
:10148000FD0EDB50F00B83128C828C94EDEC06F099
:101490008C80EDEC06F08C900F0E8316FD0EDB3881
:1014A000F00BF00B8312EDEC06F08C80EDEC06F007
:1014B0008C90F00E951200D0E552E5CFDAFFE7CF21
:0414C000D9FF12003E
:0C14C4000D7E0F6AEDEC0BF005EC0CF057
:1014D0000FB695EF0BF00FA20AD00FAA03D00FBEE4
:1014E00095EF0BF00FA4A1EF0BF09EEF0BF00FAAFE
:1014F00005D00FACA1EF0BF09EEF0BF00FA00AD0C0
:101500000FA808D00FBE04D00FA402D0AAEF0BF092
:10151000AEEF0BF0126A036A0D50085C116E10E317
:1015200005C013F006C000F007C001F008C010F0BD
:101530000AC005F00BC006F00CC007F00F3A09D046
:101540000AC013F00BC000F00CC001F00DC010F089
:10155000116C0F9E0FBC0F8E10C002F00FB0DDEFAC
:101560000BF01A0E1160DDEF0BF0026A086A0FA48F
:1015700008D0056C061E071E081EE86A0622072210
:1015800008220FAC08D0136C001E011E021EE86A70
:10159000002201220222046A115207E008340732B5
:1015A000063205320432112EF9D7055013260650A3
:1015B0000022075001220850022204C012F00F9EA0
:1015C00002AE0BD0126C131E001E011E021EE86A32
:1015D00013220022012202220F8E02A006D0D88000
:1015E0000132003213321232102A10C002F0B1EF71
:1015F0000BF00F6AEDEC0BF005EC0CF00FB695EF6D
:101600000BF00FA205D00FB895EF0BF09CEF0BF08D
:101610000FAA05D00FB095EF0BF09CEF0BF00FB0B9
:1016200002D00FA802D0A8EF0BF0036A0D500824D7
:10163000026EE86A03227E0E025EE86A035A126AAC
:10164000136A006A016A0C500702F4CF01F0F3CF6D
:1016500000F00B500702F3501326F4500022000E46
:1016600001220C500602F3501326F4500022000E03
:1016700001220A500702F3501226F4501322000EE2
:10168000002201220B500602F3501226F4501322BE
:10169000000E002201220C500502F3501226F450D5
:1016A0001322000E002201220A500602F4501226D4
:1016B000000E1322002201220B500502F4501226C4
:1016C000000E132200220122B1EF0BF00F6AEDECA5
:1016D0000BF00FB670EF0BF00FA20ED00FB405D0C9
:1016E0007F0E076EFF0E066E1FD0800E076E066A15
:1016F0001BD0076A066A18D00FB0FBD78F0E0860A0
:10170000EDD77E0E0864F5D78E0E085C05E0D89004
:1017100007320632082AF8D70FA406D0066C071E37
:10172000E86A072207AEE5D712007F0E086EFF0EAB
:10173000076E066E056E12007F0E0FBEFF0E086E5E
:1017400002D07F0E086E800E076E066A056AF3D718
:101750000FAE04D0800E086E076AF7D7086A076AD2
:10176000F4D70150001013101210F8E003BEF0D7A8
:1017700001BE0CD002500310EBE0D89012361336A5
:10178000003601360206D8A00306F2D70350D4E192
:101790000228D2E012AE11D07F0E121402E113A083
:1017A0000CD0132AE86A0022012207E3D880013214
:1017B00000321332022A0228BFE00250C9E013C0EF
:1017C00005F000C006F00134076E0230086E0732E3
:1017D000089E0FBE088E9BEF0BF00736083602E31B
:1017E0000F840F7E06E10F80086A076A066A056AA1
:1017F0001200082803E0D88007321200D890073280
:1018000002E10F8212000F8612000C360D3602E341
:101810000F8C0F7E06E10F880D6A0C6A0B6A0A6A4C
:1018200012000D2803E0D8800C321200D8900C3240
:10183000EAE10F8A120007C013F006C012F006504A
:101840000B02F4CF05F0F3CF04F007500C02F4CFF5
:1018500007F0F3CF06F00B02F3500526F4500622F2
:10186000E86A072212500C02F3500526F4500622B3
:10187000E86A07220CAE41EF0CF01250065E1350DE
:10188000075A13AE000C0B50065E0C50075A000CA2
:10189000D9CFE6FFDACFE6FFE1CFD9FFE2CFDAFF1B
:1018A000E652E652E652E652D950F90F146EFF0E98
:1018B000DA20156E020E14C0DBFF030E15C0DBFF2D
:1018C000020EDBCFE6FF030EDBCFE6FFF90EDBCF28
:1018D000E6FFFA0EDBCFE6FFFB0EDBCFE6FFD950CB
:1018E000FC0FE66EFF0EDA20E66E3AEC00F0146EA6
:1018F000070EE15C02E2E16AE552E16E1450F3CFBB
:10190000DEFFF4CFDDFFFC0EDBCFE9FFFD0EDBCF0A
:10191000EAFFEF6ADECF14F0DDCF15F014C0F3FF5D
:1019200015C0F4FF040EE15C02E2E16AE552E16EEB
:0C193000E552E5CFDAFFE7CFD9FF120047
:04193C003A0EF66EFB
:10194000000EF76E000EF86E01010900F5500A6FE7
:101950000900F5500B6F03E10A6701D03DD0090083
:10196000F550056F0900F550066F0900F550076F37
:1019700009000900F550E96E0900F550EA6E09000A
:1019800009000900F550086F0900F550096F0900BA
:101990000900F6CF0CF1F7CF0DF1F8CF0EF105C12C
:1019A000F6FF06C1F7FF07C1F8FF0101085302E186
:1019B000095307E00900F550EE6E0807F8E2090741
:1019C000F9D70CC1F6FF0DC1F7FF0EC1F8FF0101F9
:0A19D0000A07000E0B5BBFD71200E0
:0619DA00D9CFE6FFDACFD1
:1019E000E6FFE1CFD9FFE2CFDAFFFB0EDBCF14F049
:1019F000FC0EDBCF15F00001800E15141AE1FB0E72
:101A0000DBCFE9FFFC0EDBCFEAFFEECFF3FFEDCF3C
:101A1000F4FFEE2A000EEF22F3CFE9FFF4CFEAFF46
:101A2000FD0EDBCFEFFFEF50156AF36E15C0F4FF2C
:101A300010D0FB0EDB50FE0806E1FD0EDBCFE6FF0B
:101A400027EC0EF005D0FD0EDBCFE6FF49EC0EF0E3
:0E1A5000E552E552E5CFDAFFE7CFD9FF1200ED
:021A5E00045032
:101A60000902F3CF00F0F4CF01F00A02F35001268F
:101A7000000EF420026E04500B02F3500226000EFA
:101A8000F420036E04500C02F350032605500902A3
:101A9000F3500126F4500222000E032205500A02E0
:101AA000F3500226F450032205500B02F350032694
:101AB00006500902F3500226F450032206500A028F
:0E1AC000F350032607500902F35003261200CC
:021ACE00FE0E0A
:101AD000E3CFE9FFFF0EE3CFEAFFF36AF46AEE52C9
:101AE00003E0F34AF42AFBD71200FF0EE3CFF8FF1E
:101AF000E552FF0EE3CFF7FFE552FF0EE3CFF6FF0F
:101B0000E552E66AE66AE66A0900F55209E0FD0E6A
:101B1000E32A05E1FE0EE32A02E1FF0EE32AF4D7F1
:101B2000FD0EE3CF05F0FE0EE3CF06F0FF0EE3CF90
:041B300007F01200A8
:0C1B3400036A026A016A006A200EE76E74
:101B4000D89004360536063607360036013602369A
:101B500003360950005C0A5001580B5002580C50D3
:101B6000035809E30950005E0A50015A0B50025A0B
:0C1B70000C50035A042AE72EE4D71200A0
:041B7C00FF0EE35025
:101B80001C6EEF0E01D0F30EE76EE72EC5EF0DF0E1
:101B90000C0E1B6EE76AE72ECBEF0DF01B2ECAEF83
:0A1BA0000DF01C2EC3EF0DF0120033
:061BAA00F36AF46AFF0E6D
:101BB000E124E96EFF0EE220EA6EED6607D02F0EFB
:0E1BC000EF6404D03A0EEF6001D0F32A120059
:021BCE0054655C
:101BD0006D703A202D25642E253033642563430033
:101BE00054656D703A202B25642E253033642563AF
:021BF0004300B0
:0E1BF200FF0EE3501C6E480E01D04C0EE76E45
:101C0000E72EFED7E76AE72EFED71C2EF7D7000097
:021C10001200C0
:0E1C1200000EF36E00EE00F0060E01D8120078
:101C2000EA6002D0EE6AFCD7F350E9601200EE6A77
:021C3000FCD7DF
:0E1C320010EE80F020EE80F0F86A0F9C9EEC21
:0E1C40000CF04AEC0EF038EC07F0FBD7120067
:021C4E00FF0E87
:101C5000E350ACBA04D0AF6AAB8EAC8A949CACA211
:0A1C6000FED7AD6EF36EF46A1200B9
:061C6A00FF0EE350E84EFE
:101C70001200000000D000D000D0E82EFAD71200E9
:101C800030313233343536373839616263646566F2
:011C90000053
:021C920012003E
:021C940012003C
:0A1C9600DF00000000000000000065
:051CA00000000000003F
:020000040030CA
:0100010021DD
:010003000EEE
:010006008178
:00000001FF
