:020000040000FA
:06000000DDEF38F01200F4
:080008009EA402D056EF30F077
:0A0010009EAC02D030EF34F0120075
:06003A0003000372000048
:100040007505000002000000FF7100006F05000050
:1000500004000000EE7100005405000011000000D3
:10006000D9CFE6FFDACFE6FFE1CFD9FFE2CFDAFF63
:10007000E652E652E652360EE66EE66A5DEC35F082
:10008000E552E552F3CFDEFFF4CFDDFFD9CFE9FF34
:10009000DACFEAFFEE50ED102FE0F80EDBCFE6FFEF
:1000A000F90EDBCFE6FF5DEC35F0E552E552F3CF1C
:1000B0000BF0F4CF0CF0DECFE9FFDDCFEAFF170E37
:1000C000E926000EEA22F3CFEEFF0CC0EDFFDECFF3
:1000D000E9FFDDCFEAFF170EE926000EEA22EE5017
:1000E000ED100AE1DECFE6FFDDCFE6FFBFEC35F035
:1000F000E552E552DE6ADD6AD9CFE9FFDACFEAFFE1
:10010000EE50ED1048E0000EE66EE66ADECFE6FF48
:10011000DDCFE6FFF30EDBCFE6FFF40EDBCFE6FF2D
:10012000F50EDBCFE6FFF60EDBCFE6FFF70EDBCFFB
:10013000E6FFF80EDBCF0BF0F90EDBCF0CF00D6A0B
:100140000E6A0BC0E6FF0CC0E6FF0DC0E6FF0EC056
:10015000E6FFFA0EDBCFE6FFFB0EDBCFE6FFFC0E81
:10016000DBCFE6FFFD0EDBCFE6FF21D80F6E110ED1
:10017000E15C02E2E16AE552E16E0F50DECFE6FF9C
:10018000DDCFE6FFE2D9E552E552010EF36E020E35
:10019000F3CFDBFF02D0020EDB68DB50E552E55205
:1001A000E552E552E5CFDAFFE7CFD9FF1200D9CF0C
:1001B000E6FFDACFE6FFE1CFD9FFE2CFDAFFE65282
:1001C000E652E652EF0EDBCFE9FFF00EDBCFEAFF9F
:1001D000170EE926000EEA22EECFDEFFEDCFDDFF9F
:1001E000F60EDBCF0DF0F70EDBCF0EF0F80EDBCF07
:1001F0000FF0F90EDBCF10F00D06000E0E5A0F5A5D
:10020000105AEF0EDBCFE9FFF00EDBCFEAFF170E3F
:10021000E926000EEA220D50EE240B6E0E50EE2061
:100220000C6EEF0EDBCFE9FFF00EDBCFEAFF230E03
:10023000E926000EEA220BC0EEFF0CC0EDFFD950FC
:10024000FA0FE96EFF0EDA20EA6EEE50ED1050E084
:10025000020EDB6A0A0EF36E020EDBCFF4FFF350E0
:10026000F45C3AE2020EDB50E76EFA0EDBCFE9FFF8
:10027000FB0EDBCFEAFFE750E926000EEA22EF5043
:10028000E66EEF0EDBCFE9FFF00EDBCFEAFF190ED3
:10029000E926000EEA22E9CF0BF0EACF0CF0020EBD
:1002A000DB500F01E924E96E000EEA20EA6EE55208
:1002B000E750EF6E020EDB50E76EFA0EDBCFE9FF80
:1002C000FB0EDBCFEAFFE750E926000EEA22EF50F3
:1002D00003E0020EDB2ABED7EF0EDBCFE9FFF00E04
:1002E000DBCFEAFF190EE926000EEA22090E07D03D
:1002F000EF0EDBCFE9FFF00EDBCFEAFF190EE926A8
:10030000000EEA22EF6A030EF36EF30EDBCFF4FF6A
:10031000F350F45C05E3020EF36EF30EF3CFDBFF54
:10032000EF0EDBCFE9FFF00EDBCFEAFF160EE9267A
:10033000000EEA22F30EDBCFEFFFEF0EDBCFE9FF7B
:10034000F00EDBCFEAFF250EE926000EEA22F30EBF
:10035000DBCFEFFFEF0EDBCFE9FFF00EDBCFEAFFE5
:10036000260EE926000EEA22EF6AEF0EDBCFE9FF48
:10037000F00EDBCFEAFF020EE926000EEA22E9CFFB
:100380000BF0EACF0CF0E9CFE6FFEACFE6FF16EC80
:1003900032F0E552E552EF0EDBCFE9FFF00EDBCF96
:1003A000EAFF0C0EE926000EEA22E9CF0BF0EACFB5
:1003B0000CF0E9CFE6FFEACFE6FF16EC32F0E552AB
:1003C000E552EF0EDBCFE9FFF00EDBCFEAFF020EC6
:1003D000E926000EEA22060EE926000EEA22EF0EBA
:1003E000DBCFEEFFF00EDBCFEDFFF30EDB500B6E3D
:1003F0000C6A030ED8800B56000E0C56EF0EDBCFA6
:10040000E9FFF00EDBCFEAFF0C0EE926000EEA2230
:100410000BC0EEFF0CC0EDFFEF0EDBCFE9FFF00EDF
:10042000DBCFEAFF0C0EE926000EEA22060EE926D3
:10043000000EEA22EF0EDBCFEEFFF00EDBCFEDFF7A
:10044000020EDB6A050EF36E020EDBCFF4FFF350F3
:10045000F45C1CE2EF0EDBCFE9FFF00EDBCFEAFF2E
:10046000270EE926000EEA22E9CF0BF0EACF0CF0C6
:10047000020EDB50020DE950F324E96EEA50F4203D
:10048000EA6EEE6AED6A020EDB2ADCD7EF0EDBCFF6
:10049000E9FFF00EDBCFEAFF310EE926000EEA227B
:1004A000EE6AEE6AEE6AEE6AEF0EDBCFE9FFF00E5F
:1004B000DBCFEAFF350EE926000EEA22EF6AF40EE2
:1004C000DBCFE6FFF50EDBCFE6FFFC0EDBCFE6FF72
:1004D000FD0EDBCFE6FFDECFE6FFDDCFE6FFD4EC9F
:1004E0002CF00D6E060EE15C02E2E16AE552E16E6F
:1004F0000D50F3CF0BF0F4CF0CF0EF0EDBCFE9FF94
:10050000F00EDBCFEAFFF3CFEEFF0CC0EDFFD950CA
:10051000F10FE96EFF0EDA20EA6EEE50ED100CE0FE
:10052000F10EDBCFE9FFF20EDBCFEAFFEF0EDBCF00
:10053000EEFFF00EDBCFEDFFE552E552E552E5525E
:10054000E5CFDAFFE7CFD9FF1200D9CFE6FFDACF48
:10055000E6FFE1CFD9FFE2CFDAFFF250E66EF29E7E
:100560000501572B0501545155110DE1FC0EDBCF50
:1005700054F5FD0EDBCF55F50501570503E1F4EC0D
:1005800010F000D020D005015B511DE154C5E9FFFA
:1005900055C5EAFF160EEB500B6EFC0EDBCFE9FFE4
:1005A000FD0EDBCFEAFF160EE926000EEA22EF5021
:1005B000D8800B5407E3FC0EDBCF54F5FD0EDBCFE8
:1005C00055F500D000D005015F2BFC0EDBCFE9FF15
:1005D000FD0EDBCFEAFF160EE926000EEA22EFCF72
:1005E0000BF005015A51D8800B540CE2FC0EDBCF06
:1005F000E9FFFD0EDBCFEAFF160EE926000EEA2228
:10060000EFCF5AF5FC0EDBCFE9FFFD0EDBCFEAFFA3
:10061000020EE926000EEA22E9CF0BF0EACF0CF039
:100620000BC0E6FF0CC0E6FFFC0EDBCFE9FFFD0EC2
:10063000DBCFEAFF160EE926000EEA22EF50090D85
:10064000F3CF0DF0F4CF0EF0E00E0D26040E0E22C7
:100650000DC0E6FF0EC0E6FF2EEC32F0E552E5528B
:10066000E552E552E552E7BEF28E05015B5116E018
:1006700054C5E9FF55C5EAFF160EEB500B6EFC0E94
:10068000DBCFE9FFFD0EDBCFEAFF160EE926000EF9
:10069000EA22EF500B5C01E200D000D0E552E5CF3A
:1006A000DAFFE7CFD9FF1200D9CFE6FFDACFE6FFB6
:1006B000E1CFD9FFE2CFDAFFE652E652F250E66E22
:1006C000F29ED950FC0FE96EFF0EDA20EA6EEE5072
:1006D000ED1005E154C50BF055C50CF006D0FC0E2D
:1006E000DBCF0BF0FD0EDBCF0CF00BC0DEFF0CC040
:1006F000DDFFDECFE9FFDDCFEAFF020EE926000EC7
:10070000EA22E9CF0BF0EACF0CF00BC0E6FF0CC0F9
:10071000E6FF8CEC33F0E552E552000901E100D030
:10072000DECFE9FFDDCFEAFF0C0EE926000EEA225C
:10073000080EE926000EEA22EE50ED1015E0DECF9D
:10074000E9FFDDCFEAFF0C0EE926000EEA22E9CF31
:100750000BF0EACF0CF00BC0E6FF0CC0E6FF8CEC10
:1007600033F0E552E55200D005015F2BDECF0BF0F0
:10077000DDCF0CF0050154510B1802E155510C1856
:100780001DE1DECFE9FFDDCFEAFF020EE926000E14
:10079000EA22E9CF0BF0EACF0CF00BC0E6FF0CC069
:1007A000E6FF1A0EE66E050EE66E2EEC32F0E5520E
:1007B000E552E552E5520501562B0CD005015707CD
:1007C000DECFE6FFDDCFE6FF95EC11F0E552E55216
:1007D000BFEC11F0E552E7BEF28E05015B510EE071
:1007E000DECF0BF0DDCF0CF0050154510B1802E108
:1007F00055510C1803E17CEC2FF000D0E552E55286
:10080000E552E5CFDAFFE7CFD9FF1200D9CFE6FFF7
:10081000DACFE6FFE1CFD9FFE2CFDAFF060EE1241F
:1008200002E3E168E652E16E030EDB6ADCEC09F0FC
:10083000040E58C5DBFF050E59C5DBFFFA0EDBCFF2
:100840000DF0FB0EDBCF0EF0FC0EDBCFE9FFFD0E53
:10085000DBCFEAFF0D50EE240B6E0E50EE200BC0E6
:10086000DEFFDD6E040EDBCF0BF0050EDBCF0CF0F0
:10087000FC0EDBCFE9FFFD0EDBCFEAFFEECF0DF084
:10088000EFCF0EF00D500B5C0E500C5823E2DECF74
:100890000BF0DDCF0CF0FC0EDBCFE9FFFD0EDBCF64
:1008A000EAFFEECF0DF0EFCF0EF00D500B5C0E50C7
:1008B0000C5837E2DECF0FF0DDCF10F0040EDBCFA7
:1008C00011F0050EDBCF12F00F50115C10501258D2
:1008D00028E222D0DECF0BF0DDCF0CF0FC0EDBCF18
:1008E000E9FFFD0EDBCFEAFFEECF0DF0EFCF0EF00C
:1008F0000D500B5C0E500C580FE3DECF0FF0DDCF28
:1009000010F0040EDBCF11F0050EDBCF12F00F500C
:10091000115C1050125805E2010EF36E030EF3CF76
:10092000DBFFFC0EDBCFE9FFFD0EDBCFEAFFDECF06
:10093000EEFFDDCFEDFF030EDB5015E0E66ADECF04
:100940000DF0DDCF0EF0040EDB500D5C0B6E050ECE
:10095000DB500E580C6E0BC0E6FFE66E11EC1BF080
:10096000E552E552E552DFEC09F0E76E020EE7CF03
:10097000DBFFDB5002E17CEC2FF0060EE15C02E2D3
:10098000E16AE552E16EE552E5CFDAFFE7CFD9FF44
:100990001200D9CFE6FFDACFE6FFE1CFD9FFE2CFF1
:1009A000DAFFE652DF6AD950FC0FE96EFF0EDA205B
:1009B000EA6E000ED880EE54000EED5411E2DCEC2D
:1009C00009F0E66AFC0EDBCFE6FFFD0EDBCFE6FFAB
:1009D00011EC1BF0E552E552E552DFEC09F0DF6E59
:1009E000DF5002E17CEC2FF0E552E552E5CFDAFF73
:1009F000E7CFD9FF1200D9CFE6FFDACFE6FFE1CF8C
:100A0000D9FFE2CFDAFFE652E652E652F250E66E46
:100A1000F29ED950FC0FE96EFF0EDA20EA6EEE501E
:100A2000ED1005E154C50BF055C50CF006D0FC0ED9
:100A3000DBCF0BF0FD0EDBCF0CF00BC0DEFF0CC0EC
:100A4000DDFFDECFE9FFDDCFEAFF160EE926000E5F
:100A5000EA22020EEFCFDBFFE552E7BEF28E020E76
:100A6000DB5000D0E552E552E552E552E5CFDAFF22
:100A7000E7CFD9FF1200D9CFE6FFDACFE6FFE1CF0B
:100A8000D9FFE2CFDAFFE652E652E652E652030E13
:100A9000DB6AD950FC0FE96EFF0EDA20EA6EEE50E9
:100AA000ED1005E154C50BF055C50CF006D0FC0E59
:100AB000DBCF0BF0FD0EDBCF0CF00BC0DEFF0CC06C
:100AC000DDFFDECFE9FFDDCFEAFF160EE926000EDF
:100AD000EA22020EEFCFDBFFDB500B6E040EE15C6F
:100AE00002E2E16AE552E16E0B50E552E5CFDAFF32
:100AF000E7CFD9FF1200D9CFE6FFDACFE6FFE1CF8B
:100B0000D9FFE2CFDAFFE652E652E652E652E6526B
:100B1000040EDB6A030EF36EFB0EDBCFF4FFF35023
:100B2000F45C06E3020EF36EFB0EF3CFDBFF00D0A6
:100B3000F250E66EF29ED950FC0FE96EFF0EDA20FD
:100B4000EA6EEE50ED1005E154C50BF055C50CF002
:100B500006D0FC0EDBCF0BF0FD0EDBCF0CF00BC094
:100B6000DEFF0CC0DDFFDECFE9FFDDCFEAFF250EA3
:100B7000E926000EEA22020EEFCFDBFFFB0EDB5070
:100B8000F36E020EDB50F35C01E124D1FB0EDBCFF0
:100B90000BF0020EDB50D8800B5420E2DECF0BF0BE
:100BA000DDCF0CF0050154510B1802E155510C1822
:100BB00014E054C5E9FF55C5EAFF160EEB50F36E7D
:100BC000FB0EDBCFF4FFF350F45C06E3010EF36E93
:100BD000040EF3CFDBFF00D000D011D0DECF0BF03E
:100BE000DDCF0CF0050154510B1802E155510C18E2
:100BF00006E1010EF36E040EF3CFDBFF00D0DECF73
:100C0000E9FFDDCFEAFF160EE926000EEA22030E09
:100C1000EFCFDBFFDECFE9FFDDCFEAFF250EE926D0
:100C2000000EEA22EFCF0BF0DECFE9FFDDCFEAFFC7
:100C3000160EE926000EEA22EF500B5C0CE1DECF27
:100C4000E9FFDDCFEAFF160EE926000EEA22FB0ED1
:100C5000DBCFEFFF00D0DECFE9FFDDCFEAFF250ECF
:100C6000E926000EEA22FB0EDBCFEFFFDECFE9FF25
:100C7000DDCFEAFF0C0EE926000EEA22EECF0BF0E4
:100C8000EFCF0CF0000E0B16800E0C160D6A0E6ADC
:100C90000B500C100D100E1016E1FB0EDB500B6EFE
:100CA0000C6A030ED8800B56000E0C56DECFE9FFFF
:100CB000DDCFEAFF0C0EE926000EEA220BC0EEFFA4
:100CC0000CC0EDFF00D0DECFE9FFDDCFEAFF020E62
:100CD000E926000EEA22080EE926000EEA22EECFEF
:100CE0000BF0EFCF0CF0030EDB50090DF3CF0DF03E
:100CF000F4CF0EF0E00E0D26040E0E220D500B1850
:100D000002E10E500C1802E1010E01D0000E0009A4
:100D10005DE0DECFE9FFDDCFEAFF020EE926000E3F
:100D2000EA22E9CF0BF0EACF0CF00BC0E6FF0CC0D3
:100D3000E6FF8CEC33F0E552E552000901E100D00A
:100D4000DECFE9FFDDCFEAFF160EE926000EEA222C
:100D5000EFCF0BF005015A51D8800B540AE2DECFD9
:100D6000E9FFDDCFEAFF160EE926000EEA22EFCFFB
:100D70005AF5DECFE9FFDDCFEAFF020EE926000ECD
:100D8000EA22E9CF0BF0EACF0CF00BC0E6FF0CC073
:100D9000E6FFDECFE9FFDDCFEAFF160EE926000E03
:100DA000EA22EF50090DF3CF0DF0F4CF0EF0E00E74
:100DB0000D26040E0E220DC0E6FF0EC0E6FF2EEC3F
:100DC00032F0E552E552E552E55200D0040EDB5018
:100DD00001E000D0E552E7BEF28E050EE15C02E2D2
:100DE000E16AE552E16EE552E5CFDAFFE7CFD9FFE0
:100DF0001200D9CFE6FFDACFE6FFE1CFD9FFE2CF8D
:100E0000DAFFE652E652F250E66EF29ED950FC0F3F
:100E1000E96EFF0EDA20EA6EEE50ED1005E154C5E2
:100E20000BF055C50CF006D0FC0EDBCF0BF0FD0E21
:100E3000DBCF0CF00BC0DEFF0CC0DDFFDECFE9FF27
:100E4000DDCFEAFF020EE926000EEA22E9CF0BF021
:100E5000EACF0CF00BC0E6FF0CC0E6FF8CEC33F0E1
:100E6000E552E552000901E100D0DECFE9FFDDCF18
:100E7000EAFF0C0EE926000EEA22080EE926000E13
:100E8000EA22EE50ED1015E0DECFE9FFDDCFEAFFFC
:100E90000C0EE926000EEA22E9CF0BF0EACF0CF0A7
:100EA0000BC0E6FF0CC0E6FF8CEC33F0E552E552D8
:100EB00000D0DECFE9FFDDCFEAFF020EE926000E0B
:100EC000EA22E9CF0BF0EACF0CF00BC0E6FF0CC032
:100ED000E6FF230EE66E050EE66E2EEC32F0E552CE
:100EE000E552E552E552DECFE9FFDDCFEAFF350EF0
:100EF000E926000EEA22EF0409E1DECFE9FFDDCFAB
:100F0000EAFF350EE926000EEA22EF6AE552E7BE57
:100F1000F28E05015B5109E0F250E66EF29EBFECE5
:100F200011F0E552E7BEF28E00D0DECF0BF0DDCF40
:100F30000CF0050154510B1802E155510C1812E147
:100F400005015B5103E07CEC2FF00BD005015751FC
:100F50000501235D04E10501546B556B02D07AEC69
:100F60000CF000D0E552E552E552E5CFDAFFE7CFCD
:100F7000D9FF1200D9CFE6FFDACFE6FFE1CFD9FFE4
:100F8000E2CFDAFFE652E652E652DF6AFC0EDBCF32
:100F900006F0FD0EDBCF07F0DE5206C0DEFF07C015
:100FA000DDFFDD52010EDBCFE9FF020EDBCFEAFFF2
:100FB000E926000EEA22080EE926000EEA22EECF0C
:100FC0000BF0EFCF0CF0230E0B1805E1050E0C18FB
:100FD00002E1010E01D0000E000935E0010EDBCF69
:100FE000E9FF020EDBCFEAFF0C0EE926000EEA2233
:100FF000080EE926000EEA22EECF0BF0EFCF0CF040
:10100000110E0B1805E1050E0C1802E1010E01D0BE
:10101000000E000918E1010EDBCFE9FF020EDBCF65
:10102000EAFF0C0EE926000EEA22080EE926000E61
:10103000EA22EE50ED1002E1010E01D0000E00098F
:1010400002E0010EDF6EDF50E552E552E552E55257
:10105000E5CFDAFFE7CFD9FF1200D9CFE6FFDACF2D
:10106000E6FFE1CFD9FFE2CFDAFFE652E652FC0E0F
:10107000DBCFDEFFDBCFDDFFDECF0BF0DDCF0CF013
:10108000050154510B1802E155510C1801E185D0AE
:10109000D9CFE9FFDACFEAFFEE50ED1001E17DD0C4
:1010A000F250E66EF29EDECFE6FFDDCFE6FF62DFB6
:1010B000E552E55200096DE0DECFE9FFDDCFEAFF42
:1010C000020EE926000EEA22E9CF0BF0EACF0CF07F
:1010D0000BC0E6FF0CC0E6FF8CEC33F0E552E552A6
:1010E000DECFE9FFDDCFEAFF160EE926000EEA2289
:1010F000EFCF0BF005015A51D8800B540AE2DECF36
:10110000E9FFDDCFEAFF160EE926000EEA22EFCF57
:101110005AF5DECFE9FFDDCFEAFF020EE926000E29
:10112000EA22E9CF0BF0EACF0CF00BC0E6FF0CC0CF
:10113000E6FFDECFE9FFDDCFEAFF160EE926000E5F
:10114000EA22EF50090DF3CF0DF0F4CF0EF0E00ED0
:101150000D26040E0E220DC0E6FF0EC0E6FF2EEC9B
:1011600032F0E552E552E552E552DECFE9FFDDCF40
:10117000EAFF160EE926000EEA22EFCF0BF054C567
:10118000E9FF55C5EAFF160EEB500B5C01E300D0FA
:1011900000D0E552E7BEF28E00D0E552E552E552AE
:1011A000E5CFDAFFE7CFD9FF1200D9CFE6FFDACFDC
:1011B000E6FFE1CFD9FFE2CFDAFFE652E652E65290
:1011C000E652DF6AFC0EDBCF06F0FD0EDBCF07F048
:1011D000DE5206C0DEFF07C0DDFFDD52030EDB6A14
:1011E000010EDBCFE6FF020EDBCFE6FFC3DEE552EA
:1011F000E552000901E191D00501645172E1010E4F
:10120000DBCFE9FF020EDBCFEAFF160EE926000E68
:10121000EA22EFCF0BF054C5E9FF55C5EAFF160EE1
:10122000EB500B5C02E3010EDF6E010EDBCFE9FF3A
:10123000020EDBCFEAFFE926000EEA22E9CF0BF02F
:10124000EACF0CF0E9CFE6FFEACFE6FF8CEC33F013
:10125000E552E552010EDBCFE9FF020EDBCFEAFFDC
:10126000160EE926000EEA22EFCF0BF005015A51C7
:10127000D8800B540CE2010EDBCFE9FF020EDBCF6E
:10128000EAFF160EE926000EEA22EFCF5AF5010E0C
:10129000DBCFE9FF020EDBCFEAFFE926000EEA22F0
:1012A000E9CF0BF0EACF0CF0E9CFE6FFEACFE6FF9B
:1012B000010EDBCFE9FF020EDBCFEAFF160EE926B7
:1012C000000EEA22EF50090DF3CF0DF0F4CF0EF02F
:1012D000E00E0D26040E0E220DC0E6FF0EC0E6FF46
:1012E00016D0010EDBCFE9FF020EDBCFEAFF0C0EBA
:1012F000E926000EEA22E9CF0BF0EACF0CF0E9CFA5
:10130000E6FFEACFE6FF110EE66E050EE66E2EEC66
:1013100032F0E552E552E552E552DF500B6E040E15
:10132000E15C02E2E16AE552E16E0B50E552E5CF85
:10133000DAFFE7CFD9FF1200D9CFE6FFDACFE6FF19
:10134000E1CFD9FFE2CFDAFFE652620EE66E050E7C
:10135000E66EE66A000EE66EE66A800EE66EE66A05
:101360001C0EE66E710EE66E460EE66E200EE66E02
:1013700030EC00F00B6E0B0EE15C02E2E16AE5522C
:10138000E16E0B50DF6EDF040BE1F29E0501606938
:101390006169010E5B6F586B596B0AEC2FF0000905
:1013A000E552E552E5CFDAFFE7CFD9FF1200F29E12
:1013B00005015B6B7BEF2FF00501642B1200D9CF89
:1013C000E6FFDACFE6FFE1CFD9FFE2CFDAFFE65260
:1013D000E652E652E652DE6ADD6A020EDB6AF2503F
:1013E000E66EF29E050164070501645101E0C3D079
:1013F00005015751000801E3BDD00501115102E17B
:10140000010E01D0000E000901E090D016C5E9FFE1
:1014100017C5EAFF060EE926000EEA22EECFDEFF30
:10142000EDCFDDFFDECFE9FFDDCFEAFF0C0EE926D1
:10143000000EEA22E9CF0BF0EACF0CF00BC0E6FF7A
:101440000CC0E6FF8CEC33F0E552E552DECFE9FF4D
:10145000DDCFEAFF020EE926000EEA22E9CF0BF00B
:10146000EACF0CF00BC0E6FF0CC0E6FF8CEC33F0CB
:10147000E552E552DECFE9FFDDCFEAFF160EE926A1
:10148000000EEA22EFCF0BF005015A51D8800B5421
:101490000AE2DECFE9FFDDCFEAFF160EE926000EF5
:1014A000EA22EFCF5AF5DECFE9FFDDCFEAFF020EE9
:1014B000E926000EEA22E9CF0BF0EACF0CF00BC0D0
:1014C000E6FF0CC0E6FFDECFE9FFDDCFEAFF160E38
:1014D000E926000EEA22EF50090DF3CF0DF0F4CF0C
:1014E0000EF0E00E0D26040E0E220DC0E6FF0EC01B
:1014F000E6FF2EEC32F0E552E552E552E552DECF42
:10150000E9FFDDCFEAFF160EE926000EEA22EFCF53
:101510000BF054C5E9FF55C5EAFF160EEB500B5C06
:1015200004E30501010E5D6F00D067D7D9CFE9FF55
:10153000DACFEAFFEE50ED1002E0BFEC11F0030E3F
:101540005CC5DBFF030EDB50000810E2A8D80009E1
:1015500004E00501010E5D6F00D0030EDB06030EF3
:10156000DB500008F3E305015C6B00D005015D5121
:1015700001E000D000D0E552E7BEF28E020EDB5053
:1015800000D00B6E040EE15C02E2E16AE552E16E0E
:101590000B50E552E5CFDAFFE7CFD9FF1200D9CFE4
:1015A000E6FFDACFE6FFE1CFD9FFE2CFDAFFE6527E
:1015B000E652F250E66EF29E58C5DEFF59C5DDFFD9
:1015C000E552E7BEF28EDECF0BF0DDCF0CF00BC0A4
:1015D000F3FF0CC0F4FF00D0E552E552E552E5CF31
:1015E000DAFFE7CFD9FF1200D9CFE6FFDACFE6FF67
:1015F000E1CFD9FFE2CFDAFFE652E652E652020E21
:10160000DB6A58C5DEFF59C5DDFFDECF0BF0DDCF4D
:101610000CF00BC0F3FF0CC0F4FFE552E552E552AD
:10162000E552E5CFDAFFE7CFD9FF120005015751A8
:101630001200D9CFE6FFDACFE6FFE1CFD9FFE2CF44
:10164000DAFFE652E652D950FC0FE96EFF0EDA20BF
:10165000EA6EEE50ED1005E154C50BF055C50CF0E7
:1016600006D0FC0EDBCF0BF0FD0EDBCF0CF00BC079
:10167000DEFF0CC0DDFFDECFE9FFDDCFEAFF190E94
:10168000E926000EEA22E9CFF3FFEACFF4FFE552A4
:10169000E552E552E5CFDAFFE7CFD9FF1200D9CF07
:1016A000E6FFDACFE6FFE1CFD9FFE2CFDAFF090E9E
:1016B000E12402E3E168E652E16E040EDB6A050113
:1016C000645101E006D1010E0C6A58250B6E595188
:1016D0000C22050E0BC0DBFF060E0CC0DBFF050E57
:1016E000DBCF58F5060EDBCF59F5D950050FE96E63
:1016F000000EDA20EA6EEE50ED1013E1070E0DC574
:10170000DBFF080E0EC5DBFF0FC50DF510C50EF58E
:10171000070EDBCF0FF5080EDBCF10F55E2BBFEC0D
:1017200011F0050EDBCF0BF0060EDBCF0CF0050140
:1017300060510B5C61510C5801E2CCD00DC5E9FF42
:101740000EC5EAFFEF50000902E1010E01D0000EC4
:10175000000904E0050160696169BCD00DC5E9FFBD
:101760000EC5EAFF030EE926000EEA22020EE92664
:10177000000EEA22EE50EFCFEAFFE96E060EE926F0
:10178000000EEA22EECFDEFFEDCFDDFFDECFE9FF78
:10179000DDCFEAFF020EE926000EEA22020EEECFAE
:1017A000DBFF030EEDCFDBFF050EDBCF0BF0060EEC
:1017B000DBCF0CF0020EDBCF0DF0030EDBCF0EF013
:1017C0000D500B5C0E500C5807E2020EDBCF60F59B
:1017D000030EDBCF61F57ED0DECFE9FFDDCFEAFF80
:1017E000020EE926000EEA22E9CF0BF0EACF0CF058
:1017F000E9CFE6FFEACFE6FF8CEC33F0E552E552A5
:10180000DECFE9FFDDCFEAFF0C0EE926000EEA226B
:10181000080EE926000EEA22EE50ED1014E0DECFAD
:10182000E9FFDDCFEAFF0C0EE926000EEA22E9CF40
:101830000BF0EACF0CF0E9CFE6FFEACFE6FF8CEC45
:1018400033F0E552E552DECFE9FFDDCFEAFF160EB9
:10185000E926000EEA22EFCF0BF005015A51D8809D
:101860000B540AE2DECFE9FFDDCFEAFF160EE926D0
:10187000000EEA22EFCF5AF5DECFE9FFDDCFEAFF17
:10188000020EE926000EEA22E9CF0BF0EACF0CF0B7
:10189000E9CFE6FFEACFE6FFDECFE9FFDDCFEAFFE3
:1018A000160EE926000EEA22EF50090DF3CF0DF0D7
:1018B000F4CF0EF0E00E0D26040E0E220DC0E6FF52
:1018C0000EC0E6FF2EEC32F0E552E552E552E5524D
:1018D00035D75C2B040EDB500B6E090EE15C02E287
:1018E000E16AE552E16E0B50E552E5CFDAFFE7CF52
:1018F000D9FF1200D9CFE6FFDACFE6FFE1CFD9FF5B
:10190000E2CFDAFFE652E652E6520501645103E007
:10191000010E5D6F94D05D6B5AC5DFFFDF50090D7E
:10192000F3CFE9FFF4CFEAFFE00EE926040EEA2246
:10193000EF5002E1010E01D0000E000902E0DF06C7
:10194000EDD7DF50090DF3CF0BF0F4CF0CF0E00E24
:101950000B26040E0C22010E0BC0DBFF020E0CC086
:10196000DBFF010EDBCFE9FF020EDBCFEAFFEE5219
:10197000EE50EFCFEAFFE96E020EE926000EEA22F2
:10198000EECF0BF0EFCF0CF0010EDBCFE9FF020E34
:10199000DBCFEAFFEE520BC0EEFF0CC0EDFF010EF5
:1019A000DBCFE9FF020EDBCFEAFFEE52EECF0BF00A
:1019B000EFCF0CF0010EDBCFE9FF020EDBCFEAFF29
:1019C000030EE926000EEA22EACF0EF0E9500B18CA
:1019D00021E10E500C181EE1010EDBCFE9FF020ED3
:1019E000DBCFEAFFEE52EE50EFCFEAFFE96E020ED8
:1019F000E926000EEA22EECF0BF0EFCF0CF0010E3D
:101A0000DBCFE9FF020EDBCFEAFFEE520BC0EEFFA9
:101A10000CC0EDFF010EDBCFE9FF020EDBCFEAFFCA
:101A2000EE52EE50EFCFEAFFE96E060EE926000E09
:101A3000EA22EECF54F5EDCF55F5DFCF5AF5E5525A
:101A4000E552E552E552E5CFDAFFE7CFD9FF1200C4
:101A5000D9CFE6FFDACFE6FFE1CFD9FFE2CFDAFF59
:101A600054C5E9FF55C5EAFF0C0EE926000EEA222F
:101A7000E9CF0BF0EACF0CF0E9CFE6FFEACFE6FFC3
:101A8000FC0EDBCFE6FFFD0EDBCFE6FFAEEC32F067
:101A9000E552E552E552E552010EE66EFA0EDBCF55
:101AA000E6FFFB0EDBCFE6FF11EC1BF0E552E55243
:101AB000E552E552E5CFDAFFE7CFD9FF1200D9CFE3
:101AC000E6FFDACFE6FFE1CFD9FFE2CFDAFFFA0E89
:101AD000DBCF0BF0FB0EDBCF0CF0800E0C1254C5ED
:101AE000E9FF55C5EAFF0C0EE926000EEA220BC0FD
:101AF000EEFF0CC0EDFF54C5E9FF55C5EAFF0C0E23
:101B0000E926000EEA22E9CF0BF0EACF0CF0E9CF8C
:101B1000E6FFEACFE6FFFC0EDBCFE6FFFD0EDBCFF4
:101B2000E6FF2EEC32F0E552E552E552E552010EA9
:101B3000E66EF80EDBCFE6FFF90EDBCFE6FF11EC29
:101B40001BF0E552E552E552E552E5CFDAFFE7CF6B
:101B5000D9FF1200D9CFE6FFDACFE6FFE1CFD9FFF8
:101B6000E2CFDAFFE652E652E652FC0EDBCFE9FFA7
:101B7000FD0EDBCFEAFF030EE926000EEA22020E7D
:101B8000E926000EEA22EE50EFCFEAFFE96E060EDC
:101B9000E926000EEA22EECFDEFFEDCFDDFFDECF3D
:101BA000E9FFDDCFEAFF0C0EE926000EEA22E9CFBD
:101BB0000BF0EACF0CF0E9CFE6FFEACFE6FF8CECC2
:101BC00033F0E552E5520501645154E1DECFE9FFFF
:101BD000DDCFEAFF020EE926000EEA22E9CF0BF084
:101BE000EACF0CF0E9CFE6FFEACFE6FF8CEC33F06A
:101BF000E552E552DECFE9FFDDCFEAFF160EE9261A
:101C0000000EEA22EFCF0BF005015A51D8800B5499
:101C10000AE2DECFE9FFDDCFEAFF160EE926000E6D
:101C2000EA22EFCF5AF5DECFE9FFDDCFEAFF020E61
:101C3000E926000EEA22E9CF0BF0EACF0CF0E9CF5B
:101C4000E6FFEACFE6FFDECFE9FFDDCFEAFF160EC3
:101C5000E926000EEA22EF50090DF3CF0DF0F4CF84
:101C60000EF0E00E0D26040E0E220DC0E6FF0EC093
:101C7000E6FF14D0DECFE9FFDDCFEAFF0C0EE92648
:101C8000000EEA22E9CF0BF0EACF0CF0E9CFE6FF35
:101C9000EACFE6FF110EE66E050EE66E2EEC32F090
:101CA000E552E552E552E552DECFE9FFDDCFEAFF2E
:101CB000160EE926000EEA22EFCF0BF054C5E9FF1D
:101CC00055C5EAFF160EEB50D8800B5409E2010E01
:101CD000F36E020EF3CFDBFF0501010E5D6F02D044
:101CE000020EDB6A020EDB50E552E552E552E55288
:101CF000E5CFDAFFE7CFD9FF1200D9CFE6FFDACF81
:101D0000E6FFE1CFD9FFE2CFDAFFE652E652FA0E64
:101D1000DBCF0BF0FB0EDBCF0CF0800E0C12FC0EB9
:101D2000DBCFE9FFFD0EDBCFEAFF0BC0EEFF0CC0FF
:101D3000EDFFFC0EDBCFE9FFFD0EDBCFEAFF060E69
:101D4000E926000EEA22EECFDEFFEDCFDDFFFC0E2E
:101D5000DBCFE6FFFD0EDBCFE6FF8CEC33F0E55288
:101D6000E552DECFE9FFDDCFEAFF020EE926000EE5
:101D7000EA22E9CF0BF0EACF0CF0E9CFE6FFEACF99
:101D8000E6FF8CEC33F0E552E552DECFE9FFDDCF24
:101D9000EAFF160EE926000EEA22EFCF0BF005014E
:101DA0005A51D8800B540AE2DECFE9FFDDCFEAFFBB
:101DB000160EE926000EEA22EFCF5AF5DECFE9FF34
:101DC000DDCFEAFF020EE926000EEA22E9CF0BF092
:101DD000EACF0CF0E9CFE6FFEACFE6FFDECFE9FF7E
:101DE000DDCFEAFF160EE926000EEA22EF50090DBC
:101DF000F3CF0DF0F4CF0EF0E00E0D26040E0E2200
:101E00000DC0E6FF0EC0E6FF2EEC32F0E552E552C3
:101E1000E552E552DECFE9FFDDCFEAFF160EE926F7
:101E2000000EEA22EFCF0BF054C5E9FF55C5EAFFDB
:101E3000160EEB50D8800B5403E20501010E5D6FC6
:101E4000E552E552E552E5CFDAFFE7CFD9FF1200C0
:101E5000D9CFE6FFDACFE6FFE1CFD9FFE2CFDAFF55
:101E6000F250E66EF29EFC0EDBCFE9FFFD0EDBCFFB
:101E7000EAFF5EC5EFFFFC0EDBCFE9FFFD0EDBCF17
:101E8000EAFFEE5258C5EEFF59C5EDFFE552E7BE39
:101E9000F28EE552E5CFDAFFE7CFD9FF1200D9CFB6
:101EA000E6FFDACFE6FFE1CFD9FFE2CFDAFFFC0EA3
:101EB000DBCFE9FFFD0EDBCFEAFF5EC5EFFFFC0ED7
:101EC000DBCFE9FFFD0EDBCFEAFFEE5258C5EEFF98
:101ED00059C5EDFFE552E5CFDAFFE7CFD9FF120094
:101EE000D9CFE6FFDACFE6FFE1CFD9FFE2CFDAFFC5
:101EF000E652E652E652E652E652F250E66EF29EA4
:101F0000010E58C5DBFF020E59C5DBFF010EDBCF0A
:101F10000DF0020EDBCF0EF0FC0EDBCFE9FFFD0E65
:101F2000DBCFEAFFEE52EE500D5C0B6EEE500E581A
:101F30000C6E030E0BC0DBFF040E0CC0DBFFFA0EB1
:101F4000DBCFE9FFFB0EDBCFEAFFFF0EEE1802E16D
:101F5000FF0EED1802E1DF6A5FD0FC0EDBCFE9FF78
:101F6000FD0EDBCFEAFFEF5005015E5D1BE0010EC9
:101F7000DBCF0BF0020EDBCF0CF0FC0EDBCFE9FF6A
:101F8000FD0EDBCFEAFFEECF0DF0EECF0EF0EFCF80
:101F90000FF000010E500B5C0F500C5803E3010EC4
:101FA000DF6E3AD0030EDBCF0BF0040EDBCF0CF06C
:101FB000FA0EDBCFE9FFFB0EDBCFEAFFEECF0DF031
:101FC000EFCF0EF00D500B5C0E500C581BE2030EC1
:101FD000DBCF0BF0040EDBCF0CF0FA0EDBCFE9FF0A
:101FE000FB0EDBCFEAFF0B50EE5E0C50ED5AFC0E01
:101FF000DBCFE6FFFD0EDBCFE6FF51DFE552E5521A
:10200000DF6A0AD0FA0EDBCFE9FFFB0EDBCFEAFF77
:10201000EE6AED6A010EDF6EE552E7BEF28EDF502A
:1020200000D00B6E050EE15C02E2E16AE552E16E62
:102030000B50E552E5CFDAFFE7CFD9FF12000501DB
:10204000010E5D6F1200D9CFE6FFDACFE6FFE1CFD8
:10205000D9FFE2CFDAFF21D97CEC2FF0FCD7D9CF22
:10206000E6FFDACFE6FFE1CFD9FFE2CFDAFFE652B3
:10207000E652FB0EDBCF0BF0050EE76E0B18E8AE59
:1020800002D0E73402D0E7500B5C39E2D950FC0FA4
:10209000E96EFF0EDA20EA6EEE50ED1005E154C550
:1020A0000BF055C50CF006D0FC0EDBCF0BF0FD0E8F
:1020B000DBCF0CF00BC0DEFF0CC0DDFFDECFE9FF95
:1020C000DDCFEAFF270EE926000EEA22E9CF0BF06A
:1020D000EACF0CF0FB0EDBCF0DF00E6A0DBE0E68E2
:1020E000D8900D360E360B500D24E96E0C500E2094
:1020F000EA6EF90EDBCFEEFFFA0EDBCFEDFFE55215
:10210000E552E552E5CFDAFFE7CFD9FF1200D9CF8C
:10211000E6FFDACFE6FFE1CFD9FFE2CFDAFFE65202
:10212000E652E652E652DE6ADD6AFB0EDBCF0BF0CA
:10213000050EE76E0B18E8AE02D0E73402D0E75088
:102140000B5C3CE2D950FC0FE96EFF0EDA20EA6E20
:10215000EE50ED1005E154C50BF055C50CF006D05E
:10216000FC0EDBCF0BF0FD0EDBCF0CF0020E0BC034
:10217000DBFF030E0CC0DBFF020EDBCFE9FF030E1B
:10218000DBCFEAFF270EE926000EEA22E9CF0BF0AB
:10219000EACF0CF0FB0EDBCF0DF00E6A0DBE0E6821
:1021A000D8900D360E360B500D24E96E0C500E20D3
:1021B000EA6EEECFDEFFEDCFDDFF02D0DE6ADD6A34
:1021C000DECF0BF0DDCF0CF00BC0F3FF0CC0F4FF43
:1021D000040EE15C02E2E16AE552E16EE552E5CF10
:1021E000DAFFE7CFD9FF1200D9CFE6FFDACFE6FF5B
:1021F000E1CFD9FFE2CFDAFFE652DF6A030EDF5C00
:1022000014E2DF50090DF3CF0BF0F4CF0CF0E00E29
:102210000B26040E0C220BC0E6FF0CC0E6FF9CEC64
:1022200031F0E552E552DF2AE9D7FB0EE66E040EE7
:10223000E66E9CEC31F0E552E552040EE66E050EBA
:10224000E66E9CEC31F0E552E552110EE66E050E9D
:10225000E66E9CEC31F0E552E5521A0EE66E050E84
:10226000E66E9CEC31F0E552E552230EE66E050E6B
:10227000E66E9CEC31F0E552E5520501FB0E0D6F68
:10228000040E0E6F040E0F6F050E106FE552E5522F
:10229000E5CFDAFFE7CFD9FF1200D9CFE6FFDACFDB
:1022A000E6FFE1CFD9FFE2CFDAFFE652E6520501C1
:1022B0005651000832E2F250E66EF29E1FC5E9FF69
:1022C00020C5EAFF060EE926000EEA22EECFDEFF69
:1022D000EDCFDDFFDECFE9FFDDCFEAFF020EE9261D
:1022E000000EEA22E9CF0BF0EACF0CF00BC0E6FFBC
:1022F0000CC0E6FF8CEC33F0E552E55205015707C0
:1023000005015607E552E7BEF28EDECFE6FFDDCFD0
:10231000E6FF0BD8E552E552CAD7E552E552E55241
:10232000E5CFDAFFE7CFD9FF1200D9CFE6FFDACF4A
:10233000E6FFE1CFD9FFE2CFDAFFFC0EDBCFE9FF0A
:10234000FD0EDBCFEAFF170EE926000EEA22EECFE4
:10235000E6FFEFCFE6FFBFEC35F0E552E552FC0EAD
:10236000DBCFE6FFFD0EDBCFE6FFBFEC35F0E5523D
:10237000E552E552E5CFDAFFE7CFD9FF1200D9CF1A
:10238000E6FFDACFE6FFE1CFD9FFE2CFDAFFE65290
:10239000E6520DC5E9FF0EC5EAFFEF50000902E164
:1023A000010E01D0000E000904E0050160696169B9
:1023B00024D00DC5E9FF0EC5EAFF030EE926000E85
:1023C000EA22020EE926000EEA22EE50EFCFEAFFE3
:1023D000E96E060EE926000EEA22EECFDEFFEDCF13
:1023E000DDFFDECFE9FFDDCFEAFF020EE926000EBA
:1023F000EA22EECF60F5EDCF61F5E552E552E55208
:10240000E5CFDAFFE7CFD9FF1200D9CFE6FFDACF69
:10241000E6FFE1CFD9FFE2CFDAFFE652E65254C53C
:10242000DEFF55C5DDFFDECF0BF0DDCF0CF00BC0BE
:10243000F3FF0CC0F4FFE552E552E552E5CFDAFFB9
:10244000E7CFD9FF1200D9CFE6FFDACFE6FFE1CF21
:10245000D9FFE2CFDAFFE65205015B5102E1010E3E
:1024600003D0645103E1020EDF6E01D0DF6ADF505A
:10247000E552E552E5CFDAFFE7CFD9FF1200D9CF19
:10248000E6FFDACFE6FFE1CFD9FFE2CFDAFFE6528F
:10249000E652E652FC0EDBCFDEFFDBCFDDFF020EA5
:1024A000DB6AD950FC0FE96EFF0EDA20EA6EEE50BF
:1024B000ED1001E106D1DECFE9FFDDCFEAFF160E18
:1024C000E926000EEA22EFCF0BF054C5E9FF55C50F
:1024D000EAFF160EEB500B5C01E3DCD0DECFE9FF28
:1024E000DDCFEAFF0C0EE926000EEA22EECF0BF05C
:1024F000EFCF0CF00B16800E0C160D6A0E6A0B5007
:102500000C100D100E1019E154C5E9FF55C5EAFF76
:10251000160EEB500B6E0C6A030ED8800B56000E95
:102520000C56DECFE9FFDDCFEAFF0C0EE926000EE8
:10253000EA220BC0EEFF0CC0EDFFDECFE9FFDDCFDE
:10254000EAFF020EE926000EEA22080EE926000E36
:10255000EA22EECF0BF0EFCF0CF0DECFE9FFDDCFBC
:10256000EAFF160EE926000EEA22EF50090DF3CF1E
:102570000DF0F4CF0EF0E00E0D26040E0E220D50DD
:102580000B1805E10E500C1802E1010E01D0000EEF
:1025900000096DE0DECFE9FFDDCFEAFF020EE9269C
:1025A000000EEA22E9CF0BF0EACF0CF0E9CFE6FF0C
:1025B000EACFE6FF8CEC33F0E552E552000954C552
:1025C000E9FF55C5EAFF160EEB50E66EDECFE9FFD8
:1025D000DDCFEAFF160EE926000EEA22E552E750AB
:1025E000EF6EDECFE9FFDDCFEAFF160EE926000E23
:1025F000EA22EFCF0BF005015A51D8800B540AE2C2
:10260000DECFE9FFDDCFEAFF160EE926000EEA2253
:10261000EFCF5AF5DECFE9FFDDCFEAFF020EE92664
:10262000000EEA22E9CF0BF0EACF0CF0E9CFE6FF8B
:10263000EACFE6FFDECFE9FFDDCFEAFF160EE9269F
:10264000000EEA22EF50090DF3CF0DF0F4CF0EF09B
:10265000E00E0D26040E0E220DC0E6FF0EC0E6FFB2
:102660002EEC32F0E552E552E552E55225D054C544
:10267000E9FF55C5EAFF160EEB50E66EDECFE9FF27
:10268000DDCFEAFF160EE926000EEA22E552E750FA
:10269000EF6E12D0DECFE9FFDDCFEAFF250EE9268F
:1026A000000EEA22EFCF0BF054C5E9FF55C5EAFF53
:1026B000160EEB500B5C05E2010EF36E020EF3CF2B
:1026C000DBFF020EDB50E552E552E552E552E5CF65
:1026D000DAFFE7CFD9FF1200D9CFE6FFDACFE6FF66
:1026E000E1CFD9FFE2CFDAFFE652E652E652FC0E26
:1026F000DBCFDEFFDBCFDDFF020EDB6AD950FC0F44
:10270000E96EFF0EDA20EA6EEE50ED1001E1BAD06C
:10271000DECFE9FFDDCFEAFF260EE926000EEA2232
:10272000EF06DECFE9FFDDCFEAFF160EE926000E49
:10273000EA22EFCF0BF0DECFE9FFDDCFEAFF250E77
:10274000E926000EEA22EF500B5C01E19BD0DECFC0
:10275000E9FFDDCFEAFF260EE926000EEA22EF5060
:1027600001E090D0DECFE9FFDDCFEAFF020EE926DF
:10277000000EEA22E9CF0BF0EACF0CF0E9CFE6FF3A
:10278000EACFE6FF8CEC33F0E552E5520009DECFEC
:10279000E9FFDDCFEAFF250EE926000EEA22EF5021
:1027A000E66EDECFE9FFDDCFEAFF160EE926000E6A
:1027B000EA22E552E750EF6EDECFE9FFDDCFEAFF18
:1027C000160EE926000EEA22EF500B6E0C6A030E7D
:1027D000D8800B56000E0C56DECFE9FFDDCFEAFFA6
:1027E0000C0EE926000EEA220BC0EEFF0CC0EDFF36
:1027F000DECFE9FFDDCFEAFF160EE926000EEA2262
:10280000EFCF0BF005015A51D8800B540AE2DECF0E
:10281000E9FFDDCFEAFF160EE926000EEA22EFCF30
:102820005AF5DECFE9FFDDCFEAFF020EE926000E02
:10283000EA22E9CF0BF0EACF0CF0E9CFE6FFEACFCE
:10284000E6FFDECFE9FFDDCFEAFF160EE926000E38
:10285000EA22EF50090DF3CF0DF0F4CF0EF0E00EA9
:102860000D26040E0E220DC0E6FF0EC0E6FF2EEC74
:1028700032F0E552E552E552E552010EF36E020EDA
:10288000F3CFDBFF020EDB50E552E552E552E55295
:10289000E5CFDAFFE7CFD9FF1200D9CFE6FFDACFD5
:1028A000E6FFE1CFD9FFE2CFDAFFE652E652E65289
:1028B000E652E652FC0EDBCFDEFFDBCFDDFF010E82
:1028C000F36E040EF3CFDBFFD950FC0FE96EFF0E61
:1028D000DA20EA6EEE50ED1001E1FFD0DECFE9FF25
:1028E000DDCFEAFF250EE926000EEA22EFCF0BF03E
:1028F000FB0EDB500B5C07E2FB0EDB50E76E030EBA
:10290000E7CFDBFF0BD0DECFE9FFDDCFEAFF250EFF
:10291000E926000EEA22030EEFCFDBFFDECFE9FF50
:10292000DDCFEAFF160EE926000EEA22EFCF0BF00C
:10293000030EDB500B5C01E1D0D0DECFE9FFDDCF31
:10294000EAFF260EE926000EEA22EFCF0BF0040E76
:10295000DB500B5C01E0C1D0DECFE9FFDDCFEAFF49
:10296000160EE926000EEA22020EEFCFDBFFDECFC5
:10297000E9FFDDCFEAFF160EE926000EEA22030E7C
:10298000DBCFEFFFDECFE9FFDDCFEAFF0C0EE9265C
:10299000000EEA22EECF0BF0EFCF0CF00B16800EFC
:1029A0000C160D6A0E6A0B500C100D100E1015E16E
:1029B000030EDB500B6E0C6A030ED8800B56000E14
:1029C0000C56DECFE9FFDDCFEAFF0C0EE926000E44
:1029D000EA220BC0EEFF0CC0EDFFDECFE9FFDDCF3A
:1029E000EAFF020EE926000EEA22080EE926000E92
:1029F000EA22EECF0BF0EFCF0CF0020EDB50090D08
:102A0000F3CF0DF0F4CF0EF0E00E0D26040E0E22E3
:102A10000D500B1805E10E500C1802E1010E01D00B
:102A2000000E00095AE0DECFE9FFDDCFEAFF020E1B
:102A3000E926000EEA22E9CF0BF0EACF0CF0E9CF4D
:102A4000E6FFEACFE6FF8CEC33F0E552E5520009F1
:102A5000DECFE9FFDDCFEAFF160EE926000EEA22FF
:102A6000EFCF0BF005015A51D8800B540AE2DECFAC
:102A7000E9FFDDCFEAFF160EE926000EEA22EFCFCE
:102A80005AF5DECFE9FFDDCFEAFF020EE926000EA0
:102A9000EA22E9CF0BF0EACF0CF0E9CFE6FFEACF6C
:102AA000E6FFDECFE9FFDDCFEAFF160EE926000ED6
:102AB000EA22EF50090DF3CF0DF0F4CF0EF0E00E47
:102AC0000D26040E0E220DC0E6FF0EC0E6FF2EEC12
:102AD00032F0E552E552E552E552050EE15C02E2C4
:102AE000E16AE552E16EE552E5CFDAFFE7CFD9FFC3
:102AF0001200D9CFE6FFDACFE6FFE1CFD9FFE2CF70
:102B0000DAFFE652E65254C5E9FF55C5EAFF0C0E5E
:102B1000E926000EEA22EECFDEFFEDCFDDFF54C541
:102B2000E9FF55C5EAFF160EEB500B6E0C6A030E5B
:102B3000D8800B56000E0C5654C5E9FF55C5EAFF68
:102B40000C0EE926000EEA220BC0EEFF0CC0EDFFD2
:102B5000DECF0BF0DDCF0CF00BC0F3FF0CC0F4FFA9
:102B6000E552E552E552E5CFDAFFE7CFD9FF120093
:102B700005015451551109E054C5E9FF55C5EAFF57
:102B8000260EE926000EEA22EF2A54C5F3FF55C5AA
:102B9000F4FF1200D9CFE6FFDACFE6FFE1CFD9FF8D
:102BA000E2CFDAFFE652E652E652E652F250E66E25
:102BB000F29E54C5E9FF55C5EAFF310EE926000E25
:102BC000EA22EECF0BF0EECF0CF0EECF0DF0EFCF10
:102BD0000EF00B500C100D100E1027E154C5E9FF3C
:102BE00055C5EAFF350EE926000EEA22010EEF6E0A
:102BF000D950FB0FE96EFF0EDA20EA6E000ED88086
:102C0000EE54000EED5410E2010EE66EFB0EDBCF2B
:102C1000E6FFFC0EDBCFE6FF11EC1BF0E552E552C0
:102C2000E5527CEC2FF000D000D0E552E7BEF28EEA
:102C3000F250E66EF29E54C5E9FF55C5EAFF310E2B
:102C4000E926000EEA22EECFDFFF010EEECFDBFF1A
:102C5000020EEECFDBFF030EEECFDBFFD9CFE9FF95
:102C6000DACFEAFFEECF0BF0EECF0CF0EECF0DF0A7
:102C7000EFCF0EF00B500C100D100E1034E0FD0EC7
:102C8000DB500DE054C5E9FF55C5EAFF310EE926DA
:102C9000000EEA22EE6AEE6AEE6AEE6A23D0D9CF1F
:102CA000E9FFDACFEAFFEECF0BF0EECF0CF0EECF7C
:102CB0000DF0EFCF0EF00B06000E0C5A000E0D5A61
:102CC000000E0E5A54C5E9FF55C5EAFF310EE9263C
:102CD000000EEA220BC0EEFF0CC0EEFF0DC0EEFFAF
:102CE0000EC0EEFF00D054C5E9FF55C5EAFF350E12
:102CF000E926000EEA22EF6AE552E7BEF28EDECF49
:102D000004F0DECF05F0DECF06F0DDCF07F0DD52B8
:102D1000DD5200D0040EE15C02E2E16AE552E16EB0
:102D2000E552E5CFDAFFE7CFD9FF1200D9CFE6FFB2
:102D3000DACFE6FFE1CFD9FFE2CFDAFFE652F25079
:102D4000E66EF29E54C5E9FF55C5EAFF350EEB501D
:102D5000020847E0FA0EDBCF0BF0FB0EDBCF0CF0E6
:102D6000FC0EDBCF0DF0FD0EDBCF0EF00B1E0C1EAC
:102D70000D1E0E1E54C5E9FF55C5EAFF310EE926AA
:102D8000000EEA220B50EE160C50EE160D50EE1609
:102D90000E50EE1654C5E9FF55C5EAFF350EE9267B
:102DA000000EEA22010EEF6ED950F20FE96EFF0E0F
:102DB000DA20EA6E000ED880EE54000EED5410E2D8
:102DC000010EE66EF20EDBCFE6FFF30EDBCFE6FF81
:102DD00011EC1BF0E552E552E5527CEC2FF000D0EF
:102DE00000D0E552E7BEF28EF250E66EF29ED95068
:102DF000F40FE96EFF0EDA20EA6EEE50ED101EE0E1
:102E000054C5E9FF55C5EAFF310EE926000EEA2256
:102E1000EECF0BF0EECF0CF0EECF0DF0EFCF0EF0CB
:102E2000F40EDBCFE9FFF50EDBCFEAFF0BC0EEFFC0
:102E30000CC0EEFF0DC0EEFF0EC0EEFF54C5E9FF63
:102E400055C5EAFF350EEB50020802E0DF6A22D0DA
:102E5000F60EDBCF0BF0F70EDBCF0CF0F80EDBCF6E
:102E60000DF0F90EDBCF0EF00B1E0C1E0D1E0E1E0C
:102E700054C5E9FF55C5EAFF310EE926000EEA22E6
:102E80000B50EE160C50EE160D50EE160E50EE16C0
:102E9000010EDF6E54C5E9FF55C5EAFF350EE92680
:102EA000000EEA22EF6AE552E7BEF28EDF5000D054
:102EB000E552E552E5CFDAFFE7CFD9FF1200D9CFCF
:102EC000E6FFDACFE6FFE1CFD9FFE2CFDAFFE65245
:102ED000E652E652E652010EF36E020EF3CFDBFF2E
:102EE000FC0EDBCFDEFFDBCFDDFFF250E66EF29EA5
:102EF000D950F50FE96EFF0EDA20EA6EEE50ED10B4
:102F00001EE0DECFE9FFDDCFEAFF310EE926000E3D
:102F1000EA22EECF0BF0EECF0CF0EECF0DF0EFCFBC
:102F20000EF0F50EDBCFE9FFF60EDBCFEAFF0BC0AC
:102F3000EEFF0CC0EEFF0DC0EEFF0EC0EEFFDECFC9
:102F4000E9FFDDCFEAFF350EE926000EEA22030E87
:102F5000EFCFDBFFDECFE9FFDDCFEAFF350EE9265D
:102F6000000EEA22020EEF6EF70EDB505DE0040A5F
:102F70003FE0070A28E0010A18E0030A01E055D003
:102F8000DECFE9FFDDCFEAFF310EE926000EEA22AF
:102F9000F80EDB50EE12F90EDB50EE12FA0EDB509B
:102FA000EE12FB0EDB50EE1241D0DECFE9FFDDCF9B
:102FB000EAFF310EE926000EEA22EE2A000EEE228A
:102FC000EE22EE2233D0DECFE9FFDDCFEAFF310E75
:102FD000E926000EEA22F80EDBCFEEFFF90EDBCF7A
:102FE000EEFFFA0EDBCFEEFFFB0EDBCFEEFF1ED0C7
:102FF000030EDB50020815E0DECFE9FFDDCFEAFF6C
:10300000310EE926000EEA22F80EDBCFEEFFF90EB4
:10301000DBCFEEFFFA0EDBCFEEFFFB0EDBCFEEFFDA
:1030200002D0020EDB6A02D001D000D0030EDB0416
:103030006EE1DECFE9FFDDCFEAFF020EE926000EEA
:10304000EA22E9CF0BF0EACF0CF00BC0E6FF0CC090
:10305000E6FF8CEC33F0E552E552DECFE9FFDDCF41
:10306000EAFF160EE926000EEA22EFCF0BF005016B
:103070005A51D8800B540AE2DECFE9FFDDCFEAFFD8
:10308000160EE926000EEA22EFCF5AF5DECFE9FF51
:10309000DDCFEAFF020EE926000EEA22E9CF0BF0AF
:1030A000EACF0CF00BC0E6FF0CC0E6FFDECFE9FF75
:1030B000DDCFEAFF160EE926000EEA22EF50090DD9
:1030C000F3CF0DF0F4CF0EF0E00E0D26040E0E221D
:1030D0000DC0E6FF0EC0E6FF2EEC32F0E552E552E1
:1030E000E552E552DECFE9FFDDCFEAFF160EE92615
:1030F000000EEA22EFCF0BF054C5E9FF55C5EAFFF9
:10310000160EEB50D8800B5401E200D000D0E552EF
:10311000E7BEF28E020EDB5000D00B6E040EE15CB7
:1031200002E2E16AE552E16E0B50E552E5CFDAFFCB
:10313000E7CFD9FF1200D9CFE6FFDACFE6FFE1CF24
:10314000D9FFE2CFDAFFE652E652E652E652E65205
:10315000010EF36E030EF3CFDBFFFC0EDBCFDEFFC1
:10316000DBCFDDFF040EDB6AD950F50FE96EFF0EF1
:10317000DA20EA6EEE50ED101EE0DECFE9FFDDCF83
:10318000EAFF310EE926000EEA22EECF0BF0EECF79
:103190000CF0EECF0DF0EFCF0EF0F50EDBCFE9FF28
:1031A000F60EDBCFEAFF0BC0EEFF0CC0EEFF0DC04A
:1031B000EEFF0EC0EEFFDECFE9FFDDCFEAFF350EFA
:1031C000E926000EEA22020EEFCFDBFFDECFE9FF99
:1031D000DDCFEAFF350EE926000EEA22020EEF6E81
:1031E000F70EDB5045E0040A28E0070A2AE0010A4E
:1031F00017E0030A3DE1DECFE9FFDDCFEAFF310E44
:10320000E926000EEA22F80EDB50EE12F90EDB5032
:10321000EE12FA0EDB50EE12FB0EDB50EE1228D04F
:10322000DECFE9FFDDCFEAFF310EE926000EEA220C
:10323000EE2AEE22EE22EE221BD0020EDB50020816
:1032400015E0DECFE9FFDDCFEAFF310EE926000E03
:10325000EA22F80EDBCFEEFFF90EDBCFEEFFFA0E1F
:10326000DBCFEEFFFB0EDBCFEEFF02D0030EDB6AFF
:10327000020EDB0401E098D00501645154E1DECF79
:10328000E9FFDDCFEAFF020EE926000EEA22E9CFD0
:103290000BF0EACF0CF0E9CFE6FFEACFE6FF8CECCB
:1032A00033F0E552E552DECFE9FFDDCFEAFF160E3F
:1032B000E926000EEA22EFCF0BF005015A51D88023
:1032C0000B540AE2DECFE9FFDDCFEAFF160EE92656
:1032D000000EEA22EFCF5AF5DECFE9FFDDCFEAFF9D
:1032E000020EE926000EEA22E9CF0BF0EACF0CF03D
:1032F000E9CFE6FFEACFE6FFDECFE9FFDDCFEAFF69
:10330000160EE926000EEA22EF50090DF3CF0DF05C
:10331000F4CF0EF0E00E0D26040E0E220DC0E6FFD7
:103320000EC0E6FF14D0DECFE9FFDDCFEAFF0C0EC2
:10333000E926000EEA22E9CF0BF0EACF0CF0E9CF44
:10334000E6FFEACFE6FF110EE66E050EE66E2EEC06
:1033500032F0E552E552E552E552DECFE9FFDDCF2E
:10336000EAFF160EE926000EEA22EFCF0BF054C555
:10337000E9FF55C5EAFF160EEB50D8800B5414E256
:10338000D950F30FE96EFF0EDA20EA6EEE50ED1021
:1033900008E0F30EDBCFE9FFF40EDBCFEAFF010E0E
:1033A000EF6E0501010E5D6F030EDB500B6E050E17
:1033B000E15C02E2E16AE552E16E0B50E552E5CFD5
:1033C000DAFFE7CFD9FF1200D9CFE6FFDACFE6FF69
:1033D000E1CFD9FFE2CFDAFFE652E652E652E652FB
:1033E000FC0EDBCFDEFFDBCFDDFF030EDB6ADECFC3
:1033F000E9FFDDCFEAFF350EE926000EEA22020ED4
:10340000EFCFDBFFDECFE9FFDDCFEAFF350EE926A8
:10341000000EEA22020EEF6EDECFE9FFDDCFEAFFFB
:10342000310EE926000EEA22EE2AEE22EE22EE22EC
:10343000020EDB0401E098D00501645154E1DECFB7
:10344000E9FFDDCFEAFF020EE926000EEA22E9CF0E
:103450000BF0EACF0CF0E9CFE6FFEACFE6FF8CEC09
:1034600033F0E552E552DECFE9FFDDCFEAFF160E7D
:10347000E926000EEA22EFCF0BF005015A51D88061
:103480000B540AE2DECFE9FFDDCFEAFF160EE92694
:10349000000EEA22EFCF5AF5DECFE9FFDDCFEAFFDB
:1034A000020EE926000EEA22E9CF0BF0EACF0CF07B
:1034B000E9CFE6FFEACFE6FFDECFE9FFDDCFEAFFA7
:1034C000160EE926000EEA22EF50090DF3CF0DF09B
:1034D000F4CF0EF0E00E0D26040E0E220DC0E6FF16
:1034E0000EC0E6FF14D0DECFE9FFDDCFEAFF0C0E01
:1034F000E926000EEA22E9CF0BF0EACF0CF0E9CF83
:10350000E6FFEACFE6FF110EE66E050EE66E2EEC44
:1035100032F0E552E552E552E552DECFE9FFDDCF6C
:10352000EAFF160EE926000EEA22EFCF0BF054C593
:10353000E9FF55C5EAFF160EEB50D8800B5414E294
:10354000D950FA0FE96EFF0EDA20EA6EEE50ED1058
:1035500008E0FA0EDBCFE9FFFB0EDBCFEAFF010E3E
:10356000EF6E0501010E5D6F040EE15C02E2E16A9F
:10357000E552E16EE552E5CFDAFFE7CFD9FF120061
:10358000D9CFE6FFDACFE6FFE1CFD9FFE2CFDAFF0E
:10359000E652E652E652D950FC0FE96EFF0EDA20F1
:1035A000EA6EEE50ED1005E154C50BF055C50CF078
:1035B00006D0FC0EDBCF0BF0FD0EDBCF0CF00BC00A
:1035C000DEFF0CC0DDFFF250E66EF29EDECFE9FFBB
:1035D000DDCFEAFF350EE926000EEA22EF500208A1
:1035E0000FE1DECFE9FFDDCFEAFF350EE926000E61
:1035F000EA22EF6A010EF36E020EF3CFDBFF02D078
:10360000020EDB6AE552E7BEF28E020EDB5000D0FE
:10361000E552E552E552E552E5CFDAFFE7CFD9FFB3
:103620001200D9CFE6FFDACFE6FFE1CFD9FFE2CF34
:10363000DAFFE652E652E652E652020E58C5DBFFCA
:10364000030E59C5DBFF54C5E9FF55C5EAFF020E5D
:10365000E926000EEA22E9CF0BF0EACF0CF0E9CF21
:10366000E6FFEACFE6FF8CEC33F0E552E5520009C5
:10367000D950FC0FE96EFF0EDA20EA6EFF0EEE184D
:103680001DE1FF0EED181AE1FB0EDB5017E054C5EB
:10369000E9FF55C5EAFF020EE926000EEA22E9CF4E
:1036A0000BF0EACF0CF0E9CFE6FFEACFE6FF230EFE
:1036B000E66E050EE66E2EEC32F042D0FC0EDBCF4D
:1036C0000DF0FD0EDBCF0EF0020EDB500D240B6E65
:1036D000030EDB500E200C6E0BC0DEFFDD6E54C5FA
:1036E000E9FF55C5EAFF020EE926000EEA22DECF09
:1036F000EEFFDDCFEDFFDECF0BF0DDCF0CF0020EE5
:10370000DBCF0DF0030EDBCF0EF00D500B5C0E5037
:103710000C581BE254C5E9FF55C5EAFF020EE92625
:10372000000EEA22E9CF0BF0EACF0CF0E9CFE6FF7A
:10373000EACFE6FF0FC5E6FF10C5E6FFAEEC32F0BC
:10374000E552E552E552E55228D054C5E9FF55C58A
:10375000EAFF020EE926000EEA22E9CF0BF0EACFDB
:103760000CF0E9CFE6FFEACFE6FF0DC5E6FF0EC598
:10377000E6FFAEEC32F0E552E552E552E552DECF1F
:103780000BF0DDCF0CF0050160510B5C61510C5862
:1037900004E2DECF60F5DDCF61F5040EE15C02E20C
:1037A000E16AE552E16EE552E5CFDAFFE7CFD9FFF6
:0237B000120005
:0E37B200D9CFE6FFDACFE6FFE1CFD9FFE2CFB5
:1037C000DAFFE652E652FC0EDBCFDEFFDBCFDDFF99
:1037D000F250E66EF29EDECFE9FFDDCFEAFF1C0E6F
:1037E000E926000EEA22EFCF0FF0DECFE9FFDDCFB2
:1037F000EAFF1B0EE926000EEA22EF500F02F350FB
:103800000D6E0E6ADECFE9FFDDCFEAFF0D50EE242C
:103810000B6E0E50EE200C6EDECFE9FFDDCFEAFF1F
:10382000040EE926000EEA220BC0EEFF0CC0EDFFED
:10383000DECFE9FFDDCFEAFF1A0EE926000EEA220D
:10384000EF6ADECFE9FFDDCFEAFFEECF0BF0EFCF7F
:103850000CF0DECFE9FFDDCFEAFF020EE926000E15
:10386000EA220BC0EEFF0CC0EDFFDECFE9FFDDCF9B
:10387000EAFF1C0EE926000EEA22EFCF0FF0DECFA2
:10388000E9FFDDCFEAFF1B0EE926000EEA22EF0476
:103890000F02F3500D6E0E6ADECFE9FFDDCFEAFFB7
:1038A0000D50EE240B6E0E50EE200C6EDECFE9FFB5
:1038B000DDCFEAFF040EE926000EEA22020EE92619
:1038C000000EEA220BC0EEFF0CC0EDFFDECFE9FFD9
:1038D000DDCFEAFF1D0EE926000EEA22EF68DECFFB
:1038E000E9FFDDCFEAFF1E0EE926000EEA22EF68AF
:1038F000FB0EDB5028E1DECFE9FFDDCFEAFF080E4B
:10390000E926000EEA22EF5002E1010E01D0000E7E
:10391000000918E1DECFE9FFDDCFEAFF080EE92656
:10392000000EEA22E9CF0BF0EACF0CF00BC0E6FF65
:103930000CC0E6FFAAEC0DF0E552E552000901E0EB
:1039400000D000D028D0DECFE9FFDDCFEAFF080E9F
:10395000E926000EEA22E9CF0BF0EACF0CF00BC00B
:10396000E6FF0CC0E6FF9CEC31F0E552E552DECFFD
:10397000E9FFDDCFEAFF110EE926000EEA22E9CFCA
:103980000BF0EACF0CF00BC0E6FF0CC0E6FF9CEC9E
:1039900031F0E552E552E552E7BEF28E010E00D05D
:1039A000E552E552E552E5CFDAFFE7CFD9FF120045
:1039B000D9CFE6FFDACFE6FFE1CFD9FFE2CFDAFFDA
:1039C000060EE12402E3E168E652E16EFC0EDB50F4
:1039D00005E1020EDB6A030EDB6A13D0FC0EDBCFBF
:1039E000E6FFFD0EDB50E552E702F350E66ED950DC
:1039F000020FE96E000EDA20EA6EE552E750EE6E35
:103A0000ED6A020EDBCF0BF0030EDBCF0CF01F0EC6
:103A10000B26000E0C220BC0E6FF0CC0E6FF5DEC8F
:103A200035F0E552E552F3CFDEFFF4CFDDFFD9CF1D
:103A3000E9FFDACFEAFFEE50ED1030E0D9CFE9FF31
:103A4000DACFEAFF040EEECFDBFF050EEDCFDBFF92
:103A5000D950040FE96E000EDA20EA6E1F0EEE2632
:103A6000000EED22DECFE6FFDDCFE6FFFB0EDBCF63
:103A7000E6FF040EDBCFE6FF050EDBCFE6FFFC0E14
:103A8000DBCFE6FFFD0EDBCFE6FF1CD80B6E070E8B
:103A9000E15C02E2E16AE552E16E0B50DECF0BF031
:103AA000DDCF0CF00BC0F3FF0CC0F4FF060EE15CA1
:103AB00002E2E16AE552E16EE552E5CFDAFFE7CFD7
:103AC000D9FF1200D9CFE6FFDACFE6FFE1CFD9FF69
:103AD000E2CFDAFFFC0EDB500BE1F70EDBCFE9FFA4
:103AE000F80EDBCFEAFFF70EDBCFEEFFF80E0AD0C1
:103AF000F70EDBCFE9FFF80EDBCFEAFFFA0EDBCFE4
:103B0000EEFFFB0EDBCFEDFFF70EDBCFE9FFF80E8C
:103B1000DBCFEAFF1B0EE926000EEA22FD0EDBCF0B
:103B2000EFFFF70EDBCFE9FFF80EDBCFEAFF1C0E4D
:103B3000E926000EEA22FC0EDBCFEFFF010EE66E57
:103B4000F70EDBCFE6FFF80EDBCFE6FF32DEE55205
:103B5000E552E552E552E5CFDAFFE7CFD9FF120093
:103B6000D9CFE6FFDACFE6FFE1CFD9FFE2CFDAFF28
:103B7000E150FC0FE96EFF0EE220EA6EEE50ED1010
:103B800037E0FC0EDBCFE9FFFD0EDBCFEAFF040ED2
:103B9000E926000EEA22EE6AED6AFC0EDBCFE9FFB1
:103BA000FD0EDBCFEAFFEE6AED6AFC0EDBCFE9FF2C
:103BB000FD0EDBCFEAFF040EE926000EEA22020E1C
:103BC000E926000EEA22EF6AE66AE66EE66AE66E2B
:103BD000E66AFC0EDBCFE6FFFD0EDBCFE6FF87D803
:103BE0000B6E070EE15C02E2E16AE552E16E0B50FA
:103BF000E552E5CFDAFFE7CFD9FF1200D9CFE6FFD4
:103C0000DACFE6FFE1CFD9FFE2CFDAFFE652E652A4
:103C1000E652E652010EF36E020EF3CFDBFF030E07
:103C2000DB6AFD0EDBCFE6FF030EDBCFE6FF020E05
:103C3000DBCFE6FFBDDEE552E552E552F3CFDEFF16
:103C4000F4CFDDFFDECFE6FFDDCFE6FF89DFE55213
:103C5000E552DECF0BF0DDCF0CF00BC0F3FF0CC054
:103C6000F4FF040EE15C02E2E16AE552E16EE55226
:103C7000E5CFDAFFE7CFD9FF1200D9CFE6FFDACFE1
:103C8000E6FFE1CFD9FFE2CFDAFFE652E652020EBD
:103C9000E66EE66AFD0EDBCFE6FF8ADEE552E55210
:103CA000E552F3CFDEFFF4CFDDFFD9CFE9FFDACF66
:103CB000EAFFEE50ED100BE0DECFE9FFDDCFEAFFCB
:103CC0001A0EE926000EEA22FC0EDBCFEFFFDECF54
:103CD0000BF0DDCF0CF00BC0F3FF0CC0F4FFE5528E
:103CE000E552E552E5CFDAFFE7CFD9FF1200D9CF91
:103CF000E6FFDACFE6FFE1CFD9FFE2CFDAFF070E2A
:103D0000E12402E3E168E652E16EDF6AFC0EDBCFFC
:103D100006F0FD0EDBCF07F0050E06C0DBFF060E3A
:103D200007C0DBFFF250E66EF29E050EDBCFE9FF27
:103D3000060EDBCFEAFF1A0EE926000EEA22EFCFCD
:103D40000BF0050EDBCFE9FF060EDBCFEAFF1B0E03
:103D5000E926000EEA22EF500B5C04E3F70EDB507D
:103D6000020852E1F70EDBCFE6FFFA0EDBCFE6FFEB
:103D7000FB0EDBCFE6FF050EDBCFE6FF060EDBCF4B
:103D8000E6FF12EC28F00B6E050EE15C02E2E16A40
:103D9000E552E16E0B50E76E010EE7CFDBFF050E3B
:103DA000DBCFE9FF060EDBCFEAFF110EE926000E9E
:103DB000EA22EF5002E1010E01D0000E00091AE1E3
:103DC000050EDBCFE9FF060EDBCFEAFF110EE92679
:103DD000000EEA22E9CF0BF0EACF0CF00BC0E6FFB1
:103DE0000CC0E6FFAAEC0DF0E552E552000901E037
:103DF00000D004D0010EDB5001E000D0E552E7BE58
:103E0000F28E010EC5D01ED0D950F80FE96EFF0E0C
:103E1000DA20EA6EEE50ED1006E1E552E7BEF28ED2
:103E2000000EB6D00FD0DF500DE1D950020FE66E74
:103E3000000EDA20E66E4FEC0FF0E552E552010E6F
:103E4000DF6E00D0E552E7BEF28EDCEC09F0F250F6
:103E5000E66EF29E050EDBCFE9FF060EDBCFEAFF32
:103E60001D0EE926000EEA22EF50FF080BE1050EB9
:103E7000DBCFE9FF060EDBCFEAFF1D0EE926000EC1
:103E8000EA22EF6A050EDBCFE9FF060EDBCFEAFF81
:103E90001E0EE926000EEA22EF50FF080BE1050E88
:103EA000DBCFE9FF060EDBCFEAFF1E0EE926000E90
:103EB000EA22EF6AE552E7BEF28ED950F80FE66EBD
:103EC000FF0EDA20E66ED950020FE66E000EDA2001
:103ED000E66E70EC0FF0E552E552E552E55200094E
:103EE00048E1050EDBCFE6FF060EDBCFE6FF79ECFF
:103EF0002BF0E552E55200092FE0F80EDBCFE6FF8C
:103F0000F90EDBCFE6FF050EDBCFE9FF060EDBCFB8
:103F1000EAFF080EE926000EEA22E9CF0BF0EACF0D
:103F20000CF00BC0E6FF0CC0E6FF28EC0DF0E552EC
:103F3000E552E552E552050EDBCFE6FF060EDBCF7C
:103F4000E6FF57EC2AF0E552E552DFEC09F00009F4
:103F500002E17CEC2FF00CD0050EDBCFE6FF060E65
:103F6000DBCFE6FF57EC2AF0E552E552DFEC09F033
:103F70000ED0050EDBCFE6FF060EDBCFE6FF57ECDB
:103F80002AF0E552E552DFEC09F0000E01D0CAD666
:103F90000B6E070EE15C02E2E16AE552E16E0B5046
:103FA000E552E5CFDAFFE7CFD9FF1200D9CFE6FF20
:103FB000DACFE6FFE1CFD9FFE2CFDAFFE652E652F1
:103FC000E652E652E652FC0EDBCF06F0FD0EDBCFEA
:103FD00007F0020E06C0DBFF030E07C0DBFF010E79
:103FE000DB6A020EDBCFE9FF030EDBCFEAFF1A0E1E
:103FF000E926000EEA22EFCF0BF0020EDBCFE9FF3D
:10400000030EDBCFEAFF1B0EE926000EEA22EF507B
:104010000B5C05E3F70EDB50020801E077D0020EDF
:10402000DBCFE9FF030EDBCFEAFF1E0EE926000E11
:10403000EA22040EEFCFDBFFF70EDBCFE6FFFA0E2E
:10404000DBCFE6FFFB0EDBCFE6FF020EDBCFE6FFAA
:10405000030EDBCFE6FF12EC28F00B6E050EE15CE1
:1040600002E2E16AE552E16E0B50040EDB50FF08FC
:104070003AE1020EDBCFE9FF030EDBCFEAFF110EC0
:10408000E926000EEA22EF5002E1010E01D0000EF7
:10409000000939E1020EDBCFE9FF030EDBCFEAFFB7
:1040A000110EE926000EEA22E9CF0BF0EACF0CF060
:1040B000E9CFE6FFEACFE6FFAAEC0DF0E552E552C4
:1040C000000921E0D950F80FE96EFF0EDA20EA6E00
:1040D000EE50ED1018E0F80EDBCFE9FFF90EDBCF64
:1040E000EAFF010E0FD0040EDB28E66E020EDBCFD6
:1040F000E9FF030EDBCFEAFF1E0EE926000EEA22DF
:10410000E552E750EF6E010EDF6E01D0DF6ADF503F
:104110000B6E050EE15C02E2E16AE552E16E0B50C6
:10412000E552E5CFDAFFE7CFD9FF1200D9CFE6FF9E
:10413000DACFE6FFE1CFD9FFE2CFDAFF060EE124C6
:1041400002E3E168E652E16EFC0EDBCF06F0FD0E05
:10415000DBCF07F0020E06C0DBFF030E07C0DBFF5C
:10416000010EDB6A020EDBCFE9FF030EDBCFEAFFB5
:104170001A0EE926000EEA22040EEFCFDBFF020E34
:10418000DBCFE9FF030EDBCFEAFF1B0EE926000EB3
:10419000EA22EF50F36E040EDBCFF4FFF350F45C31
:1041A0006EE2020EDBCFE9FF030EDBCFEAFF1E0E4D
:1041B000E926000EEA22050EEFCFDBFF040EDB2816
:1041C000E66E020EDBCFE9FF030EDBCFEAFF1A0E2D
:1041D000E926000EEA22E552E750EF6E050EDB50AD
:1041E000FF083AE1020EDBCFE9FF030EDBCFEAFF67
:1041F000110EE926000EEA22EF5002E1010E01D075
:10420000000E000939E1020EDBCFE9FF030EDBCF20
:10421000EAFF110EE926000EEA22E9CF0BF0EACF01
:104220000CF0E9CFE6FFEACFE6FFAAEC0DF0E5528D
:10423000E552000921E0D950FA0FE96EFF0EDA20AD
:10424000EA6EEE50ED1018E0FA0EDBCFE9FFFB0E40
:10425000DBCFEAFF010E0FD0050EDB28E66E020E63
:10426000DBCFE9FF030EDBCFEAFF1E0EE926000ECF
:10427000EA22E552E750EF6E010EDF6E01D0DF6AF1
:10428000DF500B6E060EE15C02E2E16AE552E16E80
:104290000B50E552E5CFDAFFE7CFD9FF1200D9CFB7
:1042A000E6FFDACFE6FFE1CFD9FFE2CFDAFF070E74
:1042B000E12402E3E168E652E16EDF6AFC0EDBCF47
:1042C00006F0FD0EDBCF07F0040E06C0DBFF050E87
:1042D00007C0DBFFF250E66EF29E040EDBCFE9FF73
:1042E000050EDBCFEAFF1A0EE926000EEA22060EC3
:1042F000EFCFDBFF060EDB50000853E2FA0EDBCFF8
:10430000E6FFFB0EDBCFE6FF040EDBCFE6FF050E7C
:10431000DBCFE6FFA8EC29F0E552E552E552E55285
:10432000060EDB04E66E040EDBCFE9FF050EDBCFE5
:10433000EAFF1A0EE926000EEA22E552E750EF6E78
:10434000040EDBCFE9FF050EDBCFEAFF080EE926FE
:10435000000EEA22EF5002E1010E01D0000E00092A
:104360001AE1040EDBCFE9FF050EDBCFEAFF080EF2
:10437000E926000EEA22E9CF0BF0EACF0CF00BC0E1
:10438000E6FF0CC0E6FFAAEC0DF0E552E55200098D
:1043900001E000D000D0E552E7BEF28E010ED3D08E
:1043A0001ED0D950F80FE96EFF0EDA20EA6EEE50FB
:1043B000ED1006E1E552E7BEF28E000EC4D00FD03C
:1043C000DF500DE1D950010FE66E000EDA20E66EE7
:1043D0004FEC0FF0E552E552010EDF6E00D0E552D2
:1043E000E7BEF28EDCEC09F0F250E66EF29E040EAF
:1043F000DBCFE9FF050EDBCFEAFF1D0EE926000E3D
:10440000EA22EF50FF080BE1040EDBCFE9FF050EB7
:10441000DBCFEAFF1D0EE926000EEA22EF6A040E4A
:10442000DBCFE9FF050EDBCFEAFF1E0EE926000E0B
:10443000EA22EF50FF080BE1040EDBCFE9FF050E87
:10444000DBCFEAFF1E0EE926000EEA22EF6AE552F4
:10445000E7BEF28ED950F80FE66EFF0EDA20E66E58
:10446000D950010FE66E000EDA20E66E70EC0FF008
:10447000E552E552E552E552000949E1040EDBCF71
:10448000E6FF050EDBCFE6FF20EC2BF0E552E55210
:10449000000930E0F80EDBCFE6FFF90EDBCFE6FFD8
:1044A000040EDBCFE9FF050EDBCFEAFF110EE92694
:1044B000000EEA22E9CF0BF0EACF0CF00BC0E6FFCA
:1044C0000CC0E6FF28EC0DF0E552E552E552E5524E
:1044D000040EDBCFE6FF050EDBCFE6FF57EC2AF03C
:1044E000E552E552DFEC09F0000903E17CEC2FF026
:1044F00000D00CD0040EDBCFE6FF050EDBCFE6FFCD
:1045000057EC2AF0E552E552DFEC09F01BD0040E1F
:10451000DBCFE6FF050EDBCFE6FF57EC2AF0E552D6
:10452000E552DFEC09F0040EDBCFE6FF050EDBCF32
:10453000E6FF20EC2BF0E552E552000903E0000E07
:1045400002D000D0C7D60B6E070EE15C02E2E16A32
:10455000E552E16E0B50E552E5CFDAFFE7CFD9FF28
:104560001200D9CFE6FFDACFE6FFE1CFD9FFE2CFE5
:10457000DAFF090EE12402E3E168E652E16EDF6A48
:10458000FC0EDBCF06F0FD0EDBCF07F0040E06C0FD
:10459000DBFF050E07C0DBFF060EDB6AF250E66E9E
:1045A000F29E040EDBCFE9FF050EDBCFEAFF1A0E09
:1045B000E926000EEA22070EEFCFDBFF070EDB50E5
:1045C00000085FE2070EDB04E66E040EDBCFE9FFB6
:1045D000050EDBCFEAFF1A0EE926000EEA22E552AD
:1045E000E750EF6E040EDBCFE9FF050EDBCFEAFFED
:1045F000EE50ED1015E1B8EC15F0F3CF0BF0F4CF61
:104600000CF0040EDBCFE9FF050EDBCFEAFF040E52
:10461000E926000EEA220BC0EEFF0CC0EDFF00D031
:10462000040EDBCFE9FF050EDBCFEAFF080EE9261B
:10463000000EEA22EF5002E1010E01D0000E000947
:104640001AE1040EDBCFE9FF050EDBCFEAFF080E0F
:10465000E926000EEA22E9CF0BF0EACF0CF00BC0FE
:10466000E6FF0CC0E6FFAAEC0DF0E552E5520009AA
:1046700001E000D000D0E552E7BEF28E010E25D158
:104680001ED0D950FA0FE96EFF0EDA20EA6EEE5016
:10469000ED1006E1E552E7BEF28E000E16D10FD006
:1046A000DF500DE1D950010FE66E000EDA20E66E04
:1046B0004FEC0FF0E552E552010EDF6E00D0E552EF
:1046C000E7BEF28EDCEC09F0F250E66EF29E040ECC
:1046D000DBCFE9FF050EDBCFEAFF1D0EE926000E5A
:1046E000EA22EF50FF080BE1040EDBCFE9FF050ED5
:1046F000DBCFEAFF1D0EE926000EEA22EF6A040E68
:10470000DBCFE9FF050EDBCFEAFF1E0EE926000E28
:10471000EA22EF50FF080BE1040EDBCFE9FF050EA4
:10472000DBCFEAFF1E0EE926000EEA22EF6AE55211
:10473000E7BEF28ED950FA0FE66EFF0EDA20E66E73
:10474000D950010FE66E000EDA20E66E70EC0FF025
:10475000E552E552E552E55200096FE1040EDBCF68
:10476000E6FF050EDBCFE6FF20EC2BF0E552E5522D
:10477000000956E0040EDBCFE9FF050EDBCFEAFFB0
:10478000EE50ED101DE1F250E66EF29E040EDBCF0E
:10479000E9FF050EDBCFEAFF040EE926000EEA2250
:1047A000EECFE6FFEFCFE6FF3FEC12F0E552E55229
:1047B000E76E060EE7CFDBFFE552E7BEF28E00D0D4
:1047C000FA0EDBCFE6FFFB0EDBCFE6FF040EDBCFFE
:1047D000E9FF050EDBCFEAFF110EE926000EEA2203
:1047E000E9CF0BF0EACF0CF00BC0E6FF0CC0E6FF00
:1047F00028EC0DF0E552E552E552E552040EDBCF10
:10480000E6FF050EDBCFE6FF57EC2AF0E552E55256
:10481000DFEC09F0000903E17CEC2FF000D00CD0B4
:10482000040EDBCFE6FF050EDBCFE6FF57EC2AF0E8
:10483000E552E552DFEC09F047D0040EDBCFE6FF8E
:10484000050EDBCFE6FF57EC2AF0E552E552DFEC30
:1048500009F0040EDBCFE6FF050EDBCFE6FF20EC10
:104860002BF0E552E55200092FE0060EDB5029E05F
:10487000F250E66EF29E040EDBCFE6FF050EDBCFB4
:10488000E6FF95DBE552E552E76E080EE7CFDBFF6A
:10489000080EDBCFE6FF040EDBCFE9FF050EDBCF12
:1048A000EAFF040EE926000EEA22EECFE6FFEFCF84
:1048B000E6FF4DEC14F0E552E552E552E552E7BE55
:1048C000F28E000E02D000D069D60B6E090EE15CAC
:1048D00002E2E16AE552E16E0B50E552E5CFDAFF04
:1048E000E7CFD9FF1200D9CFE6FFDACFE6FFE1CF5D
:1048F000D9FFE2CFDAFF090EE12402E3E168E652D4
:10490000E16EDF6AFC0EDBCF06F0FD0EDBCF07F0B9
:10491000060E06C0DBFF070E07C0DBFFF250E66E97
:10492000F29E060EDBCFE9FF070EDBCFEAFF1A0E81
:10493000E926000EEA22080EEFCFDBFF080EDB505F
:1049400000086BE2060EDBCFE9FF070EDBCFEAFFC4
:10495000040EE926000EEA22020EE926000EEA22E3
:10496000040EEECFDBFF050EEDCFDBFFFA0EDBCF43
:10497000E6FFFB0EDBCFE6FF060EDBCFE6FF070E02
:10498000DBCFE6FFA8EC29F0E552E552E552E5520F
:10499000060EDBCFE9FF070EDBCFEAFF040EE926A8
:1049A000000EEA22020EE926000EEA22040EDBCFF8
:1049B000EEFF050EDBCFEDFF060EDBCFE9FF070EA6
:1049C000DBCFEAFF110EE926000EEA22EF5002E1EA
:1049D000010E01D0000E00091AE1060EDBCFE9FF3F
:1049E000070EDBCFEAFF110EE926000EEA22E9CF1F
:1049F0000BF0EACF0CF00BC0E6FF0CC0E6FFAAEC10
:104A00000DF0E552E552000901E000D000D0E5527A
:104A1000E7BEF28E010ED3D01ED0D950F80FE96E4A
:104A2000FF0EDA20EA6EEE50ED1006E1E552E7BE29
:104A3000F28E000EC4D00FD0DF500DE1D950010F1F
:104A4000E66E000EDA20E66E4FEC0FF0E552E5520E
:104A5000010EDF6E00D0E552E7BEF28EDCEC09F00D
:104A6000F250E66EF29E060EDBCFE9FF070EDBCFBB
:104A7000EAFF1D0EE926000EEA22EF50FF080BE1C7
:104A8000060EDBCFE9FF070EDBCFEAFF1D0EE9269E
:104A9000000EEA22EF6A060EDBCFE9FF070EDBCF3E
:104AA000EAFF1E0EE926000EEA22EF50FF080BE196
:104AB000060EDBCFE9FF070EDBCFEAFF1E0EE9266D
:104AC000000EEA22EF6AE552E7BEF28ED950F80FE7
:104AD000E66EFF0EDA20E66ED950010FE66E000E8C
:104AE000DA20E66E70EC0FF0E552E552E552E55241
:104AF000000949E1060EDBCFE6FF070EDBCFE6FF3C
:104B000020EC2BF0E552E552000930E0F80EDBCF47
:104B1000E6FFF90EDBCFE6FF060EDBCFE9FF070E5F
:104B2000DBCFEAFF110EE926000EEA22E9CF0BF0F7
:104B3000EACF0CF00BC0E6FF0CC0E6FF28EC0DF04E
:104B4000E552E552E552E552060EDBCFE6FF070ED1
:104B5000DBCFE6FF57EC2AF0E552E552DFEC09F037
:104B6000000903E17CEC2FF000D00CD0060EDBCF67
:104B7000E6FF070EDBCFE6FF57EC2AF0E552E552E1
:104B8000DFEC09F01BD0060EDBCFE6FF070EDBCF14
:104B9000E6FF57EC2AF0E552E552DFEC09F0060E8D
:104BA000DBCFE6FF070EDBCFE6FF20EC2BF0E55274
:104BB000E552000903E0000E02D000D0AFD60B6E24
:104BC000090EE15C02E2E16AE552E16E0B50E5524A
:104BD000E5CFDAFFE7CFD9FF1200D9CFE6FFDACF72
:104BE000E6FFE1CFD9FFE2CFDAFF060EE12402E3D0
:104BF000E168E652E16EFC0EDBCF06F0FD0EDBCF86
:104C000007F0020E06C0DBFF030E07C0DBFF010E3C
:104C1000DB6A020EDBCFE9FF030EDBCFEAFF1A0EE1
:104C2000E926000EEA22040EEFCFDBFFDB5000087E
:104C300001E37FD0020EDBCFE9FF030EDBCFEAFFFB
:104C40001D0EE926000EEA22050EEFCFDBFFFA0E5D
:104C5000DBCFE6FFFB0EDBCFE6FF020EDBCFE6FF8E
:104C6000030EDBCFE6FF74DBE552E552E552E55279
:104C7000040EDB04E66E020EDBCFE9FF030EDBCF92
:104C8000EAFF1A0EE926000EEA22E552E750EF6E1F
:104C9000050EDB50FF083AE1020EDBCFE9FF030E01
:104CA000DBCFEAFF080EE926000EEA22EF5002E110
:104CB000010E01D0000E000939E1020EDBCFE9FF41
:104CC000030EDBCFEAFF080EE926000EEA22E9CF49
:104CD0000BF0EACF0CF0E9CFE6FFEACFE6FFAAEC53
:104CE0000DF0E552E552000921E0D950F80FE96EC8
:104CF000FF0EDA20EA6EEE50ED1018E0F80EDBCF72
:104D0000E9FFF90EDBCFEAFF010E0FD0050EDB281D
:104D1000E66E020EDBCFE9FF030EDBCFEAFF1D0ECE
:104D2000E926000EEA22E552E750EF6E010EDF6E33
:104D300001D0DF6ADF500B6E060EE15C02E2E16A31
:104D4000E552E16E0B50E552E5CFDAFFE7CFD9FF30
:104D50001200D9CFE6FFDACFE6FFE1CFD9FFE2CFED
:104D6000DAFF060EE12402E3E168E652E16EFC0E92
:104D7000DBCF06F0FD0EDBCF07F0040E06C0DBFF35
:104D8000050E07C0DBFF010EDB6A040EDBCFE9FF77
:104D9000050EDBCFEAFF1A0EE926000EEA22EF50DD
:104DA00000083CE2040EDBCFE9FF050EDBCFEAFF93
:104DB000040EE926000EEA22020EE926000EEA227F
:104DC000020EEECFDBFF030EEDCFDBFFFA0EDBCFE3
:104DD000E6FFFB0EDBCFE6FF040EDBCFE6FF050EA2
:104DE000DBCFE6FFB5DAE552E552E552E552040EB7
:104DF000DBCFE9FF050EDBCFEAFF040EE926000E4C
:104E0000EA22020EE926000EEA22020EDBCFEEFFB6
:104E1000030EDBCFEDFF010EDF6E01D0DF6ADF5046
:104E20000B6E060EE15C02E2E16AE552E16E0B50A8
:104E3000E552E5CFDAFFE7CFD9FF1200D9CFE6FF81
:104E4000DACFE6FFE1CFD9FFE2CFDAFFE652F25048
:104E5000E66EF29EFC0EDBCFE9FFFD0EDBCFEAFF34
:104E60001A0EE926000EEA22EFCFDFFFE552E7BE79
:104E7000F28EDF5000D0E552E552E5CFDAFFE7CF02
:104E8000D9FF1200D9CFE6FFDACFE6FFE1CFD9FF95
:104E9000E2CFDAFFE652E652E652FC0EDBCF06F036
:104EA000FD0EDBCF07F0DE5206C0DEFF07C0DDFFE0
:104EB000DD52F250E66EF29E010EDBCFE9FF020EEC
:104EC000DBCFEAFF1B0EE926000EEA22EFCF0BF044
:104ED000010EDBCFE9FF020EDBCFEAFF1A0EE92657
:104EE000000EEA22EF500B5CDF6EE552E7BEF28E59
:104EF000DF5000D0E552E552E552E552E5CFDAFF4A
:104F0000E7CFD9FF1200D9CFE6FFDACFE6FFE1CF36
:104F1000D9FFE2CFDAFFE652E652E652FC0EDBCFD3
:104F200006F0FD0EDBCF07F0DE5206C0DEFF07C045
:104F3000DDFFDD52010EDBCFE9FF020EDBCFEAFF22
:104F40001A0EE926000EEA22EFCFDFFFDF50E5520E
:104F5000E552E552E552E5CFDAFFE7CFD9FF12007F
:104F6000D9CFE6FFDACFE6FFE1CFD9FFE2CFDAFF14
:104F7000E652E652FC0EDBCFDEFFDBCFDDFFDECFFD
:104F8000E6FFDDCFE6FF87EC2CF0E552E552DECF01
:104F9000E6FFDDCFE6FFBFEC35F0E552E552E55226
:104FA000E552E552E5CFDAFFE7CFD9FF1200D9CFBE
:104FB000E6FFDACFE6FFE1CFD9FFE2CFDAFFE65234
:104FC000FC0EDBCFE9FFFD0EDBCFEAFF110EE92679
:104FD000000EEA22EF5000081CE2030E0B6EFC0EDE
:104FE000DBCFE9FFFD0EDBCFEAFF110EE926000E55
:104FF000EA22030EE926000EEA22020EE926000E3E
:10500000EA22EE50EFCFEAFFE96EEF500B5CDF6E65
:1050100001D0DF6ADF50E552E552E5CFDAFFE7CF96
:10502000D9FF1200D9CFE6FFDACFE6FFE1CFD9FFF3
:10503000E2CFDAFFE652E652DF6AFC0EDBCFE9FF91
:10504000FD0EDBCFEAFF1A0EE926000EEA22010E62
:10505000EFCFDBFFFC0EDBCFE9FFFD0EDBCFEAFF7E
:105060001C0EE926000EEA22EF502AE1FC0EDBCFEF
:10507000E9FFFD0EDBCFEAFFEE50ED1001E04FD16E
:10508000FC0EDBCFE9FFFD0EDBCFEAFF040EE926C5
:10509000000EEA22EECFE6FFEFCFE6FF6CEC13F056
:1050A000E552E552DF6EFC0EDBCFE9FFFD0EDBCFF4
:1050B000EAFF040EE926000EEA22EE6AED6A2FD11D
:1050C000F90EDB5001E083D0FC0EDBCFE9FFFD0ED3
:1050D000DBCFEAFF1C0EE926000EEA22EF50E66E57
:1050E000E66AFA0EDBCFE6FFFB0EDBCFE6FFFC0E37
:1050F000DBCFE9FFFD0EDBCFEAFF020EE926000E53
:10510000EA22EECFE6FFEFCFE6FFACEC37F00B6E16
:10511000060EE15C02E2E16AE552E16E0B50FC0E24
:10512000DBCFE9FFFD0EDBCFEAFF1C0EE926000E08
:10513000EA22EF500B6E0C6AFC0EDBCFE9FFFD0E8E
:10514000DBCFEAFF020EE926000EEA220B50EE2624
:105150000C50ED22FC0EDBCFE9FFFD0EDBCFEAFFAA
:10516000020EE926000EEA22EECF0BF0EFCF0CF094
:10517000FC0EDBCFE9FFFD0EDBCFEAFF040EE926D4
:10518000000EEA22EECF0DF0EECF0EF0EECF0FF0D4
:105190000D500B5C0E500C5801E2C1D0FC0EDBCF61
:1051A000E9FFFD0EDBCFEAFFEECF0BF0EFCF0CF007
:1051B000FC0EDBCFE9FFFD0EDBCFEAFF020EE92696
:1051C000000EEA220BC0EEFF0CC0EDFFA8D0FC0ED3
:1051D000DBCFE9FFFD0EDBCFEAFF1C0EE926000E58
:1051E000EA22EF50E66EE66AFA0EDBCFE6FFFB0E30
:1051F000DBCFE6FFFC0EDBCFE9FFFD0EDBCFEAFFE6
:10520000040EE926000EEA22020EE926000EEA222A
:10521000EECFE6FFEFCFE6FFACEC37F00B6E060EFD
:10522000E15C02E2E16AE552E16E0B50FC0EDBCF7D
:10523000E9FFFD0EDBCFEAFF1C0EE926000EEA2295
:10524000EF500B6E0C6AFC0EDBCFE9FFFD0EDBCFDF
:10525000EAFF040EE926000EEA22020EE926000EFD
:10526000EA220B50EE5E0C50ED5AFC0EDBCFE9FF4C
:10527000FD0EDBCFEAFF040EE926000EEA22EECF98
:105280000BF0EECF0CF0EECF0DF0EFCF0EF0FC0EEA
:10529000DBCFE9FFFD0EDBCFEAFFEECF0FF0EFCF64
:1052A00010F00F500D5C10500E582FE2FC0EDBCFAB
:1052B000E9FFFD0EDBCFEAFF1C0EE926000EEA2215
:1052C000EF500D6E0E6AFC0EDBCFE9FFFD0EDBCF5B
:1052D000EAFF040EE926000EEA220D50EE5C0B6E8A
:1052E0000E50EE580C6EFC0EDBCFE9FFFD0EDBCF4F
:1052F000EAFF040EE926000EEA22020EE926000E5D
:10530000EA220BC0EEFF0CC0EDFFF90EDB500208E5
:1053100006E1010EDB50000802E2010EDB06010E81
:10532000DB28E66EFC0EDBCFE9FFFD0EDBCFEAFFEC
:105330001A0EE926000EEA22E552E750EF6EDF5022
:10534000E552E552E552E5CFDAFFE7CFD9FF12008B
:10535000D9CFE6FFDACFE6FFE1CFD9FFE2CFDAFF20
:10536000FC0EDBCFE9FFFD0EDBCFEAFF1C0EE926CA
:10537000000EEA22EF5001E194D0FC0EDBCFE9FFF2
:10538000FD0EDBCFEAFF1C0EE926000EEA22EF50ED
:105390000B6E0C6AFC0EDBCFE9FFFD0EDBCFEAFFE4
:1053A000040EE926000EEA22020EE926000EEA2289
:1053B0000B50EE260C50ED22FC0EDBCFE9FFFD0E6C
:1053C000DBCFEAFF040EE926000EEA22EECF0BF057
:1053D000EECF0CF0EECF0DF0EFCF0EF0FC0EDBCFEA
:1053E000E9FFFD0EDBCFEAFF040EE926000EEA22FC
:1053F000EECF0FF0EECF10F0EECF11F0EFCF12F0B6
:1054000000010F500D5C10500E581CE3FC0EDBCF5A
:10541000E9FFFD0EDBCFEAFFEECF0BF0EFCF0CF094
:10542000FC0EDBCFE9FFFD0EDBCFEAFF040EE92621
:10543000000EEA22020EE926000EEA220BC0EEFF61
:105440000CC0EDFFFC0EDBCFE9FFFD0EDBCFEAFF6A
:105450001C0EE926000EEA22EF50E66EE66AFC0E0C
:10546000DBCFE9FFFD0EDBCFEAFF040EE926000EDD
:10547000EA22020EE926000EEA22EECFE6FFEFCF87
:10548000E6FFFA0EDBCFE6FFFB0EDBCFE6FFACEC70
:1054900037F00B6E060EE15C02E2E16AE552E16E66
:1054A0000B50E552E5CFDAFFE7CFD9FF1200D9CF95
:1054B000E6FFDACFE6FFE1CFD9FFE2CFDAFFE6522F
:1054C000E652F250E66EF29EFC0EDBCFE9FFFD0ED7
:1054D000DBCFEAFF1E0EE926000EEA22EFCFDFFF48
:1054E000DFCF0BF0000EE76E0B18E8AE02D00B34E6
:1054F00003D0E750D8800B5430E2FC0EDBCFE9FF3D
:10550000FD0EDBCFEAFF110EE926000EEA22EF5076
:1055100002E1010E01D0000E00091CE1FC0EDBCF00
:10552000E9FFFD0EDBCFEAFF110EE926000EEA22AD
:10553000E9CF0BF0EACF0CF00BC0E6FF0CC0E6FFA2
:10554000AAEC0DF0E552E552000903E01FEC10F063
:1055500000D001D002D0DF06C3D7FC0EDBCFE9FFBD
:10556000FD0EDBCFEAFF1E0EE926000EEA22EF68F1
:10557000E552E7BEF28EF250E66EF29EFC0EDBCFF5
:10558000E9FFFD0EDBCFEAFF1D0EE926000EEA2241
:10559000010EEFCFDBFF010EDBCF0BF0000EE76E4D
:1055A0000B18E8AE02D00B3403D0E750D8800B5470
:1055B00031E2FC0EDBCFE9FFFD0EDBCFEAFF080E88
:1055C000E926000EEA22EF5002E1010E01D0000EA2
:1055D00000091EE1FC0EDBCFE9FFFD0EDBCFEAFF89
:1055E000080EE926000EEA22E9CF0BF0EACF0CF014
:1055F0000BC0E6FF0CC0E6FFAAEC0DF0E552E55249
:10560000000903E01FEC10F000D0010EDB0601D012
:1056100001D0C1D7FC0EDBCFE9FFFD0EDBCFEAFFE7
:105620001D0EE926000EEA22EF68E552E7BEF28E73
:10563000E552E552E552E5CFDAFFE7CFD9FF120098
:10564000D9CFE6FFDACFE6FFE1CFD9FFE2CFDAFF2D
:10565000E652F250E66EF29EFC0EDBCFE9FFFD0E45
:10566000DBCFEAFF1A0EE926000EEA22EF5003E133
:10567000010EDF6E01D0DF6AE552E7BEF28EDF5029
:1056800000D0E552E552E5CFDAFFE7CFD9FF1200AF
:10569000D9CFE6FFDACFE6FFE1CFD9FFE2CFDAFFDD
:1056A000E652E652E652FC0EDBCF06F0FD0EDBCFF3
:1056B00007F0DE5206C0DEFF07C0DDFFDD52010E3F
:1056C000DBCFE9FF020EDBCFEAFF1A0EE926000E60
:1056D000EA22EF5003E1010EDF6E01D0DF6ADF50F6
:1056E000E552E552E552E552E5CFDAFFE7CFD9FFC3
:1056F0001200D9CFE6FFDACFE6FFE1CFD9FFE2CF44
:10570000DAFFE652F250E66EF29EFC0EDBCFE9FFC6
:10571000FD0EDBCFEAFF1A0EE926000EEA22EFCFDC
:105720000BF0FC0EDBCFE9FFFD0EDBCFEAFF1B0E1B
:10573000E926000EEA22EF500B5C03E1010EDF6E5A
:1057400001D0DF6AE552E7BEF28EDF5000D0E552AD
:10575000E552E5CFDAFFE7CFD9FF1200D9CFE6FF58
:10576000DACFE6FFE1CFD9FFE2CFDAFFE652E65229
:10577000E652FC0EDBCF06F0FD0EDBCF07F0DE526B
:1057800006C0DEFF07C0DDFFDD52010EDBCFE9FF03
:10579000020EDBCFEAFF1A0EE926000EEA22EFCF57
:1057A0000BF0010EDBCFE9FF020EDBCFEAFF1B0E91
:1057B000E926000EEA22EF500B5C03E1010EDF6EDA
:1057C00001D0DF6ADF50E552E552E552E552E5CF00
:1057D000DAFFE7CFD9FF1200D9CFE6FFDACFE6FF35
:1057E000E1CFD9FFE2CFDAFFE652DF6A0A0EDF5CD3
:1057F00034E2DF50040DF3CFE9FFF4CFEAFF2C0EC3
:10580000E926050EEA22EE50ED1025E1DF50040DE9
:10581000F3CFE9FFF4CFEAFF2C0EE926050EEA22CA
:10582000FA0EDBCFEEFFFB0EDBCFEDFFDF50040DFA
:10583000F3CFE9FFF4CFEAFF2C0EE926050EEA22AA
:10584000020EE926000EEA22FC0EDBCFEEFFFD0E73
:10585000DBCFEDFF02D0DF2AC9D7E552E552E5CF15
:10586000DAFFE7CFD9FF1200D9CFE6FFDACFE6FFA4
:10587000E1CFD9FFE2CFDAFFE652E652E652010E5F
:10588000DB6A020EDB6ADF6A0A0EDF5C2DE2DF50A4
:10589000040DF3CFE9FFF4CFEAFF2C0EE926050E45
:1058A000EA22020EE926000EEA22EECF0BF0EFCF3D
:1058B0000CF0FC0EDB500B1815E1FD0EDB500C1844
:1058C00011E1DF50040DF3CFE9FFF4CFEAFF2C0E16
:1058D000E926050EEA22010EEECFDBFF020EEDCF28
:1058E000DBFF02D0DF2AD0D7010EDBCF0BF0020E98
:1058F000DBCF0CF00BC0F3FF0CC0F4FFE552E55218
:10590000E552E552E5CFDAFFE7CFD9FF1200D9CF54
:10591000E6FFDACFE6FFE1CFD9FFE2CFDAFFE652CA
:10592000DF6A0A0EDF5C39E2DF50040DF3CFE9FFD6
:10593000F4CFEAFF2C0EE926050EEA22020EE92634
:10594000000EEA22EECF0BF0EFCF0CF0FC0EDB5096
:105950000B1821E1FD0EDB500C181DE1DF50040D8A
:10596000F3CFE9FFF4CFEAFF2C0EE926050EEA2279
:10597000EE6AED6ADF50040DF3CFE9FFF4CFEAFFE2
:105980002C0EE926050EEA22020EE926000EEA2276
:10599000EE6AED6A02D0DF2AC4D7E552E552E5CFC0
:0859A000DAFFE7CFD9FF120086
:0859A800D9CFE6FFDACFE6FFDC
:1059B000E1CFD9FFE2CFDAFFE652E652E652E652F5
:1059C000E652FC0EDBCFE9FFFD0EDBCFEAFF110E46
:1059D000EF6EFC0EDB2AFD0E01E3DB2AFC0EDBCFB3
:1059E000E9FFFD0EDBCFEAFF220EEF6EFC0EDB2A95
:1059F000FD0E01E3DB2AFC0EDBCFE9FFFD0EDBCF62
:105A0000EAFF330EEF6EFC0EDB2AFD0E01E3DB2A0C
:105A1000F80EDBCF0BF0F90EDBCF0CF0000E0BC055
:105A2000DFFF010E0CC0DBFF020EDB6A030EDB6A38
:105A3000D9CFE9FFDACFEAFFEECF0BF0EECF0CF0D3
:105A4000EECF0DF00B50E66EFC0EDBCFE9FFFD0E46
:105A5000DBCFEAFFE552E750EF6EFC0EDB2AFD0ECE
:105A600001E3DB2AD9CFE9FFDACFEAFF080EE76EC0
:105A7000D890030EEB32020EEB32010EEB32EF3216
:105A8000E706F6E1D9CFE9FFDACFEAFFEECF0BF078
:105A9000EECF0CF0EECF0DF00B50E66EFC0EDBCF30
:105AA000E9FFFD0EDBCFEAFFE552E750EF6EFC0E9B
:105AB000DB2AFD0E01E3DB2AFC0EDBCFE9FFFD0E46
:105AC000DBCFEAFF440EEF6EFC0EDB2AFD0E01E396
:105AD000DB2AFC0EDBCFE9FFFD0EDBCFEAFF660E13
:105AE000EF6EFC0EDB2AFD0E01E3DB2AFC0EDBCFA2
