:020000040000FA
:06000000C7EF37F012000B
:080008009EA402D034EF2CF09D
:0A0010009EAC02D0F4EF2FF01200B6
:06003A000300DB6F000073
:100040005D0500001D000000D76F0000A305000043
:1000500004000000C66F00007A05000011000000D7
:10006000D9CFE6FFDACFE6FFE1CFD9FFE2CFDAFF63
:10007000E652E652E652340EE66EE66A83EC33F060
:10008000E552E552F3CFDEFFF4CFDDFFD9CFE9FF34
:10009000DACFEAFFEE50ED102FE0F80EDBCFE6FFEF
:1000A000F90EDBCFE6FF83EC33F0E552E552F3CFF8
:1000B00010F0F4CF11F0DECFE9FFDDCFEAFF170E2D
:1000C000E926000EEA2210C0EEFF11C0EDFFDECFE0
:1000D000E9FFDDCFEAFF170EE926000EEA22EE5017
:1000E000ED100AE1DECFE6FFDDCFE6FFF1EC33F005
:1000F000E552E552DE6ADD6AD9CFE9FFDACFEAFFE1
:10010000EE50ED1048E0000EE66EE66ADECFE6FF48
:10011000DDCFE6FFF30EDBCFE6FFF40EDBCFE6FF2D
:10012000F50EDBCFE6FFF60EDBCFE6FFF70EDBCFFB
:10013000E6FFF80EDBCF10F0F90EDBCF11F0126AFC
:10014000136A10C0E6FF11C0E6FF12C0E6FF13C03D
:10015000E6FFFA0EDBCFE6FFFB0EDBCFE6FFFC0E81
:10016000DBCFE6FFFD0EDBCFE6FF23D8146E110ECA
:10017000E15C02E2E16AE552E16E1450DECFE6FF97
:10018000DDCFE6FFD6D9E552E552010EF36E020E41
:10019000F3CFDBFF02D0020EDB68020EDB5000D093
:1001A000E552E552E552E552E5CFDAFFE7CFD9FF58
:1001B0001200D9CFE6FFDACFE6FFE1CFD9FFE2CFD9
:1001C000DAFFE652E652E652EF0EDBCFE9FFF00E21
:1001D000DBCFEAFF170EE926000EEA22EECFDEFFA4
:1001E000EDCFDDFFF60EDBCF12F0F70EDBCF13F015
:1001F000F80EDBCF14F0F90EDBCF15F01206000E6F
:10020000135A000E145A000E155AEF0EDBCFE9FFF9
:10021000F00EDBCFEAFF170EE926000EEA2212509D
:10022000EE24106E1350EE20116EEF0EDBCFE9FFBF
:10023000F00EDBCFEAFF230EE926000EEA2210C003
:10024000EEFF11C0EDFFD950FA0FE96EFF0EDA2074
:10025000EA6EEE50ED1056E0020EDB6A0A0EF36E07
:10026000020EDBCFF4FFF350F45C3CE2020EDB50F5
:10027000E76EFA0EDBCFE9FFFB0EDBCFEAFFE750BC
:10028000E926000EEA22EF50E66EEF0EDBCFE9FF23
:10029000F00EDBCFEAFF190EE926000EEA22E9CFC5
:1002A00010F0EACF11F0020EDB500F011024E96EBE
:1002B000000E1120EA6EE552E750EF6E020EDB50A1
:1002C000E76EFA0EDBCFE9FFFB0EDBCFEAFFE7506C
:1002D000E926000EEA22EF5002E104D000D0020E1F
:1002E000DB2ABCD7EF0EDBCFE9FFF00EDBCFEAFF56
:1002F000190EE926000EEA22090EE926000EEA226E
:10030000EF6A0BD0EF0EDBCFE9FFF00EDBCFEAFF99
:10031000190EE926000EEA22EF6A040EF36EF30EC0
:10032000DBCFF4FFF350F45C06E3030EF36EF30E41
:10033000F3CFDBFF00D0EF0EDBCFE9FFF00EDBCF1A
:10034000EAFF160EE926000EEA22F30EDBCFEFFFDE
:10035000EF0EDBCFE9FFF00EDBCFEAFF020EE9265E
:10036000000EEA22E9CF10F0EACF11F010C0E6FF4C
:1003700011C0E6FFC9EC30F0E552E552EF0EDBCFDD
:10038000E9FFF00EDBCFEAFF0C0EE926000EEA22B1
:10039000E9CF10F0EACF11F010C0E6FF11C0E6FF80
:1003A000C9EC30F0E552E552EF0EDBCFE9FFF00E7D
:1003B000DBCFEAFF020EE926000EEA22060EE9264E
:1003C000000EEA22EF0EDBCFEEFFF00EDBCFEDFFEB
:1003D000F30EDB50106E116A040ED8801056000E1A
:1003E0001156EF0EDBCFE9FFF00EDBCFEAFF0C0E6C
:1003F000E926000EEA2210C0EEFF11C0EDFFEF0E5D
:10040000DBCFE9FFF00EDBCFEAFF0C0EE926000E92
:10041000EA22060EE926000EEA22EF0EDBCFEEFFFF
:10042000F00EDBCFEDFF020EDB6A050EF36E020E5F
:10043000DBCFF4FFF350F45C1CE2EF0EDBCFE9FFFF
:10044000F00EDBCFEAFF250EE926000EEA22E9CF07
:1004500010F0EACF11F0020EDB50020D1050F32421
:10046000E96E1150F420EA6EEE6AED6A020EDB2AA4
:10047000DCD7EF0EDBCFE9FFF00EDBCFEAFF2F0E6C
:10048000E926000EEA22EE6AEE6AEE6AEE6AEF0EE6
:10049000DBCFE9FFF00EDBCFEAFF330EE926000EDB
:1004A000EA22EF6AF40EDBCFE6FFF50EDBCFE6FFC4
:1004B000FC0EDBCFE6FFFD0EDBCFE6FFDECFE6FF77
:1004C000DDCFE6FFA6EC28F0126E060EE15C02E23C
:1004D000E16AE552E16E1250F3CF10F0F4CF11F063
:1004E000EF0EDBCFE9FFF00EDBCFEAFF10C0EEFF2F
:1004F00011C0EDFFD950F10FE96EFF0EDA20EA6E60
:10050000EE50ED100DE0F10EDBCFE9FFF20EDBCF88
:10051000EAFFEF0EDBCFEEFFF00EDBCFEDFF00D0FA
:10052000E552E552E552E552E5CFDAFFE7CFD9FFD4
:100530001200D9CFE6FFDACFE6FFE1CFD9FFE2CF55
:10054000DAFFF250E66EF29E05017D2B05017A512D
:100550007B110DE1FC0EDBCF7AF5FD0EDBCF7BF5D9
:1005600005017D0503E113EC11F000D020D0050159
:1005700081511DE17AC5E9FF7BC5EAFF160EEB50FC
:10058000106EFC0EDBCFE9FFFD0EDBCFEAFF160E8F
:10059000E926000EEA22EF50D880105407E3FC0E43
:1005A000DBCF7AF5FD0EDBCF7BF500D000D0050167
:1005B000852BFC0EDBCFE9FFFD0EDBCFEAFF160E2D
:1005C000E926000EEA22EFCF10F005018051D88015
:1005D00010540CE2FC0EDBCFE9FFFD0EDBCFEAFF8F
:1005E000160EE926000EEA22EFCF80F5FC0EDBCFD7
:1005F000E9FFFD0EDBCFEAFF020EE926000EEA223C
:10060000E9CF10F0EACF11F010C0E6FF11C0E6FF0D
:10061000FC0EDBCFE9FFFD0EDBCFEAFF160EE9266D
:10062000000EEA22EF50090DF3CF12F0F4CF13F0D1
:10063000E00E1226040E132212C0E6FF13C0E6FFDE
:10064000E1EC30F0E552E552E552E552E552E7BE05
:10065000F28E0501815116E07AC5E9FF7BC5EAFFFC
:10066000160EEB50106EFC0EDBCFE9FFFD0EDBCF5C
:10067000EAFF160EE926000EEA22EF50105C01E2B6
:1006800000D000D0E552E5CFDAFFE7CFD9FF120066
:10069000D9CFE6FFDACFE6FFE1CFD9FFE2CFDAFF2D
:1006A000E652E652F250E66EF29ED950FC0FE96E29
:1006B000FF0EDA20EA6EEE50ED1005E17AC510F07B
:1006C0007BC511F006D0FC0EDBCF10F0FD0EDBCFAA
:1006D00011F010C0DEFF11C0DDFFDECFE9FFDDCF7E
:1006E000EAFF020EE926000EEA22E9CF10F0EACF77
:1006F00011F010C0E6FF11C0E6FF43EC32F0E55206
:10070000E552000901E100D0DECFE9FFDDCFEAFFCD
:100710000C0EE926000EEA22080EE926000EEA2257
:10072000EE50ED1015E0DECFE9FFDDCFEAFF0C0E55
:10073000E926000EEA22E9CF10F0EACF11F010C04E
:10074000E6FF11C0E6FF43EC32F0E552E55200D07F
:100750000501852BDECF10F0DDCF11F005017A51B8
:10076000101802E17B5111181DE1DECFE9FFDDCF4A
:10077000EAFF020EE926000EEA22E9CF10F0EACFE6
:1007800011F010C0E6FF11C0E6FF230EE66E050E65
:10079000E66EE1EC30F0E552E552E552E552050136
:1007A0007C2B0CD005017D07DECFE6FFDDCFE6FF19
:1007B000B5EC11F0E552E552DFEC11F0E552E7BE81
:1007C000F28E050181510EE0DECF10F0DDCF11F089
:1007D00005017A51101802E17B51111803E15AEC1E
:1007E0002BF000D0E552E552E552E5CFDAFFE7CF36
:1007F000D9FF1200D9CFE6FFDACFE6FFE1CFD9FF6C
:10080000E2CFDAFF060EE12402E3E168E652E16E90
:10081000030EDB6AD7EC09F0040E7EC5DBFF050E84
:100820007FC5DBFFFA0EDBCF12F0FB0EDBCF13F040
:10083000FC0EDBCFE9FFFD0EDBCFEAFF1250EE240A
:10084000106E1350EE20116E10C0DEFF11C0DDFFE0
:10085000040EDBCF10F0050EDBCF11F0FC0EDBCF6A
:10086000E9FFFD0EDBCFEAFFEECF12F0EFCF13F082
:100870001250105C1350115829E2DECF10F0DDCF7A
:1008800011F0FC0EDBCFE9FFFD0EDBCFEAFFEECF70
:1008900012F0EFCF13F01250105C1350115815E204
:1008A000DECF14F0DDCF15F0040EDBCF16F0050E11
:1008B000DBCF17F01450165C1550175806E2010EE6
:1008C000F36E030EF3CFDBFF00D028D0DECF10F0A5
:1008D000DDCF11F0FC0EDBCFE9FFFD0EDBCFEAFF31
:1008E000EECF12F0EFCF13F01250105C13501158EE
:1008F0000FE3DECF14F0DDCF15F0040EDBCF16F0E2
:10090000050EDBCF17F01450165C1550175806E291
:10091000010EF36E030EF3CFDBFF00D0FC0EDBCF36
:10092000E9FFFD0EDBCFEAFFDECFEEFFDDCFEDFF0F
:10093000030EDB5017E0E66ADECF12F0DDCF13F0D6
:10094000040EDB50125C106E050EDB501358116E56
:1009500010C0E6FF11C0E6FF14EC18F0E552E552B6
:10096000E55200D0DAEC09F0E76E020EE7CFDBFFCC
:10097000020EDB5003E15AEC2BF000D0060EE15CD6
:1009800002E2E16AE552E16EE552E5CFDAFFE7CF38
:10099000D9FF1200D9CFE6FFDACFE6FFE1CFD9FFCA
:1009A000E2CFDAFFE652DF6AD950FC0FE96EFF0EA4
:1009B000DA20EA6E000ED880EE54000EED5412E2FA
:1009C000D7EC09F0E66AFC0EDBCFE6FFFD0EDBCFCD
:1009D000E6FF14EC18F0E552E552E552DAEC09F0C6
:1009E000DF6E00D0DF5003E15AEC2BF000D0E5526F
:1009F000E552E5CFDAFFE7CFD9FF1200D9CFE6FF06
:100A0000DACFE6FFE1CFD9FFE2CFDAFFE652E652D6
:100A1000E652F250E66EF29ED950FC0FE96EFF0EE0
:100A2000DA20EA6EEE50ED1005E17AC510F07BC5D4
:100A300011F006D0FC0EDBCF10F0FD0EDBCF11F075
:100A400010C0DEFF11C0DDFFDECFE9FFDDCFEAFF22
:100A5000160EE926000EEA22020EEFCFDBFFE5526A
:100A6000E7BEF28E020EDB5000D0E552E552E552B1
:100A7000E552E5CFDAFFE7CFD9FF1200D9CFE6FF85
:100A8000DACFE6FFE1CFD9FFE2CFDAFFE652E65256
:100A9000E652E652030EDB6AD950FC0FE96EFF0EF8
:100AA000DA20EA6EEE50ED1005E17AC510F07BC554
:100AB00011F006D0FC0EDBCF10F0FD0EDBCF11F0F5
:100AC00010C0DEFF11C0DDFFDECFE9FFDDCFEAFFA2
:100AD000160EE926000EEA22020EEFCFDBFF020E11
:100AE000DB5000D0106E040EE15C02E2E16AE552D8
:100AF000E16E1050E552E5CFDAFFE7CFD9FF1200E3
:100B0000D9CFE6FFDACFE6FFE1CFD9FFE2CFDAFFB8
:100B1000E652E652E652E652E652040EDB6A040E54
:100B2000F36EFB0EDBCFF4FFF350F45C06E3030E31
:100B3000F36EFB0EF3CFDBFF00D0F250E66EF29EB9
:100B4000D950FC0FE96EFF0EDA20EA6EEE50ED1080
:100B500005E17AC510F07BC511F006D0FC0EDBCFA5
:100B600010F0FD0EDBCF11F010C0DEFF11C0DDFF75
:100B7000DECFE9FFDDCFEAFF160EE926000EEA22FE
:100B8000020EEFCFDBFFFB0EDB50F36E020EDB50ED
:100B9000F35C01E103D1FB0EDBCF10F0020EDB5062
:100BA000D880105420E2DECF10F0DDCF11F0050127
:100BB0007A51101802E17B51111814E07AC5E9FF4F
:100BC0007BC5EAFF160EEB50F36EFB0EDBCFF4FF96
:100BD000F350F45C06E3010EF36E040EF3CFDBFF7B
:100BE00000D000D011D0DECF10F0DDCF11F0050124
:100BF0007A51101802E17B51111806E1010EF36ED3
:100C0000040EF3CFDBFF00D0DECFE9FFDDCFEAFF3C
:100C1000160EE926000EEA22030EEFCFDBFFDECF31
:100C2000E9FFDDCFEAFF160EE926000EEA22FB0EF1
:100C3000DBCFEFFFDECFE9FFDDCFEAFF0C0EE926C9
:100C4000000EEA22EECF10F0EFCF11F0000E1016DA
:100C5000800E1116126A136A105011101210131020
:100C600016E1FB0EDB50106E116A040ED880105690
:100C7000000E1156DECFE9FFDDCFEAFF0C0EE926AC
:100C8000000EEA2210C0EEFF11C0EDFF00D0DECF53
:100C9000E9FFDDCFEAFF020EE926000EEA22080E88
:100CA000E926000EEA22EECF10F0EFCF11F0030E8E
:100CB000DB50090DF3CF12F0F4CF13F0E00E122643
:100CC000040E13221250101802E11350111802E101
:100CD000010E01D0000E00095DE0DECFE9FFDDCF9F
:100CE000EAFF020EE926000EEA22E9CF10F0EACF71
:100CF00011F010C0E6FF11C0E6FF43EC32F0E55200
:100D0000E552000901E100D0DECFE9FFDDCFEAFFC7
:100D1000160EE926000EEA22EFCF10F005018051F1
:100D2000D88010540AE2DECFE9FFDDCFEAFF160ECD
:100D3000E926000EEA22EFCF80F5DECFE9FFDDCF16
:100D4000EAFF020EE926000EEA22E9CF10F0EACF10
:100D500011F010C0E6FF11C0E6FFDECFE9FFDDCFE6
:100D6000EAFF160EE926000EEA22EF50090DF3CF36
:100D700012F0F4CF13F0E00E1226040E132212C06C
:100D8000E6FF13C0E6FFE1EC30F0E552E552E55234
:100D9000E55200D0040EDB5001E000D0E552E7BE82
:100DA000F28E050EE15C02E2E16AE552E16EE55287
:100DB000E5CFDAFFE7CFD9FF1200D9CFE6FFDACFD0
:100DC000E6FFE1CFD9FFE2CFDAFFE652E652F2507A
:100DD000E66EF29ED950FC0FE96EFF0EDA20EA6E45
:100DE000EE50ED1005E17AC510F07BC511F006D08C
:100DF000FC0EDBCF10F0FD0EDBCF11F010C0DEFFDC
:100E000011C0DDFFDECFE9FFDDCFEAFF020EE926EC
:100E1000000EEA22E9CF10F0EACF11F010C0E6FF91
:100E200011C0E6FF43EC32F0E552E552000901E162
:100E300000D0DECFE9FFDDCFEAFF0C0EE926000E81
:100E4000EA22080EE926000EEA22EE50ED1015E027
:100E5000DECFE9FFDDCFEAFF0C0EE926000EEA2225
:100E6000E9CF10F0EACF11F010C0E6FF11C0E6FFA5
:100E700043EC32F0E552E55200D0DECFE9FFDDCFA2
:100E8000EAFF020EE926000EEA22E9CF10F0EACFCF
:100E900011F010C0E6FF11C0E6FF2C0EE66E050E45
:100EA000E66EE1EC30F0E552E552E552E552DECF78
:100EB000E9FFDDCFEAFF330EE926000EEA22EF0458
:100EC00009E1DECFE9FFDDCFEAFF330EE926000EB0
:100ED000EA22EF6AE552E7BEF28E0501815109E090
:100EE000F250E66EF29EDFEC11F0E552E7BEF28EB4
:100EF00000D0DECF10F0DDCF11F005017A511018CF
:100F000002E17B51111812E10501815103E05AEC15
:100F10002BF00BD005017D5105012C5D04E105018D
:100F20007A6B7B6B02D085EC0CF000D0E552E55279
:100F3000E552E5CFDAFFE7CFD9FF1200D9CFE6FFC0
:100F4000DACFE6FFE1CFD9FFE2CFDAFFE652E65291
:100F5000E652DF6AFC0EDBCF08F0FD0EDBCF09F0B6
:100F6000DE5208C0DEFF09C0DDFFDD52010EDBCF1F
:100F7000E9FF020EDBCFEAFF020EE926000EEA22AD
:100F8000080EE926000EEA22EECF10F0EFCF11F0A6
:100F90002C0E101802E1050E111802E1010E01D00D
:100FA000000E000938E0010EDBCFE9FF020EDBCFB7
:100FB000EAFF0C0EE926000EEA22080EE926000ED2
:100FC000EA22EECF10F0EFCF11F01A0E101802E166
:100FD000050E111802E1010E01D0000E00091AE100
:100FE000010EDBCFE9FF020EDBCFEAFF0C0EE92694
:100FF000000EEA22080EE926000EEA22EE50ED105D
:1010000002E1010E01D0000E000903E0010EDF6EC7
:1010100000D000D000D0DF5000D0E552E552E552BC
:10102000E552E5CFDAFFE7CFD9FF1200D9CFE6FFCF
:10103000DACFE6FFE1CFD9FFE2CFDAFFE652E652A0
:10104000FC0EDBCFDEFFDBCFDDFFDECF10F0DDCF30
:1010500011F005017A51101802E17B51111801E1DC
:1010600085D0D9CFE9FFDACFEAFFEE50ED1001E1EC
:101070007DD0F250E66EF29EDECFE6FFDDCFE6FFDA
:101080005DDFE552E55200096DE0DECFE9FFDDCF1F
:10109000EAFF020EE926000EEA22E9CF10F0EACFBD
:1010A00011F010C0E6FF11C0E6FF43EC32F0E5524C
:1010B000E552DECFE9FFDDCFEAFF160EE926000E8E
:1010C000EA22EFCF10F005018051D88010540AE2D7
:1010D000DECFE9FFDDCFEAFF160EE926000EEA2299
:1010E000EFCF80F5DECFE9FFDDCFEAFF020EE92684
:1010F000000EEA22E9CF10F0EACF11F010C0E6FFAF
:1011000011C0E6FFDECFE9FFDDCFEAFF160EE926CC
:10111000000EEA22EF50090DF3CF12F0F4CF13F0D6
:10112000E00E1226040E132212C0E6FF13C0E6FFE3
:10113000E1EC30F0E552E552E552E552DECFE9FF51
:10114000DDCFEAFF160EE926000EEA22EFCF10F0FF
:101150007AC5E9FF7BC5EAFF160EEB50105C01E390
:1011600000D000D0E552E7BEF28E00D0E552E55245
:10117000E552E5CFDAFFE7CFD9FF1200D9CFE6FF7E
:10118000DACFE6FFE1CFD9FFE2CFDAFFE652E6524F
:10119000E652E652DF6AFC0EDBCF08F0FD0EDBCF35
:1011A00009F0DE5208C0DEFF09C0DDFFDD52030E8C
:1011B000DB6A010EDBCFE6FF020EDBCFE6FFBEDE11
:1011C000E552E552000901E19CD005018A5101E098
:1011D0007BD0010EDBCFE9FF020EDBCFEAFF160E5C
:1011E000E926000EEA22EFCF10F07AC5E9FF7BC5B1
:1011F000EAFF160EEB50105C03E3010EDF6E00D029
:10120000010EDBCFE9FF020EDBCFEAFF020EE9267B
:10121000000EEA22E9CF10F0EACF11F010C0E6FF8D
:1012200011C0E6FF43EC32F0E552E552010EDBCF90
:10123000E9FF020EDBCFEAFF160EE926000EEA22D6
:10124000EFCF10F005018051D88010540CE2010E50
:10125000DBCFE9FF020EDBCFEAFF160EE926000E18
:10126000EA22EFCF80F5010EDBCFE9FF020EDBCFE4
:10127000EAFF020EE926000EEA22E9CF10F0EACFDB
:1012800011F010C0E6FF11C0E6FF010EDBCFE9FF51
:10129000020EDBCFEAFF160EE926000EEA22EF501F
:1012A000090DF3CF12F0F4CF13F0E00E1226040E66
:1012B000132212C0E6FF13C0E6FFE1EC30F0E55266
:1012C000E552E552E5521CD0010EDBCFE9FF020EDC
:1012D000DBCFEAFF0C0EE926000EEA22E9CF10F080
:1012E000EACF11F010C0E6FF11C0E6FF1A0EE66E5D
:1012F000050EE66EE1EC30F0E552E552E552E552BE
:1013000000D0DF5000D0106E040EE15C02E2E16A12
:10131000E552E16E1050E552E5CFDAFFE7CFD9FF95
:101320001200D9CFE6FFDACFE6FFE1CFD9FFE2CF57
:10133000DAFFE652880EE66E050EE66EE66A000EED
:10134000E66EE66A800EE66EE66A2A0EE66E6F0EBE
:10135000E66E760EE66E200EE66E30EC00F0106E55
:101360000B0EE15C02E2E16AE552E16E1050DF6EC5
:10137000DF0410E1F29E0501866987690501010E0F
:10138000816F05017E6B7F6BE8EC2AF0000901E0BC
:1013900000D000D0E552E552E5CFDAFFE7CFD9FF24
:1013A0001200F29E0501816B59EC2BF01200050131
:1013B0008A2B1200D9CFE6FFDACFE6FFE1CFD9FFC3
:1013C000E2CFDAFFE652E652E652E652DE6ADD6A24
:1013D000020EDB6AF250E66EF29E05018A070501F5
:1013E0008A5101E0C3D005017D51000801E3BDD061
:1013F00005011A5102E1010E01D0000E000901E0C1
:1014000090D01FC5E9FF20C5EAFF060EE926000EB1
:10141000EA22EECFDEFFEDCFDDFFDECFE9FFDDCF4D
:10142000EAFF0C0EE926000EEA22E9CF10F0EACF1F
:1014300011F010C0E6FF11C0E6FF43EC32F0E552B8
:10144000E552DECFE9FFDDCFEAFF020EE926000E0E
:10145000EA22E9CF10F0EACF11F010C0E6FF11C088
:10146000E6FF43EC32F0E552E552DECFE9FFDDCF97
:10147000EAFF160EE926000EEA22EFCF10F0050172
:101480008051D88010540AE2DECFE9FFDDCFEAFFB9
:10149000160EE926000EEA22EFCF80F5DECFE9FF37
:1014A000DDCFEAFF020EE926000EEA22E9CF10F0B6
:1014B000EACF11F010C0E6FF11C0E6FFDECFE9FF72
:1014C000DDCFEAFF160EE926000EEA22EF50090DE5
:1014D000F3CF12F0F4CF13F0E00E1226040E132215
:1014E00012C0E6FF13C0E6FFE1EC30F0E552E55232
:1014F000E552E552DECFE9FFDDCFEAFF160EE92621
:10150000000EEA22EFCF10F07AC5E9FF7BC5EAFFB3
:10151000160EEB50105C04E30501010E836F00D042
:1015200067D7D9CFE9FFDACFEAFFEE50ED1002E03E
:10153000DFEC11F0030E82C5DBFF030EDB50000869
:1015400010E2AFD8000904E00501010E836F00D05E
:10155000030EDB06030EDB500008F3E30501826B8C
:1015600000D00501835101E000D000D0E552E7BE74
:10157000F28E020EDB5000D0106E040EE15C02E22F
:10158000E16AE552E16E1050E552E5CFDAFFE7CFB0
:10159000D9FF1200D9CFE6FFDACFE6FFE1CFD9FFBE
:1015A000E2CFDAFFE652E652F250E66EF29E7EC5D8
:1015B000DEFF7FC5DDFFE552E7BEF28EDECF10F025
:1015C000DDCF11F010C0F3FF11C0F4FF00D0E552E1
:1015D000E552E552E5CFDAFFE7CFD9FF1200D9CFC8
:1015E000E6FFDACFE6FFE1CFD9FFE2CFDAFFE6523E
:1015F000E652E652020EDB6A7EC5DEFF7FC5DDFFE6
:10160000DECF10F0DDCF11F010C0F3FF11C0F4FFFA
:1016100000D0E552E552E552E552E5CFDAFFE7CFDB
:10162000D9FF120005017D5100D01200D9CFE6FF8D
:10163000DACFE6FFE1CFD9FFE2CFDAFFE652E6529A
:10164000D950FC0FE96EFF0EDA20EA6EEE50ED1075
:1016500005E17AC510F07BC511F006D0FC0EDBCF9A
:1016600010F0FD0EDBCF11F010C0DEFF11C0DDFF6A
:10167000DECFE9FFDDCFEAFF190EE926000EEA22F0
:10168000E9CF10F0EACF11F010C0F3FF11C0F4FF62
:1016900000D0E552E552E552E5CFDAFFE7CFD9FFBA
:1016A0001200D9CFE6FFDACFE6FFE1CFD9FFE2CFD4
:1016B000DAFF090EE12402E3E168E652E16E040E6E
:1016C000DB6A05018A5101E00DD1010E0501116AA5
:1016D0007E25106E7F511122050E10C0DBFF060E15
:1016E00011C0DBFF050EDBCF7EF5060EDBCF7FF5ED
:1016F000D950050FE96E000EDA20EA6EEE50ED10BB
:1017000015E1070E16C5DBFF080E17C5DBFF18C570
:1017100016F519C517F5070EDBCF18F5080EDBCF48
:1017200019F50501842BDFEC11F000D0050EDBCF9D
:1017300010F0060EDBCF11F005018651105C8751C9
:10174000115801E2CED016C5E9FF17C5EAFFEF50E8
:10175000000902E1010E01D0000E000905E00501BB
:1017600086698769BED0BCD016C5E9FF17C5EAFFF8
:10177000030EE926000EEA22020EE926000EEA22F6
:10178000EE50EFCFEAFFE96E060EE926000EEA22E0
:10179000EECFDEFFEDCFDDFFDECFE9FFDDCFEAFFED
:1017A000020EE926000EEA22020EEECFDBFF030E48
:1017B000EDCFDBFF050EDBCF10F0060EDBCF11F017
:1017C000020EDBCF12F0030EDBCF13F01250105CD1
:1017D0001350115808E2020EDBCF86F5030EDBCF63
:1017E00087F57FD000D0DECFE9FFDDCFEAFF020E24
:1017F000E926000EEA22E9CF10F0EACF11F010C07E
:10180000E6FF11C0E6FF43EC32F0E552E552DECFD1
:10181000E9FFDDCFEAFF0C0EE926000EEA22080EF2
:10182000E926000EEA22EE50ED1015E0DECFE9FFCA
:10183000DDCFEAFF0C0EE926000EEA22E9CF10F018
:10184000EACF11F010C0E6FF11C0E6FF43EC32F022
:10185000E552E55200D0DECFE9FFDDCFEAFF160EFC
:10186000E926000EEA22EFCF10F005018051D88062
:1018700010540AE2DECFE9FFDDCFEAFF160EE926BB
:10188000000EEA22EFCF80F5DECFE9FFDDCFEAFFE1
:10189000020EE926000EEA22E9CF10F0EACF11F09D
:1018A00010C0E6FF11C0E6FFDECFE9FFDDCFEAFFA3
:1018B000160EE926000EEA22EF50090DF3CF12F0C2
:1018C000F4CF13F0E00E1226040E132212C0E6FF2E
:1018D00013C0E6FFE1EC30F0E552E552E552E55287
:1018E00032D702D00501822B040EDB5000D0106EDF
:1018F000090EE15C02E2E16AE552E16E1050E55248
:10190000E5CFDAFFE7CFD9FF1200D9CFE6FFDACF74
:10191000E6FFE1CFD9FFE2CFDAFFE652E652E65228
:1019200005018A5104E00501010E836F97D005017E
:10193000836B80C5DFFFDF50090DF3CFE9FFF4CFE4
:10194000EAFFE00EE926040EEA22EF5002E1010E62
:1019500001D0000E000902E0DF06EDD7DF50090DCF
:10196000F3CF10F0F4CF11F0E00E1026040E112288
:10197000010E10C0DBFF020E11C0DBFF010EDBCF3A
:10198000E9FF020EDBCFEAFFEE52EE50EFCFEAFFA7
:10199000E96E020EE926000EEA22EECF10F0EFCF3C
:1019A00011F0010EDBCFE9FF020EDBCFEAFFEE52B2
:1019B00010C0EEFF11C0EDFF010EDBCFE9FF020EFC
:1019C000DBCFEAFFEE52EECF10F0EFCF11F0010EB9
:1019D000DBCFE9FF020EDBCFEAFF030EE926000EA4
:1019E000EA22E9CF12F0EACF13F01250101802E108
:1019F000135011181EE1010EDBCFE9FF020EDBCF01
:101A0000EAFFEE52EE50EFCFEAFFE96E020EE92652
:101A1000000EEA22EECF10F0EFCF11F0010EDBCF77
:101A2000E9FF020EDBCFEAFFEE5210C0EEFF11C05D
:101A3000EDFF010EDBCFE9FF020EDBCFEAFFEE5236
:101A4000EE50EFCFEAFFE96E060EE926000EEA221D
:101A5000EECF7AF5EDCF7BF5DFCF80F5E552E5529D
:101A6000E552E552E5CFDAFFE7CFD9FF1200D9CF33
:101A7000E6FFDACFE6FFE1CFD9FFE2CFDAFF7AC5A2
:101A8000E9FF7BC5EAFF0C0EE926000EEA22E9CF4A
:101A900010F0EACF11F010C0E6FF11C0E6FFFC0E17
:101AA000DBCFE6FFFD0EDBCFE6FF61EC31F0E55268
:101AB000E552E552E552010EE66EFA0EDBCFE6FF87
:101AC000FB0EDBCFE6FF14EC18F0E552E552E552D1
:101AD000E552E5CFDAFFE7CFD9FF1200D9CFE6FF15
:101AE000DACFE6FFE1CFD9FFE2CFDAFFFA0EDBCFA4
:101AF00010F0FB0EDBCF11F01050800E11127AC5E2
:101B0000E9FF7BC5EAFF0C0EE926000EEA2210C0B1
:101B1000EEFF11C0EDFF7AC5E9FF7BC5EAFF0C0EB1
:101B2000E926000EEA22E9CF10F0EACF11F010C04A
:101B3000E6FF11C0E6FFFC0EDBCFE6FFFD0EDBCFBC
:101B4000E6FFE1EC30F0E552E552E552E552010ED8
:101B5000E66EF80EDBCFE6FFF90EDBCFE6FF14EC06
:101B600018F0E552E552E552E552E5CFDAFFE7CF4E
:101B7000D9FF1200D9CFE6FFDACFE6FFE1CFD9FFD8
:101B8000E2CFDAFFE652E652E652FC0EDBCFE9FF87
:101B9000FD0EDBCFEAFF030EE926000EEA22020E5D
:101BA000E926000EEA22EE50EFCFEAFFE96E060EBC
:101BB000E926000EEA22EECFDEFFEDCFDDFFDECF1D
:101BC000E9FFDDCFEAFF0C0EE926000EEA22E9CF9D
:101BD00010F0EACF11F010C0E6FF11C0E6FF43ECB1
:101BE00032F0E552E55205018A515AE1DECFE9FFB4
:101BF000DDCFEAFF020EE926000EEA22E9CF10F05F
:101C0000EACF11F010C0E6FF11C0E6FF43EC32F05E
:101C1000E552E552DECFE9FFDDCFEAFF160EE926F9
:101C2000000EEA22EFCF10F005018051D880105449
:101C30000AE2DECFE9FFDDCFEAFF160EE926000E4D
:101C4000EA22EFCF80F5DECFE9FFDDCFEAFF020E1B
:101C5000E926000EEA22E9CF10F0EACF11F010C019
:101C6000E6FF11C0E6FFDECFE9FFDDCFEAFF160E8B
:101C7000E926000EEA22EF50090DF3CF12F0F4CF5F
:101C800013F0E00E1226040E132212C0E6FF13C05A
:101C9000E6FFE1EC30F0E552E552E552E5521AD0AC
:101CA000DECFE9FFDDCFEAFF0C0EE926000EEA22C7
:101CB000E9CF10F0EACF11F010C0E6FF11C0E6FF47
:101CC0001A0EE66E050EE66EE1EC30F0E552E552D6
:101CD000E552E552DECFE9FFDDCFEAFF160EE92639
:101CE000000EEA22EFCF10F07AC5E9FF7BC5EAFFCC
:101CF000160EEB50D880105409E2010EF36E020E5E
:101D0000F3CFDBFF0501010E836F02D0020EDB6A09
:101D1000020EDB5000D0E552E552E552E552E5CF28
:101D2000DAFFE7CFD9FF1200D9CFE6FFDACFE6FF1F
:101D3000E1CFD9FFE2CFDAFFE652E652FA0EDBCF6F
:101D400010F0FB0EDBCF11F01050800E1112FC0EC4
:101D5000DBCFE9FFFD0EDBCFEAFF10C0EEFF11C0C5
:101D6000EDFFFC0EDBCFE9FFFD0EDBCFEAFF060E39
:101D7000E926000EEA22EECFDEFFEDCFDDFFFC0EFE
:101D8000DBCFE6FFFD0EDBCFE6FF43EC32F0E552A2
:101D9000E552DECFE9FFDDCFEAFF020EE926000EB5
:101DA000EA22E9CF10F0EACF11F010C0E6FF11C02F
:101DB000E6FF43EC32F0E552E552DECFE9FFDDCF3E
:101DC000EAFF160EE926000EEA22EFCF10F0050119
:101DD0008051D88010540AE2DECFE9FFDDCFEAFF60
:101DE000160EE926000EEA22EFCF80F5DECFE9FFDE
:101DF000DDCFEAFF020EE926000EEA22E9CF10F05D
:101E0000EACF11F010C0E6FF11C0E6FFDECFE9FF18
:101E1000DDCFEAFF160EE926000EEA22EF50090D8B
:101E2000F3CF12F0F4CF13F0E00E1226040E1322BB
:101E300012C0E6FF13C0E6FFE1EC30F0E552E552D8
:101E4000E552E552DECFE9FFDDCFEAFF160EE926C7
:101E5000000EEA22EFCF10F07AC5E9FF7BC5EAFF5A
:101E6000160EEB50D880105403E20501010E836F6B
:101E7000E552E552E552E5CFDAFFE7CFD9FF120090
:101E8000D9CFE6FFDACFE6FFE1CFD9FFE2CFDAFF25
:101E9000F250E66EF29EFC0EDBCFE9FFFD0EDBCFCB
:101EA000EAFF84C5EFFFFC0EDBCFE9FFFD0EDBCFC1
:101EB000EAFFEE527EC5EEFF7FC5EDFFE552E7BEBD
:101EC000F28EE552E5CFDAFFE7CFD9FF1200D9CF86
:101ED000E6FFDACFE6FFE1CFD9FFE2CFDAFFFC0E73
:101EE000DBCFE9FFFD0EDBCFEAFF84C5EFFFFC0E81
:101EF000DBCFE9FFFD0EDBCFEAFFEE527EC5EEFF42
:101F00007FC5EDFFE552E5CFDAFFE7CFD9FF12003D
:101F1000D9CFE6FFDACFE6FFE1CFD9FFE2CFDAFF94
:101F2000E652E652E652E652E652F250E66EF29E73
:101F3000010E7EC5DBFF020E7FC5DBFF010EDBCF8E
:101F400012F0020EDBCF13F0FC0EDBCFE9FFFD0E2B
:101F5000DBCFEAFFEE52EE50125C106EEE501358DB
:101F6000116E030E10C0DBFF040E11C0DBFFFA0E72
:101F7000DBCFE9FFFB0EDBCFEAFFFF0EEE1802E13D
:101F8000FF0EED1802E1DF6A5FD0FC0EDBCFE9FF48
:101F9000FD0EDBCFEAFFEF500501845D1BE0010E73
:101FA000DBCF10F0020EDBCF11F0FC0EDBCFE9FF30
:101FB000FD0EDBCFEAFFEECF12F0EECF13F0EFCF46
:101FC00014F000011350105C1450115803E3010E7B
:101FD000DF6E3AD0030EDBCF10F0040EDBCF11F032
:101FE000FA0EDBCFE9FFFB0EDBCFEAFFEECF12F0FC
:101FF000EFCF13F01250105C135011581BE2030E78
:10200000DBCF10F0040EDBCF11F0FA0EDBCFE9FFCF
:10201000FB0EDBCFEAFF1050EE5E1150ED5AFC0EC6
:10202000DBCFE6FFFD0EDBCFE6FF51DFE552E552E9
:10203000DF6A0AD0FA0EDBCFE9FFFB0EDBCFEAFF47
:10204000EE6AED6A010EDF6EE552E7BEF28EDF50FA
:1020500000D0106E050EE15C02E2E16AE552E16E2D
:102060001050E552E5CFDAFFE7CFD9FF12000501A6
:10207000010E836F1200D9CFE6FFDACFE6FFE1CF82
:10208000D9FFE2CFDAFF29D95AEC2BF0FCD7E55281
:10209000E5CFDAFFE7CFD9FF1200D9CFE6FFDACFDD
:1020A000E6FFE1CFD9FFE2CFDAFFE652E652FB0EC0
:1020B000DBCF10F0050EE76E1018E8AE02D0E73463
:1020C00002D0E750105C39E2D950FC0FE96EFF0EE8
:1020D000DA20EA6EEE50ED1005E17AC510F07BC50E
:1020E00011F006D0FC0EDBCF10F0FD0EDBCF11F0AF
:1020F00010C0DEFF11C0DDFFDECFE9FFDDCFEAFF5C
:10210000250EE926000EEA22E9CF10F0EACF11F001
:10211000FB0EDBCF12F0136A12BE1368D890123692
:10212000133610501224E96E11501320EA6EF90E86
:10213000DBCFEEFFFA0EDBCFEDFFE552E552E552C5
:10214000E5CFDAFFE7CFD9FF1200D9CFE6FFDACF2C
:10215000E6FFE1CFD9FFE2CFDAFFE652E652E652E0
:10216000E652DE6ADD6AFB0EDBCF10F0050EE76E8D
:102170001018E8AE02D0E73402D0E750105C3CE221
:10218000D950FC0FE96EFF0EDA20EA6EEE50ED102A
:1021900005E17AC510F07BC511F006D0FC0EDBCF4F
:1021A00010F0FD0EDBCF11F0020E10C0DBFF030EAE
:1021B00011C0DBFF020EDBCFE9FF030EDBCFEAFF2E
:1021C000250EE926000EEA22E9CF10F0EACF11F041
:1021D000FB0EDBCF12F0136A12BE1368D8901236D2
:1021E000133610501224E96E11501320EA6EEECF10
:1021F000DEFFEDCFDDFF02D0DE6ADD6ADECF10F05C
:10220000DDCF11F010C0F3FF11C0F4FF00D0040EB9
:10221000E15C02E2E16AE552E16EE552E5CFDAFF08
:10222000E7CFD9FF1200D9CFE6FFDACFE6FFE1CF43
:10223000D9FFE2CFDAFFE652DF6A040EDF5C14E278
:10224000DF50090DF3CF10F0F4CF11F0E00E10269F
:10225000040E112210C0E6FF11C0E6FF4FEC30F073
:10226000E552E552DF2AE9D7040EE66E050EE66E6A
:102270004FEC30F0E552E5520D0EE66E050EE66EBF
:102280004FEC30F0E552E5521A0EE66E050EE66EA2
:102290004FEC30F0E552E552230EE66E050EE66E89
:1022A0004FEC30F0E552E5522C0EE66E050EE66E70
:1022B0004FEC30F0E552E5520501040E166F050EA5
:1022C000176F05010D0E186F050E196FE552E552D7
:1022D000E5CFDAFFE7CFD9FF1200D9CFE6FFDACF9B
:1022E000E6FFE1CFD9FFE2CFDAFFE652E652050181
:1022F0007C51000832E2F250E66EF29E28C5E9FFFA
:1023000029C5EAFF060EE926000EEA22EECFDEFF1F
:10231000EDCFDDFFDECFE9FFDDCFEAFF020EE926DC
:10232000000EEA22E9CF10F0EACF11F010C0E6FF6C
:1023300011C0E6FF43EC32F0E552E55205017D079E
:1023400005017C07E552E7BEF28EDECFE6FFDDCF6A
:10235000E6FF0BD8E552E552CAD7E552E552E55201
:10236000E5CFDAFFE7CFD9FF1200D9CFE6FFDACF0A
:10237000E6FFE1CFD9FFE2CFDAFFFC0EDBCFE9FFCA
:10238000FD0EDBCFEAFF170EE926000EEA22EECFA4
:10239000E6FFEFCFE6FFF1EC33F0E552E552FC0E3D
:1023A000DBCFE6FFFD0EDBCFE6FFF1EC33F0E552CD
:1023B000E552E552E5CFDAFFE7CFD9FF1200D9CFDA
:1023C000E6FFDACFE6FFE1CFD9FFE2CFDAFFE65250
:1023D000E65216C5E9FF17C5EAFFEF50000902E112
:1023E000010E01D0000E000904E00501866987692D
:1023F00024D016C5E9FF17C5EAFF030EE926000E33
:10240000EA22020EE926000EEA22EE50EFCFEAFFA2
:10241000E96E060EE926000EEA22EECFDEFFEDCFD2
:10242000DDFFDECFE9FFDDCFEAFF020EE926000E79
:10243000EA22EECF86F5EDCF87F5E552E552E5527B
:10244000E5CFDAFFE7CFD9FF1200D9CFE6FFDACF29
:10245000E6FFE1CFD9FFE2CFDAFFE652E6527AC5D6
:10246000DEFF7BC5DDFFDECF10F0DDCF11F010C049
:10247000F3FF11C0F4FF00D0E552E552E552E5CF7D
:10248000DAFFE7CFD9FF1200D9CFE6FFDACFE6FFB8
:10249000E1CFD9FFE2CFDAFFE6520501815103E136
:1024A000010EDF6E07D005018A5103E1020EDF6ED7
:1024B00001D0DF6ADF5000D0E552E552E5CFDAFF08
:1024C000E7CFD9FF1200D9CFE6FFDACFE6FFE1CFA1
:1024D000D9FFE2CFDAFFE652E6527AC5E9FF7BC5C3
:1024E000EAFF0C0EE926000EEA22EECFDEFFEDCF6A
:1024F000DDFF7AC5E9FF7BC5EAFF160EEB50106ED3
:10250000116A040ED8801056000E11567AC5E9FFE4
:102510007BC5EAFF0C0EE926000EEA2210C0EEFF92
:1025200011C0EDFFDECF10F0DDCF11F010C0F3FFD2
:1025300011C0F4FF00D0E552E552E552E5CFDAFFD5
:10254000E7CFD9FF1200D9CFE6FFDACFE6FFE1CF20
:10255000D9FFE2CFDAFFE652E652E652E652F250F7
:10256000E66EF29E7AC5E9FF7BC5EAFF2F0EE926EB
:10257000000EEA22EECF10F0EECF11F0EECF12F007
:10258000EFCF13F0105011101210131027E17AC57D
:10259000E9FF7BC5EAFF330EE926000EEA22010EB1
:1025A000EF6ED950FB0FE96EFF0EDA20EA6E000ED7
:1025B000D880EE54000EED5410E2010EE66EFB0ED4
:1025C000DBCFE6FFFC0EDBCFE6FF14EC18F0E552A4
:1025D000E552E5525AEC2BF000D000D0E552E7BEB0
:1025E000F28EF250E66EF29E7AC5E9FF7BC5EAFFF5
:1025F0002F0EE926000EEA22EECFDFFF010EEECF0E
:10260000DBFF020EEECFDBFF030EEECFDBFFD9CFF9
:10261000E9FFDACFEAFFEECF10F0EECF11F0EECF08
:1026200012F0EFCF13F0105011101210131034E00D
:10263000FD0EDB500DE07AC5E9FF7BC5EAFF2F0EEA
:10264000E926000EEA22EE6AEE6AEE6AEE6A23D00E
:10265000D9CFE9FFDACFEAFFEECF10F0EECF11F0DD
:10266000EECF12F0EFCF13F01006000E115A000E4D
:10267000125A000E135A7AC5E9FF7BC5EAFF2F0EE6
:10268000E926000EEA2210C0EEFF11C0EEFF12C0D4
:10269000EEFF13C0EEFF00D07AC5E9FF7BC5EAFF6D
:1026A000330EE926000EEA22EF6AE552E7BEF28E0B
:1026B000DECF06F0DECF07F0DECF08F0DDCF09F089
:1026C000DD52DD5200D0040EE15C02E2E16AE55227
:1026D000E16EE552E5CFDAFFE7CFD9FF1200D9CF9F
:1026E000E6FFDACFE6FFE1CFD9FFE2CFDAFFE6522D
:1026F000F250E66EF29E7AC5E9FF7BC5EAFF330E23
:10270000EB50020847E0FA0EDBCF10F0FB0EDBCFF8
:1027100011F0FC0EDBCF12F0FD0EDBCF13F0101E1C
:10272000111E121E131E7AC5E9FF7BC5EAFF2F0E8C
:10273000E926000EEA221050EE161150EE16125045
:10274000EE161350EE167AC5E9FF7BC5EAFF330E8D
:10275000E926000EEA22010EEF6ED950F20FE96E63
:10276000FF0EDA20EA6E000ED880EE54000EED5413
:1027700010E2010EE66EF20EDBCFE6FFF30EDBCFCA
:10278000E6FF14EC18F0E552E552E5525AEC2BF056
:1027900000D000D0E552E7BEF28EF250E66EF29E17
:1027A000D950F40FE96EFF0EDA20EA6EEE50ED100C
:1027B0001EE07AC5E9FF7BC5EAFF2F0EE926000E71
:1027C000EA22EECF10F0EECF11F0EECF12F0EFCF05
:1027D00013F0F40EDBCFE9FFF50EDBCFEAFF10C0FC
:1027E000EEFF11C0EEFF12C0EEFF13C0EEFF7AC580
:1027F000E9FF7BC5EAFF330EEB50020802E0DF6A17
:1028000022D0F60EDBCF10F0F70EDBCF11F0F80E72
:10281000DBCF12F0F90EDBCF13F0101E111E121ECB
:10282000131E7AC5E9FF7BC5EAFF2F0EE926000ECD
:10283000EA221050EE161150EE161250EE161350FA
:10284000EE16010EDF6E7AC5E9FF7BC5EAFF330E97
:10285000E926000EEA22EF6AE552E7BEF28EDF506B
:1028600000D0E552E552E5CFDAFFE7CFD9FF1200FD
:10287000D9CFE6FFDACFE6FFE1CFD9FFE2CFDAFF2B
:10288000E652E652E652E652010EF36E020EF3CF26
:10289000DBFFFC0EDBCFDEFFDBCFDDFFF250E66EB1
:1028A000F29ED950F50FE96EFF0EDA20EA6EEE5077
:1028B000ED101EE0DECFE9FFDDCFEAFF2F0EE926A7
:1028C000000EEA22EECF10F0EECF11F0EECF12F0B4
:1028D000EFCF13F0F50EDBCFE9FFF60EDBCFEAFF0B
:1028E00010C0EEFF11C0EEFF12C0EEFF13C0EEFFEE
:1028F000DECFE9FFDDCFEAFF330EE926000EEA2244
:10290000030EEFCFDBFFDECFE9FFDDCFEAFF330EB3
:10291000E926000EEA22020EEF6EF70EDB505DE0B4
:10292000040A3FE0070A28E0010A18E0030A01E070
:1029300055D0DECFE9FFDDCFEAFF2F0EE926000EEE
:10294000EA22F80EDB50EE12F90EDB50EE12FA0E10
:10295000DB50EE12FB0EDB50EE1241D0DECFE9FF72
:10296000DDCFEAFF2F0EE926000EEA22EE2A000E46
:10297000EE22EE22EE2233D0DECFE9FFDDCFEAFFFA
:102980002F0EE926000EEA22F80EDBCFEEFFF90E3D
:10299000DBCFEEFFFA0EDBCFEEFFFB0EDBCFEEFF61
:1029A0001ED0030EDB50020815E0DECFE9FFDDCFBD
:1029B000EAFF2F0EE926000EEA22F80EDBCFEEFF2B
:1029C000F90EDBCFEEFFFA0EDBCFEEFFFB0EDBCF17
:1029D000EEFF02D0020EDB6A02D001D000D0030E5F
:1029E000DB046EE1DECFE9FFDDCFEAFF020EE92670
:1029F000000EEA22E9CF10F0EACF11F010C0E6FF96
:102A000011C0E6FF43EC32F0E552E552DECFE9FFBC
:102A1000DDCFEAFF160EE926000EEA22EFCF10F016
:102A200005018051D88010540AE2DECFE9FFDDCFE6
:102A3000EAFF160EE926000EEA22EFCF80F5DECF80
:102A4000E9FFDDCFEAFF020EE926000EEA22E9CF18
:102A500010F0EACF11F010C0E6FF11C0E6FFDECFA4
:102A6000E9FFDDCFEAFF160EE926000EEA22EF505D
:102A7000090DF3CF12F0F4CF13F0E00E1226040E7E
:102A8000132212C0E6FF13C0E6FFE1EC30F0E5527E
:102A9000E552E552E552DECFE9FFDDCFEAFF160E43
:102AA000E926000EEA22EFCF10F07AC5E9FF7BC5D8
:102AB000EAFF160EEB50D880105401E200D000D08F
:102AC000E552E7BEF28E020EDB5000D0106E040E0F
:102AD000E15C02E2E16AE552E16E1050E552E5CFB9
:102AE000DAFFE7CFD9FF1200D9CFE6FFDACFE6FF52
:102AF000E1CFD9FFE2CFDAFFE652E652E652E652E4
:102B0000E652010EF36E030EF3CFDBFFFC0EDBCFBC
:102B1000DEFFDBCFDDFF040EDB6AD950F50FE96E77
:102B2000FF0EDA20EA6EEE50ED101EE0DECFE9FF78
:102B3000DDCFEAFF2F0EE926000EEA22EECF10F0DD
:102B4000EECF11F0EECF12F0EFCF13F0F50EDBCF9A
:102B5000E9FFF60EDBCFEAFF10C0EEFF11C0EEFF7B
:102B600012C0EEFF13C0EEFFDECFE9FFDDCFEAFFBC
:102B7000330EE926000EEA22020EEFCFDBFFDECF96
:102B8000E9FFDDCFEAFF330EE926000EEA22020E4E
:102B9000EF6EF70EDB505DE0040A3FE0070A28E025
:102BA000010A18E0030A01E055D0DECFE9FFDDCFCE
:102BB000EAFF2F0EE926000EEA22F80EDB50EE1295
:102BC000F90EDB50EE12FA0EDB50EE12FB0EDB506C
:102BD000EE1241D0DECFE9FFDDCFEAFF2F0EE9266E
:102BE000000EEA22EE2A000EEE22EE22EE2233D072
:102BF000DECFE9FFDDCFEAFF2F0EE926000EEA2245
:102C0000F80EDBCFEEFFF90EDBCFEEFFFA0EDBCFD7
:102C1000EEFFFB0EDBCFEEFF1ED0020EDB500208F4
:102C200015E0DECFE9FFDDCFEAFF2F0EE926000E2B
:102C3000EA22F80EDBCFEEFFF90EDBCFEEFFFA0E45
:102C4000DBCFEEFFFB0EDBCFEEFF02D0030EDB6A25
:102C500002D001D000D0020EDB0401E09FD00501BC
:102C60008A515AE1DECFE9FFDDCFEAFF020EE92605
:102C7000000EEA22E9CF10F0EACF11F010C0E6FF13
:102C800011C0E6FF43EC32F0E552E552DECFE9FF3A
:102C9000DDCFEAFF160EE926000EEA22EFCF10F094
:102CA00005018051D88010540AE2DECFE9FFDDCF64
:102CB000EAFF160EE926000EEA22EFCF80F5DECFFE
:102CC000E9FFDDCFEAFF020EE926000EEA22E9CF96
:102CD00010F0EACF11F010C0E6FF11C0E6FFDECF22
:102CE000E9FFDDCFEAFF160EE926000EEA22EF50DB
:102CF000090DF3CF12F0F4CF13F0E00E1226040EFC
:102D0000132212C0E6FF13C0E6FFE1EC30F0E552FB
:102D1000E552E552E5521AD0DECFE9FFDDCFEAFFFA
:102D20000C0EE926000EEA22E9CF10F0EACF11F0EE
:102D300010C0E6FF11C0E6FF1A0EE66E050EE66E45
:102D4000E1EC30F0E552E552E552E552DECFE9FF25
:102D5000DDCFEAFF160EE926000EEA22EFCF10F0D3
:102D60007AC5E9FF7BC5EAFF160EEB50D8801054F8
:102D700015E2D950F30FE96EFF0EDA20EA6EEE503D
:102D8000ED1008E0F30EDBCFE9FFF40EDBCFEAFF36
:102D9000010EEF6E0501010E836F00D0030EDB50B4
:102DA00000D0106E050EE15C02E2E16AE552E16ED0
:102DB0001050E552E5CFDAFFE7CFD9FF1200D9CFA7
:102DC000E6FFDACFE6FFE1CFD9FFE2CFDAFFE65246
:102DD000E652E652E652FC0EDBCFDEFFDBCFDDFF34
:102DE000030EDB6ADECFE9FFDDCFEAFF330EE92613
:102DF000000EEA22020EEFCFDBFFDECFE9FFDDCFD0
:102E0000EAFF330EE926000EEA22020EEF6EDECF55
:102E1000E9FFDDCFEAFF2F0EE926000EEA22EE2AB7
:102E2000000EEE22EE22EE22020EDB0401E09FD025
:102E300005018A515AE1DECFE9FFDDCFEAFF020E3C
:102E4000E926000EEA22E9CF10F0EACF11F010C017
:102E5000E6FF11C0E6FF43EC32F0E552E552DECF6B
:102E6000E9FFDDCFEAFF160EE926000EEA22EFCFDA
:102E700010F005018051D88010540AE2DECFE9FF3E
:102E8000DDCFEAFF160EE926000EEA22EFCF80F52D
:102E9000DECFE9FFDDCFEAFF020EE926000EEA22CF
:102EA000E9CF10F0EACF11F010C0E6FF11C0E6FF45
:102EB000DECFE9FFDDCFEAFF160EE926000EEA229B
:102EC000EF50090DF3CF12F0F4CF13F0E00E1226FD
:102ED000040E132212C0E6FF13C0E6FFE1EC30F04F
:102EE000E552E552E552E5521AD0DECFE9FFDDCFDB
:102EF000EAFF0C0EE926000EEA22E9CF10F0EACF35
:102F000011F010C0E6FF11C0E6FF1A0EE66E050EC6
:102F1000E66EE1EC30F0E552E552E552E552DECFE7
:102F2000E9FFDDCFEAFF160EE926000EEA22EFCF19
:102F300010F07AC5E9FF7BC5EAFF160EEB50D8808A
:102F4000105415E2D950FA0FE96EFF0EDA20EA6E3E
:102F5000EE50ED1008E0FA0EDBCFE9FFFB0EDBCF01
:102F6000EAFF010EEF6E0501010E836F00D0040E23
:102F7000E15C02E2E16AE552E16EE552E5CFDAFF9B
:102F8000E7CFD9FF1200D9CFE6FFDACFE6FFE1CFD6
:102F9000D9FFE2CFDAFFE652E652E652D950FC0FF3
:102FA000E96EFF0EDA20EA6EEE50ED1005E17AC50B
:102FB00010F07BC511F006D0FC0EDBCF10F0FD0E3B
:102FC000DBCF11F010C0DEFF11C0DDFFF250E66E66
:102FD000F29EDECFE9FFDDCFEAFF330EE926000ED9
:102FE000EA22EF5002080FE1DECFE9FFDDCFEAFF72
:102FF000330EE926000EEA22EF6A010EF36E020E8E
:10300000F3CFDBFF02D0020EDB6AE552E7BEF28EA1
:10301000020EDB5000D0E552E552E552E552E5CF15
:10302000DAFFE7CFD9FF1200D9CFE6FFDACFE6FF0C
:10303000E1CFD9FFE2CFDAFFE652E652E652E6529E
:10304000020E7EC5DBFF030E7FC5DBFF7AC5E9FFFD
:103050007BC5EAFF020EE926000EEA22E9CF10F056
:10306000EACF11F010C0E6FF11C0E6FF43EC32F0EA
:10307000E552E552000901E100D0D950FC0FE96E9C
:10308000FF0EDA20EA6EFF0EEE1802E1FF0EED18D9
:103090001EE1FB0EDB501BE07AC5E9FF7BC5EAFFB2
:1030A000020EE926000EEA22E9CF10F0EACF11F075
:1030B00010C0E6FF11C0E6FF2C0EE66E050EE66EB0
:1030C000E1EC30F0E552E552E552E55271D0FC0EEC
:1030D000DBCF12F0FD0EDBCF13F0020EDB5012241B
:1030E000106E030EDB501320116E10C0DEFF11C0F6
:1030F000DDFF7AC5E9FF7BC5EAFF020EE926000E77
:10310000EA22DECFEEFFDDCFEDFFDECF10F0DDCF28
:1031100011F0020EDBCF12F0030EDBCF13F01250D2
:10312000105C135011581BE27AC5E9FF7BC5EAFF1A
:10313000020EE926000EEA22E9CF10F0EACF11F0E4
:1031400010C0E6FF11C0E6FF18C5E6FF19C5E6FF8F
:1031500061EC31F0E552E552E552E55229D07AC5ED
:10316000E9FF7BC5EAFF020EE926000EEA22E9CF5D
:1031700010F0EACF11F010C0E6FF11C0E6FF16C54F
:10318000E6FF17C5E6FF61EC31F0E552E552E55286
:10319000E552DECF10F0DDCF11F005018651105C55
:1031A0008751115805E2DECF86F5DDCF87F500D0D7
:1031B000040EE15C02E2E16AE552E16EE552E5CF20
:0831C000DAFFE7CFD9FF12008E
:0831C800D9CFE6FFDACFE6FFE4
:1031D000E1CFD9FFE2CFDAFFE652E652FC0EDBCFB9
:1031E000DEFFDBCFDDFFF250E66EF29EDECFE9FFC1
:1031F000DDCFEAFF1C0EE926000EEA22EFCF14F025
:10320000DECFE9FFDDCFEAFF1B0EE926000EEA2242
:10321000EF501402F350126E136ADECFE9FFDDCFD8
:10322000EAFF1250EE24106E1350EE20116EDECF26
:10323000E9FFDDCFEAFF040EE926000EEA2210C006
:10324000EEFF11C0EDFFDECFE9FFDDCFEAFF1A0E82
:10325000E926000EEA22EF6ADECFE9FFDDCFEAFFC2
:10326000EECF10F0EFCF11F0DECFE9FFDDCFEAFFB8
:10327000020EE926000EEA2210C0EEFF11C0EDFF9B
:10328000DECFE9FFDDCFEAFF1C0EE926000EEA22C1
:10329000EFCF14F0DECFE9FFDDCFEAFF1B0EE9260A
:1032A000000EEA22EF041402F350126E136ADECF0E
:1032B000E9FFDDCFEAFF1250EE24106E1350EE202E
:1032C000116EDECFE9FFDDCFEAFF040EE926000E26
:1032D000EA22020EE926000EEA2210C0EEFF11C01B
:1032E000EDFFDECFE9FFDDCFEAFF1D0EE926000E80
:1032F000EA22EF68DECFE9FFDDCFEAFF1E0EE92606
:10330000000EEA22EF68FB0EDB5028E1DECFE9FF7A
:10331000DDCFEAFF080EE926000EEA22EF5002E1B7
:10332000010E01D0000E000918E1DECFE9FFDDCF6C
:10333000EAFF080EE926000EEA22E9CF10F0EACFF4
:1033400011F010C0E6FF11C0E6FFBAEC0DF0E55237
:10335000E552000901E000D000D028D0DECFE9FF1F
:10336000DDCFEAFF080EE926000EEA22E9CF10F0D1
:10337000EACF11F010C0E6FF11C0E6FF4FEC30F0CD
:10338000E552E552DECFE9FFDDCFEAFF110EE92677
:10339000000EEA22E9CF10F0EACF11F010C0E6FFEC
:1033A00011C0E6FF4FEC30F0E552E552E552E7BEC2
:1033B000F28E010E00D0E552E552E552E5CFDAFF7C
:1033C000E7CFD9FF1200D9CFE6FFDACFE6FFE1CF92
:1033D000D9FFE2CFDAFF060EE12402E3E168E6520C
:1033E000E16EFC0EDB5005E1020EDB6A030EDB6AC8
:1033F00013D0FC0EDBCFE6FFFD0EDB50E552E702FB
:10340000F350E66ED950020FE96E000EDA20EA6E34
:10341000E552E750EE6EED6A020EDBCF10F0030EC0
:10342000DBCF11F01F0E1026000E112210C0E6FF98
:1034300011C0E6FF83EC33F0E552E552F3CFDEFF37
:10344000F4CFDDFFD9CFE9FFDACFEAFFEE50ED1080
:1034500031E0D9CFE9FFDACFEAFF040EEECFDBFF90
:10346000050EEDCFDBFFD950040FE96E000EDA2018
:10347000EA6E1F0EEE26000EED22DECFE6FFDDCF58
:10348000E6FFFB0EDBCFE6FF040EDBCFE6FF050E0B
:10349000DBCFE6FFFC0EDBCFE6FFFD0EDBCFE6FF6A
:1034A0001ED8106E070EE15C02E2E16AE552E16EA1
:1034B000105000D0DECF10F0DDCF11F010C0F3FFC0
:1034C00011C0F4FF00D0060EE15C02E2E16AE552B1
:1034D000E16EE552E5CFDAFFE7CFD9FF1200D9CF91
:1034E000E6FFDACFE6FFE1CFD9FFE2CFDAFFFC0E4D
:1034F000DB500DE1F70EDBCFE9FFF80EDBCFEAFF83
:10350000F70EDBCFEEFFF80EDBCFEDFF0CD0F70EA2
:10351000DBCFE9FFF80EDBCFEAFFFA0EDBCFEEFFE1
:10352000FB0EDBCFEDFFF70EDBCFE9FFF80EDBCFB5
:10353000EAFF1B0EE926000EEA22FD0EDBCFEFFFAD
:10354000F70EDBCFE9FFF80EDBCFEAFF1C0EE92612
:10355000000EEA22FC0EDBCFEFFF010EE66EF70E47
:10356000DBCFE6FFF80EDBCFE6FF2EDEE552E552BD
:10357000E552E552E5CFDAFFE7CFD9FF1200D9CF08
:10358000E6FFDACFE6FFE1CFD9FFE2CFDAFFE6527E
:10359000E652020EE66EE66AFD0EDBCFE6FF13DFB3
:1035A000E552E552E552F3CFDEFFF4CFDDFFD9CF90
:1035B000E9FFDACFEAFFEE50ED100CE0DECFE9FFD5
:1035C000DDCFEAFF1A0EE926000EEA22FC0EDBCF61
:1035D000EFFF00D0DECF10F0DDCF11F010C0F3FF11
:1035E00011C0F4FF00D0E552E552E552E5CFDAFF15
:1035F000E7CFD9FF1200D9CFE6FFDACFE6FFE1CF60
:10360000D9FFE2CFDAFF070EE12402E3E168E652D8
:10361000E16EDF6AFC0EDBCF08F0FD0EDBCF09F0B8
:10362000050E08C0DBFF060E09C0DBFFF250E66E98
:10363000F29E050EDBCFE9FF060EDBCFEAFF1A0E86
:10364000E926000EEA22EFCF10F0050EDBCFE9FFEE
:10365000060EDBCFEAFF1B0EE926000EEA22EF5032
:10366000105C04E3F70EDB50020852E1F70EDBCFEB
:10367000E6FFFA0EDBCFE6FFFB0EDBCFE6FF050E23
:10368000DBCFE6FF060EDBCFE6FFFBEC23F0106E90
:10369000050EE15C02E2E16AE552E16E1050E76E70
:1036A000010EE7CFDBFF050EDBCFE9FF060EDBCF18
:1036B000EAFF110EE926000EEA22EF5002E1010EA8
:1036C00001D0000E00091AE1050EDBCFE9FF060E5E
:1036D000DBCFEAFF110EE926000EEA22E9CF10F057
:1036E000EACF11F010C0E6FF11C0E6FFBAEC0DF012
:1036F000E552E552000901E000D004D0010EDB5094
:1037000001E000D0E552E7BEF28E010EC5D01ED01A
:10371000D950F80FE96EFF0EDA20EA6EEE50ED1088
:1037200006E1E552E7BEF28E000EB6D00FD0DF50B4
:103730000DE1D950020FE66E000EDA20E66E67EC5E
:103740000FF0E552E552010EDF6E00D0E552E7BE04
:10375000F28ED7EC09F0F250E66EF29E050EDBCF4A
:10376000E9FF060EDBCFEAFF1D0EE926000EEA2276
:10377000EF50FF080BE1050EDBCFE9FF060EDBCFB4
:10378000EAFF1D0EE926000EEA22EF6A050EDBCFE6
:10379000E9FF060EDBCFEAFF1E0EE926000EEA2245
:1037A000EF50FF080BE1050EDBCFE9FF060EDBCF84
:1037B000EAFF1E0EE926000EEA22EF6AE552E7BE96
:1037C000F28ED950F80FE66EFF0EDA20E66ED95071
:1037D000020FE66E000EDA20E66E88EC0FF0E5527E
:1037E000E552E552E552000948E1050EDBCFE6FF60
:1037F000060EDBCFE6FF46EC27F0E552E552000966
:103800002FE0F80EDBCFE6FFF90EDBCFE6FF050E6B
:10381000DBCFE9FF060EDBCFEAFF080EE926000E3C
:10382000EA22E9CF10F0EACF11F010C0E6FF11C094
:10383000E6FF37EC0DF0E552E552E552E552050E94
:10384000DBCFE6FF060EDBCFE6FF23EC26F0E552EA
:10385000E552DAEC09F0000902E15AEC2BF00CD049
:10386000050EDBCFE6FF060EDBCFE6FF23EC26F0EE
:10387000E552E552DAEC09F00ED0050EDBCFE6FF9B
:10388000060EDBCFE6FF23EC26F0E552E552DAEC3C
:1038900009F0000E01D0CAD6106E070EE15C02E2FC
:1038A000E16AE552E16E1050E552E5CFDAFFE7CF6D
:1038B000D9FF1200D9CFE6FFDACFE6FFE1CFD9FF7B
:1038C000E2CFDAFFE652E652E652E652E652FC0E4C
:1038D000DBCF08F0FD0EDBCF09F0020E08C0DBFFE6
:1038E000030E09C0DBFF010EDB6A020EDBCFE9FF2E
:1038F000030EDBCFEAFF1A0EE926000EEA22EFCF15
:1039000010F0020EDBCFE9FF030EDBCFEAFF1B0E48
:10391000E926000EEA22EF50105C05E3F70EDB50BB
:10392000020801E07BD0020EDBCFE9FF030EDBCF04
:10393000EAFF1E0EE926000EEA22040EEFCFDBFF9F
:10394000F70EDBCFE6FFFA0EDBCFE6FFFB0EDBCF99
:10395000E6FF020EDBCFE6FF030EDBCFE6FFFBEC5C
:1039600023F0106E050EE15C02E2E16AE552E16EC1
:103970001050040EDB50FF083EE1020EDBCFE9FFE2
:10398000030EDBCFEAFF110EE926000EEA22EF500C
:1039900002E1010E01D0000E00092CE1020EDBCF86
:1039A000E9FF030EDBCFEAFF110EE926000EEA2243
:1039B000E9CF10F0EACF11F010C0E6FF11C0E6FF2A
:1039C000BAEC0DF0E552E552000913E0D950F80FBA
:1039D000E96EFF0EDA20EA6EEE50ED1009E0F80E07
:1039E000DBCFE9FFF90EDBCFEAFF010EEF6E00D06F
:1039F00000D000D010D0040EDB28E66E020EDBCF24
:103A0000E9FF030EDBCFEAFF1E0EE926000EEA22D5
:103A1000E552E750EF6E010EDF6E01D0DF6ADF5036
:103A200000D0106E050EE15C02E2E16AE552E16E43
:103A30001050E552E5CFDAFFE7CFD9FF1200D9CF1A
:103A4000E6FFDACFE6FFE1CFD9FFE2CFDAFF060EDD
:103A5000E12402E3E168E652E16EFC0EDBCF08F000
:103A6000FD0EDBCF09F0020E08C0DBFF030E09C01C
:103A7000DBFF010EDB6A020EDBCFE9FF030EDBCFBB
:103A8000EAFF1A0EE926000EEA22040EEFCFDBFF52
:103A9000020EDBCFE9FF030EDBCFEAFF1B0EE926A8
:103AA000000EEA22EF50F36E040EDBCFF4FFF3506A
:103AB000F45C72E2020EDBCFE9FF030EDBCFEAFF1C
:103AC0001E0EE926000EEA22050EEFCFDBFF040EE4
:103AD000DB28E66E020EDBCFE9FF030EDBCFEAFF49
:103AE0001A0EE926000EEA22E552E750EF6E050EA7
:103AF000DB50FF083EE1020EDBCFE9FF030EDBCF18
:103B0000EAFF110EE926000EEA22EF5002E1010E53
:103B100001D0000E00092CE1020EDBCFE9FF030EFD
:103B2000DBCFEAFF110EE926000EEA22E9CF10F002
:103B3000EACF11F010C0E6FF11C0E6FFBAEC0DF0BD
:103B4000E552E552000913E0D950FA0FE96EFF0E75
:103B5000DA20EA6EEE50ED1009E0FA0EDBCFE9FF55
:103B6000FB0EDBCFEAFF010EEF6E00D000D000D0DD
:103B700010D0050EDB28E66E020EDBCFE9FF030E48
:103B8000DBCFEAFF1E0EE926000EEA22E552E750DF
:103B9000EF6E010EDF6E01D0DF6ADF5000D0106ED5
:103BA000060EE15C02E2E16AE552E16E1050E55278
:103BB000E5CFDAFFE7CFD9FF1200D9CFE6FFDACFA2
:103BC000E6FFE1CFD9FFE2CFDAFF070EE12402E3FF
:103BD000E168E652E16EDF6AFC0EDBCF08F0FD0E15
:103BE000DBCF09F0040E08C0DBFF050E09C0DBFFC8
:103BF000F250E66EF29E040EDBCFE9FF050EDBCF3E
:103C0000EAFF1A0EE926000EEA22060EEFCFDBFFCE
:103C1000060EDB50000853E2FA0EDBCFE6FFFB0E88
:103C2000DBCFE6FF040EDBCFE6FF050EDBCFE6FFC2
:103C300070EC25F0E552E552E552E552060EDB0444
:103C4000E66E040EDBCFE9FF050EDBCFEAFF1A0EAE
:103C5000E926000EEA22E552E750EF6E040EDBCFB4
:103C6000E9FF050EDBCFEAFF080EE926000EEA2287
:103C7000EF5002E1010E01D0000E00091AE1040E1E
:103C8000DBCFE9FF050EDBCFEAFF080EE926000EC9
:103C9000EA22E9CF10F0EACF11F010C0E6FF11C020
:103CA000E6FFBAEC0DF0E552E552000901E000D064
:103CB00000D0E552E7BEF28E010ED3D01ED0D9500F
:103CC000F80FE96EFF0EDA20EA6EEE50ED1006E115
:103CD000E552E7BEF28E000EC4D00FD0DF500DE1EA
:103CE000D950010FE66E000EDA20E66E67EC0FF099
:103CF000E552E552010EDF6E00D0E552E7BEF28ECE
:103D0000D7EC09F0F250E66EF29E040EDBCFE9FF2D
:103D1000050EDBCFEAFF1D0EE926000EEA22EF506A
:103D2000FF080BE1040EDBCFE9FF050EDBCFEAFF56
:103D30001D0EE926000EEA22EF6A040EDBCFE9FF32
:103D4000050EDBCFEAFF1E0EE926000EEA22EF5039
:103D5000FF080BE1040EDBCFE9FF050EDBCFEAFF26
:103D60001E0EE926000EEA22EF6AE552E7BEF28E49
:103D7000D950F80FE66EFF0EDA20E66ED950010F2B
:103D8000E66E000EDA20E66E88EC0FF0E552E552A2
:103D9000E552E552000949E1040EDBCFE6FF050ECE
:103DA000DBCFE6FFECEC26F0E552E552000930E00F
:103DB000F80EDBCFE6FFF90EDBCFE6FF040EDBCF1C
:103DC000E9FF050EDBCFEAFF110EE926000EEA221D
:103DD000E9CF10F0EACF11F010C0E6FF11C0E6FF06
:103DE00037EC0DF0E552E552E552E552040EDBCF1B
:103DF000E6FF050EDBCFE6FF23EC26F0E552E552A9
:103E0000DAEC09F0000903E15AEC2BF000D00CD0F9
:103E1000040EDBCFE6FF050EDBCFE6FF23EC26F03A
:103E2000E552E552DAEC09F01BD0040EDBCFE6FFD9
:103E3000050EDBCFE6FF23EC26F0E552E552DAEC87
:103E400009F0040EDBCFE6FF050EDBCFE6FFECEC5E
:103E500026F0E552E552000903E0000E02D000D042
:103E6000C7D6106E070EE15C02E2E16AE552E16E30
:103E70001050E552E5CFDAFFE7CFD9FF1200D9CFD6
:103E8000E6FFDACFE6FFE1CFD9FFE2CFDAFF070E98
:103E9000E12402E3E168E652E16EDF6AFC0EDBCF6B
:103EA00008F0FD0EDBCF09F0040E08C0DBFF050EA5
:103EB00009C0DBFFF250E66EF29E040EDBCFE9FF95
:103EC000050EDBCFEAFF1A0EE926000EEA22060EE7
:103ED000EFCFDBFF060EDB50000841E2060EDB04ED
:103EE000E66E040EDBCFE9FF050EDBCFEAFF1A0E0C
:103EF000E926000EEA22E552E750EF6E040EDBCF12
:103F0000E9FF050EDBCFEAFF080EE926000EEA22E4
:103F1000EF5002E1010E01D0000E00091AE1040E7B
:103F2000DBCFE9FF050EDBCFEAFF080EE926000E26
:103F3000EA22E9CF10F0EACF11F010C0E6FF11C07D
:103F4000E6FFBAEC0DF0E552E552000901E000D0C1
:103F500000D0E552E7BEF28E010ED3D01ED0D9506C
:103F6000FA0FE96EFF0EDA20EA6EEE50ED1006E170
:103F7000E552E7BEF28E000EC4D00FD0DF500DE147
:103F8000D950010FE66E000EDA20E66E67EC0FF0F6
:103F9000E552E552010EDF6E00D0E552E7BEF28E2B
:103FA000D7EC09F0F250E66EF29E040EDBCFE9FF8B
:103FB000050EDBCFEAFF1D0EE926000EEA22EF50C8
:103FC000FF080BE1040EDBCFE9FF050EDBCFEAFFB4
:103FD0001D0EE926000EEA22EF6A040EDBCFE9FF90
:103FE000050EDBCFEAFF1E0EE926000EEA22EF5097
:103FF000FF080BE1040EDBCFE9FF050EDBCFEAFF84
:104000001E0EE926000EEA22EF6AE552E7BEF28EA6
:10401000D950FA0FE66EFF0EDA20E66ED950010F86
:10402000E66E000EDA20E66E88EC0FF0E552E552FF
:10403000E552E552000949E1040EDBCFE6FF050E2B
:10404000DBCFE6FFECEC26F0E552E552000930E06C
:10405000FA0EDBCFE6FFFB0EDBCFE6FF040EDBCF75
:10406000E9FF050EDBCFEAFF110EE926000EEA227A
:10407000E9CF10F0EACF11F010C0E6FF11C0E6FF63
:1040800037EC0DF0E552E552E552E552040EDBCF78
:10409000E6FF050EDBCFE6FF23EC26F0E552E55206
:1040A000DAEC09F0000903E15AEC2BF000D00CD057
:1040B000040EDBCFE6FF050EDBCFE6FF23EC26F098
:1040C000E552E552DAEC09F01BD0040EDBCFE6FF37
:1040D000050EDBCFE6FF23EC26F0E552E552DAECE5
:1040E00009F0040EDBCFE6FF050EDBCFE6FFECECBC
:1040F00026F0E552E552000903E0000E02D000D0A0
:10410000D9D6106E070EE15C02E2E16AE552E16E7B
:104110001050E552E5CFDAFFE7CFD9FF1200D9CF33
:10412000E6FFDACFE6FFE1CFD9FFE2CFDAFF090EF3
:10413000E12402E3E168E652E16EDF6AFC0EDBCFC8
:1041400008F0FD0EDBCF09F0060E08C0DBFF070EFE
:1041500009C0DBFFF250E66EF29E060EDBCFE9FFF0
:10416000070EDBCFEAFF1A0EE926000EEA22080E40
:10417000EFCFDBFF080EDB5000086BE2060EDBCF53
:10418000E9FF070EDBCFEAFF040EE926000EEA2264
:10419000020EE926000EEA22040EEECFDBFF050E2A
:1041A000EDCFDBFFFA0EDBCFE6FFFB0EDBCFE6FF4A
:1041B000060EDBCFE6FF070EDBCFE6FF70EC25F047
:1041C000E552E552E552E552060EDBCFE9FF070E58
:1041D000DBCFEAFF040EE926000EEA22020EE926F2
:1041E000000EEA22040EDBCFEEFF050EDBCFEDFF63
:1041F000060EDBCFE9FF070EDBCFEAFF110EE92643
:10420000000EEA22EF5002E1010E01D0000E00097B
:104210001AE1060EDBCFE9FF070EDBCFEAFF110E36
:10422000E926000EEA22E9CF10F0EACF11F010C023
:10423000E6FF11C0E6FFBAEC0DF0E552E5520009C9
:1042400001E000D000D0E552E7BEF28E010ED3D0DF
:104250001ED0D950F80FE96EFF0EDA20EA6EEE504C
:10426000ED1006E1E552E7BEF28E000EC4D00FD08D
:10427000DF500DE1D950010FE66E000EDA20E66E38
:1042800067EC0FF0E552E552010EDF6E00D0E5520B
:10429000E7BEF28ED7EC09F0F250E66EF29E060E03
:1042A000DBCFE9FF070EDBCFEAFF1D0EE926000E8C
:1042B000EA22EF50FF080BE1060EDBCFE9FF070E05
:1042C000DBCFEAFF1D0EE926000EEA22EF6A060E9A
:1042D000DBCFE9FF070EDBCFEAFF1E0EE926000E5B
:1042E000EA22EF50FF080BE1060EDBCFE9FF070ED5
:1042F000DBCFEAFF1E0EE926000EEA22EF6AE55246
:10430000E7BEF28ED950F80FE66EFF0EDA20E66EA9
:10431000D950010FE66E000EDA20E66E88EC0FF041
:10432000E552E552E552E552000949E1060EDBCFC0
:10433000E6FF070EDBCFE6FFECEC26F0E552E55298
:10434000000930E0F80EDBCFE6FFF90EDBCFE6FF29
:10435000060EDBCFE9FF070EDBCFEAFF110EE926E1
:10436000000EEA22E9CF10F0EACF11F010C0E6FF0C
:1043700011C0E6FF37EC0DF0E552E552E552E5528B
:10438000060EDBCFE6FF070EDBCFE6FF23EC26F0C1
:10439000E552E552DAEC09F0000903E15AEC2BF0A2
:1043A00000D00CD0060EDBCFE6FF070EDBCFE6FF1A
:1043B00023EC26F0E552E552DAEC09F01BD0060EAC
:1043C000DBCFE6FF070EDBCFE6FF23EC26F0E5525E
:1043D000E552DAEC09F0060EDBCFE6FF070EDBCF85
:1043E000E6FFECEC26F0E552E552000903E0000E92
:1043F00002D000D0AFD6106E090EE15C02E2E16A95
:10440000E552E16E1050E552E5CFDAFFE7CFD9FF74
:104410001200D9CFE6FFDACFE6FFE1CFD9FFE2CF36
:10442000DAFF060EE12402E3E168E652E16EFC0EDB
:10443000DBCF08F0FD0EDBCF09F0020E08C0DBFF7A
:10444000030E09C0DBFF010EDB6A020EDBCFE9FFC2
:10445000030EDBCFEAFF1A0EE926000EEA22040E55
:10446000EFCFDBFF040EDB50000801E383D0020E28
:10447000DBCFE9FF030EDBCFEAFF1D0EE926000EBE
:10448000EA22050EEFCFDBFFFA0EDBCFE6FFFB0ED5
:10449000DBCFE6FF020EDBCFE6FF030EDBCFE6FF4E
:1044A0001FDBE552E552E552E552040EDB04E66EF1
:1044B000020EDBCFE9FF030EDBCFEAFF1A0EE9267F
:1044C000000EEA22E552E750EF6E050EDB50FF08C2
:1044D0003EE1020EDBCFE9FF030EDBCFEAFF080E61
:1044E000E926000EEA22EF5002E1010E01D0000E93
:1044F00000092CE1020EDBCFE9FF030EDBCFEAFF60
:10450000080EE926000EEA22E9CF10F0EACF11F0FA
:1045100010C0E6FF11C0E6FFBAEC0DF0E552E5521F
:10452000000913E0D950F80FE96EFF0EDA20EA6EA9
:10453000EE50ED1009E0F80EDBCFE9FFF90EDBCF0E
:10454000EAFF010EEF6E00D000D000D010D0050EB3
:10455000DB28E66E020EDBCFE9FF030EDBCFEAFFBE
:104560001D0EE926000EEA22E552E750EF6E010E1D
:10457000DF6E01D0DF6ADF5000D0106E060EE15C06
:1045800002E2E16AE552E16E1050E552E5CFDAFF52
:10459000E7CFD9FF1200D9CFE6FFDACFE6FFE1CFB0
:1045A000D9FFE2CFDAFF060EE12402E3E168E6522A
:1045B000E16EFC0EDBCF08F0FD0EDBCF09F0040E40
:1045C00008C0DBFF050E09C0DBFF010EDB6A040E2D
:1045D000DBCFE9FF050EDBCFEAFF1A0EE926000E5E
:1045E000EA22EF5000083CE2040EDBCFE9FF050EA3
:1045F000DBCFEAFF040EE926000EEA22020EE926CE
:10460000000EEA22020EEECFDBFF030EEDCFDBFF42
:10461000FA0EDBCFE6FFFB0EDBCFE6FF040EDBCFAF
:10462000E6FF050EDBCFE6FF5BDAE552E552E55229
:10463000E552040EDBCFE9FF050EDBCFEAFF040EE7
:10464000E926000EEA22020EE926000EEA22020EF8
:10465000DBCFEEFF030EDBCFEDFF010EDF6E01D0EF
:10466000DF6ADF5000D0106E060EE15C02E2E16A04
:10467000E552E16E1050E552E5CFDAFFE7CFD9FF02
:104680001200D9CFE6FFDACFE6FFE1CFD9FFE2CFC4
:10469000DAFFE652F250E66EF29EFC0EDBCFE9FF47
:1046A000FD0EDBCFEAFF1A0EE926000EEA22EFCF5D
:1046B000DFFFE552E7BEF28EDF5000D0E552E55253
:1046C000E5CFDAFFE7CFD9FF1200D9CFE6FFDACF87
:1046D000E6FFE1CFD9FFE2CFDAFFE652E652E6523B
:1046E000FC0EDBCF08F0FD0EDBCF09F0DE5208C078
:1046F000DEFF09C0DDFFDD52F250E66EF29E010ED4
:10470000DBCFE9FF020EDBCFEAFF1B0EE926000E2E
:10471000EA22EFCF10F0010EDBCFE9FF020EDBCF74
:10472000EAFF1A0EE926000EEA22EF50105CDF6E57
:10473000E552E7BEF28EDF5000D0E552E552E55279
:10474000E552E5CFDAFFE7CFD9FF1200D9CFE6FF78
:10475000DACFE6FFE1CFD9FFE2CFDAFFE652E65249
:10476000E652FC0EDBCF08F0FD0EDBCF09F0DE5287
:1047700008C0DEFF09C0DDFFDD52010EDBCFE9FF1F
:10478000020EDBCFEAFF1A0EE926000EEA22EFCF77
:10479000DFFFDF5000D0E552E552E552E552E5CFAC
:1047A000DAFFE7CFD9FF1200D9CFE6FFDACFE6FF75
:1047B000E1CFD9FFE2CFDAFFE652E652FC0EDBCFC3
:1047C000DEFFDBCFDDFFDECFE6FFDDCFE6FF58EC1F
:1047D00028F0E552E552DECFE6FFDDCFE6FFF1EC53
:1047E00033F0E552E552E552E552E552E5CFDAFF06
:1047F000E7CFD9FF1200D9CFE6FFDACFE6FFE1CF4E
:10480000D9FFE2CFDAFFE652E652DF6AFC0EDBCFD9
:10481000E9FFFD0EDBCFEAFF1A0EE926000EEA22C1
:10482000010EEFCFDBFFFC0EDBCFE9FFFD0EDBCF90
:10483000EAFF1C0EE926000EEA22EF5001E136D114
:10484000F90EDB5001E086D0FC0EDBCFE9FFFD0E58
:10485000DBCFEAFF1C0EE926000EEA22EF50E66EDF
:10486000E66AFA0EDBCFE6FFFB0EDBCFE6FFFC0EBF
:10487000DBCFE9FFFD0EDBCFEAFF020EE926000EDB
:10488000EA22EECFE6FFEFCFE6FF88EC34F0106EC1
:10489000060EE15C02E2E16AE552E16E1050FC0EA8
:1048A000DBCFE9FFFD0EDBCFEAFF1C0EE926000E91
:1048B000EA22EF50106E116AFC0EDBCFE9FFFD0E0D
:1048C000DBCFEAFF020EE926000EEA221050EE26A8
:1048D0001150ED22FC0EDBCFE9FFFD0EDBCFEAFF2E
:1048E000020EE926000EEA22EECF10F0EFCF11F013
:1048F000FC0EDBCFE9FFFD0EDBCFEAFF040EE9265D
:10490000000EEA22EECF12F0EECF13F0EECF14F04D
:10491000EFCF15F000011250105C1350115819E33D
:10492000FC0EDBCFE9FFFD0EDBCFEAFFEECF10F090
:10493000EFCF11F0FC0EDBCFE9FFFD0EDBCFEAFF7E
:10494000020EE926000EEA2210C0EEFF11C0EDFFB4
:1049500000D0ACD0FC0EDBCFE9FFFD0EDBCFEAFFD1
:104960001C0EE926000EEA22EF50E66EE66AFA0E09
:10497000DBCFE6FFFB0EDBCFE6FFFC0EDBCFE9FF74
:10498000FD0EDBCFEAFF040EE926000EEA22020E3E
:10499000E926000EEA22EECFE6FFEFCFE6FF88EC35
:1049A00034F0106E060EE15C02E2E16AE552E16E5F
:1049B0001050FC0EDBCFE9FFFD0EDBCFEAFF1C0E33
:1049C000E926000EEA22EF50106E116AFC0EDBCFD2
:1049D000E9FFFD0EDBCFEAFF040EE926000EEA2216
:1049E000020EE926000EEA221050EE5E1150ED5A3A
:1049F000FC0EDBCFE9FFFD0EDBCFEAFF040EE9265C
:104A0000000EEA22EECF10F0EECF11F0EECF12F052
:104A1000EFCF13F0FC0EDBCFE9FFFD0EDBCFEAFF9B
:104A2000EECF14F0EFCF15F000011450125C1550CA
:104A3000135830E2FC0EDBCFE9FFFD0EDBCFEAFFBF
:104A40001C0EE926000EEA22EF50126E136AFC0ECD
:104A5000DBCFE9FFFD0EDBCFEAFF040EE926000EF7
:104A6000EA221250EE5C106E1350EE58116EFC0EDE
:104A7000DBCFE9FFFD0EDBCFEAFF040EE926000ED7
:104A8000EA22020EE926000EEA2210C0EEFF11C053
:104A9000EDFF00D0F90EDB50020808E1010EDB50FB
:104AA000000803E2010EDB0600D000D0010EDB2877
:104AB000E66EFC0EDBCFE9FFFD0EDBCFEAFF1A0E40
:104AC000E926000EEA22E552E750EF6EDF5000D0F3
:104AD000E552E552E552E5CFDAFFE7CFD9FF120004
:104AE000D9CFE6FFDACFE6FFE1CFD9FFE2CFDAFF99
:104AF000FC0EDBCFE9FFFD0EDBCFEAFF1C0EE92643
:104B0000000EEA22EF5001E198D0FC0EDBCFE9FF66
:104B1000FD0EDBCFEAFF1C0EE926000EEA22EF5065
:104B2000106E116AFC0EDBCFE9FFFD0EDBCFEAFF52
:104B3000040EE926000EEA22020EE926000EEA2201
:104B40001050EE261150ED22FC0EDBCFE9FFFD0EDA
:104B5000DBCFEAFF040EE926000EEA22EECF10F0CA
:104B6000EECF11F0EECF12F0EFCF13F0FC0EDBCF53
:104B7000E9FFFD0EDBCFEAFF040EE926000EEA2274
:104B8000EECF14F0EECF15F0EECF16F0EFCF17F01A
:104B9000000114500001125C00011550000113586F
:104BA0001DE3FC0EDBCFE9FFFD0EDBCFEAFFEECF0E
:104BB00010F0EFCF11F0FC0EDBCFE9FFFD0EDBCFE5
:104BC000EAFF040EE926000EEA22020EE926000E94
:104BD000EA2210C0EEFF11C0EDFF00D0FC0EDBCFCB
:104BE000E9FFFD0EDBCFEAFF1C0EE926000EEA22EC
:104BF000EF50E66EE66AFC0EDBCFE9FFFD0EDBCF81
:104C0000EAFF040EE926000EEA22020EE926000E53
:104C1000EA22EECFE6FFEFCFE6FFFA0EDBCFE6FFAC
:104C2000FB0EDBCFE6FF88EC34F0106E060EE15C85
:104C300002E2E16AE552E16E1050E552E5CFDAFF9B
:104C4000E7CFD9FF1200D9CFE6FFDACFE6FFE1CFF9
:104C5000D9FFE2CFDAFFE652E652F250E66EF29E5C
:104C6000FC0EDBCFE9FFFD0EDBCFEAFF1E0EE926CF
:104C7000000EEA22EFCFDFFFDFCF10F0000EE76E6D
:104C80001018E8AE02D0103403D0E750D88010548A
:104C900030E2FC0EDBCFE9FFFD0EDBCFEAFF110EA9
:104CA000E926000EEA22EF5002E1010E01D0000ECB
:104CB00000091CE1FC0EDBCFE9FFFD0EDBCFEAFFB4
:104CC000110EE926000EEA22E9CF10F0EACF11F02A
:104CD00010C0E6FF11C0E6FFBAEC0DF0E552E55258
:104CE000000903E037EC10F000D001D002D0DF065D
:104CF000C3D7FC0EDBCFE9FFFD0EDBCFEAFF1E0EB4
:104D0000E926000EEA22EF68E552E7BEF28EF25085
:104D1000E66EF29EFC0EDBCFE9FFFD0EDBCFEAFF75
:104D20001D0EE926000EEA22010EEFCFDBFF010E79
:104D3000DBCF10F0000EE76E1018E8AE02D0103492
:104D400003D0E750D880105431E2FC0EDBCFE9FFEE
:104D5000FD0EDBCFEAFF080EE926000EEA22EF5037
:104D600002E1010E01D0000E00091EE1FC0EDBCFB6
:104D7000E9FFFD0EDBCFEAFF080EE926000EEA226E
:104D8000E9CF10F0EACF11F010C0E6FF11C0E6FF46
:104D9000BAEC0DF0E552E552000903E037EC10F0F3
:104DA00000D0010EDB0601D001D0C1D7FC0EDBCF55
:104DB000E9FFFD0EDBCFEAFF1D0EE926000EEA2219
:104DC000EF68E552E7BEF28EE552E552E552E5CFD7
:104DD000DAFFE7CFD9FF1200D9CFE6FFDACFE6FF3F
:104DE000E1CFD9FFE2CFDAFFE652F250E66EF29E53
:104DF000FC0EDBCFE9FFFD0EDBCFEAFF1A0EE92642
:104E0000000EEA22EF5003E1010EDF6E01D0DF6AEF
:104E1000E552E7BEF28EDF5000D0E552E552E5CF15
:104E2000DAFFE7CFD9FF1200D9CFE6FFDACFE6FFEE
:104E3000E1CFD9FFE2CFDAFFE652E652E652FC0EAE
:104E4000DBCF08F0FD0EDBCF09F0DE5208C0DEFF3D
:104E500009C0DDFFDD52010EDBCFE9FF020EDBCF23
:104E6000EAFF1A0EE926000EEA22EF5003E1010ED6
:104E7000DF6E01D0DF6ADF5000D0E552E552E55227
:104E8000E552E5CFDAFFE7CFD9FF1200D9CFE6FF31
:104E9000DACFE6FFE1CFD9FFE2CFDAFFE652F250F8
:104EA000E66EF29EFC0EDBCFE9FFFD0EDBCFEAFFE4
:104EB0001A0EE926000EEA22EFCF10F0FC0EDBCF2F
:104EC000E9FFFD0EDBCFEAFF1B0EE926000EEA220A
:104ED000EF50105C03E1010EDF6E01D0DF6AE55296
:104EE000E7BEF28EDF5000D0E552E552E5CFDAFFA3
:104EF000E7CFD9FF1200D9CFE6FFDACFE6FFE1CF47
:104F0000D9FFE2CFDAFFE652E652E652FC0EDBCFE3
:104F100008F0FD0EDBCF09F0DE5208C0DEFF09C04D
:104F2000DDFFDD52010EDBCFE9FF020EDBCFEAFF32
:104F30001A0EE926000EEA22EFCF10F0010EDBCFA9
:104F4000E9FF020EDBCFEAFF1B0EE926000EEA2284
:104F5000EF50105C03E1010EDF6E01D0DF6ADF501D
:104F600000D0E552E552E552E552E5CFDAFFE7CF52
:104F7000D9FF1200D9CFE6FFDACFE6FFE1CFD9FFA4
:104F8000E2CFDAFFE652DF6A0A0EDF5C35E2DF507D
:104F9000040DF3CFE9FFF4CFEAFF350EE926050E45
:104FA000EA22EE50ED1026E1DF50040DF3CFE9FFC9
:104FB000F4CFEAFF350EE926050EEA22FA0EDBCF22
:104FC000EEFFFB0EDBCFEDFFDF50040DF3CFE9FF6B
:104FD000F4CFEAFF350EE926050EEA22020EE92695
:104FE000000EEA22FC0EDBCFEEFFFD0EDBCFEDFF65
:104FF00003D000D0DF2AC8D7E552E552E5CFDAFF6B
:10500000E7CFD9FF1200D9CFE6FFDACFE6FFE1CF35
:10501000D9FFE2CFDAFFE652E652E652010EDB6A32
:10502000020EDB6ADF6A0A0EDF5C2EE2DF50040D3F
:10503000F3CFE9FFF4CFEAFF350EE926050EEA22A9
:10504000020EE926000EEA22EECF10F0EFCF11F0AB
:10505000FC0EDB50101803E1FD0EDB50111812E1BD
:10506000DF50040DF3CFE9FFF4CFEAFF350EE92658
:10507000050EEA22010EEECFDBFF020EEDCFDBFFC5
:1050800003D000D0DF2ACFD7010EDBCF10F0020E05
:10509000DBCF11F010C0F3FF11C0F4FF00D0E552D8
:1050A000E552E552E552E5CFDAFFE7CFD9FF12002E
:1050B000D9CFE6FFDACFE6FFE1CFD9FFE2CFDAFFC3
:1050C000E652DF6A0A0EDF5C3AE2DF50040DF3CFEE
:1050D000E9FFF4CFEAFF350EE926050EEA22020EBB
:1050E000E926000EEA22EECF10F0EFCF11F0FC0E11
:1050F000DB50101803E1FD0EDB5011181EE1DF50EC
:10510000040DF3CFE9FFF4CFEAFF350EE926050ED3
:10511000EA22EE6AED6ADF50040DF3CFE9FFF4CF27
:10512000EAFF350EE926050EEA22020EE926000EF8
:10513000EA22EE6AED6A03D000D0DF2AC3D7E55237
:0C514000E552E5CFDAFFE7CFD9FF1200FF
:04514C00D9CFE6FFD2
:10515000DACFE6FFE1CFD9FFE2CFDAFFE652E6523F
:10516000E652E652E652FC0EDBCFE9FFFD0EDBCF46
:10517000EAFF110EEF6EFC0EDB2AFD0E01E3DB2AC7
:10518000FC0EDBCFE9FFFD0EDBCFEAFF220EEF6E58
:10519000FC0EDB2AFD0E01E3DB2AFC0EDBCFE9FF70
:1051A000FD0EDBCFEAFF330EEF6EFC0EDB2AFD0EA9
:1051B00001E3DB2AF80EDBCF10F0F90EDBCF11F0A4
:1051C000000E10C0DBFF010E11C0DBFF020EDB6A18
:1051D000030EDB6AD9CFE9FFDACFEAFFEECF10F09A
:1051E000EECF11F0EECF12F0EFCF13F01050E66ECD
:1051F000FC0EDBCFE9FFFD0EDBCFEAFFE552E75007
:10520000EF6EFC0EDB2AFD0E01E3DB2AD9CFE9FFAE
:10521000DACFEAFF080EE76ED890030EEB32020EEB
:10522000EB32010EEB32EF32E706F6E1D9CFE9FFC0
:10523000DACFEAFFEECF10F0EECF11F0EECF12F0A2
:10524000EFCF13F01050E66EFC0EDBCFE9FFFD0E42
:10525000DBCFEAFFE552E750EF6EFC0EDB2AFD0ED6
:1052600001E3DB2AFC0EDBCFE9FFFD0EDBCFEAFF1B
:10527000440EEF6EFC0EDB2AFD0E01E3DB2AFC0E72
:10528000DBCFE9FFFD0EDBCFEAFF660EEF6EFC0E13
:10529000DB2AFD0E01E3DB2AFC0EDBCFE9FFFD0E6E
:1052A000DBCFEAFFCC0EEF6EFC0EDB2AFD0E01E336
:1052B000DB2AFC0EDBCFE9FFFD0EDBCFEAFFC00EE1
:1052C000EF6EFC0EDB2AFD0E01E3DB2AFC0EDBCFCA
:1052D000E9FFFD0EDBCFEAFF110EEF6EFC0EDB2ABD
:1052E000FD0E01E3DB2AFC0EDBCFE9FFFD0EDBCF79
:1052F000EAFF220EEF6EFC0EDB2AFD0E01E3DB2A35
:10530000FC0EDBCFE9FFFD0EDBCFEAFF330EEF6EC5
:10531000FC0EDB2AFD0E01E3DB2AFC0EDBCFE9FFEE
:10532000FD0EDBCFEAFF440EEF6EFC0EDB2AFD0E16
:1053300001E3DB2AFC0EDBCFE9FFFD0EDBCFEAFF4A
:10534000550EEF6EFC0EDB2AFD0E01E3DB2AFC0E90
:10535000DBCFE9FFFD0EDBCFEAFF660EEF6EFC0E42
:10536000DB2AFD0E01E3DB2AFC0EDBCFE9FFFD0E9D
:10537000DBCFEAFFEF6AFC0EDB2AFD0E01E3DB2A3E
:10538000FC0EDBCFE9FFFD0EDBCFEAFF880EEF6EF0
:10539000FC0EDB2AFD0E01E3DB2AFC0EDBCFE9FF6E
:1053A000FD0EDBCFEAFF990EEF6EFC0EDB2AFD0E41
:1053B00001E3DB2AFC0EDBCFE9FFFD0EDBCFEAFFCA
:1053C000AA0EEF6EFC0EDB2AFD0E01E3DB2AFC0EBB
:1053D000DBCFE9FFFD0EDBCFEAFFBB0EEF6EFC0E6D
:1053E000DB2AFD0E01E3DB2AFC0EDBCFE9FFFD0E1D
:1053F000DBCFEAFFEF6AFC0EDB2AFD0E01E3DB2ABE
:10540000FC0EDBCFE9FFFD0EDBCFEAFFEF6AFC0EFF
:10541000DB2AFD0E01E3DB2A040EDB6A040EDB50FF
:10542000130815E3FC0EDBCFE9FFFD0EDBCFEAFF2F
:10543000040EDBCFEFFFFC0EDBCFE9FFDB2AFD0E16
:10544000DBCFEAFF01E3DB2A040EDB2AE7D7FC0E01
:10545000DBCFE9FFFD0EDBCFEAFF130EEF6EFC0E94
:10546000DB2AFD0E01E3DB2AFC0EDBCFE9FFFD0E9C
:10547000DBCFEAFFEF6AFC0EDB2AFD0E01E3DB2A3D
:10548000FA0EDBCF10F0FB0EDBCF11F0000E10C0D8
:10549000DBFF010E11C0DBFF020EDB6A030EDB6ACD
:1054A000D9CFE9FFDACFEAFFEECF10F0EECF11F05F
:1054B000EECF12F0EFCF13F01050E66EFC0EDBCF04
:1054C000E9FFFD0EDBCFEAFFE552E750EF6EFC0E81
:1054D000DB2AFD0E01E3DB2AD9CFE9FFDACFEAFFB1
:1054E000080EE76ED890030EEB32020EEB32010E7F
:1054F000EB32EF32E706F6E1D9CFE9FFDACFEAFF88
:10550000EECF10F0EECF11F0EECF12F0EFCF13F0A0
:105510001050E66EFC0EDBCFE9FFFD0EDBCFEAFF9D
:10552000E552E750EF6EFC0EDB2AFD0E01E3DB2AAD
:10553000D9CFE9FFDACFEAFF080EE76ED890030E65
:10554000EB32020EEB32010EEB32EF32E706F6E100
:10555000D9CFE9FFDACFEAFFEECF10F0EECF11F0AE
:10556000EECF12F0EFCF13F01050E66EFC0EDBCF53
:10557000E9FFFD0EDBCFEAFFE552E750EF6EFC0ED0
:10558000DB2AFD0E01E3DB2AFC0EDBCFE9FFFD0E7B
:10559000DBCFEAFF010EEF6EFC0EDB2AFD0E01E30E
:1055A000DB2AFC0EDBCF10F0FD0EDBCF11F010C0BC
:1055B000F3FF11C0F4FF00D0050EE15C02E2E16AE6
:1055C000E552E16EE552E5CFDAFFE7CFD9FF1200F1
:1055D0002ADA7AC5E9FF7BC5EAFFEECFE1FFEECF1D
:1055E000E2FFE5CFE9FFE5CFE9FFFC6AE950FC5CAB
:1055F00008E20500E550FF6EE550FE6EE550FD6ED9
:10560000F5D7E5CFEAFFE5CFE9FFE5CFEDFFE5CF41
:10561000EDFFE5CFEDFFE5CFEDFFE5CFEDFFE5CF0A
:10562000EDFFE5CFEDFFE5CFEDFFE5CFEDFFE5CFFA
:10563000EDFFE5CFEDFFE5CFEDFFE5CFEDFFE5CFEA
:10564000EDFFE5CFEDFFE5CFEDFFE5CFEDFFE5CFDA
:10565000EDFFE5CFEDFFE5CFEFFFE5CFFAFFE5CFBB
:10566000FBFFE5CFF3FFE5CFF4FFE5CFF6FFE5CF96
:10567000F7FFE5CFF8FFE5CFF5FFE5CFEAFFE5CF90
:10568000E9FFE5CFDAFFE5CFD9FFE5CFE0FFE5CFD2
:10569000E8FFE8AE06D0E5CFD8FFE5CFE8FF100081
:1056A00005D0E5CFD8FFE5CFE8FF1200010E00D00E
:1056B00012001200E8CFE4FFD8CFE4FFF2CFE8FFFA
:1056C0000009E8CFE4FFF29EE0CFE4FFD9CFE4FF8A
:1056D000DACFE4FFE9CFE4FFEACFE4FFF5CFE4FF60
:1056E000F8CFE4FFF7CFE4FFF6CFE4FFF4CFE4FF19
:1056F000F3CFE4FFFBCFE4FFFACFE4FFE96AEA6A05
:10570000EECFE4FFEECFE4FFEECFE4FFEECFE4FF19
:10571000EECFE4FFEECFE4FFEECFE4FFEECFE4FF09
:10572000EECFE4FFEECFE4FFEECFE4FFEECFE4FFF9
:10573000EECFE4FFEECFE4FFEECFE4FFEECFE4FFE9
:10574000EECFE4FFEECFE4FFEECFE4FFEFCFE4FFD8
:10575000E9CFE4FFEACFE4FFFCCFE9FFFC5000080B
:1057600008E2FDCFE4FFFECFE4FFFFCFE4FF060039
:10577000F5D7E9CFE4FFE4527AC5E9FF7BC5EAFF3C
:10578000E1CFEEFFE2CFEEFF85EC0CF07AC5E9FF4A
:105790007BC5EAFFEECFE1FFEECFE2FFE5CFE9FF09
:1057A000E5CFE9FFFC6AE950FC5C08E20500E55042
:1057B000FF6EE550FE6EE550FD6EF5D7E5CFEAFFD2
:1057C000E5CFE9FFE5CFEDFFE5CFEDFFE5CFEDFF5D
:1057D000E5CFEDFFE5CFEDFFE5CFEDFFE5CFEDFF49
:1057E000E5CFEDFFE5CFEDFFE5CFEDFFE5CFEDFF39
:1057F000E5CFEDFFE5CFEDFFE5CFEDFFE5CFEDFF29
:10580000E5CFEDFFE5CFEDFFE5CFEDFFE5CFEDFF18
:10581000E5CFEFFFE5CFFAFFE5CFFBFFE5CFF3FFE5
:10582000E5CFF4FFE5CFF6FFE5CFF7FFE5CFF8FFD3
:10583000E5CFF5FFE5CFEAFFE5CFE9FFE5CFDAFFFA
:10584000E5CFD9FFE5CFE0FFE5CFE8FFE8AE06D032
:10585000E5CFD8FFE5CFE8FF100005D0E5CFD8FFB2
:10586000E5CFE8FF12001200E8CFE4FFD8CFE4FF55
:10587000F2CFE8FF8009E8CFE4FFF29EE0CFE4FF3B
:10588000D9CFE4FFDACFE4FFE9CFE4FFEACFE4FFCA
:10589000F5CFE4FFF8CFE4FFF7CFE4FFF6CFE4FF66
:1058A000F4CFE4FFF3CFE4FFFBCFE4FFFACFE4FF54
:1058B000E96AEA6AEECFE4FFEECFE4FFEECFE4FF61
:1058C000EECFE4FFEECFE4FFEECFE4FFEECFE4FF58
:1058D000EECFE4FFEECFE4FFEECFE4FFEECFE4FF48
:1058E000EECFE4FFEECFE4FFEECFE4FFEECFE4FF38
:1058F000EECFE4FFEECFE4FFEECFE4FFEECFE4FF28
:10590000EFCFE4FFE9CFE4FFEACFE4FFFCCFE9FF0C
:10591000FC50000808E2FDCFE4FFFECFE4FFFFCF1C
:10592000E4FF0600F5D7E9CFE4FFE4527AC5E9FFCA
:105930007BC5EAFFE1CFEEFFE2CFEEFF9E9451EC94
:105940000BF0000902E085EC0CF07AC5E9FF7BC59D
:10595000EAFFEECFE1FFEECFE2FFE5CFE9FFE5CFD3
:10596000E9FFFC6AE950FC5C08E20500E550FF6EC7
:10597000E550FE6EE550FD6EF5D7E5CFEAFFE5CFC9
:10598000E9FFE5CFEDFFE5CFEDFFE5CFEDFFE5CF9B
:10599000EDFFE5CFEDFFE5CFEDFFE5CFEDFFE5CF87
:1059A000EDFFE5CFEDFFE5CFEDFFE5CFEDFFE5CF77
:1059B000EDFFE5CFEDFFE5CFEDFFE5CFEDFFE5CF67
:1059C000EDFFE5CFEDFFE5CFEDFFE5CFEDFFE5CF57
:1059D000EFFFE5CFFAFFE5CFFBFFE5CFF3FFE5CF24
:1059E000F4FFE5CFF6FFE5CFF7FFE5CFF8FFE5CF12
:1059F000F5FFE5CFEAFFE5CFE9FFE5CFDAFFE5CF39
:105A0000D9FFE5CFE0FFE5CFE8FFE8AE06D0E5CF70
:105A1000D8FFE5CFE8FF100005D0E5CFD8FFE5CFF0
:105A2000E8FF12001200D9CFE6FFDACFE6FFE1CFA0
:105A3000D9FFE2CFDAFF090EE12402E3E168E65282
:105A4000E16EA00EDE6E0F0EDE6EDE6ADD6ADD52E6
:105A5000DD52CF6ACE6AD9CFE9FFDACFEAFF040E72
:105A6000EECFDBFF050EEECFDBFF060EEECFDBFF4A
:105A7000070EEECFDBFF040EDBCF10F0050EDBCF01
:105A800011F0060EDBCF12F0070EDBCF13F0105033
:105A9000BE6ED950040FE96E000EDA20EA6E080ED1
:105AA000E76ED890030EEB32020EEB32010EEB32B2
:105AB000EF32E706F6E1040EDBCF10F0050EDBCF88
:105AC00011F0060EDBCF12F0070EDBCF13F01050F3
:105AD000BF6EBD80BD82BD94BD869D84F28C8D0E4F
:105AE000E66E28EC37F0E552090EE15C02E2E16A6D
