:020000040000FA
:06000000C1EF36F0120012
:080008009EA402D075EF2CF05C
:100010009EAA02D0C1EF2DF09EA804D09DA802D0C8
:100020005CEF30F0F2A404D0F2AA02D083EF30F0FB
:020030001200BC
:06003A000300C76D000089
:100040009F05000002000000C36D00009B0500003A
:1000500004000000B26D00008005000011000000E7
:10006000D9CFE6FFDACFE6FFE1CFD9FFE2CFDAFF63
:10007000E652E652E6523A0EE66EE66A28EC35F0B3
:10008000E552E552F3CFDEFFF4CFDDFFD9CFE9FF34
:10009000DACFEAFFEE50ED102FE0F80EDBCFE6FFEF
:1000A000F90EDBCFE6FF28EC35F0E552E552F3CF51
:1000B0000BF0F4CF0CF0DECFE9FFDDCFEAFF170E37
:1000C000E926000EEA220BC0EEFF0CC0EDFFDECFEA
:1000D000E9FFDDCFEAFF170EE926000EEA22EE5017
:1000E000ED100AE1DECFE6FFDDCFE6FF96EC35F05E
:1000F000E552E552DE6ADD6AD9CFE9FFDACFEAFFE1
:10010000EE50ED1048E0000EE66EE66ADECFE6FF48
:10011000DDCFE6FFF30EDBCFE6FFF40EDBCFE6FF2D
:10012000F50EDBCFE6FFF60EDBCFE6FFF70EDBCFFB
:10013000E6FFF80EDBCF0BF0F90EDBCF0CF00D6A0B
:100140000E6A0BC0E6FF0CC0E6FF0DC0E6FF0EC056
:10015000E6FFFA0EDBCFE6FFFB0EDBCFE6FFFC0E81
:10016000DBCFE6FFFD0EDBCFE6FF23D80F6E110ECF
:10017000E15C02E2E16AE552E16E0F50DECFE6FF9C
:10018000DDCFE6FFD6D9E552E552010EF36E020E41
:10019000F3CFDBFF02D0020EDB68020EDB5000D093
:1001A000E552E552E552E552E5CFDAFFE7CFD9FF58
:1001B0001200D9CFE6FFDACFE6FFE1CFD9FFE2CFD9
:1001C000DAFFE652E652E652EF0EDBCFE9FFF00E21
:1001D000DBCFEAFF170EE926000EEA22EECFDEFFA4
:1001E000EDCFDDFFF60EDBCF0DF0F70EDBCF0EF01F
:1001F000F80EDBCF0FF0F90EDBCF10F00D06000E7E
:100200000E5A000E0F5A000E105AEF0EDBCFE9FF08
:10021000F00EDBCFEAFF170EE926000EEA220D50A2
:10022000EE240B6E0E50EE200C6EEF0EDBCFE9FFCE
:10023000F00EDBCFEAFF290EE926000EEA220BC002
:10024000EEFF0CC0EDFFD950FA0FE96EFF0EDA2079
:10025000EA6EEE50ED1056E0020EDB6A100EF36E01
:10026000020EDBCFF4FFF350F45C3CE2020EDB50F5
:10027000E76EFA0EDBCFE9FFFB0EDBCFEAFFE750BC
:10028000E926000EEA22EF50E66EEF0EDBCFE9FF23
:10029000F00EDBCFEAFF190EE926000EEA22E9CFC5
:1002A0000BF0EACF0CF0020EDB500F010B24E96ECD
:1002B000000E0C20EA6EE552E750EF6E020EDB50A6
:1002C000E76EFA0EDBCFE9FFFB0EDBCFEAFFE7506C
:1002D000E926000EEA22EF5002E104D000D0020E1F
:1002E000DB2ABCD7EF0EDBCFE9FFF00EDBCFEAFF56
:1002F000190EE926000EEA220F0EE926000EEA2268
:10030000EF6A0BD0EF0EDBCFE9FFF00EDBCFEAFF99
:10031000190EE926000EEA22EF6A030EF36EF30EC1
:10032000DBCFF4FFF350F45C06E3020EF36EF30E42
:10033000F3CFDBFF00D0EF0EDBCFE9FFF00EDBCF1A
:10034000EAFF160EE926000EEA22F30EDBCFEFFFDE
:10035000EF0EDBCFE9FFF00EDBCFEAFF020EE9265E
:10036000000EEA22E9CF0BF0EACF0CF00BC0E6FF5B
:100370000CC0E6FF3CEC2EF0E552E552EF0EDBCF71
:10038000E9FFF00EDBCFEAFF0C0EE926000EEA22B1
:10039000E9CF0BF0EACF0CF00BC0E6FF0CC0E6FF94
:1003A0003CEC2EF0E552E552EF0EDBCFE9FFF00E0C
:1003B000DBCFEAFF020EE926000EEA22060EE9264E
:1003C000000EEA22EF0EDBCFEEFFF00EDBCFEDFFEB
:1003D000F30EDB500B6E0C6A030ED8800B56000E2A
:1003E0000C56EF0EDBCFE9FFF00EDBCFEAFF0C0E71
:1003F000E926000EEA220BC0EEFF0CC0EDFFEF0E67
:10040000DBCFE9FFF00EDBCFEAFF0C0EE926000E92
:10041000EA22060EE926000EEA22EF0EDBCFEEFFFF
:10042000F00EDBCFEDFF020EDB6A050EF36E020E5F
:10043000DBCFF4FFF350F45C1CE2EF0EDBCFE9FFFF
:10044000F00EDBCFEAFF2B0EE926000EEA22E9CF01
:100450000BF0EACF0CF0020EDB50020D0B50F32430
:10046000E96E0C50F420EA6EEE6AED6A020EDB2AA9
:10047000DCD7EF0EDBCFE9FFF00EDBCFEAFF350E66
:10048000E926000EEA22EE6AEE6AEE6AEE6AEF0EE6
:10049000DBCFE9FFF00EDBCFEAFF390EE926000ED5
:1004A000EA22EF6AF40EDBCFE6FFF50EDBCFE6FFC4
:1004B000FC0EDBCFE6FFFD0EDBCFE6FFDECFE6FF77
:1004C000DDCFE6FFE7EC28F00D6E060EE15C02E200
:1004D000E16AE552E16E0D50F3CF0BF0F4CF0CF072
:1004E000EF0EDBCFE9FFF00EDBCFEAFF0BC0EEFF34
:1004F0000CC0EDFFD950F10FE96EFF0EDA20EA6E65
:10050000EE50ED100DE0F10EDBCFE9FFF20EDBCF88
:10051000EAFFEF0EDBCFEEFFF00EDBCFEDFF00D0FA
:10052000E552E552E552E552E5CFDAFFE7CFD9FFD4
:100530001200D9CFE6FFDACFE6FFE1CFD9FFE2CF55
:10054000DAFFF250E66EF29E0501832B0501805121
:1005500081110DE1FC0EDBCF80F5FD0EDBCF81F5C7
:100560000501830503E146EC11F000D020D0050120
:1005700087511DE180C5E9FF81C5EAFF160EEB50EA
:100580000B6EFC0EDBCFE9FFFD0EDBCFEAFF160E94
:10059000E926000EEA22EF50D8800B5407E3FC0E48
:1005A000DBCF80F5FD0EDBCF81F500D000D005015B
:1005B0008B2BFC0EDBCFE9FFFD0EDBCFEAFF160E27
:1005C000E926000EEA22EFCF0BF005018651D88014
:1005D0000B540CE2FC0EDBCFE9FFFD0EDBCFEAFF94
:1005E000160EE926000EEA22EFCF86F5FC0EDBCFD1
:1005F000E9FFFD0EDBCFEAFF020EE926000EEA223C
:10060000E9CF0BF0EACF0CF00BC0E6FF0CC0E6FF21
:10061000FC0EDBCFE9FFFD0EDBCFEAFF160EE9266D
:10062000000EEA22EF50090DF3CF0DF0F4CF0EF0DB
:10063000E00E0D26040E0E220DC0E6FF0EC0E6FFF2
:1006400054EC2EF0E552E552E552E552E552E7BE94
:10065000F28E0501875118E080C5E9FF81C5EAFFE8
:10066000160EEB500B6EFC0EDBCFE9FFFD0EDBCF61
:10067000EAFF160EE926000EEA22EF500B5C03E2B9
:100680009BEC2BF000D000D0E552E5CFDAFFE7CFAE
:10069000D9FF1200D9CFE6FFDACFE6FFE1CFD9FFCD
:1006A000E2CFDAFFE652E652F250E66EF29ED95001
:1006B000FC0FE96EFF0EDA20EA6EEE50ED1005E158
:1006C00080C50BF081C50CF006D0FC0EDBCF0BF023
:1006D000FD0EDBCF0CF00BC0DEFF0CC0DDFFDECF6C
:1006E000E9FFDDCFEAFF020EE926000EEA22E9CF9C
:1006F0000BF0EACF0CF00BC0E6FF0CC0E6FFB6EC47
:100700002FF0E552E552000901E100D0DECFE9FF0C
:10071000DDCFEAFF0C0EE926000EEA22080EE926DC
:10072000000EEA22EE50ED1015E0DECFE9FFDDCF3E
:10073000EAFF0C0EE926000EEA22E9CF0BF0EACF21
:100740000CF00BC0E6FF0CC0E6FFB6EC2FF0E55254
:10075000E55200D005018B2BDECF0BF0DDCF0CF086
:10076000050180510B1802E181510C181DE1DECF0B
:10077000E9FFDDCFEAFF020EE926000EEA22E9CF0B
:100780000BF0EACF0CF00BC0E6FF0CC0E6FF1A0E30
:10079000E66E050EE66E54EC2EF0E552E552E5529B
:1007A000E5520501822B0CD005018307DECFE6FF61
:1007B000DDCFE6FFE8EC11F0E552E55212EC12F065
:1007C000E552E7BEF28E050187510EE0DECF0BF059
:1007D000DDCF0CF0050180510B1802E181510C189E
:1007E00003E19BEC2BF000D0E552E552E552E5CF5A
:1007F000DAFFE7CFD9FF1200D9CFE6FFDACFE6FF65
:10080000E1CFD9FFE2CFDAFF060EE12402E3E1688F
:10081000E652E16E030EDB6ADDEC09F0040E84C5DE
:10082000DBFF050E85C5DBFFFA0EDBCF0DF0FB0EFF
:10083000DBCF0EF0FC0EDBCFE9FFFD0EDBCFEAFFD6
:100840000D50EE240B6E0E50EE200C6E0BC0DEFF32
:100850000CC0DDFF040EDBCF0BF0050EDBCF0CF080
:10086000FC0EDBCFE9FFFD0EDBCFEAFFEECF0DF094
:10087000EFCF0EF00D500B5C0E500C5829E2DECF7E
:100880000BF0DDCF0CF0FC0EDBCFE9FFFD0EDBCF74
:10089000EAFFEECF0DF0EFCF0EF00D500B5C0E50D7
:1008A0000C5815E2DECF0FF0DDCF10F0040EDBCFD9
:1008B00011F0050EDBCF12F00F50115C10501258E2
:1008C00006E2010EF36E030EF3CFDBFF00D028D05B
:1008D000DECF0BF0DDCF0CF0FC0EDBCFE9FFFD0E21
:1008E000DBCFEAFFEECF0DF0EFCF0EF00D500B5C3B
:1008F0000E500C580FE3DECF0FF0DDCF10F0040EDA
:10090000DBCF11F0050EDBCF12F00F50115C105051
:10091000125806E2010EF36E030EF3CFDBFF00D098
:10092000FC0EDBCFE9FFFD0EDBCFEAFFDECFEEFFF3
:10093000DDCFEDFF030EDB5017E0E66ADECF0DF0F2
:10094000DDCF0EF0040EDB500D5C0B6E050EDB50A0
:100950000E580C6E0BC0E6FF0CC0E6FF49EC18F019
:10096000E552E552E55200D0E0EC09F0E76E020EE8
:10097000E7CFDBFF020EDB5003E19BEC2BF000D056
:10098000060EE15C02E2E16AE552E16EE552E5CF76
:10099000DAFFE7CFD9FF1200D9CFE6FFDACFE6FFC3
:1009A000E1CFD9FFE2CFDAFFE652DF6AD950FC0F80
:1009B000E96EFF0EDA20EA6E000ED880EE54000ECB
:1009C000ED5412E2DDEC09F0E66AFC0EDBCFE6FF47
:1009D000FD0EDBCFE6FF49EC18F0E552E552E5529B
:1009E000E0EC09F0DF6E00D0DF5003E19BEC2BF070
:1009F00000D0E552E552E5CFDAFFE7CFD9FF12008C
:100A0000D9CFE6FFDACFE6FFE1CFD9FFE2CFDAFFB9
:100A1000E652E652E652F250E66EF29ED950FC0FD4
:100A2000E96EFF0EDA20EA6EEE50ED1005E180C5AA
:100A30000BF081C50CF006D0FC0EDBCF0BF0FD0EE9
:100A4000DBCF0CF00BC0DEFF0CC0DDFFDECFE9FF1B
:100A5000DDCFEAFF160EE926000EEA22020EEFCFE6
:100A6000DBFFE552E7BEF28E020EDB5000D0E5520E
:100A7000E552E552E552E5CFDAFFE7CFD9FF1200A4
:100A8000D9CFE6FFDACFE6FFE1CFD9FFE2CFDAFF39
:100A9000E652E652E652E652030EDB6AD950FC0FEC
:100AA000E96EFF0EDA20EA6EEE50ED1005E180C52A
:100AB0000BF081C50CF006D0FC0EDBCF0BF0FD0E69
:100AC000DBCF0CF00BC0DEFF0CC0DDFFDECFE9FF9B
:100AD000DDCFEAFF160EE926000EEA22020EEFCF66
:100AE000DBFF020EDB5000D00B6E040EE15C02E275
:100AF000E16AE552E16E0B50E552E5CFDAFFE7CF50
:100B0000D9FF1200D9CFE6FFDACFE6FFE1CFD9FF58
:100B1000E2CFDAFFE652E652E652E652E652040E21
:100B2000DB6A030EF36EFB0EDBCFF4FFF350F45CD5
:100B300006E3020EF36EFB0EF3CFDBFF00D0F250A4
:100B4000E66EF29ED950FC0FE96EFF0EDA20EA6ED7
:100B5000EE50ED1005E180C50BF081C50CF006D01C
:100B6000FC0EDBCF0BF0FD0EDBCF0CF00BC0DEFF7D
:100B70000CC0DDFFDECFE9FFDDCFEAFF160EE92670
:100B8000000EEA22020EEFCFDBFFFB0EDB50F36E0E
:100B9000020EDB50F35C01E105D1FB0EDBCF0BF065
:100BA000020EDB50D8800B5420E2DECF0BF0DDCFFD
:100BB0000CF0050180510B1802E181510C1814E072
:100BC00080C5E9FF81C5EAFF160EEB50F36EFB0E00
:100BD000DBCFF4FFF350F45C06E3010EF36E040E7A
:100BE000F3CFDBFF00D000D011D0DECF0BF0DDCF94
:100BF0000CF0050180510B1802E181510C1806E13F
:100C0000010EF36E040EF3CFDBFF00D0DECFE9FF61
:100C1000DDCFEAFF160EE926000EEA22030EEFCF23
:100C2000DBFFDECFE9FFDDCFEAFF160EE926000E7F
:100C3000EA22FB0EDBCFEFFFDECFE9FFDDCFEAFFDD
:100C40000C0EE926000EEA22EECF0BF0EFCF0CF0EF
:100C5000000E0B16800E0C160D6A0E6A0B500C104F
:100C60000D100E1016E1FB0EDB500B6E0C6A030E1E
:100C7000D8800B56000E0C56DECFE9FFDDCFEAFF21
:100C80000C0EE926000EEA220BC0EEFF0CC0EDFFB1
:100C900000D0DECFE9FFDDCFEAFF020EE926000E2D
:100CA000EA22080EE926000EEA22EECF0BF0EFCF83
:100CB0000CF0030EDB50090DF3CF0DF0F4CF0EF066
:100CC000E00E0D26040E0E220D500B1802E10E5000
:100CD0000C1802E1010E01D0000E00095DE0DECF2C
:100CE000E9FFDDCFEAFF020EE926000EEA22E9CF96
:100CF0000BF0EACF0CF00BC0E6FF0CC0E6FFB6EC41
:100D00002FF0E552E552000901E100D0DECFE9FF06
:100D1000DDCFEAFF160EE926000EEA22EFCF0BF038
:100D200005018651D8800B540AE2DECFE9FFDDCF02
:100D3000EAFF160EE926000EEA22EFCF86F5DECF97
:100D4000E9FFDDCFEAFF020EE926000EEA22E9CF35
:100D50000BF0EACF0CF00BC0E6FF0CC0E6FFDECFD5
:100D6000E9FFDDCFEAFF160EE926000EEA22EF507A
:100D7000090DF3CF0DF0F4CF0EF0E00E0D26040EAA
:100D80000E220DC0E6FF0EC0E6FF54EC2EF0E55239
:100D9000E552E552E55200D0040EDB5003E09BEC37
:100DA0002BF000D0E552E7BEF28E050EE15C02E2C8
:100DB000E16AE552E16EE552E5CFDAFFE7CFD9FF10
:100DC0001200D9CFE6FFDACFE6FFE1CFD9FFE2CFBD
:100DD000DAFFE652E652F250E66EF29ED950FC0F70
:100DE000E96EFF0EDA20EA6EEE50ED1005E180C5E7
:100DF0000BF081C50CF006D0FC0EDBCF0BF0FD0E26
:100E0000DBCF0CF00BC0DEFF0CC0DDFFDECFE9FF57
:100E1000DDCFEAFF020EE926000EEA22E9CF0BF051
:100E2000EACF0CF00BC0E6FF0CC0E6FFB6EC2FF0EB
:100E3000E552E552000901E100D0DECFE9FFDDCF48
:100E4000EAFF0C0EE926000EEA22080EE926000E43
:100E5000EA22EE50ED1015E0DECFE9FFDDCFEAFF2C
:100E60000C0EE926000EEA22E9CF0BF0EACF0CF0D7
:100E70000BC0E6FF0CC0E6FFB6EC2FF0E552E552E2
:100E800000D0DECFE9FFDDCFEAFF020EE926000E3B
:100E9000EA22E9CF0BF0EACF0CF00BC0E6FF0CC062
:100EA000E6FF230EE66E050EE66E54EC2EF0E552DC
:100EB000E552E552E552DECFE9FFDDCFEAFF390E1C
:100EC000E926000EEA22EF0409E1DECFE9FFDDCFDB
:100ED000EAFF390EE926000EEA22EF6AE552E7BE84
:100EE000F28E0501875109E0F250E66EF29E12EC97
:100EF00012F0E552E7BEF28E00D0DECF0BF0DDCF70
:100F00000CF0050180510B1802E181510C1812E11F
:100F10000501875103E09BEC2BF00BD005018351B9
:100F20000501235D04E10501806B816B02D0B3EC08
:100F30000CF000D0E552E552E552E5CFDAFFE7CFFD
:100F4000D9FF1200D9CFE6FFDACFE6FFE1CFD9FF14
:100F5000E2CFDAFFE652E652E652DF6AFC0EDBCF62
:100F600006F0FD0EDBCF07F0DE5206C0DEFF07C045
:100F7000DDFFDD52010EDBCFE9FF020EDBCFEAFF22
:100F8000020EE926000EEA22080EE926000EEA22E9
:100F9000EECF0BF0EFCF0CF0230E0B1802E1050E95
:100FA0000C1802E1010E01D0000E000938E0010E1C
:100FB000DBCFE9FF020EDBCFEAFF0C0EE926000EC5
:100FC000EA22080EE926000EEA22EECF0BF0EFCF60
:100FD0000CF0110E0B1802E1050E0C1802E1010EC7
:100FE00001D0000E00091AE1010EDBCFE9FF020E6D
:100FF000DBCFEAFF0C0EE926000EEA22080EE926F6
:10100000000EEA22EE50ED1002E1010E01D0000EBA
:10101000000903E0010EDF6E00D000D000D0DF50E9
:1010200000D0E552E552E552E552E5CFDAFFE7CFD1
:10103000D9FF1200D9CFE6FFDACFE6FFE1CFD9FF23
:10104000E2CFDAFFE652E652FC0EDBCFDEFFDBCF6B
:10105000DDFFDECF0BF0DDCF0CF0050180510B186A
:1010600002E181510C1801E187D0D9CFE9FFDACF35
:10107000EAFFEE50ED1001E17FD0F250E66EF29EF5
:10108000DECFE6FFDDCFE6FF5DDFE552E55200098A
:101090006FE0DECFE9FFDDCFEAFF020EE926000EAA
:1010A000EA22E9CF0BF0EACF0CF00BC0E6FF0CC050
:1010B000E6FFB6EC2FF0E552E552DECFE9FFDDCFDB
:1010C000EAFF160EE926000EEA22EFCF0BF005012B
:1010D0008651D8800B540AE2DECFE9FFDDCFEAFF6C
:1010E000160EE926000EEA22EFCF86F5DECFE9FFE5
:1010F000DDCFEAFF020EE926000EEA22E9CF0BF06F
:10110000EACF0CF00BC0E6FF0CC0E6FFDECFE9FF34
:10111000DDCFEAFF160EE926000EEA22EF50090D98
:10112000F3CF0DF0F4CF0EF0E00E0D26040E0E22DC
:101130000DC0E6FF0EC0E6FF54EC2EF0E552E5527E
:10114000E552E552DECFE9FFDDCFEAFF160EE926D4
:10115000000EEA22EFCF0BF080C5E9FF81C5EAFF60
:10116000160EEB500B5C03E39BEC2BF000D000D091
:10117000E552E7BEF28E00D0E552E552E552E5CFEA
:10118000DAFFE7CFD9FF1200D9CFE6FFDACFE6FFCB
:10119000E1CFD9FFE2CFDAFFE652E652E652E6525D
:1011A000DF6AFC0EDBCF06F0FD0EDBCF07F0DE5270
:1011B00006C0DEFF07C0DDFFDD52030EDB6A010E55
:1011C000DBCFE6FF020EDBCFE6FFBCDEE552E552E9
:1011D000000901E19CD00501905101E07BD0010E96
:1011E000DBCFE9FF020EDBCFEAFF160EE926000E89
:1011F000EA22EFCF0BF080C5E9FF81C5EAFF160EAA
:10120000EB500B5C03E3010EDF6E00D0010EDBCF71
:10121000E9FF020EDBCFEAFF020EE926000EEA220A
:10122000E9CF0BF0EACF0CF00BC0E6FF0CC0E6FFF5
:10123000B6EC2FF0E552E552010EDBCFE9FF020ECE
:10124000DBCFEAFF160EE926000EEA22EFCF0BF005
:1012500005018651D8800B540CE2010EDBCFE9FF6B
:10126000020EDBCFEAFF160EE926000EEA22EFCFD0
:1012700086F5010EDBCFE9FF020EDBCFEAFF020E9F
:10128000E926000EEA22E9CF0BF0EACF0CF00BC002
:10129000E6FF0CC0E6FF010EDBCFE9FF020EDBCF5D
:1012A000EAFF160EE926000EEA22EF50090DF3CFF1
:1012B0000DF0F4CF0EF0E00E0D26040E0E220DC040
:1012C000E6FF0EC0E6FF54EC2EF0E552E552E55283
:1012D000E5521CD0010EDBCFE9FF020EDBCFEAFFA7
:1012E0000C0EE926000EEA22E9CF0BF0EACF0CF053
:1012F0000BC0E6FF0CC0E6FF110EE66E050EE66EB3
:1013000054EC2EF0E552E552E552E55200D0DF50A4
:1013100000D00B6E040EE15C02E2E16AE552E16E80
:101320000B50E552E5CFDAFFE7CFD9FF1200D9CF56
:10133000E6FFDACFE6FFE1CFD9FFE2CFDAFFE652F0
:101340008E0EE66E050EE66EE66A000EE66EE66A44
:10135000800EE66EE66A9E0EE66E6D0EE66ED20EAC
:10136000E66E200EE66E30EC00F00B6E0B0EE15CCC
:1013700002E2E16AE552E16E0B50DF6EDF0410E13C
:10138000F29E05018C698D690501010E876F0501CB
:10139000846B856B29EC2BF0000901E000D000D0B4
:1013A000E552E552E5CFDAFFE7CFD9FF1200F29E12
:1013B0000501876B9AEC2BF012000501902B1200AF
:1013C000D9CFE6FFDACFE6FFE1CFD9FFE2CFDAFFF0
:1013D000E652E652E652E652DE6ADD6A020EDB6A49
:1013E000F250E66EF29E050190070501905101E072
:1013F000CAD005018351000801E3C4D00501115191
:1014000002E1010E01D0000E000901E090D016C5E6
:10141000E9FF17C5EAFF060EE926000EEA22EECF25
:10142000DEFFEDCFDDFFDECFE9FFDDCFEAFF0C0E03
:10143000E926000EEA22E9CF0BF0EACF0CF00BC050
:10144000E6FF0CC0E6FFB6EC2FF0E552E552DECF2A
:10145000E9FFDDCFEAFF020EE926000EEA22E9CF1E
:101460000BF0EACF0CF00BC0E6FF0CC0E6FFB6ECC9
:101470002FF0E552E552DECFE9FFDDCFEAFF160E91
:10148000E926000EEA22EFCF0BF005018651D88045
:101490000B540AE2DECFE9FFDDCFEAFF160EE926A4
:1014A000000EEA22EFCF86F5DECFE9FFDDCFEAFFBF
:1014B000020EE926000EEA22E9CF0BF0EACF0CF08B
:1014C0000BC0E6FF0CC0E6FFDECFE9FFDDCFEAFF91
:1014D000160EE926000EEA22EF50090DF3CF0DF0AB
:1014E000F4CF0EF0E00E0D26040E0E220DC0E6FF26
:1014F0000EC0E6FF54EC2EF0E552E552E552E552FF
:10150000DECFE9FFDDCFEAFF160EE926000EEA2264
:10151000EFCF0BF080C5E9FF81C5EAFF160EEB5057
:101520000B5C04E30501010E896F00D067D7D9CFAA
:10153000E9FFDACFEAFFEE50ED1002E012EC12F014
:10154000030E88C5DBFF030EDB50000810E2B6D89F
:10155000000904E00501010E896F00D0030EDB06CF
:10156000030EDB500008F3E30501886B00D0050192
:10157000895108E0010EF36E020EF3CFDBFF9BEC06
:101580002BF000D000D0E552E7BEF28E020EDB5009
:1015900000D00B6E040EE15C02E2E16AE552E16EFE
:1015A0000B50E552E5CFDAFFE7CFD9FF1200D9CFD4
:1015B000E6FFDACFE6FFE1CFD9FFE2CFDAFFE6526E
:1015C000E652F250E66EF29E84C5DEFF85C5DDFF71
:1015D000E552E7BEF28EDECF0BF0DDCF0CF00BC094
:1015E000F3FF0CC0F4FF00D0E552E552E552E5CF21
:1015F000DAFFE7CFD9FF1200D9CFE6FFDACFE6FF57
:10160000E1CFD9FFE2CFDAFFE652E652E652020E10
:10161000DB6A84C5DEFF85C5DDFFDECF0BF0DDCFE5
:101620000CF00BC0F3FF0CC0F4FF00D0E552E55204
:10163000E552E552E5CFDAFFE7CFD9FF1200050109
:10164000835100D01200D9CFE6FFDACFE6FFE1CF19
:10165000D9FFE2CFDAFFE652E652D950FC0FE96E2D
:10166000FF0EDA20EA6EEE50ED1005E180C50BF0BA
:1016700081C50CF006D0FC0EDBCF0BF0FD0EDBCFEE
:101680000CF00BC0DEFF0CC0DDFFDECFE9FFDDCFCD
:10169000EAFF190EE926000EEA22E9CF0BF0EACFA5
:1016A0000CF00BC0F3FF0CC0F4FF00D0E552E55284
:1016B000E552E5CFDAFFE7CFD9FF1200D9CFE6FF39
:1016C000DACFE6FFE1CFD9FFE2CFDAFF090EE1245E
:1016D00002E3E168E652E16E040EDB6A0501905117
:1016E00001E025D1010E05010C6A84250B6E8551A0
:1016F0000C22050E0BC0DBFF060E0CC0DBFF050E37
:10170000DBCF84F5060EDBCF85F5D950050FE96EEA
:10171000000EDA20EA6EEE50ED1015E1070E0DC551
:10172000DBFF080E0EC5DBFF0FC50DF510C50EF56E
:10173000070EDBCF0FF5080EDBCF10F505018A2B66
:1017400012EC12F000D0050EDBCF0BF0060EDBCF53
:101750000CF005018C510B5C8D510C5801E2E6D068
:101760000DC5E9FF0EC5EAFFEF50000902E1010EC9
:1017700001D0000E000905E005018C698D69D6D005
:10178000D4D00DC5E9FF0EC5EAFF030EE926000E11
:10179000EA22020EE926000EEA22EE50EFCFEAFF1F
:1017A000E96E060EE926000EEA22EECFDEFFEDCF4F
:1017B000DDFFDECFE9FFDDCFEAFF020EE926000EF6
:1017C000EA22020EEECFDBFF030EEDCFDBFF050EAC
:1017D000DBCF0BF0060EDBCF0CF0020EDBCF0DF0F3
:1017E000030EDBCF0EF00D500B5C0E500C5808E2D0
:1017F000020EDBCF8CF5030EDBCF8DF597D000D03A
:10180000DECFE9FFDDCFEAFF020EE926000EEA2275
:10181000E9CF0BF0EACF0CF00BC0E6FF0CC0E6FFFF
:10182000B6EC2FF0E552E552DECFE9FFDDCFEAFF5F
:101830000C0EE926000EEA22080EE926000EEA2226
:10184000EE50ED1015E0DECFE9FFDDCFEAFF0C0E24
:10185000E926000EEA22E9CF0BF0EACF0CF00BC02C
:10186000E6FF0CC0E6FFB6EC2FF0E552E55200D0E3
:10187000DECFE9FFDDCFEAFF160EE926000EEA22F1
:10188000EFCF0BF005018651D8800B540AE2DECF72
:10189000E9FFDDCFEAFF160EE926000EEA22EFCFC0
:1018A00086F5DECFE9FFDDCFEAFF020EE926000E66
:1018B000EA22E9CF0BF0EACF0CF00BC0E6FF0CC038
:1018C000E6FFDECFE9FFDDCFEAFF160EE926000EC8
:1018D000EA22EF50090DF3CF0DF0F4CF0EF0E00E39
:1018E0000D26040E0E220DC0E6FF0EC0E6FF54ECDE
:1018F0002EF0E552E552E552E552DECFE9FFDDCFAD
:10190000EAFF160EE926000EEA22EFCF0BF080C5A3
:10191000E9FF81C5EAFF160EEB500B5C06E3010EF2
:10192000F36E040EF3CFDBFF00D01AD702D005010F
:10193000882B0501895106E0010EF36E040EF3CFEA
:10194000DBFF00D0040EDB5000D00B6E090EE15C13
:1019500002E2E16AE552E16E0B50E552E5CFDAFFB3
:10196000E7CFD9FF1200D9CFE6FFDACFE6FFE1CF0C
:10197000D9FFE2CFDAFFE652E652E6520501905176
:1019800004E00501010E896F97D00501896B86C5BA
:10199000DFFFDF50090DF3CFE9FFF4CFEAFFE00EE0
:1019A000E926040EEA22EF5002E1010E01D0000EFA
:1019B000000902E0DF06EDD7DF50090DF3CF0BF091
:1019C000F4CF0CF0E00E0B26040E0C22010E0BC01F
:1019D000DBFF020E0CC0DBFF010EDBCFE9FF020EC6
:1019E000DBCFEAFFEE52EE50EFCFEAFFE96E020ED8
:1019F000E926000EEA22EECF0BF0EFCF0CF0010E3D
:101A0000DBCFE9FF020EDBCFEAFFEE520BC0EEFFA9
:101A10000CC0EDFF010EDBCFE9FF020EDBCFEAFFCA
:101A2000EE52EECF0BF0EFCF0CF0010EDBCFE9FF63
:101A3000020EDBCFEAFF030EE926000EEA22E9CF11
:101A40000DF0EACF0EF00D500B1802E10E500C18FD
:101A50001EE1010EDBCFE9FF020EDBCFEAFFEE5203
:101A6000EE50EFCFEAFFE96E020EE926000EEA2201
:101A7000EECF0BF0EFCF0CF0010EDBCFE9FF020E43
:101A8000DBCFEAFFEE520BC0EEFF0CC0EDFF010E04
:101A9000DBCFE9FF020EDBCFEAFFEE52EE50EFCFD5
:101AA000EAFFE96E060EE926000EEA22EECF80F587
:101AB000EDCF81F5DFCF86F5E552E552E552E552EF
:101AC000E5CFDAFFE7CFD9FF1200D9CFE6FFDACFB3
:101AD000E6FFE1CFD9FFE2CFDAFF80C5E9FF81C59C
:101AE000EAFF0C0EE926000EEA22E9CF0BF0EACF5E
:101AF0000CF00BC0E6FF0CC0E6FFFC0EDBCFE6FFF0
:101B0000FD0EDBCFE6FFD4EC2EF0E552E552E552B8
:101B1000E552010EE66EFA0EDBCFE6FFFB0EDBCFE1
:101B2000E6FF49EC18F0E552E552E552E552E5CF03
:101B3000DAFFE7CFD9FF1200D9CFE6FFDACFE6FF11
:101B4000E1CFD9FFE2CFDAFFFA0EDBCF0BF0FB0ECD
:101B5000DBCF0CF00B50800E0C1280C5E9FF81C565
:101B6000EAFF0C0EE926000EEA220BC0EEFF0CC0C5
:101B7000EDFF80C5E9FF81C5EAFF0C0EE926000EE6
:101B8000EA22E9CF0BF0EACF0CF00BC0E6FF0CC065
:101B9000E6FFFC0EDBCFE6FFFD0EDBCFE6FF54ECED
:101BA0002EF0E552E552E552E552010EE66EF80ED2
:101BB000DBCFE6FFF90EDBCFE6FF49EC18F0E5528C
:101BC000E552E552E552E5CFDAFFE7CFD9FF120043
:101BD000D9CFE6FFDACFE6FFE1CFD9FFE2CFDAFFD8
:101BE000E652E652E652FC0EDBCFE9FFFD0EDBCFFC
:101BF000EAFF030EE926000EEA22020EE926000E95
:101C0000EA22EE50EFCFEAFFE96E060EE926000E5B
:101C1000EA22EECFDEFFEDCFDDFFDECFE9FFDDCF45
:101C2000EAFF0C0EE926000EEA22E9CF0BF0EACF1C
:101C30000CF00BC0E6FF0CC0E6FFB6EC2FF0E5524F
:101C4000E552050190515AE1DECFE9FFDDCFEAFF11
:101C5000020EE926000EEA22E9CF0BF0EACF0CF0E3
:101C60000BC0E6FF0CC0E6FFB6EC2FF0E552E552E4
:101C7000DECFE9FFDDCFEAFF160EE926000EEA22ED
:101C8000EFCF0BF005018651D8800B540AE2DECF6E
:101C9000E9FFDDCFEAFF160EE926000EEA22EFCFBC
:101CA00086F5DECFE9FFDDCFEAFF020EE926000E62
:101CB000EA22E9CF0BF0EACF0CF00BC0E6FF0CC034
:101CC000E6FFDECFE9FFDDCFEAFF160EE926000EC4
:101CD000EA22EF50090DF3CF0DF0F4CF0EF0E00E35
:101CE0000D26040E0E220DC0E6FF0EC0E6FF54ECDA
:101CF0002EF0E552E552E552E5521AD0DECFE9FF6B
:101D0000DDCFEAFF0C0EE926000EEA22E9CF0BF048
:101D1000EACF0CF00BC0E6FF0CC0E6FF110EE66E3A
:101D2000050EE66E54EC2EF0E552E552E552E55212
:101D3000DECFE9FFDDCFEAFF160EE926000EEA222C
:101D4000EFCF0BF080C5E9FF81C5EAFF160EEB501F
:101D5000D8800B5409E2010EF36E020EF3CFDBFFC5
:101D60000501010E896F02D0020EDB6A020EDB5004
:101D700000D0E552E552E552E552E5CFDAFFE7CF74
:101D8000D9FF1200D9CFE6FFDACFE6FFE1CFD9FFC6
:101D9000E2CFDAFFE652E652FA0EDBCF0BF0FB0E93
:101DA000DBCF0CF00B50800E0C12FC0EDBCFE9FFEA
:101DB000FD0EDBCFEAFF0BC0EEFF0CC0EDFFFC0E0B
:101DC000DBCFE9FFFD0EDBCFEAFF060EE926000EB2
:101DD000EA22EECFDEFFEDCFDDFFFC0EDBCFE6FF2C
:101DE000FD0EDBCFE6FFB6EC2FF0E552E552DECF7D
:101DF000E9FFDDCFEAFF020EE926000EEA22E9CF75
:101E00000BF0EACF0CF00BC0E6FF0CC0E6FFB6EC1F
:101E10002FF0E552E552DECFE9FFDDCFEAFF160EE7
:101E2000E926000EEA22EFCF0BF005018651D8809B
:101E30000B540AE2DECFE9FFDDCFEAFF160EE926FA
:101E4000000EEA22EFCF86F5DECFE9FFDDCFEAFF15
:101E5000020EE926000EEA22E9CF0BF0EACF0CF0E1
:101E60000BC0E6FF0CC0E6FFDECFE9FFDDCFEAFFE7
:101E7000160EE926000EEA22EF50090DF3CF0DF001
:101E8000F4CF0EF0E00E0D26040E0E220DC0E6FF7C
:101E90000EC0E6FF54EC2EF0E552E552E552E55255
:101EA000DECFE9FFDDCFEAFF160EE926000EEA22BB
:101EB000EFCF0BF080C5E9FF81C5EAFF160EEB50AE
:101EC000D8800B5403E20501010E896FE552E552FB
:101ED000E552E5CFDAFFE7CFD9FF1200D9CFE6FF11
:101EE000DACFE6FFE1CFD9FFE2CFDAFFF250E66EBC
:101EF000F29EFC0EDBCFE9FFFD0EDBCFEAFF8AC5C9
:101F0000EFFFFC0EDBCFE9FFFD0EDBCFEAFFEE5269
:101F100084C5EEFF85C5EDFFE552E7BEF28EE552C2
:101F2000E5CFDAFFE7CFD9FF1200D9CFE6FFDACF4E
:101F3000E6FFE1CFD9FFE2CFDAFFFC0EDBCFE9FF0E
:101F4000FD0EDBCFEAFF8AC5EFFFFC0EDBCFE9FF1A
:101F5000FD0EDBCFEAFFEE5284C5EEFF85C5EDFF37
:101F6000E552E5CFDAFFE7CFD9FF1200D9CFE6FF80
:101F7000DACFE6FFE1CFD9FFE2CFDAFFE652E65251
:101F8000E652E652E652F250E66EF29E010E84C52B
:101F9000DBFF020E85C5DBFF010EDBCF0DF0020E6D
:101FA000DBCF0EF0FC0EDBCFE9FFFD0EDBCFEAFF4F
:101FB000EE52EE500D5C0B6EEE500E580C6E030E92
:101FC0000BC0DBFF040E0CC0DBFFFA0EDBCFE9FF1A
:101FD000FB0EDBCFEAFFFF0EEE1802E1FF0EED185D
:101FE00002E1DF6A5FD0FC0EDBCFE9FFFD0EDBCF45
:101FF000EAFFEF5005018A5D1BE0010EDBCF0BF01D
:10200000020EDBCF0CF0FC0EDBCFE9FFFD0EDBCFC9
:10201000EAFFEECF0DF0EECF0EF0EFCF0FF00001A4
:102020000E500B5C0F500C5803E3010EDF6E3AD0DC
:10203000030EDBCF0BF0040EDBCF0CF0FA0EDBCF80
:10204000E9FFFB0EDBCFEAFFEECF0DF0EFCF0EF096
:102050000D500B5C0E500C581BE2030EDBCF0BF047
:10206000040EDBCF0CF0FA0EDBCFE9FFFB0EDBCF6B
:10207000EAFF0B50EE5E0C50ED5AFC0EDBCFE6FF94
:10208000FD0EDBCFE6FF51DFE552E552DF6A0AD0F5
:10209000FA0EDBCFE9FFFB0EDBCFEAFFEE6AED6A5B
:1020A000010EDF6EE552E7BEF28EDF5000D00B6E00
:1020B000050EE15C02E2E16AE552E16E0B50E55289
:1020C000E5CFDAFFE7CFD9FF12000501010E896FD6
:1020D0001200D9CFE6FFDACFE6FFE1CFD9FFE2CF9A
:1020E000DAFF2ED90401E051010803E29BEC2BF04A
:1020F00000D0F7D7E552E5CFDAFFE7CFD9FF1200DE
:10210000D9CFE6FFDACFE6FFE1CFD9FFE2CFDAFFA2
:10211000E652E652FB0EDBCF0BF0050EE76E0B1816
:10212000E8AE02D0E73402D0E7500B5C39E2D95078
:10213000FC0FE96EFF0EDA20EA6EEE50ED1005E1BD
:1021400080C50BF081C50CF006D0FC0EDBCF0BF088
:10215000FD0EDBCF0CF00BC0DEFF0CC0DDFFDECFD1
:10216000E9FFDDCFEAFF2B0EE926000EEA22E9CFD8
:102170000BF0EACF0CF0FB0EDBCF0DF00E6A0DBEBC
:102180000E68D8900D360E360B500D24E96E0C50AB
:102190000E20EA6EF90EDBCFEEFFFA0EDBCFEDFF7D
:1021A000E552E552E552E5CFDAFFE7CFD9FF12005D
:1021B000D9CFE6FFDACFE6FFE1CFD9FFE2CFDAFFF2
:1021C000E652E652E652E652DE6ADD6AFB0EDBCFED
:1021D0000BF0050EE76E0B18E8AE02D0E73402D024
:1021E000E7500B5C3CE2D950FC0FE96EFF0EDA20A1
:1021F000EA6EEE50ED1005E180C50BF081C50CF0E4
:1022000006D0FC0EDBCF0BF0FD0EDBCF0CF0020E88
:102210000BC0DBFF030E0CC0DBFF020EDBCFE9FFC0
:10222000030EDBCFEAFF2B0EE926000EEA22E9CFF0
:102230000BF0EACF0CF0FB0EDBCF0DF00E6A0DBEFB
:102240000E68D8900D360E360B500D24E96E0C50EA
:102250000E20EA6EEECFDEFFEDCFDDFF02D0DE6AAC
:10226000DD6ADECF0BF0DDCF0CF00BC0F3FF0CC04E
:10227000F4FF00D0040EE15C02E2E16AE552E16E97
:10228000E552E5CFDAFFE7CFD9FF1200D9CFE6FF5D
:10229000DACFE6FFE1CFD9FFE2CFDAFFE652DF6A1D
:1022A000030EDF5C14E2DF50090DF3CF0BF0F4CF27
:1022B0000CF0E00E0B26040E0C220BC0E6FF0CC047
:1022C000E6FFC2EC2DF0E552E552DF2AE9D7FB0E1E
:1022D000E66E040EE66EC2EC2DF0E552E552040EF9
:1022E000E66E050EE66EC2EC2DF0E552E552110EDB
:1022F000E66E050EE66EC2EC2DF0E552E5521A0EC2
:10230000E66E050EE66EC2EC2DF0E552E552230EA8
:10231000E66E050EE66EC2EC2DF0E552E5520501C3
:10232000FB0E0D6F040E0E6F0501040E0F6F050EF0
:10233000106FE552E552E5CFDAFFE7CFD9FF120083
:10234000D9CFE6FFDACFE6FFE1CFD9FFE2CFDAFF60
:10235000E652E65205018251000832E2F250E66E82
:10236000F29E1FC5E9FF20C5EAFF060EE926000E12
:10237000EA22EECFDEFFEDCFDDFFDECFE9FFDDCFDE
:10238000EAFF020EE926000EEA22E9CF0BF0EACFBF
:102390000CF00BC0E6FF0CC0E6FFB6EC2FF0E552E8
:1023A000E5520501830705018207E552E7BEF28E7B
:1023B000DECFE6FFDDCFE6FF0BD8E552E552CAD708
:1023C000E552E552E552E5CFDAFFE7CFD9FF12003B
:1023D000D9CFE6FFDACFE6FFE1CFD9FFE2CFDAFFD0
:1023E000FC0EDBCFE9FFFD0EDBCFEAFF170EE9267F
:1023F000000EEA22EECFE6FFEFCFE6FF96EC35F0D7
:10240000E552E552FC0EDBCFE6FFFD0EDBCFE6FF2B
:1024100096EC35F0E552E552E552E5CFDAFFE7CF2D
:10242000D9FF1200D9CFE6FFDACFE6FFE1CFD9FF1F
:10243000E2CFDAFFE652E6520DC5E9FF0EC5EAFF2C
:10244000EF50000902E1010E01D0000E000904E086
:1024500005018C698D6924D00DC5E9FF0EC5EAFF21
:10246000030EE926000EEA22020EE926000EEA22F9
:10247000EE50EFCFEAFFE96E060EE926000EEA22E3
:10248000EECFDEFFEDCFDDFFDECFE9FFDDCFEAFFF0
:10249000020EE926000EEA22EECF8CF5EDCF8DF587
:1024A000E552E552E552E5CFDAFFE7CFD9FF12005A
:1024B000D9CFE6FFDACFE6FFE1CFD9FFE2CFDAFFEF
:1024C000E652E65280C5DEFF81C5DDFFDECF0BF0B0
:1024D000DDCF0CF00BC0F3FF0CC0F4FF00D0E552D1
:1024E000E552E552E5CFDAFFE7CFD9FF1200D9CFA9
:1024F000E6FFDACFE6FFE1CFD9FFE2CFDAFFE6521F
:102500000501875103E1010EDF6E07D005019051EF
:1025100003E1020EDF6E01D0DF6ADF5000D0E5522A
:10252000E552E5CFDAFFE7CFD9FF1200D9CFE6FFBA
:10253000DACFE6FFE1CFD9FFE2CFDAFFE652E6528B
:1025400080C5E9FF81C5EAFF0C0EE926000EEA22EC
:10255000EECFDEFFEDCFDDFF80C5E9FF81C5EAFFED
:10256000160EEB500B6E0C6A030ED8800B56000E45
:102570000C5680C5E9FF81C5EAFF0C0EE926000E66
:10258000EA220BC0EEFF0CC0EDFFDECF0BF0DDCF7B
:102590000CF00BC0F3FF0CC0F4FF00D0E552E55285
:1025A000E552E5CFDAFFE7CFD9FF1200D9CFE6FF3A
:1025B000DACFE6FFE1CFD9FFE2CFDAFFE652E6520B
:1025C000E652E652F250E66EF29E80C5E9FF81C502
:1025D000EAFF350EE926000EEA22EECF0BF0EECF31
:1025E0000CF0EECF0DF0EFCF0EF00B500C100D10E5
:1025F0000E1027E180C5E9FF81C5EAFF390EE92603
:10260000000EEA22010EEF6ED950FB0FE96EFF0EAD
:10261000DA20EA6E000ED880EE54000EED5410E27F
:10262000010EE66EFB0EDBCFE6FFFC0EDBCFE6FF16
:1026300049EC18F0E552E552E5529BEC2BF000D046
:1026400000D0E552E7BEF28EF250E66EF29E80C5F3
:10265000E9FF81C5EAFF350EE926000EEA22EECF3A
:10266000DFFF010EEECFDBFF020EEECFDBFF030E2E
:10267000EECFDBFFD9CFE9FFDACFEAFFEECF0BF0E9
:10268000EECF0CF0EECF0DF0EFCF0EF00B500C10A4
:102690000D100E1034E0FD0EDB500DE080C5E9FF9B
:1026A00081C5EAFF350EE926000EEA22EE6AEE6ADF
:1026B000EE6AEE6A23D0D9CFE9FFDACFEAFFEECF98
:1026C0000BF0EECF0CF0EECF0DF0EFCF0EF00B06CF
:1026D000000E0C5A000E0D5A000E0E5A80C5E9FF6E
:1026E00081C5EAFF350EE926000EEA220BC0EEFF97
:1026F0000CC0EEFF0DC0EEFF0EC0EEFF00D080C597
:10270000E9FF81C5EAFF390EE926000EEA22EF6AE9
:10271000E552E7BEF28EDECF04F0DECF05F0DECF6D
:1027200006F0DDCF07F0DD52DD5200D0040EE15C93
:1027300002E2E16AE552E16EE552E5CFDAFFE7CF6A
:10274000D9FF1200D9CFE6FFDACFE6FFE1CFD9FFFC
:10275000E2CFDAFFE652F250E66EF29E80C5E9FF64
:1027600081C5EAFF390EEB50020847E0FA0EDBCFD5
:102770000BF0FB0EDBCF0CF0FC0EDBCF0DF0FD0EF3
:10278000DBCF0EF00B1E0C1E0D1E0E1E80C5E9FFCA
:1027900081C5EAFF350EE926000EEA220B50EE163F
:1027A0000C50EE160D50EE160E50EE1680C5E9FFD9
:1027B00081C5EAFF390EE926000EEA22010EEF6E0E
:1027C000D950F20FE96EFF0EDA20EA6E000ED880C3
:1027D000EE54000EED5410E2010EE66EF20EDBCF69
:1027E000E6FFF30EDBCFE6FF49EC18F0E552E552C9
:1027F000E5529BEC2BF000D000D0E552E7BEF28E04
:10280000F250E66EF29ED950F40FE96EFF0EDA2018
:10281000EA6EEE50ED101EE080C5E9FF81C5EAFFCB
:10282000350EE926000EEA22EECF0BF0EECF0CF0CB
:10283000EECF0DF0EFCF0EF0F40EDBCFE9FFF50E8B
:10284000DBCFEAFF0BC0EEFF0CC0EEFF0DC0EEFFCA
:102850000EC0EEFF80C5E9FF81C5EAFF390EEB50DF
:10286000020802E0DF6A22D0F60EDBCF0BF0F70E93
:10287000DBCF0CF0F80EDBCF0DF0F90EDBCF0EF056
:102880000B1E0C1E0D1E0E1E80C5E9FF81C5EAFF42
:10289000350EE926000EEA220B50EE160C50EE160D
:1028A0000D50EE160E50EE16010EDF6E80C5E9FFDC
:1028B00081C5EAFF390EE926000EEA22EF6AE552E9
:1028C000E7BEF28EDF5000D0E552E552E5CFDAFFE9
:1028D000E7CFD9FF1200D9CFE6FFDACFE6FFE1CF8D
:1028E000D9FFE2CFDAFFE652E652E652E652010E97
:1028F000F36E020EF3CFDBFFFC0EDBCFDEFFDBCF90
:10290000DDFFF250E66EF29ED950F50FE96EFF0E34
:10291000DA20EA6EEE50ED101EE0DECFE9FFDDCFEB
:10292000EAFF350EE926000EEA22EECF0BF0EECFDD
:102930000CF0EECF0DF0EFCF0EF0F50EDBCFE9FF90
:10294000F60EDBCFEAFF0BC0EEFF0CC0EEFF0DC0B2
:10295000EEFF0EC0EEFFDECFE9FFDDCFEAFF390E5E
:10296000E926000EEA22030EEFCFDBFFDECFE9FF00
:10297000DDCFEAFF390EE926000EEA22020EEF6EE5
:10298000F70EDB505DE0040A3FE0070A28E0010A89
:1029900018E0030A01E055D0DECFE9FFDDCFEAFF02
:1029A000350EE926000EEA22F80EDB50EE12F90E83
:1029B000DB50EE12FA0EDB50EE12FB0EDB50EE1285
:1029C00041D0DECFE9FFDDCFEAFF350EE926000E6C
:1029D000EA22EE2A000EEE22EE22EE2233D0DECFE5
:1029E000E9FFDDCFEAFF350EE926000EEA22F80EF8
:1029F000DBCFEEFFF90EDBCFEEFFFA0EDBCFEEFF03
:102A0000FB0EDBCFEEFF1ED0030EDB50020815E0FD
:102A1000DECFE9FFDDCFEAFF350EE926000EEA2220
:102A2000F80EDBCFEEFFF90EDBCFEEFFFA0EDBCFB9
:102A3000EEFFFB0EDBCFEEFF02D0020EDB6A02D010
:102A400001D000D0030EDB0470E1DECFE9FFDDCF63
:102A5000EAFF020EE926000EEA22E9CF0BF0EACFE8
:102A60000CF00BC0E6FF0CC0E6FFB6EC2FF0E55211
:102A7000E552DECFE9FFDDCFEAFF160EE926000EB4
:102A8000EA22EFCF0BF005018651D8800B540AE201
:102A9000DECFE9FFDDCFEAFF160EE926000EEA22BF
:102AA000EFCF86F5DECFE9FFDDCFEAFF020EE926A4
:102AB000000EEA22E9CF0BF0EACF0CF00BC0E6FFE4
:102AC0000CC0E6FFDECFE9FFDDCFEAFF160EE926F8
:102AD000000EEA22EF50090DF3CF0DF0F4CF0EF007
:102AE000E00E0D26040E0E220DC0E6FF0EC0E6FF1E
:102AF00054EC2EF0E552E552E552E552DECFE9FF07
:102B0000DDCFEAFF160EE926000EEA22EFCF0BF02A
:102B100080C5E9FF81C5EAFF160EEB50D8800B5443
:102B200003E29BEC2BF000D000D0E552E7BEF28E22
:102B3000020EDB5000D00B6E040EE15C02E2E16A93
:102B4000E552E16E0B50E552E5CFDAFFE7CFD9FF52
:102B50001200D9CFE6FFDACFE6FFE1CFD9FFE2CF0F
:102B6000DAFFE652E652E652E652E652010EF36E04
:102B7000030EF3CFDBFFFC0EDBCFDEFFDBCFDDFF91
:102B8000040EDB6AD950F50FE96EFF0EDA20EA6E0B
:102B9000EE50ED101EE0DECFE9FFDDCFEAFF350E8F
:102BA000E926000EEA22EECF0BF0EECF0CF0EECFCE
:102BB0000DF0EFCF0EF0F50EDBCFE9FFF60EDBCF19
:102BC000EAFF0BC0EEFF0CC0EEFF0DC0EEFF0EC023
:102BD000EEFFDECFE9FFDDCFEAFF390EE926000E7A
:102BE000EA22020EEFCFDBFFDECFE9FFDDCFEAFF07
:102BF000390EE926000EEA22020EEF6EF70EDB50C8
:102C00005DE0040A3FE0070A28E0010A18E0030A31
:102C100001E055D0DECFE9FFDDCFEAFF350EE92632
:102C2000000EEA22F80EDB50EE12F90EDB50EE1227
:102C3000FA0EDB50EE12FB0EDB50EE1241D0DECF6F
:102C4000E9FFDDCFEAFF350EE926000EEA22EE2A83
:102C5000000EEE22EE22EE2233D0DECFE9FFDDCFF2
:102C6000EAFF350EE926000EEA22F80EDBCFEEFF72
:102C7000F90EDBCFEEFFFA0EDBCFEEFFFB0EDBCF64
:102C8000EEFF1ED0020EDB50020815E0DECFE9FF9A
:102C9000DDCFEAFF350EE926000EEA22F80EDBCF83
:102CA000EEFFF90EDBCFEEFFFA0EDBCFEEFFFB0EF1
:102CB000DBCFEEFF02D0030EDB6A02D001D000D0E2
:102CC000020EDB0401E09FD0050190515AE1DECFF6
:102CD000E9FFDDCFEAFF020EE926000EEA22E9CF86
:102CE0000BF0EACF0CF00BC0E6FF0CC0E6FFB6EC31
:102CF0002FF0E552E552DECFE9FFDDCFEAFF160EF9
:102D0000E926000EEA22EFCF0BF005018651D880AC
:102D10000B540AE2DECFE9FFDDCFEAFF160EE9260B
:102D2000000EEA22EFCF86F5DECFE9FFDDCFEAFF26
:102D3000020EE926000EEA22E9CF0BF0EACF0CF0F2
:102D40000BC0E6FF0CC0E6FFDECFE9FFDDCFEAFFF8
:102D5000160EE926000EEA22EF50090DF3CF0DF012
:102D6000F4CF0EF0E00E0D26040E0E220DC0E6FF8D
:102D70000EC0E6FF54EC2EF0E552E552E552E55266
:102D80001AD0DECFE9FFDDCFEAFF0C0EE926000EF8
:102D9000EA22E9CF0BF0EACF0CF00BC0E6FF0CC043
:102DA000E6FF110EE66E050EE66E54EC2EF0E552CF
:102DB000E552E552E552DECFE9FFDDCFEAFF160E20
:102DC000E926000EEA22EFCF0BF080C5E9FF81C5AE
:102DD000EAFF160EEB50D8800B5415E2D950F30FD2
:102DE000E96EFF0EDA20EA6EEE50ED1008E0F30E09
:102DF000DBCFE9FFF40EDBCFEAFF010EEF6E05013A
:102E0000010E896F00D0030EDB5000D00B6E050E53
:102E1000E15C02E2E16AE552E16E0B50E552E5CF7A
:102E2000DAFFE7CFD9FF1200D9CFE6FFDACFE6FF0E
:102E3000E1CFD9FFE2CFDAFFE652E652E652E652A0
:102E4000FC0EDBCFDEFFDBCFDDFF030EDB6ADECF68
:102E5000E9FFDDCFEAFF390EE926000EEA22020E75
:102E6000EFCFDBFFDECFE9FFDDCFEAFF390EE9264A
:102E7000000EEA22020EEF6EDECFE9FFDDCFEAFFA1
:102E8000350EE926000EEA22EE2A000EEE22EE2290
:102E9000EE22020EDB0401E09FD0050190515AE1C1
:102EA000DECFE9FFDDCFEAFF020EE926000EEA22BF
:102EB000E9CF0BF0EACF0CF00BC0E6FF0CC0E6FF49
:102EC000B6EC2FF0E552E552DECFE9FFDDCFEAFFA9
:102ED000160EE926000EEA22EFCF0BF0050186510F
:102EE000D8800B540AE2DECFE9FFDDCFEAFF160EF1
:102EF000E926000EEA22EFCF86F5DECFE9FFDDCF2F
:102F0000EAFF020EE926000EEA22E9CF0BF0EACF33
:102F10000CF00BC0E6FF0CC0E6FFDECFE9FFDDCF13
:102F2000EAFF160EE926000EEA22EF50090DF3CF54
:102F30000DF0F4CF0EF0E00E0D26040E0E220DC0A3
:102F4000E6FF0EC0E6FF54EC2EF0E552E552E552E6
:102F5000E5521AD0DECFE9FFDDCFEAFF0C0EE926FD
:102F6000000EEA22E9CF0BF0EACF0CF00BC0E6FF2F
:102F70000CC0E6FF110EE66E050EE66E54EC2EF068
:102F8000E552E552E552E552DECFE9FFDDCFEAFF3B
:102F9000160EE926000EEA22EFCF0BF080C5E9FFFE
:102FA00081C5EAFF160EEB50D8800B5415E2D950BC
:102FB000FA0FE96EFF0EDA20EA6EEE50ED1008E02F
:102FC000FA0EDBCFE9FFFB0EDBCFEAFF010EEF6E5F
:102FD0000501010E896F00D0040EE15C02E2E16A96
:102FE000E552E16EE552E5CFDAFFE7CFD9FF1200F7
:102FF000D9CFE6FFDACFE6FFE1CFD9FFE2CFDAFFA4
:10300000E652E652E652D950FC0FE96EFF0EDA2086
:10301000EA6EEE50ED1005E180C50BF081C50CF0B5
:1030200006D0FC0EDBCF0BF0FD0EDBCF0CF00BC09F
:10303000DEFF0CC0DDFFF250E66EF29EDECFE9FF50
:10304000DDCFEAFF390EE926000EEA22EF50020832
:103050000FE1DECFE9FFDDCFEAFF390EE926000EF2
:10306000EA22EF6A010EF36E020EF3CFDBFF02D00D
:10307000020EDB6AE552E7BEF28E020EDB5000D094
:10308000E552E552E552E552E5CFDAFFE7CFD9FF49
:103090001200D9CFE6FFDACFE6FFE1CFD9FFE2CFCA
:1030A000DAFFE652E652E652E652020E84C5DBFF34
:1030B000030E85C5DBFF80C5E9FF81C5EAFF020E6F
:1030C000E926000EEA22E9CF0BF0EACF0CF00BC0A4
:1030D000E6FF0CC0E6FFB6EC2FF0E552E552000922
:1030E00001E100D0D950FC0FE96EFF0EDA20EA6E44
:1030F000FF0EEE1802E1FF0EED181EE1FB0EDB5095
:103100001BE080C5E9FF81C5EAFF020EE926000E3B
:10311000EA22E9CF0BF0EACF0CF00BC0E6FF0CC0BF
:10312000E6FF230EE66E050EE66E54EC2EF0E55239
:10313000E552E552E55271D0FC0EDBCF0DF0FD0EED
:10314000DBCF0EF0020EDB500D240B6E030EDB50B6
:103150000E200C6E0BC0DEFF0CC0DDFF80C5E9FF4A
:1031600081C5EAFF020EE926000EEA22DECFEEFF5D
:10317000DDCFEDFFDECF0BF0DDCF0CF0020EDBCFAD
:103180000DF0030EDBCF0EF00D500B5C0E500C5803
:103190001BE280C5E9FF81C5EAFF020EE926000EA9
:1031A000EA22E9CF0BF0EACF0CF00BC0E6FF0CC02F
:1031B000E6FF0FC5E6FF10C5E6FFD4EC2EF0E552A2
:1031C000E552E552E55229D080C5E9FF81C5EAFF05
:1031D000020EE926000EEA22E9CF0BF0EACF0CF04E
:1031E0000BC0E6FF0CC0E6FF0DC5E6FF0EC5E6FF0F
:1031F000D4EC2EF0E552E552E552E552DECF0BF06D
:10320000DDCF0CF005018C510B5C8D510C5805E2A3
:10321000DECF8CF5DDCF8DF500D0040EE15C02E24F
:10322000E16AE552E16EE552E5CFDAFFE7CFD9FF7B
:0232300012008A
:0E323200D9CFE6FFDACFE6FFE1CFD9FFE2CF3A
:10324000DAFFE652E652FC0EDBCFDEFFDBCFDDFF1E
:10325000F250E66EF29EDECFE9FFDDCFEAFF1C0EF4
:10326000E926000EEA22EFCF0FF0DECFE9FFDDCF37
:10327000EAFF1B0EE926000EEA22EF500F02F35080
:103280000D6E0E6ADECFE9FFDDCFEAFF0D50EE24B2
:103290000B6E0E50EE200C6EDECFE9FFDDCFEAFFA5
:1032A000040EE926000EEA220BC0EEFF0CC0EDFF73
:1032B000DECFE9FFDDCFEAFF1A0EE926000EEA2293
:1032C000EF6ADECFE9FFDDCFEAFFEECF0BF0EFCF05
:1032D0000CF0DECFE9FFDDCFEAFF020EE926000E9B
:1032E000EA220BC0EEFF0CC0EDFFDECFE9FFDDCF21
:1032F000EAFF1C0EE926000EEA22EFCF0FF0DECF28
:10330000E9FFDDCFEAFF1B0EE926000EEA22EF04FB
:103310000F02F3500D6E0E6ADECFE9FFDDCFEAFF3C
:103320000D50EE240B6E0E50EE200C6EDECFE9FF3A
:10333000DDCFEAFF040EE926000EEA22020EE9269E
:10334000000EEA220BC0EEFF0CC0EDFFDECFE9FF5E
:10335000DDCFEAFF1D0EE926000EEA22EF68DECF80
:10336000E9FFDDCFEAFF1E0EE926000EEA22EF6834
:10337000FB0EDB502AE1DECFE9FFDDCFEAFF080ECE
:10338000E926000EEA22EF5002E1010E01D0000E04
:1033900000091AE1DECFE9FFDDCFEAFF080EE926DA
:1033A000000EEA22E9CF0BF0EACF0CF00BC0E6FFEB
:1033B0000CC0E6FFE8EC0DF0E552E552000903E031
:1033C0009BEC2BF000D000D028D0DECFE9FFDDCF82
:1033D000EAFF080EE926000EEA22E9CF0BF0EACF59
:1033E0000CF00BC0E6FF0CC0E6FFC2EC2DF0E5527E
:1033F000E552DECFE9FFDDCFEAFF110EE926000E30
:10340000EA22E9CF0BF0EACF0CF00BC0E6FF0CC0CC
:10341000E6FFC2EC2DF0E552E552E552E7BEF28E32
:10342000010E00D0E552E552E552E5CFDAFFE7CFD5
:10343000D9FF1200D9CFE6FFDACFE6FFE1CFD9FFFF
:10344000E2CFDAFF060EE12402E3E168E652E16E24
:10345000FC0EDB5005E1020EDB6A030EDB6A13D0C3
:10346000FC0EDBCFE6FFFD0EDB50E552E702F3502A
:10347000E66ED950020FE96E000EDA20EA6EE552D0
:10348000E750EE6EED6A020EDBCF0BF0030EDBCFE2
:103490000CF01F0E0B26000E0C220BC0E6FF0CC01A
:1034A000E6FF28EC35F0E552E552F3CFDEFFF4CF2E
:1034B000DDFFD9CFE9FFDACFEAFFEE50ED1031E0C2
:1034C000D9CFE9FFDACFEAFF040EEECFDBFF050E1E
:1034D000EDCFDBFFD950040FE96E000EDA20EA6E63
:1034E0001F0EEE26000EED22DECFE6FFDDCFE6FF5B
:1034F000FB0EDBCFE6FF040EDBCFE6FF050EDBCFD6
:10350000E6FFFC0EDBCFE6FFFD0EDBCFE6FF1ED8AD
:103510000B6E070EE15C02E2E16AE552E16E0B50D0
:1035200000D0DECF0BF0DDCF0CF00BC0F3FF0CC0F2
:10353000F4FF00D0060EE15C02E2E16AE552E16EC2
:10354000E552E5CFDAFFE7CFD9FF1200D9CFE6FF8A
:10355000DACFE6FFE1CFD9FFE2CFDAFFFC0EDB5096
:103560000DE1F70EDBCFE9FFF80EDBCFEAFFF70E38
:10357000DBCFEEFFF80EDBCFEDFF0CD0F70EDBCF8D
:10358000E9FFF80EDBCFEAFFFA0EDBCFEEFFFB0E12
:10359000DBCFEDFFF70EDBCFE9FFF80EDBCFEAFF65
:1035A0001B0EE926000EEA22FD0EDBCFEFFFF70E21
:1035B000DBCFE9FFF80EDBCFEAFF1C0EE926000E99
:1035C000EA22FC0EDBCFEFFF010EE66EF70EDBCF3B
:1035D000E6FFF80EDBCFE6FF2CDEE552E552E552C2
:1035E000E552E5CFDAFFE7CFD9FF1200D9CFE6FFEA
:1035F000DACFE6FFE1CFD9FFE2CFDAFFE652E652BB
:10360000020EE66EE66AFD0EDBCFE6FF13DFE55243
:10361000E552E552F3CFDEFFF4CFDDFFD9CFE9FF6E
:10362000DACFEAFFEE50ED100CE0DECFE9FFDDCFA0
:10363000EAFF1A0EE926000EEA22FC0EDBCFEFFFAE
:1036400000D0DECF0BF0DDCF0CF00BC0F3FF0CC0D1
:10365000F4FF00D0E552E552E552E5CFDAFFE7CFBF
:10366000D9FF1200D9CFE6FFDACFE6FFE1CFD9FFCD
:10367000E2CFDAFF070EE12402E3E168E652E16EF1
:10368000DF6AFC0EDBCF06F0FD0EDBCF07F0050E88
:1036900006C0DBFF060E07C0DBFFF250E66EF29EAF
:1036A000050EDBCFE9FF060EDBCFEAFF1A0EE92697
:1036B000000EEA22EFCF0BF0050EDBCFE9FF060E7E
:1036C000DBCFEAFF1B0EE926000EEA22EF500B5C6F
:1036D00004E3F70EDB50020856E1F70EDBCFE6FFFE
:1036E000FA0EDBCFE6FFFB0EDBCFE6FF050EDBCFEE
:1036F000E6FF060EDBCFE6FF3CEC24F00B6E050E7A
:10370000E15C02E2E16AE552E16E0B50E76E010E08
:10371000E7CFDBFF050EDBCFE9FF060EDBCFEAFFCD
:10372000110EE926000EEA22EF5002E1010E01D04F
:10373000000E00091CE1050EDBCFE9FF060EDBCF12
:10374000EAFF110EE926000EEA22E9CF0BF0EACFDC
:103750000CF00BC0E6FF0CC0E6FFE8EC0DF0E55204
:10376000E552000903E09BEC2BF000D006D0010EDF
:10377000DB5003E09BEC2BF000D0E552E7BEF28E6D
:10378000010EC5D01ED0D950F80FE96EFF0EDA2019
:10379000EA6EEE50ED1006E1E552E7BEF28E000E45
:1037A000B6D00FD0DF500DE1D950020FE66E000EFB
:1037B000DA20E66E95EC0FF0E552E552010EDF6E71
:1037C00000D0E552E7BEF28EDDEC09F0F250E66E75
:1037D000F29E050EDBCFE9FF060EDBCFEAFF1D0EE2
:1037E000E926000EEA22EF50FF080BE1050EDBCFC1
:1037F000E9FF060EDBCFEAFF1D0EE926000EEA22E6
:10380000EF6A050EDBCFE9FF060EDBCFEAFF1E0EE7
:10381000E926000EEA22EF50FF080BE1050EDBCF90
:10382000E9FF060EDBCFEAFF1E0EE926000EEA22B4
:10383000EF6AE552E7BEF28ED950F80FE66EFF0E42
:10384000DA20E66ED950020FE66E000EDA20E66E40
:10385000B6EC0FF0E552E552E552E552000948E1B9
:10386000050EDBCFE6FF060EDBCFE6FF87EC27F089
:10387000E552E55200092FE0F80EDBCFE6FFF90E26
:10388000DBCFE6FF050EDBCFE9FF060EDBCFEAFF5D
:10389000080EE926000EEA22E9CF0BF0EACF0CF081
:1038A0000BC0E6FF0CC0E6FF65EC0DF0E552E552FB
:1038B000E552E552050EDBCFE6FF060EDBCFE6FF55
:1038C00064EC26F0E552E552E0EC09F0000902E173
:1038D0009BEC2BF00CD0050EDBCFE6FF060EDBCF0A
:1038E000E6FF64EC26F0E552E552E0EC09F00ED07C
:1038F000050EDBCFE6FF060EDBCFE6FF64EC26F01D
:10390000E552E552E0EC09F0000E01D0C6D60B6E90
:10391000070EE15C02E2E16AE552E16E0B50E5520E
:10392000E5CFDAFFE7CFD9FF1200D9CFE6FFDACF34
:10393000E6FFE1CFD9FFE2CFDAFFE652E652E652E8
:10394000E652E652FC0EDBCF06F0FD0EDBCF07F0B1
:10395000020E06C0DBFF030E07C0DBFF010EDB6AB1
:10396000020EDBCFE9FF030EDBCFEAFF1A0EE926DA
:10397000000EEA22EFCF0BF0020EDBCFE9FF030EC1
:10398000DBCFEAFF1B0EE926000EEA22EF500B5CAC
:1039900005E3F70EDB50020801E07BD0020EDBCF1F
:1039A000E9FF030EDBCFEAFF1E0EE926000EEA2236
:1039B000040EEFCFDBFFF70EDBCFE6FFFA0EDBCF17
:1039C000E6FFFB0EDBCFE6FF020EDBCFE6FF030ECA
:1039D000DBCFE6FF3CEC24F00B6E050EE15C02E26F
:1039E000E16AE552E16E0B50040EDB50FF083EE148
:1039F000020EDBCFE9FF030EDBCFEAFF110EE92653
:103A0000000EEA22EF5002E1010E01D0000E000983
:103A10002CE1020EDBCFE9FF030EDBCFEAFF110E34
:103A2000E926000EEA22E9CF0BF0EACF0CF00BC03A
:103A3000E6FF0CC0E6FFE8EC0DF0E552E5520009A8
:103A400013E0D950F80FE96EFF0EDA20EA6EEE505F
:103A5000ED1009E0F80EDBCFE9FFF90EDBCFEAFF4E
:103A6000010EEF6E00D000D000D010D0040EDB2885
:103A7000E66E020EDBCFE9FF030EDBCFEAFF1E0E80
:103A8000E926000EEA22E552E750EF6E010EDF6EE6
:103A900001D0DF6ADF5000D00B6E050EE15C02E260
:103AA000E16AE552E16E0B50E552E5CFDAFFE7CF70
:103AB000D9FF1200D9CFE6FFDACFE6FFE1CFD9FF79
:103AC000E2CFDAFF060EE12402E3E168E652E16E9E
:103AD000FC0EDBCF06F0FD0EDBCF07F0020E06C0BA
:103AE000DBFF030E07C0DBFF010EDB6A020EDBCF3C
:103AF000E9FF030EDBCFEAFF1A0EE926000EEA22E9
:103B0000040EEFCFDBFF020EDBCFE9FF030EDBCFAE
:103B1000EAFF1B0EE926000EEA22EF50F36E040EB8
:103B2000DBCFF4FFF350F45C72E2020EDBCFE9FF6F
:103B3000030EDBCFEAFF1E0EE926000EEA22050E79
:103B4000EFCFDBFF040EDB28E66E020EDBCFE9FFD2
:103B5000030EDBCFEAFF1A0EE926000EEA22E55239
:103B6000E750EF6E050EDB50FF083EE1020EDBCFA3
:103B7000E9FF030EDBCFEAFF110EE926000EEA2271
:103B8000EF5002E1010E01D0000E00092CE1020EFF
:103B9000DBCFE9FF030EDBCFEAFF110EE926000EB3
:103BA000EA22E9CF0BF0EACF0CF00BC0E6FF0CC025
:103BB000E6FFE8EC0DF0E552E552000913E0D950BC
:103BC000FA0FE96EFF0EDA20EA6EEE50ED1009E012
:103BD000FA0EDBCFE9FFFB0EDBCFEAFF010EEF6E43
:103BE00000D000D000D010D0050EDB28E66E020E0B
:103BF000DBCFE9FF030EDBCFEAFF1E0EE926000E46
:103C0000EA22E552E750EF6E010EDF6E01D0DF6A67
:103C1000DF5000D00B6E060EE15C02E2E16AE55275
:103C2000E16E0B50E552E5CFDAFFE7CFD9FF120086
:103C3000D9CFE6FFDACFE6FFE1CFD9FFE2CFDAFF57
:103C4000070EE12402E3E168E652E16EDF6AFC0E52
:103C5000DBCF06F0FD0EDBCF07F0040E06C0DBFF66
:103C6000050E07C0DBFFF250E66EF29E040EDBCFBE
:103C7000E9FF050EDBCFEAFF1A0EE926000EEA2265
:103C8000060EEFCFDBFF060EDB50000855E2FA0E02
:103C9000DBCFE6FFFB0EDBCFE6FF040EDBCFE6FF5C
:103CA000050EDBCFE6FFB1EC25F0E552E552E5521B
:103CB000E552060EDB04E66E040EDBCFE9FF050ECF
:103CC000DBCFEAFF1A0EE926000EEA22E552E750A2
:103CD000EF6E040EDBCFE9FF050EDBCFEAFF080E27
:103CE000E926000EEA22EF5002E1010E01D0000E9B
:103CF00000091CE1040EDBCFE9FF050EDBCFEAFF74
:103D0000080EE926000EEA22E9CF0BF0EACF0CF00C
:103D10000BC0E6FF0CC0E6FFE8EC0DF0E552E55203
:103D2000000903E09BEC2BF000D000D0E552E7BE89
:103D3000F28E010ED3D01ED0D950F80FE96EFF0ECF
:103D4000DA20EA6EEE50ED1006E1E552E7BEF28EA3
:103D5000000EC4D00FD0DF500DE1D950010FE66E38
:103D6000000EDA20E66E95EC0FF0E552E552010EFA
:103D7000DF6E00D0E552E7BEF28EDDEC09F0F250C6
:103D8000E66EF29E040EDBCFE9FF050EDBCFEAFF05
:103D90001D0EE926000EEA22EF50FF080BE1040E8B
:103DA000DBCFE9FF050EDBCFEAFF1D0EE926000E93
:103DB000EA22EF6A040EDBCFE9FF050EDBCFEAFF54
:103DC0001E0EE926000EEA22EF50FF080BE1040E5A
:103DD000DBCFE9FF050EDBCFEAFF1E0EE926000E62
:103DE000EA22EF6AE552E7BEF28ED950F80FE66E8E
:103DF000FF0EDA20E66ED950010FE66E000EDA20D3
:103E0000E66EB6EC0FF0E552E552E552E5520009D8
:103E100049E1040EDBCFE6FF050EDBCFE6FF2DEC1C
:103E200027F0E552E552000930E0F80EDBCFE6FF5F
:103E3000F90EDBCFE6FF040EDBCFE9FF050EDBCF8B
:103E4000EAFF110EE926000EEA22E9CF0BF0EACFD5
:103E50000CF00BC0E6FF0CC0E6FF65EC0DF0E55280
:103E6000E552E552E552040EDBCFE6FF050EDBCF4F
:103E7000E6FF64EC26F0E552E552E0EC09F00009BB
:103E800003E19BEC2BF000D00CD0040EDBCFE6FF5F
:103E9000050EDBCFE6FF64EC26F0E552E552E0ECE0
:103EA00009F01BD0040EDBCFE6FF050EDBCFE6FFEB
:103EB00064EC26F0E552E552E0EC09F0040EDBCFAD
:103EC000E6FF050EDBCFE6FF2DEC27F0E552E552CD
:103ED000000903E0000E02D000D0C5D60B6E070E1D
:103EE000E15C02E2E16AE552E16E0B50E552E5CF9A
:103EF000DAFFE7CFD9FF1200D9CFE6FFDACFE6FF2E
:103F0000E1CFD9FFE2CFDAFF070EE12402E3E16857
:103F1000E652E16EDF6AFC0EDBCF06F0FD0EDBCF72
:103F200007F0040E06C0DBFF050E07C0DBFFF250F2
:103F3000E66EF29E040EDBCFE9FF050EDBCFEAFF53
:103F40001A0EE926000EEA22060EEFCFDBFF060E60
:103F5000DB50000843E2060EDB04E66E040EDBCF06
:103F6000E9FF050EDBCFEAFF1A0EE926000EEA2272
:103F7000E552E750EF6E040EDBCFE9FF050EDBCF15
:103F8000EAFF080EE926000EEA22EF5002E1010ED8
:103F900001D0000E00091CE1040EDBCFE9FF050E85
:103FA000DBCFEAFF080EE926000EEA22E9CF0BF08C
:103FB000EACF0CF00BC0E6FF0CC0E6FFE8EC0DF01A
:103FC000E552E552000903E09BEC2BF000D000D055
:103FD000E552E7BEF28E010ED3D01ED0D950FA0FB3
:103FE000E96EFF0EDA20EA6EEE50ED1006E1E552C2
:103FF000E7BEF28E000EC4D00FD0DF500DE1D950D5
:10400000010FE66E000EDA20E66E95EC0FF0E55239
:10401000E552010EDF6E00D0E552E7BEF28EDDEC18
:1040200009F0F250E66EF29E040EDBCFE9FF050EBA
:10403000DBCFEAFF1D0EE926000EEA22EF50FF0853
:104040000BE1040EDBCFE9FF050EDBCFEAFF1D0E0F
:10405000E926000EEA22EF6A040EDBCFE9FF050E27
:10406000DBCFEAFF1E0EE926000EEA22EF50FF0822
:104070000BE1040EDBCFE9FF050EDBCFEAFF1E0EDE
:10408000E926000EEA22EF6AE552E7BEF28ED95029
:10409000FA0FE66EFF0EDA20E66ED950010FE66EDB
:1040A000000EDA20E66EB6EC0FF0E552E552E5526E
:1040B000E552000949E1040EDBCFE6FF050EDBCF38
:1040C000E6FF2DEC27F0E552E552000930E0FA0E4C
:1040D000DBCFE6FFFB0EDBCFE6FF040EDBCFE9FF15
:1040E000050EDBCFEAFF110EE926000EEA22E9CF2A
:1040F0000BF0EACF0CF00BC0E6FF0CC0E6FF65EC5E
:104100000DF0E552E552E552E552040EDBCFE6FF35
:10411000050EDBCFE6FF64EC26F0E552E552E0EC5D
:1041200009F0000903E19BEC2BF000D00CD0040E49
:10413000DBCFE6FF050EDBCFE6FF64EC26F0E552B1
:10414000E552E0EC09F01BD0040EDBCFE6FF050ED4
:10415000DBCFE6FF64EC26F0E552E552E0EC09F037
:10416000040EDBCFE6FF050EDBCFE6FF2DEC27F0DC
:10417000E552E552000903E0000E02D000D0D7D688
:104180000B6E070EE15C02E2E16AE552E16E0B5054
:10419000E552E5CFDAFFE7CFD9FF1200D9CFE6FF2E
:1041A000DACFE6FFE1CFD9FFE2CFDAFF090EE12453
:1041B00002E3E168E652E16EDF6AFC0EDBCF06F057
:1041C000FD0EDBCF07F0060E06C0DBFF070E07C0B3
:1041D000DBFFF250E66EF29E060EDBCFE9FF070E24
:1041E000DBCFEAFF1A0EE926000EEA22080EEFCF17
:1041F000DBFF080EDB5000086DE2060EDBCFE9FFA7
:10420000070EDBCFEAFF040EE926000EEA22020EBB
:10421000E926000EEA22040EEECFDBFF050EEDCFFD
:10422000DBFFFA0EDBCFE6FFFB0EDBCFE6FF060E71
:10423000DBCFE6FF070EDBCFE6FFB1EC25F0E55262
:10424000E552E552E552060EDBCFE9FF070EDBCF64
:10425000EAFF040EE926000EEA22020EE926000E0D
:10426000EA22040EDBCFEEFF050EDBCFEDFF060EDC
:10427000DBCFE9FF070EDBCFEAFF110EE926000EC8
:10428000EA22EF5002E1010E01D0000E00091CE10C
:10429000060EDBCFE9FF070EDBCFEAFF110EE926A2
:1042A000000EEA22E9CF0BF0EACF0CF00BC0E6FFDC
:1042B0000CC0E6FFE8EC0DF0E552E552000903E022
:1042C0009BEC2BF000D000D0E552E7BEF28E010E41
:1042D000D3D01ED0D950F80FE96EFF0EDA20EA6E67
:1042E000EE50ED1006E1E552E7BEF28E000EC4D0AE
:1042F0000FD0DF500DE1D950010FE66E000EDA202D
:10430000E66E95EC0FF0E552E552010EDF6E00D03F
:10431000E552E7BEF28EDDEC09F0F250E66EF29E59
:10432000060EDBCFE9FF070EDBCFEAFF1D0EE92605
:10433000000EEA22EF50FF080BE1060EDBCFE9FF8B
:10434000070EDBCFEAFF1D0EE926000EEA22EF6A18
:10435000060EDBCFE9FF070EDBCFEAFF1E0EE926D4
:10436000000EEA22EF50FF080BE1060EDBCFE9FF5B
:10437000070EDBCFEAFF1E0EE926000EEA22EF6AE7
:10438000E552E7BEF28ED950F80FE66EFF0EDA2046
:10439000E66ED950010FE66E000EDA20E66EB6EC3E
:1043A0000FF0E552E552E552E552000949E1060EEB
:1043B000DBCFE6FF070EDBCFE6FF2DEC27F0E55263
:1043C000E552000930E0F80EDBCFE6FFF90EDBCF57
:1043D000E6FF060EDBCFE9FF070EDBCFEAFF110E8B
:1043E000E926000EEA22E9CF0BF0EACF0CF00BC071
:1043F000E6FF0CC0E6FF65EC0DF0E552E552E55234
:10440000E552060EDBCFE6FF070EDBCFE6FF64ECDE
:1044100026F0E552E552E0EC09F0000903E19BECDF
:104420002BF000D00CD0060EDBCFE6FF070EDBCF63
:10443000E6FF64EC26F0E552E552E0EC09F01BD013
:10444000060EDBCFE6FF070EDBCFE6FF64EC26F0BF
:10445000E552E552E0EC09F0060EDBCFE6FF070E71
:10446000DBCFE6FF2DEC27F0E552E552000903E033
:10447000000E02D000D0ADD60B6E090EE15C02E258
:10448000E16AE552E16E0B50E552E5CFDAFFE7CF86
:10449000D9FF1200D9CFE6FFDACFE6FFE1CFD9FF8F
:1044A000E2CFDAFF060EE12402E3E168E652E16EB4
:1044B000FC0EDBCF06F0FD0EDBCF07F0020E06C0D0
:1044C000DBFF030E07C0DBFF010EDB6A020EDBCF52
:1044D000E9FF030EDBCFEAFF1A0EE926000EEA22FF
:1044E000040EEFCFDBFF040EDB50000801E383D0A6
:1044F000020EDBCFE9FF030EDBCFEAFF1D0EE9263C
:10450000000EEA22050EEFCFDBFFFA0EDBCFE6FF4F
:10451000FB0EDBCFE6FF020EDBCFE6FF030EDBCFA9
:10452000E6FF1FDBE552E552E552E552040EDB04DF
:10453000E66E020EDBCFE9FF030EDBCFEAFF1A0EB9
:10454000E926000EEA22E552E750EF6E050EDB5039
:10455000FF083EE1020EDBCFE9FF030EDBCFEAFFEF
:10456000080EE926000EEA22EF5002E1010E01D00A
:10457000000E00092CE1020EDBCFE9FF030EDBCFBA
:10458000EAFF080EE926000EEA22E9CF0BF0EACF97
:104590000CF00BC0E6FF0CC0E6FFE8EC0DF0E552B6
:1045A000E552000913E0D950F80FE96EFF0EDA204A
:1045B000EA6EEE50ED1009E0F80EDBCFE9FFF90EE0
:1045C000DBCFEAFF010EEF6E00D000D000D010D09C
:1045D000050EDB28E66E020EDBCFE9FF030EDBCF14
:1045E000EAFF1D0EE926000EEA22E552E750EF6EC3
:1045F000010EDF6E01D0DF6ADF5000D00B6E060EB9
:10460000E15C02E2E16AE552E16E0B50E552E5CF72
:10461000DAFFE7CFD9FF1200D9CFE6FFDACFE6FF06
:10462000E1CFD9FFE2CFDAFF060EE12402E3E16831
:10463000E652E16EFC0EDBCF06F0FD0EDBCF07F09D
:10464000040E06C0DBFF050E07C0DBFF010EDB6AB0
:10465000040EDBCFE9FF050EDBCFEAFF1A0EE926D9
:10466000000EEA22EF5000083CE2040EDBCFE9FF27
:10467000050EDBCFEAFF040EE926000EEA22020E49
:10468000E926000EEA22020EEECFDBFF030EEDCF8D
:10469000DBFFFA0EDBCFE6FFFB0EDBCFE6FF040EFF
:1046A000DBCFE6FF050EDBCFE6FF5BDAE552E55236
:1046B000E552E552040EDBCFE9FF050EDBCFEAFF42
:1046C000040EE926000EEA22020EE926000EEA2276
:1046D000020EDBCFEEFF030EDBCFEDFF010EDF6E30
:1046E00001D0DF6ADF5000D00B6E060EE15C02E203
:1046F000E16AE552E16E0B50E552E5CFDAFFE7CF14
:10470000D9FF1200D9CFE6FFDACFE6FFE1CFD9FF1C
:10471000E2CFDAFFE652F250E66EF29EFC0EDBCFFD
:10472000E9FFFD0EDBCFEAFF1A0EE926000EEA22B2
:10473000EFCFDFFFE552E7BEF28EDF5000D0E5524B
:10474000E552E5CFDAFFE7CFD9FF1200D9CFE6FF78
:10475000DACFE6FFE1CFD9FFE2CFDAFFE652E65249
:10476000E652FC0EDBCF06F0FD0EDBCF07F0DE528B
:1047700006C0DEFF07C0DDFFDD52F250E66EF29E9E
:10478000010EDBCFE9FF020EDBCFEAFF1B0EE926AD
:10479000000EEA22EFCF0BF0010EDBCFE9FF020E95
:1047A000DBCFEAFF1A0EE926000EEA22EF500B5C7F
:1047B000DF6EE552E7BEF28EDF5000D0E552E552E3
:1047C000E552E552E5CFDAFFE7CFD9FF1200D9CFA6
:1047D000E6FFDACFE6FFE1CFD9FFE2CFDAFFE6521C
:1047E000E652E652FC0EDBCF06F0FD0EDBCF07F003
:1047F000DE5206C0DEFF07C0DDFFDD52010EDBCF5B
:10480000E9FF020EDBCFEAFF1A0EE926000EEA22CC
:10481000EFCFDFFFDF5000D0E552E552E552E55221
:10482000E5CFDAFFE7CFD9FF1200D9CFE6FFDACF25
:10483000E6FFE1CFD9FFE2CFDAFFE652E652FC0E07
:10484000DBCFDEFFDBCFDDFFDECFE6FFDDCFE6FF38
:1048500099EC28F0E552E552DECFE6FFDDCFE6FF2A
:1048600096EC35F0E552E552E552E552E552E5CFDA
:10487000DAFFE7CFD9FF1200D9CFE6FFDACFE6FFA4
:10488000E1CFD9FFE2CFDAFFE652E652DF6AFC0E53
:10489000DBCFE9FFFD0EDBCFEAFF1A0EE926000EA3
:1048A000EA22010EEFCFDBFFFC0EDBCFE9FFFD0EAE
:1048B000DBCFEAFF1C0EE926000EEA22EF5001E1F1
:1048C00036D1F90EDB5001E086D0FC0EDBCFE9FFDC
:1048D000FD0EDBCFEAFF1C0EE926000EEA22EF50A8
:1048E000E66EE66AFA0EDBCFE6FFFB0EDBCFE6FFF5
:1048F000FC0EDBCFE9FFFD0EDBCFEAFF020EE9265F
:10490000000EEA22EECFE6FFEFCFE6FF06EC36F030
:104910000B6E060EE15C02E2E16AE552E16E0B50BD
:10492000FC0EDBCFE9FFFD0EDBCFEAFF1C0EE92614
:10493000000EEA22EF500B6E0C6AFC0EDBCFE9FF93
:10494000FD0EDBCFEAFF020EE926000EEA220B5035
:10495000EE260C50ED22FC0EDBCFE9FFFD0EDBCF87
:10496000EAFF020EE926000EEA22EECF0BF0EFCFAF
:104970000CF0FC0EDBCFE9FFFD0EDBCFEAFF040EEF
:10498000E926000EEA22EECF0DF0EECF0EF0EECFCC
:104990000FF0EFCF10F000010D500B5C0E500C58D3
:1049A00019E3FC0EDBCFE9FFFD0EDBCFEAFFEECF14
:1049B0000BF0EFCF0CF0FC0EDBCFE9FFFD0EDBCFF1
:1049C000EAFF020EE926000EEA220BC0EEFF0CC041
:1049D000EDFF00D0ACD0FC0EDBCFE9FFFD0EDBCF4E
:1049E000EAFF1C0EE926000EEA22EF50E66EE66AA8
:1049F000FA0EDBCFE6FFFB0EDBCFE6FFFC0EDBCFD4
:104A0000E9FFFD0EDBCFEAFF040EE926000EEA22E5
:104A1000020EE926000EEA22EECFE6FFEFCFE6FF18
:104A200006EC36F00B6E060EE15C02E2E16AE5523E
:104A3000E16E0B50FC0EDBCFE9FFFD0EDBCFEAFF92
:104A40001C0EE926000EEA22EF500B6E0C6AFC0EDB
:104A5000DBCFE9FFFD0EDBCFEAFF040EE926000EF7
:104A6000EA22020EE926000EEA220B50EE5E0C50FE
:104A7000ED5AFC0EDBCFE9FFFD0EDBCFEAFF040EA3
:104A8000E926000EEA22EECF0BF0EECF0CF0EECFCF
:104A90000DF0EFCF0EF0FC0EDBCFE9FFFD0EDBCF0C
:104AA000EAFFEECF0FF0EFCF10F000010F500D5CDA
:104AB00010500E5830E2FC0EDBCFE9FFFD0EDBCFCD
:104AC000EAFF1C0EE926000EEA22EF500D6E0E6A78
:104AD000FC0EDBCFE9FFFD0EDBCFEAFF040EE9267B
:104AE000000EEA220D50EE5C0B6E0E50EE580C6E6E
:104AF000FC0EDBCFE9FFFD0EDBCFEAFF040EE9265B
:104B0000000EEA22020EE926000EEA220BC0EEFF9A
:104B10000CC0EDFF00D0F90EDB50020808E1010ED9
:104B2000DB50000803E2010EDB0600D000D0010ECE
:104B3000DB28E66EFC0EDBCFE9FFFD0EDBCFEAFFE4
:104B40001A0EE926000EEA22E552E750EF6EDF501A
:104B500000D0E552E552E552E5CFDAFFE7CFD9FFC5
:104B60001200D9CFE6FFDACFE6FFE1CFD9FFE2CFDF
:104B7000DAFFFC0EDBCFE9FFFD0EDBCFEAFF1C0EF8
:104B8000E926000EEA22EF5001E198D0FC0EDBCFBF
:104B9000E9FFFD0EDBCFEAFF1C0EE926000EEA223C
:104BA000EF500B6E0C6AFC0EDBCFE9FFFD0EDBCF86
:104BB000EAFF040EE926000EEA22020EE926000EA4
:104BC000EA220B50EE260C50ED22FC0EDBCFE9FF63
:104BD000FD0EDBCFEAFF040EE926000EEA22EECF3F
:104BE0000BF0EECF0CF0EECF0DF0EFCF0EF0FC0E91
:104BF000DBCFE9FFFD0EDBCFEAFF040EE926000E56
:104C0000EA22EECF0FF0EECF10F0EECF11F0EFCFA3
:104C100012F000010F5000010D5C00011050000166
:104C20000E581DE3FC0EDBCFE9FFFD0EDBCFEAFFE4
:104C3000EECF0BF0EFCF0CF0FC0EDBCFE9FFFD0E5B
:104C4000DBCFEAFF040EE926000EEA22020EE92677
:104C5000000EEA220BC0EEFF0CC0EDFF00D0FC0EF0
:104C6000DBCFE9FFFD0EDBCFEAFF1C0EE926000ECD
:104C7000EA22EF50E66EE66AFC0EDBCFE9FFFD0E9E
:104C8000DBCFEAFF040EE926000EEA22020EE92637
:104C9000000EEA22EECFE6FFEFCFE6FFFA0EDBCF03
:104CA000E6FFFB0EDBCFE6FF06EC36F00B6E060EE2
:104CB000E15C02E2E16AE552E16E0B50E552E5CFBC
:104CC000DAFFE7CFD9FF1200D9CFE6FFDACFE6FF50
:104CD000E1CFD9FFE2CFDAFFE652E652F250E66EBC
:104CE000F29EFC0EDBCFE9FFFD0EDBCFEAFF1E0ECE
:104CF000E926000EEA22EFCFDFFFDFCF0BF0000E38
:104D0000E76E0B18E8AE02D00B3403D0E750D88022
:104D10000B5430E2FC0EDBCFE9FFFD0EDBCFEAFFE8
:104D2000110EE926000EEA22EF5002E1010E01D039
:104D3000000E00091CE1FC0EDBCFE9FFFD0EDBCF0E
:104D4000EAFF110EE926000EEA22E9CF0BF0EACFC6
:104D50000CF00BC0E6FF0CC0E6FFE8EC0DF0E552EE
:104D6000E552000903E065EC10F000D001D002D05C
:104D7000DF06C3D7FC0EDBCFE9FFFD0EDBCFEAFF7A
:104D80001E0EE926000EEA22EF68E552E7BEF28E1B
:104D9000F250E66EF29EFC0EDBCFE9FFFD0EDBCF9C
:104DA000EAFF1D0EE926000EEA22010EEFCFDBFF1F
:104DB000010EDBCF0BF0000EE76E0B18E8AE02D051
:104DC0000B3403D0E750D8800B5431E2FC0EDBCF1C
:104DD000E9FFFD0EDBCFEAFF080EE926000EEA220E
:104DE000EF5002E1010E01D0000E00091EE1FC0EA1
:104DF000DBCFE9FFFD0EDBCFEAFF080EE926000E50
:104E0000EA22E9CF0BF0EACF0CF00BC0E6FF0CC0B2
:104E1000E6FFE8EC0DF0E552E552000903E065EC31
:104E200010F000D0010EDB0601D001D0C1D7FC0E7E
:104E3000DBCFE9FFFD0EDBCFEAFF1D0EE926000EFA
:104E4000EA22EF68E552E7BEF28EE552E552E552FE
:104E5000E5CFDAFFE7CFD9FF1200D9CFE6FFDACFEF
:104E6000E6FFE1CFD9FFE2CFDAFFE652F250E66E7D
:104E7000F29EFC0EDBCFE9FFFD0EDBCFEAFF1A0E40
:104E8000E926000EEA22EF5003E1010EDF6E01D0A9
:104E9000DF6AE552E7BEF28EDF5000D0E552E55200
:104EA000E5CFDAFFE7CFD9FF1200D9CFE6FFDACF9F
:104EB000E6FFE1CFD9FFE2CFDAFFE652E652E65253
:104EC000FC0EDBCF06F0FD0EDBCF07F0DE5206C096
:104ED000DEFF07C0DDFFDD52010EDBCFE9FF020E72
:104EE000DBCFEAFF1A0EE926000EEA22EF5003E1BB
:104EF000010EDF6E01D0DF6ADF5000D0E552E552CF
:104F0000E552E552E5CFDAFFE7CFD9FF1200D9CF5E
:104F1000E6FFDACFE6FFE1CFD9FFE2CFDAFFE652D4
:104F2000F250E66EF29EFC0EDBCFE9FFFD0EDBCF0A
:104F3000EAFF1A0EE926000EEA22EFCF0BF0FC0E74
:104F4000DBCFE9FFFD0EDBCFEAFF1B0EE926000EEB
:104F5000EA22EF500B5C03E1010EDF6E01D0DF6A45
:104F6000E552E7BEF28EDF5000D0E552E552E5CFC4
:104F7000DAFFE7CFD9FF1200D9CFE6FFDACFE6FF9D
:104F8000E1CFD9FFE2CFDAFFE652E652E652FC0E5D
:104F9000DBCF06F0FD0EDBCF07F0DE5206C0DEFFF2
:104FA00007C0DDFFDD52010EDBCFE9FF020EDBCFD4
:104FB000EAFF1A0EE926000EEA22EFCF0BF0010EEF
:104FC000DBCFE9FF020EDBCFEAFF1B0EE926000E66
:104FD000EA22EF500B5C03E1010EDF6E01D0DF6AC5
:104FE000DF5000D0E552E552E552E552E5CFDAFF59
:104FF000E7CFD9FF1200D9CFE6FFDACFE6FFE1CF46
:10500000D9FFE2CFDAFFE652DF6A0A0EDF5C35E253
:10501000DF50040DF3CFE9FFF4CFEAFF580EE92685
:10502000050EEA22EE50ED1026E1DF50040DF3CF1D
:10503000E9FFF4CFEAFF580EE926050EEA22FA0E40
:10504000DBCFEEFFFB0EDBCFEDFFDF50040DF3CF28
:10505000E9FFF4CFEAFF580EE926050EEA22020E18
:10506000E926000EEA22FC0EDBCFEEFFFD0EDBCFC1
:10507000EDFF03D000D0DF2AC8D7E552E552E5CFD7
:10508000DAFFE7CFD9FF1200D9CFE6FFDACFE6FF8C
:10509000E1CFD9FFE2CFDAFFE652E652E652010E47
:1050A000DB6A020EDB6ADF6A0A0EDF5C2EE2DF508B
:1050B000040DF3CFE9FFF4CFEAFF580EE926050E01
:1050C000EA22020EE926000EEA22EECF0BF0EFCF25
:1050D0000CF0FC0EDB500B1803E1FD0EDB500C183E
:1050E00012E1DF50040DF3CFE9FFF4CFEAFF580ED1
:1050F000E926050EEA22010EEECFDBFF020EEDCF10
:10510000DBFF03D000D0DF2ACFD7010EDBCF0BF0BF
:10511000020EDBCF0CF00BC0F3FF0CC0F4FF00D08D
:10512000E552E552E552E552E5CFDAFFE7CFD9FF88
:105130001200D9CFE6FFDACFE6FFE1CFD9FFE2CF09
:10514000DAFFE652DF6A0A0EDF5C3AE2DF50040D56
:10515000F3CFE9FFF4CFEAFF580EE926050EEA2265
:10516000020EE926000EEA22EECF0BF0EFCF0CF094
:10517000FC0EDB500B1803E1FD0EDB500C181EE19A
:10518000DF50040DF3CFE9FFF4CFEAFF580EE92614
:10519000050EEA22EE6AED6ADF50040DF3CFE9FF57
:1051A000F4CFEAFF580EE926050EEA22020EE926A0
:1051B000000EEA22EE6AED6A03D000D0DF2AC3D7E0
:0E51C000E552E552E5CFDAFFE7CFD9FF120046
:0251CE00D9CF37
:1051D000E6FFDACFE6FFE1CFD9FFE2CFDAFFE65212
:1051E000E652E652E652E652FC0EDBCFE9FFFD0E38
:1051F000DBCFEAFF110EEF6EFC0EDB2AFD0E01E3A2
:10520000DB2AFC0EDBCFE9FFFD0EDBCFEAFF220E2F
:10521000EF6EFC0EDB2AFD0E01E3DB2AFC0EDBCF7A
:10522000E9FFFD0EDBCFEAFF330EEF6EFC0EDB2A4B
:10523000FD0E01E3DB2AF80EDBCF0BF0F90EDBCF1E
:105240000CF0000E0BC0DBFF010E0CC0DBFF020EEA
:10525000DB6A030EDB6AD9CFE9FFDACFEAFFEECFD4
:105260000BF0EECF0CF0EECF0DF0EFCF0EF00B50B9
:10527000E66EFC0EDBCFE9FFFD0EDBCFEAFFE55269
:10528000E750EF6EFC0EDB2AFD0E01E3DB2AD9CFDF
:10529000E9FFDACFEAFF080EE76ED890030EEB3293
:1052A000020EEB32010EEB32EF32E706F6E1D9CF18
:1052B000E9FFDACFEAFFEECF0BF0EECF0CF0EECF46
:1052C0000DF0EFCF0EF00B50E66EFC0EDBCFE9FFDA
:1052D000FD0EDBCFEAFFE552E750EF6EFC0EDB2A56
:1052E000FD0E01E3DB2AFC0EDBCFE9FFFD0EDBCF79
:1052F000EAFF440EEF6EFC0EDB2AFD0E01E3DB2A13
:10530000FC0EDBCFE9FFFD0EDBCFEAFF660EEF6E92
:10531000FC0EDB2AFD0E01E3DB2AFC0EDBCFE9FFEE
:10532000FD0EDBCFEAFFCC0EEF6EFC0EDB2AFD0E8E
:1053300001E3DB2AFC0EDBCFE9FFFD0EDBCFEAFF4A
:10534000C00EEF6EFC0EDB2AFD0E01E3DB2AFC0E25
:10535000DBCFE9FFFD0EDBCFEAFF110EEF6EFC0E97
:10536000DB2AFD0E01E3DB2AFC0EDBCFE9FFFD0E9D
:10537000DBCFEAFF220EEF6EFC0EDB2AFD0E01E30F
:10538000DB2AFC0EDBCFE9FFFD0EDBCFEAFF330E9D
:10539000EF6EFC0EDB2AFD0E01E3DB2AFC0EDBCFF9
:1053A000E9FFFD0EDBCFEAFF440EEF6EFC0EDB2AB9
:1053B000FD0E01E3DB2AFC0EDBCFE9FFFD0EDBCFA8
:1053C000EAFF550EEF6EFC0EDB2AFD0E01E3DB2A31
:1053D000FC0EDBCFE9FFFD0EDBCFEAFF660EEF6EC2
:1053E000FC0EDB2AFD0E01E3DB2AFC0EDBCFE9FF1E
:1053F000FD0EDBCFEAFFEF6AFC0EDB2AFD0E01E3B8
:10540000DB2AFC0EDBCFE9FFFD0EDBCFEAFF880EC7
:10541000EF6EFC0EDB2AFD0E01E3DB2AFC0EDBCF78
:10542000E9FFFD0EDBCFEAFF990EEF6EFC0EDB2AE3
:10543000FD0E01E3DB2AFC0EDBCFE9FFFD0EDBCF27
:10544000EAFFAA0EEF6EFC0EDB2AFD0E01E3DB2A5B
:10545000FC0EDBCFE9FFFD0EDBCFEAFFBB0EEF6EEC
:10546000FC0EDB2AFD0E01E3DB2AFC0EDBCFE9FF9D
:10547000FD0EDBCFEAFFEF6AFC0EDB2AFD0E01E337
:10548000DB2AFC0EDBCFE9FFFD0EDBCFEAFFEF6A84
:10549000FC0EDB2AFD0E01E3DB2A040EDB6A040EA0
:1054A000DB50130815E3FC0EDBCFE9FFFD0EDBCF6D
:1054B000EAFF040EDBCFEFFFFC0EDBCFE9FFDB2AB8
:1054C000FD0EDBCFEAFF01E3DB2A040EDB2AE7D780
:1054D000FC0EDBCFE9FFFD0EDBCFEAFF130EEF6E14
:1054E000FC0EDB2AFD0E01E3DB2AFC0EDBCFE9FF1D
:1054F000FD0EDBCFEAFFEF6AFC0EDB2AFD0E01E3B7
:10550000DB2AFA0EDBCF0BF0FB0EDBCF0CF0000E2C
:105510000BC0DBFF010E0CC0DBFF020EDB6A030ECB
:10552000DB6AD9CFE9FFDACFEAFFEECF0BF0EECF9F
:105530000CF0EECF0DF0EFCF0EF00B50E66EFC0E40
:10554000DBCFE9FFFD0EDBCFEAFFE552E750EF6E60
:10555000FC0EDB2AFD0E01E3DB2AD9CFE9FFDACF0F
:10556000EAFF080EE76ED890030EEB32020EEB3224
:10557000010EEB32EF32E706F6E1D9CFE9FFDACFE1
:10558000EAFFEECF0BF0EECF0CF0EECF0DF0EFCF49
:105590000EF00B50E66EFC0EDBCFE9FFFD0EDBCF0D
:1055A000EAFFE552E750EF6EFC0EDB2AFD0E01E349
:1055B000DB2AD9CFE9FFDACFEAFF080EE76ED890F1
:1055C000030EEB32020EEB32010EEB32EF32E70646
:1055D000F6E1D9CFE9FFDACFEAFFEECF0BF0EECF5D
:1055E0000CF0EECF0DF0EFCF0EF00B50E66EFC0E90
:1055F000DBCFE9FFFD0EDBCFEAFFE552E750EF6EB0
:10560000FC0EDB2AFD0E01E3DB2AFC0EDBCFE9FFFB
:10561000FD0EDBCFEAFF010EEF6EFC0EDB2AFD0E66
:1056200001E3DB2AFC0EDBCF0BF0FD0EDBCF0CF031
:105630000BC0F3FF0CC0F4FF00D0050EE15C02E2EA
:10564000E16AE552E16EE552E5CFDAFFE7CFD9FF37
:1056500012002ADA80C5E9FF81C5EAFFEECFE1FF3B
:10566000EECFE2FFE5CFE9FFE5CFE9FFFC6AE950C5
:10567000FC5C08E20500E550FF6EE550FE6EE5506B
:10568000FD6EF5D7E5CFEAFFE5CFE9FFE5CFEDFF0A
:10569000E5CFEDFFE5CFEDFFE5CFEDFFE5CFEDFF8A
:1056A000E5CFEDFFE5CFEDFFE5CFEDFFE5CFEDFF7A
:1056B000E5CFEDFFE5CFEDFFE5CFEDFFE5CFEDFF6A
:1056C000E5CFEDFFE5CFEDFFE5CFEDFFE5CFEDFF5A
:1056D000E5CFEDFFE5CFEDFFE5CFEFFFE5CFFAFF3B
:1056E000E5CFFBFFE5CFF3FFE5CFF4FFE5CFF6FF16
:1056F000E5CFF7FFE5CFF8FFE5CFF5FFE5CFEAFF10
:10570000E5CFE9FFE5CFDAFFE5CFD9FFE5CFE0FF51
:10571000E5CFE8FFE8AE06D0E5CFD8FFE5CFE8FF5C
:10572000100005D0E5CFD8FFE5CFE8FF1200010E4D
:1057300000D012001200E8CFE4FFD8CFE4FFF2CF90
:10574000E8FF0009E8CFE4FFF29EE0CFE4FFD9CF05
:10575000E4FFDACFE4FFE9CFE4FFEACFE4FFF5CFDF
:10576000E4FFF8CFE4FFF7CFE4FFF6CFE4FFF4CF98
:10577000E4FFF3CFE4FFFBCFE4FFFACFE4FFE96AF5
:10578000EA6AEECFE4FFEECFE4FFEECFE4FFEECF28
:10579000E4FFEECFE4FFEECFE4FFEECFE4FFEECF89
:1057A000E4FFEECFE4FFEECFE4FFEECFE4FFEECF79
:1057B000E4FFEECFE4FFEECFE4FFEECFE4FFEECF69
:1057C000E4FFEECFE4FFEECFE4FFEECFE4FFEFCF58
:1057D000E4FFE9CFE4FFEACFE4FFFCCFE9FFFC50B0
:1057E000000808E2FDCFE4FFFECFE4FFFFCFE4FFB7
:1057F0000600F5D7E9CFE4FFE45280C5E9FF81C593
:10580000EAFFE1CFEEFFE2CFEEFFB3EC0CF080C594
:10581000E9FF81C5EAFFEECFE1FFEECFE2FFE5CF82
:10582000E9FFE5CFE9FFFC6AE950FC5C08E205000E
:10583000E550FF6EE550FE6EE550FD6EF5D7E5CF05
:10584000EAFFE5CFE9FFE5CFEDFFE5CFEDFFE5CFDF
:10585000EDFFE5CFEDFFE5CFEDFFE5CFEDFFE5CFC8
:10586000EDFFE5CFEDFFE5CFEDFFE5CFEDFFE5CFB8
:10587000EDFFE5CFEDFFE5CFEDFFE5CFEDFFE5CFA8
:10588000EDFFE5CFEDFFE5CFEDFFE5CFEDFFE5CF98
:10589000EDFFE5CFEFFFE5CFFAFFE5CFFBFFE5CF6B
:1058A000F3FFE5CFF4FFE5CFF6FFE5CFF7FFE5CF58
:1058B000F8FFE5CFF5FFE5CFEAFFE5CFE9FFE5CF5C
:1058C000DAFFE5CFD9FFE5CFE0FFE5CFE8FFE8AEAF
:1058D00006D0E5CFD8FFE5CFE8FF100005D0E5CF33
:1058E000D8FFE5CFE8FF12001200E8CFE4FFD8CFE1
:1058F000E4FFF2CFE8FF8009E8CFE4FFF29EE0CFBB
:10590000E4FFD9CFE4FFDACFE4FFE9CFE4FFEACF49
:10591000E4FFF5CFE4FFF8CFE4FFF7CFE4FFF6CFE5
:10592000E4FFF4CFE4FFF3CFE4FFFBCFE4FFFACFD3
:10593000E4FFE96AEA6AEECFE4FFEECFE4FFEECFE0
:10594000E4FFEECFE4FFEECFE4FFEECFE4FFEECFD7
:10595000E4FFEECFE4FFEECFE4FFEECFE4FFEECFC7
:10596000E4FFEECFE4FFEECFE4FFEECFE4FFEECFB7
:10597000E4FFEECFE4FFEECFE4FFEECFE4FFEECFA7
:10598000E4FFEFCFE4FFE9CFE4FFEACFE4FFFCCF91
:10599000E9FFFC50000808E2FDCFE4FFFECFE4FF82
:1059A000FFCFE4FF0600F5D7E9CFE4FFE45280C55E
:1059B000E9FF81C5EAFFE1CFEEFFE2CFEEFF9E9463
:1059C0005EEC0BF0000902E0B3EC0CF080C5E9FFDF
:1059D00081C5EAFFEECFE1FFEECFE2FFE5CFE9FFC1
:1059E000E5CFE9FFFC6AE950FC5C08E20500E55000
:1059F000FF6EE550FE6EE550FD6EF5D7E5CFEAFF90
:105A0000E5CFE9FFE5CFEDFFE5CFEDFFE5CFEDFF1A
:105A1000E5CFEDFFE5CFEDFFE5CFEDFFE5CFEDFF06
:105A2000E5CFEDFFE5CFEDFFE5CFEDFFE5CFEDFFF6
:105A3000E5CFEDFFE5CFEDFFE5CFEDFFE5CFEDFFE6
:105A4000E5CFEDFFE5CFEDFFE5CFEDFFE5CFEDFFD6
:105A5000E5CFEFFFE5CFFAFFE5CFFBFFE5CFF3FFA3
:105A6000E5CFF4FFE5CFF6FFE5CFF7FFE5CFF8FF91
:105A7000E5CFF5FFE5CFEAFFE5CFE9FFE5CFDAFFB8
:105A8000E5CFD9FFE5CFE0FFE5CFE8FFE8AE06D0F0
:105A9000E5CFD8FFE5CFE8FF100005D0E5CFD8FF70
:105AA000E5CFE8FF12001200D9CFE6FFDACFE6FF1C
:105AB000E1CFD9FFE2CFDAFF090EE12402E3E1688A
:105AC000E652E16EA00EDE6E0F0EDE6EDE6ADD6A5D
